{
  "_format": "hh-sol-artifact-1",
  "contractName": "MockISustainabilityCoin",
  "sourceName": "contracts/mocks/MockISustainabilityCoin.sol",
  "abi": [
    {
      "inputs": [
        {
          "internalType": "address",
          "name": "account",
          "type": "address"
        }
      ],
      "name": "balanceOf",
      "outputs": [
        {
          "internalType": "uint256",
          "name": "",
          "type": "uint256"
        }
      ],
      "stateMutability": "view",
      "type": "function"
    },
    {
      "inputs": [
        {
          "internalType": "address",
          "name": "to",
          "type": "address"
        },
        {
          "internalType": "uint256",
          "name": "amount",
          "type": "uint256"
        }
      ],
      "name": "mint",
      "outputs": [],
      "stateMutability": "nonpayable",
      "type": "function"
    }
  ],
  "bytecode": "0x608060405234801561001057600080fd5b50610181806100206000396000f3fe608060405234801561001057600080fd5b50600436106100365760003560e01c806340c10f191461003b57806370a0823114610050575b600080fd5b61004e6100493660046100d8565b61008b565b005b61007961005e366004610102565b6001600160a01b031660009081526020819052604090205490565b60405190815260200160405180910390f35b6001600160a01b038216600090815260208190526040812080548392906100b3908490610124565b90915550505050565b80356001600160a01b03811681146100d357600080fd5b919050565b600080604083850312156100eb57600080fd5b6100f4836100bc565b946020939093013593505050565b60006020828403121561011457600080fd5b61011d826100bc565b9392505050565b8082018082111561014557634e487b7160e01b600052601160045260246000fd5b9291505056fea2646970667358221220c441cf130a1827be91515ca5dda9ccc3f2450d841ae84786b8ffc0d9dbbee37f64736f6c63430008150033",
  "linkReferences": {},
  "deployedLinkReferences": {}
}