{
  "_format": "hh-sol-artifact-1",
  "contractName": "SustainabilityCoin",
  "sourceName": "contracts/tokens/SustainabilityCoin.sol",
  "abi": [
    {
      "inputs": [
        {
          "internalType": "uint256",
          "name": "initialSupply",
          "type": "uint256"
        }
      ],
      "stateMutability": "nonpayable",
      "type": "constructor"
    },
    {
      "inputs": [
        {
          "internalType": "address",
          "name": "spender",
          "type": "address"
        },
        {
          "internalType": "uint256",
          "name": "allowance",
          "type": "uint256"
        },
        {
          "internalType": "uint256",
          "name": "needed",
          "type": "uint256"
        }
      ],
      "name": "ERC20InsufficientAllowance",
      "type": "error"
    },
    {
      "inputs": [
        {
          "internalType": "address",
          "name": "sender",
          "type": "address"
        },
        {
          "internalType": "uint256",
          "name": "balance",
          "type": "uint256"
        },
        {
          "internalType": "uint256",
          "name": "needed",
          "type": "uint256"
        }
      ],
      "name": "ERC20InsufficientBalance",
      "type": "error"
    },
    {
      "inputs": [
        {
          "internalType": "address",
          "name": "approver",
          "type": "address"
        }
      ],
      "name": "ERC20InvalidApprover",
      "type": "error"
    },
    {
      "inputs": [
        {
          "internalType": "address",
          "name": "receiver",
          "type": "address"
        }
      ],
      "name": "ERC20InvalidReceiver",
      "type": "error"
    },
    {
      "inputs": [
        {
          "internalType": "address",
          "name": "sender",
          "type": "address"
        }
      ],
      "name": "ERC20InvalidSender",
      "type": "error"
    },
    {
      "inputs": [
        {
          "internalType": "address",
          "name": "spender",
          "type": "address"
        }
      ],
      "name": "ERC20InvalidSpender",
      "type": "error"
    },
    {
      "anonymous": false,
      "inputs": [
        {
          "indexed": true,
          "internalType": "address",
          "name": "owner",
          "type": "address"
        },
        {
          "indexed": true,
          "internalType": "address",
          "name": "spender",
          "type": "address"
        },
        {
          "indexed": false,
          "internalType": "uint256",
          "name": "value",
          "type": "uint256"
        }
      ],
      "name": "Approval",
      "type": "event"
    },
    {
      "anonymous": false,
      "inputs": [
        {
          "indexed": true,
          "internalType": "address",
          "name": "from",
          "type": "address"
        },
        {
          "indexed": true,
          "internalType": "address",
          "name": "to",
          "type": "address"
        },
        {
          "indexed": false,
          "internalType": "uint256",
          "name": "value",
          "type": "uint256"
        }
      ],
      "name": "Transfer",
      "type": "event"
    },
    {
      "inputs": [
        {
          "internalType": "address",
          "name": "minter",
          "type": "address"
        }
      ],
      "name": "addMinter",
      "outputs": [],
      "stateMutability": "nonpayable",
      "type": "function"
    },
    {
      "inputs": [
        {
          "internalType": "address",
          "name": "owner",
          "type": "address"
        },
        {
          "internalType": "address",
          "name": "spender",
          "type": "address"
        }
      ],
      "name": "allowance",
      "outputs": [
        {
          "internalType": "uint256",
          "name": "",
          "type": "uint256"
        }
      ],
      "stateMutability": "view",
      "type": "function"
    },
    {
      "inputs": [
        {
          "internalType": "address",
          "name": "spender",
          "type": "address"
        },
        {
          "internalType": "uint256",
          "name": "value",
          "type": "uint256"
        }
      ],
      "name": "approve",
      "outputs": [
        {
          "internalType": "bool",
          "name": "",
          "type": "bool"
        }
      ],
      "stateMutability": "nonpayable",
      "type": "function"
    },
    {
      "inputs": [],
      "name": "balance",
      "outputs": [
        {
          "internalType": "uint256",
          "name": "",
          "type": "uint256"
        }
      ],
      "stateMutability": "view",
      "type": "function"
    },
    {
      "inputs": [
        {
          "internalType": "address",
          "name": "account",
          "type": "address"
        }
      ],
      "name": "balanceOf",
      "outputs": [
        {
          "internalType": "uint256",
          "name": "",
          "type": "uint256"
        }
      ],
      "stateMutability": "view",
      "type": "function"
    },
    {
      "inputs": [],
      "name": "decimals",
      "outputs": [
        {
          "internalType": "uint8",
          "name": "",
          "type": "uint8"
        }
      ],
      "stateMutability": "view",
      "type": "function"
    },
    {
      "inputs": [
        {
          "internalType": "address",
          "name": "to",
          "type": "address"
        },
        {
          "internalType": "uint256",
          "name": "amount",
          "type": "uint256"
        }
      ],
      "name": "mint",
      "outputs": [],
      "stateMutability": "nonpayable",
      "type": "function"
    },
    {
      "inputs": [],
      "name": "name",
      "outputs": [
        {
          "internalType": "string",
          "name": "",
          "type": "string"
        }
      ],
      "stateMutability": "view",
      "type": "function"
    },
    {
      "inputs": [],
      "name": "owner",
      "outputs": [
        {
          "internalType": "address",
          "name": "",
          "type": "address"
        }
      ],
      "stateMutability": "view",
      "type": "function"
    },
    {
      "inputs": [],
      "name": "symbol",
      "outputs": [
        {
          "internalType": "string",
          "name": "",
          "type": "string"
        }
      ],
      "stateMutability": "view",
      "type": "function"
    },
    {
      "inputs": [],
      "name": "totalSupply",
      "outputs": [
        {
          "internalType": "uint256",
          "name": "",
          "type": "uint256"
        }
      ],
      "stateMutability": "view",
      "type": "function"
    },
    {
      "inputs": [
        {
          "internalType": "address",
          "name": "to",
          "type": "address"
        },
        {
          "internalType": "uint256",
          "name": "value",
          "type": "uint256"
        }
      ],
      "name": "transfer",
      "outputs": [
        {
          "internalType": "bool",
          "name": "",
          "type": "bool"
        }
      ],
      "stateMutability": "nonpayable",
      "type": "function"
    },
    {
      "inputs": [
        {
          "internalType": "address",
          "name": "from",
          "type": "address"
        },
        {
          "internalType": "address",
          "name": "to",
          "type": "address"
        },
        {
          "internalType": "uint256",
          "name": "value",
          "type": "uint256"
        }
      ],
      "name": "transferFrom",
      "outputs": [
        {
          "internalType": "bool",
          "name": "",
          "type": "bool"
        }
      ],
      "stateMutability": "nonpayable",
      "type": "function"
    }
  ],
  "bytecode": "0x60806040523480156200001157600080fd5b5060405162000de138038062000de183398101604081905262000034916200023b565b6040518060400160405280601281526020017129bab9ba30b4b730b134b634ba3ca1b7b4b760711b8152506040518060400160405280600381526020016253555360e81b81525081600390816200008c9190620002fa565b5060046200009b8282620002fa565b5050600580546001600160a01b03191633908117909155620000bf915082620000c6565b50620003ee565b6001600160a01b038216620000f65760405163ec442f0560e01b8152600060048201526024015b60405180910390fd5b620001046000838362000108565b5050565b6001600160a01b038316620001375780600260008282546200012b9190620003c6565b90915550620001ab9050565b6001600160a01b038316600090815260208190526040902054818110156200018c5760405163391434e360e21b81526001600160a01b03851660048201526024810182905260448101839052606401620000ed565b6001600160a01b03841660009081526020819052604090209082900390555b6001600160a01b038216620001c957600280548290039055620001e8565b6001600160a01b03821660009081526020819052604090208054820190555b816001600160a01b0316836001600160a01b03167fddf252ad1be2c89b69c2b068fc378daa952ba7f163c4a11628f55a4df523b3ef836040516200022e91815260200190565b60405180910390a3505050565b6000602082840312156200024e57600080fd5b5051919050565b634e487b7160e01b600052604160045260246000fd5b600181811c908216806200028057607f821691505b602082108103620002a157634e487b7160e01b600052602260045260246000fd5b50919050565b601f821115620002f557600081815260208120601f850160051c81016020861015620002d05750805b601f850160051c820191505b81811015620002f157828155600101620002dc565b5050505b505050565b81516001600160401b0381111562000316576200031662000255565b6200032e816200032784546200026b565b84620002a7565b602080601f8311600181146200036657600084156200034d5750858301515b600019600386901b1c1916600185901b178555620002f1565b600085815260208120601f198616915b82811015620003975788860151825594840194600190910190840162000376565b5085821015620003b65787850151600019600388901b60f8161c191681555b5050505050600190811b01905550565b80820180821115620003e857634e487b7160e01b600052601160045260246000fd5b92915050565b6109e380620003fe6000396000f3fe608060405234801561001057600080fd5b50600436106100cf5760003560e01c806370a082311161008c578063983b2d5611610066578063983b2d56146101ba578063a9059cbb146101cd578063b69ef8a8146101e0578063dd62ed3e146101f557600080fd5b806370a082311461015e5780638da5cb5b1461018757806395d89b41146101b257600080fd5b806306fdde03146100d4578063095ea7b3146100f257806318160ddd1461011557806323b872dd14610127578063313ce5671461013a57806340c10f1914610149575b600080fd5b6100dc61022e565b6040516100e9919061083e565b60405180910390f35b610105610100366004610874565b6102c0565b60405190151581526020016100e9565b6002545b6040519081526020016100e9565b61010561013536600461089e565b6102da565b604051601281526020016100e9565b61015c610157366004610874565b6102fe565b005b61011961016c3660046108da565b6001600160a01b031660009081526020819052604090205490565b60055461019a906001600160a01b031681565b6040516001600160a01b0390911681526020016100e9565b6100dc6103b4565b61015c6101c83660046108da565b6103c3565b6101056101db366004610874565b610454565b33600090815260208190526040902054610119565b6101196102033660046108f5565b6001600160a01b03918216600090815260016020908152604080832093909416825291909152205490565b60606003805461023d90610928565b80601f016020809104026020016040519081016040528092919081815260200182805461026990610928565b80156102b65780601f1061028b576101008083540402835291602001916102b6565b820191906000526020600020905b81548152906001019060200180831161029957829003601f168201915b5050505050905090565b6000336102ce818585610462565b60019150505b92915050565b6000336102e8858285610474565b6102f38585856104f2565b506001949350505050565b3360009081526006602052604090205460ff168061032657506005546001600160a01b031633145b6103705760405162461bcd60e51b8152602060048201526016602482015275139bdd08185d5d1a1bdc9a5e9959081d1bc81b5a5b9d60521b60448201526064015b60405180910390fd5b6103a66040518060400160405280601481526020017336b9b39739b2b73232b910333937b69031b7b4b760611b81525033610551565b6103b08282610596565b5050565b60606004805461023d90610928565b3360009081526006602052604090205460ff16806103eb57506005546001600160a01b031633145b6104305760405162461bcd60e51b8152602060048201526016602482015275139bdd08185d5d1a1bdc9a5e9959081d1bc81b5a5b9d60521b6044820152606401610367565b6001600160a01b03166000908152600660205260409020805460ff19166001179055565b6000336102ce8185856104f2565b61046f83838360016105cc565b505050565b6001600160a01b0383811660009081526001602090815260408083209386168352929052205460001981146104ec57818110156104dd57604051637dc7a0d960e11b81526001600160a01b03841660048201526024810182905260448101839052606401610367565b6104ec848484840360006105cc565b50505050565b6001600160a01b03831661051c57604051634b637e8f60e11b815260006004820152602401610367565b6001600160a01b0382166105465760405163ec442f0560e01b815260006004820152602401610367565b61046f8383836106a1565b6103b08282604051602401610567929190610962565b60408051601f198184030181529190526020810180516001600160e01b031663319af33360e01b1790526107cb565b6001600160a01b0382166105c05760405163ec442f0560e01b815260006004820152602401610367565b6103b0600083836106a1565b6001600160a01b0384166105f65760405163e602df0560e01b815260006004820152602401610367565b6001600160a01b03831661062057604051634a1406b160e11b815260006004820152602401610367565b6001600160a01b03808516600090815260016020908152604080832093871683529290522082905580156104ec57826001600160a01b0316846001600160a01b03167f8c5be1e5ebec7d5bd14f71427d1e84f3dd0314c0f7b2291e5b200ac8c7c3b9258460405161069391815260200190565b60405180910390a350505050565b6001600160a01b0383166106cc5780600260008282546106c1919061098c565b9091555061073e9050565b6001600160a01b0383166000908152602081905260409020548181101561071f5760405163391434e360e21b81526001600160a01b03851660048201526024810182905260448101839052606401610367565b6001600160a01b03841660009081526020819052604090209082900390555b6001600160a01b03821661075a57600280548290039055610779565b6001600160a01b03821660009081526020819052604090208054820190555b816001600160a01b0316836001600160a01b03167fddf252ad1be2c89b69c2b068fc378daa952ba7f163c4a11628f55a4df523b3ef836040516107be91815260200190565b60405180910390a3505050565b6107d4816107d7565b50565b60006a636f6e736f6c652e6c6f679050600080835160208501845afa505050565b6000815180845260005b8181101561081e57602081850181015186830182015201610802565b506000602082860101526020601f19601f83011685010191505092915050565b60208152600061085160208301846107f8565b9392505050565b80356001600160a01b038116811461086f57600080fd5b919050565b6000806040838503121561088757600080fd5b61089083610858565b946020939093013593505050565b6000806000606084860312156108b357600080fd5b6108bc84610858565b92506108ca60208501610858565b9150604084013590509250925092565b6000602082840312156108ec57600080fd5b61085182610858565b6000806040838503121561090857600080fd5b61091183610858565b915061091f60208401610858565b90509250929050565b600181811c9082168061093c57607f821691505b60208210810361095c57634e487b7160e01b600052602260045260246000fd5b50919050565b60408152600061097560408301856107f8565b905060018060a01b03831660208301529392505050565b808201808211156102d457634e487b7160e01b600052601160045260246000fdfea2646970667358221220c7a6e8df81425a0a5390fa2937b4abaf15a6e3dd8b94ef7127719b9c98d9768f64736f6c63430008150033",
  "linkReferences": {},
  "deployedLinkReferences": {}
}