{"contracts/Ecoledger.sol":{"EcoLedger":{"abi":[{"inputs":[{"internalType":"address","name":"target","type":"address"}],"name":"AddressEmptyCode","type":"error"},{"inputs":[{"internalType":"address","name":"implementation","type":"address"}],"name":"ERC1967InvalidImplementation","type":"error"},{"inputs":[],"name":"ERC1967NonPayable","type":"error"},{"inputs":[],"name":"FailedInnerCall","type":"error"},{"inputs":[],"name":"InvalidInitialization","type":"error"},{"inputs":[],"name":"NotInitializing","type":"error"},{"inputs":[{"internalType":"address","name":"owner","type":"address"}],"name":"OwnableInvalidOwner","type":"error"},{"inputs":[{"internalType":"address","name":"account","type":"address"}],"name":"OwnableUnauthorizedAccount","type":"error"},{"inputs":[],"name":"UUPSUnauthorizedCallContext","type":"error"},{"inputs":[{"internalType":"bytes32","name":"slot","type":"bytes32"}],"name":"UUPSUnsupportedProxiableUUID","type":"error"},{"anonymous":false,"inputs":[{"indexed":false,"internalType":"string","name":"name","type":"string"},{"indexed":false,"internalType":"uint256","name":"Annualemissions","type":"uint256"},{"indexed":false,"internalType":"uint256","name":"AnnualWaterusage","type":"uint256"},{"indexed":false,"internalType":"bool","name":"EmissionsReductionProject","type":"bool"},{"indexed":false,"internalType":"bool","name":"Validated","type":"bool"}],"name":"CarbonProjectEvent","type":"event"},{"anonymous":false,"inputs":[{"indexed":true,"internalType":"address","name":"contributor","type":"address"},{"indexed":false,"internalType":"uint256","name":"amount","type":"uint256"}],"name":"Contribution","type":"event"},{"anonymous":false,"inputs":[{"indexed":false,"internalType":"uint64","name":"version","type":"uint64"}],"name":"Initialized","type":"event"},{"anonymous":false,"inputs":[{"indexed":true,"internalType":"uint256","name":"projectId","type":"uint256"},{"indexed":false,"internalType":"uint256","name":"amount","type":"uint256"},{"indexed":true,"internalType":"address","name":"buyer","type":"address"}],"name":"InsurancePurchased","type":"event"},{"anonymous":false,"inputs":[{"indexed":true,"internalType":"address","name":"previousOwner","type":"address"},{"indexed":true,"internalType":"address","name":"newOwner","type":"address"}],"name":"OwnershipTransferred","type":"event"},{"anonymous":false,"inputs":[{"indexed":true,"internalType":"address","name":"implementation","type":"address"}],"name":"Upgraded","type":"event"},{"anonymous":false,"inputs":[{"indexed":false,"internalType":"uint256","name":"amount","type":"uint256"}],"name":"Withdrawal","type":"event"},{"inputs":[],"name":"UPGRADE_INTERFACE_VERSION","outputs":[{"internalType":"string","name":"","type":"string"}],"stateMutability":"view","type":"function"},{"inputs":[{"internalType":"uint256","name":"id","type":"uint256"}],"name":"_calculateTotalPayment","outputs":[{"internalType":"uint256","name":"","type":"uint256"}],"stateMutability":"view","type":"function"},{"inputs":[{"internalType":"uint256","name":"amount","type":"uint256"}],"name":"buySustainabilityCoin","outputs":[],"stateMutability":"payable","type":"function"},{"inputs":[{"internalType":"uint256","name":"","type":"uint256"}],"name":"carbonProjects","outputs":[{"internalType":"uint256","name":"id","type":"uint256"},{"internalType":"string","name":"name","type":"string"},{"internalType":"uint256","name":"Annualemissions","type":"uint256"},{"internalType":"uint256","name":"AnnualWaterusage","type":"uint256"},{"internalType":"bool","name":"EmissionsReductionProject","type":"bool"},{"internalType":"bool","name":"Validated","type":"bool"},{"internalType":"bool","name":"Paid","type":"bool"}],"stateMutability":"view","type":"function"},{"inputs":[{"internalType":"uint256","name":"id","type":"uint256"}],"name":"claimInsurance","outputs":[],"stateMutability":"nonpayable","type":"function"},{"inputs":[{"internalType":"uint256","name":"amount","type":"uint256"}],"name":"contributeTosayNoCarbon","outputs":[],"stateMutability":"payable","type":"function"},{"inputs":[{"internalType":"address","name":"","type":"address"}],"name":"contributions","outputs":[{"internalType":"uint256","name":"","type":"uint256"}],"stateMutability":"view","type":"function"},{"inputs":[],"name":"getAllProjectInsuranceStatus","outputs":[{"internalType":"bool[]","name":"","type":"bool[]"}],"stateMutability":"view","type":"function"},{"inputs":[],"name":"getAllRegisteredProjectIds","outputs":[{"internalType":"uint256[]","name":"","type":"uint256[]"}],"stateMutability":"view","type":"function"},{"inputs":[],"name":"getAllRegisteredProjects","outputs":[{"components":[{"internalType":"uint256","name":"id","type":"uint256"},{"internalType":"string","name":"name","type":"string"},{"internalType":"uint256","name":"Annualemissions","type":"uint256"},{"internalType":"uint256","name":"AnnualWaterusage","type":"uint256"},{"internalType":"bool","name":"EmissionsReductionProject","type":"bool"},{"internalType":"bool","name":"Validated","type":"bool"},{"internalType":"bool","name":"Paid","type":"bool"}],"internalType":"struct EcoLedger.CarbonProject[]","name":"","type":"tuple[]"}],"stateMutability":"view","type":"function"},{"inputs":[{"internalType":"uint256","name":"id","type":"uint256"}],"name":"getFullCarbonProject","outputs":[{"components":[{"internalType":"uint256","name":"id","type":"uint256"},{"internalType":"string","name":"name","type":"string"},{"internalType":"uint256","name":"Annualemissions","type":"uint256"},{"internalType":"uint256","name":"AnnualWaterusage","type":"uint256"},{"internalType":"bool","name":"EmissionsReductionProject","type":"bool"},{"internalType":"bool","name":"Validated","type":"bool"},{"internalType":"bool","name":"Paid","type":"bool"}],"internalType":"struct EcoLedger.CarbonProject","name":"","type":"tuple"}],"stateMutability":"view","type":"function"},{"inputs":[],"name":"getPaidProjectsCount","outputs":[{"internalType":"uint256","name":"","type":"uint256"}],"stateMutability":"view","type":"function"},{"inputs":[{"internalType":"uint256","name":"id","type":"uint256"}],"name":"getProjectEmissionsAndWaterUsage","outputs":[{"internalType":"uint256","name":"emissions","type":"uint256"},{"internalType":"uint256","name":"waterUsage","type":"uint256"}],"stateMutability":"view","type":"function"},{"inputs":[],"name":"getSustainabilityTokenBalance","outputs":[{"internalType":"uint256","name":"","type":"uint256"}],"stateMutability":"view","type":"function"},{"inputs":[],"name":"getTotalContributions","outputs":[{"internalType":"uint256","name":"","type":"uint256"}],"stateMutability":"view","type":"function"},{"inputs":[],"name":"getTotalEmissions","outputs":[{"internalType":"uint256","name":"","type":"uint256"}],"stateMutability":"view","type":"function"},{"inputs":[],"name":"getTotalInsuranceClaims","outputs":[{"internalType":"uint256","name":"","type":"uint256"}],"stateMutability":"view","type":"function"},{"inputs":[],"name":"getTotalInsurancePayments","outputs":[{"internalType":"uint256","name":"","type":"uint256"}],"stateMutability":"view","type":"function"},{"inputs":[],"name":"getTotalWaterUsage","outputs":[{"internalType":"uint256","name":"","type":"uint256"}],"stateMutability":"view","type":"function"},{"inputs":[],"name":"getWithdrawalPercentage","outputs":[{"internalType":"uint256","name":"","type":"uint256"}],"stateMutability":"view","type":"function"},{"inputs":[],"name":"getcarbonProjectsLength","outputs":[{"internalType":"uint256","name":"","type":"uint256"}],"stateMutability":"view","type":"function"},{"inputs":[],"name":"i_owner","outputs":[{"internalType":"address payable","name":"","type":"address"}],"stateMutability":"view","type":"function"},{"inputs":[{"internalType":"address","name":"tokenAddress","type":"address"}],"name":"initialize","outputs":[],"stateMutability":"nonpayable","type":"function"},{"inputs":[{"internalType":"uint256","name":"id","type":"uint256"}],"name":"insurance","outputs":[],"stateMutability":"payable","type":"function"},{"inputs":[],"name":"insurancePercentage","outputs":[{"internalType":"uint256","name":"","type":"uint256"}],"stateMutability":"view","type":"function"},{"inputs":[{"internalType":"uint256","name":"id","type":"uint256"}],"name":"isProjectPaid","outputs":[{"internalType":"bool","name":"","type":"bool"}],"stateMutability":"view","type":"function"},{"inputs":[{"internalType":"uint256","name":"id","type":"uint256"}],"name":"isProjectValidated","outputs":[{"internalType":"bool","name":"","type":"bool"}],"stateMutability":"view","type":"function"},{"inputs":[{"internalType":"uint256","name":"","type":"uint256"}],"name":"isRegistered","outputs":[{"internalType":"bool","name":"","type":"bool"}],"stateMutability":"view","type":"function"},{"inputs":[],"name":"maxAnnualEmissions","outputs":[{"internalType":"uint256","name":"","type":"uint256"}],"stateMutability":"view","type":"function"},{"inputs":[],"name":"maxAnnualWaterUsage","outputs":[{"internalType":"uint256","name":"","type":"uint256"}],"stateMutability":"view","type":"function"},{"inputs":[],"name":"owner","outputs":[{"internalType":"address","name":"","type":"address"}],"stateMutability":"view","type":"function"},{"inputs":[{"internalType":"uint256","name":"id","type":"uint256"}],"name":"payForCarbon","outputs":[],"stateMutability":"payable","type":"function"},{"inputs":[{"internalType":"uint256","name":"amount","type":"uint256"}],"name":"priceOfSustainabilityCoin","outputs":[{"internalType":"uint256","name":"","type":"uint256"}],"stateMutability":"pure","type":"function"},{"inputs":[],"name":"projectId","outputs":[{"internalType":"uint256","name":"","type":"uint256"}],"stateMutability":"view","type":"function"},{"inputs":[],"name":"proxiableUUID","outputs":[{"internalType":"bytes32","name":"","type":"bytes32"}],"stateMutability":"view","type":"function"},{"inputs":[{"internalType":"string","name":"name","type":"string"},{"internalType":"uint256","name":"annualemissions","type":"uint256"},{"internalType":"uint256","name":"annualWaterusage","type":"uint256"},{"internalType":"bool","name":"emissionsReductionProject","type":"bool"}],"name":"registerProject","outputs":[],"stateMutability":"nonpayable","type":"function"},{"inputs":[],"name":"renounceOwnership","outputs":[],"stateMutability":"nonpayable","type":"function"},{"inputs":[{"internalType":"uint256","name":"newMaxEmissions","type":"uint256"},{"internalType":"uint256","name":"newMaxWaterUsage","type":"uint256"}],"name":"setConstraints","outputs":[],"stateMutability":"nonpayable","type":"function"},{"inputs":[{"internalType":"uint256","name":"newPercentage","type":"uint256"}],"name":"setWithdrawalPercentage","outputs":[],"stateMutability":"nonpayable","type":"function"},{"inputs":[],"name":"sustainabilityToken","outputs":[{"internalType":"contract ISustainabilityCoin","name":"","type":"address"}],"stateMutability":"view","type":"function"},{"inputs":[],"name":"totalContributions","outputs":[{"internalType":"uint256","name":"","type":"uint256"}],"stateMutability":"view","type":"function"},{"inputs":[],"name":"totalProjects","outputs":[{"internalType":"uint256","name":"","type":"uint256"}],"stateMutability":"view","type":"function"},{"inputs":[{"internalType":"address","name":"newOwner","type":"address"}],"name":"transferOwnership","outputs":[],"stateMutability":"nonpayable","type":"function"},{"inputs":[{"internalType":"address","name":"newImplementation","type":"address"},{"internalType":"bytes","name":"data","type":"bytes"}],"name":"upgradeToAndCall","outputs":[],"stateMutability":"payable","type":"function"},{"inputs":[{"internalType":"uint256","name":"id","type":"uint256"}],"name":"validateRegisteredProject","outputs":[],"stateMutability":"nonpayable","type":"function"},{"inputs":[],"name":"withdraw","outputs":[],"stateMutability":"nonpayable","type":"function"},{"inputs":[],"name":"withdrawalPercentage","outputs":[{"internalType":"uint256","name":"","type":"uint256"}],"stateMutability":"view","type":"function"}],"evm":{"bytecode":{"linkReferences":{},"object":"60a06040523060805234801561001457600080fd5b5060805161309f61003e600039600081816122ee0152818161231701526124c3015261309f6000f3fe6080604052600436106102885760003560e01c8063724acb1c1161015a578063b1b6b763116100c1578063ddf556d01161007a578063ddf556d01461079f578063e7d17884146107b4578063f2fde38b146107ca578063f44ccbcc146107ea578063f85920d81461080a578063f941f65e1461082a57600080fd5b8063b1b6b763146106d2578063b2ce6bce146106f2578063c4d66de814610712578063cc6ffeff14610732578063d57ca84a1461075f578063dba6335f1461077f57600080fd5b80639b44c143116101135780639b44c143146105f85780639c361e4e1461060d578063a46e873114610623578063ac09ca111461065c578063ad3cb1cc14610672578063af6f997e146106b057600080fd5b8063724acb1c1461052c5780637a0edf181461053f57806384f0f810146105545780638da5cb5b146105745780638ec876e7146105c55780639700e19e146105e557600080fd5b806342e94c90116101fe57806352d1902d116101b757806352d1902d14610486578063579a69881461049b57806368d4aceb146104cb5780636a7ab08e146104e05780636c27b07a14610502578063715018a61461051757600080fd5b806342e94c90146103d457806347c6eb78146104015780634a979d1d146104165780634c1b8b181461042b5780634f1ef2861461045e57806351fef2f21461047157600080fd5b80632c331957116102505780632c3319571461031f57806337c08923146103355780633ccfd60b1461034b5780633fafa127146103605780634098a2a614610376578063417b06e31461038c57600080fd5b806309fd10321461028d5780630ff37681146102b55780631c11342c146102ca5780632057c617146102dd57806325b16419146102fd575b600080fd5b34801561029957600080fd5b506102a261085f565b6040519081526020015b60405180910390f35b6102c86102c3366004612889565b6108a4565b005b6102c86102d8366004612889565b610965565b3480156102e957600080fd5b506102a26102f8366004612889565b610a21565b34801561030957600080fd5b50610312610b6c565b6040516102ac91906128a2565b34801561032b57600080fd5b506102a260055481565b34801561034157600080fd5b506102a260075481565b34801561035757600080fd5b506102c8610c04565b34801561036c57600080fd5b506102a260025481565b34801561038257600080fd5b506102a260065481565b34801561039857600080fd5b506103c46103a7366004612889565b600090815260096020526040902060040154610100900460ff1690565b60405190151581526020016102ac565b3480156103e057600080fd5b506102a26103ef366004612902565b600c6020526000908152604090205481565b34801561040d57600080fd5b506102a2610d12565b34801561042257600080fd5b50600e546102a2565b34801561043757600080fd5b5061044b610446366004612889565b610d58565b6040516102ac979695949392919061296d565b6102c861046c3660046129ca565b610e39565b34801561047d57600080fd5b506005546102a2565b34801561049257600080fd5b506102a2610e58565b3480156104a757600080fd5b506103c46104b6366004612889565b60086020526000908152604090205460ff1681565b3480156104d757600080fd5b506102a2610e75565b3480156104ec57600080fd5b506104f5610ee7565b6040516102ac9190612a8c565b34801561050e57600080fd5b506102a2610f8a565b34801561052357600080fd5b506102c8610fc0565b6102c861053a366004612889565b610fd4565b34801561054b57600080fd5b506102a261118e565b34801561056057600080fd5b506102c861056f366004612ac6565b6111cd565b34801561058057600080fd5b507f9016d09d72d40fdae2fd8ceac6b6234c7706214fd39c1cd1e609a0528c199300546001600160a01b03165b6040516001600160a01b0390911681526020016102ac565b3480156105d157600080fd5b506102c86105e0366004612889565b6111e0565b6102c86105f3366004612889565b61123e565b34801561060457600080fd5b506102a2611458565b34801561061957600080fd5b506102a260015481565b34801561062f57600080fd5b506103c461063e366004612889565b60009081526009602052604090206004015462010000900460ff1690565b34801561066857600080fd5b506102a260035481565b34801561067e57600080fd5b506106a3604051806040016040528060058152602001640352e302e360dc1b81525081565b6040516102ac9190612ae8565b3480156106bc57600080fd5b506106c56114a7565b6040516102ac9190612b5e565b3480156106de57600080fd5b506102a26106ed366004612889565b6115ea565b3480156106fe57600080fd5b506102c861070d366004612889565b61161f565b34801561071e57600080fd5b506102c861072d366004612902565b6117c3565b34801561073e57600080fd5b5061075261074d366004612889565b61190d565b6040516102ac9190612bc0565b34801561076b57600080fd5b506102c861077a366004612bd3565b611aad565b34801561078b57600080fd5b506000546105ad906001600160a01b031681565b3480156107ab57600080fd5b506007546102a2565b3480156107c057600080fd5b506102a260045481565b3480156107d657600080fd5b506102c86107e5366004612902565b611f3c565b3480156107f657600080fd5b50600d546105ad906001600160a01b031681565b34801561081657600080fd5b506102c8610825366004612889565b611f7a565b34801561083657600080fd5b5061084a610845366004612889565b612169565b604080519283526020830191909152016102ac565b600080805b60015481101561089e5760008181526009602052604090206002015461088a9083612c85565b91508061089681612c98565b915050610864565b50919050565b803410156108f05760405162461bcd60e51b8152602060048201526014602482015273125b9cdd59999a58da595b9d081c185e5b595b9d60621b60448201526064015b60405180910390fd5b336000908152600c60205260408120805483929061090f908490612c85565b9250508190555080600760008282546109289190612c85565b909155505060405181815233907f4d154d4aae216bed6d0926db77c00df2b57c6b5ba4eee05775de20facede3a7b9060200160405180910390a250565b6000610970826115ea565b9050803410156109b95760405162461bcd60e51b8152602060048201526014602482015273125b9cdd59999a58da595b9d081c185e5b595b9d60621b60448201526064016108e7565b600d546040516340c10f1960e01b8152336004820152602481018490526001600160a01b03909116906340c10f1990604401600060405180830381600087803b158015610a0557600080fd5b505af1158015610a19573d6000803e3d6000fd5b505050505050565b6000818152600960209081526040808320815160e0810190925280548252600181018054859484019190610a5490612cb1565b80601f0160208091040260200160405190810160405280929190818152602001828054610a8090612cb1565b8015610acd5780601f10610aa257610100808354040283529160200191610acd565b820191906000526020600020905b815481529060010190602001808311610ab057829003601f168201915b505050918352505060028201546020820152600382015460408083019190915260049092015460ff8082161515606084015261010082048116151560808401526201000090910416151560a090910152810151909150600090610b3890670de0b6b3a7640000612ce5565b905060008260600151670de0b6b3a7640000610b549190612ce5565b90506000610b628284612c85565b9695505050505050565b6060600060015467ffffffffffffffff811115610b8b57610b8b6129b4565b604051908082528060200260200182016040528015610bb4578160200160208202803683370190505b50905060005b60015481101561089e576000818152600960205260409020548251839083908110610be757610be7612cfc565b602090810291909101015280610bfc81612c98565b915050610bba565b610c0c612288565b4780610c515760405162461bcd60e51b81526020600482015260146024820152734e6f2066756e647320746f20776974686472617760601b60448201526064016108e7565b6000670de0b6b3a7640000600554610c699190612ce5565b90506000610c778284612ce5565b90506000610c8e670de0b6b3a76400006064612ce5565b90506000610c9c8284612d12565b600080546040519293506001600160a01b03169183156108fc0291849190818181858888f19350505050158015610cd7573d6000803e3d6000fd5b506040518181527f4e70a604b23a8edee2b1d0a656e9b9c00b73ad8bb1afc2c59381ee9f69197de79060200160405180910390a15050505050565b600080805b60015481101561089e576000818152600b602052604090205460ff1615610d465781610d4281612c98565b9250505b80610d5081612c98565b915050610d17565b600e8181548110610d6857600080fd5b60009182526020909120600590910201805460018201805491935090610d8d90612cb1565b80601f0160208091040260200160405190810160405280929190818152602001828054610db990612cb1565b8015610e065780601f10610ddb57610100808354040283529160200191610e06565b820191906000526020600020905b815481529060010190602001808311610de957829003601f168201915b505050600284015460038501546004909501549394909390925060ff808216925061010082048116916201000090041687565b610e416122e3565b610e4a82612388565b610e5482826123f6565b5050565b6000610e626124b8565b5060008051602061304a83398151915290565b600d546040516370a0823160e01b81523060048201526000916001600160a01b0316906370a0823190602401602060405180830381865afa158015610ebe573d6000803e3d6000fd5b505050506040513d601f19601f82011682018060405250810190610ee29190612d34565b905090565b6060600060015467ffffffffffffffff811115610f0657610f066129b4565b604051908082528060200260200182016040528015610f2f578160200160208202803683370190505b50905060005b60015481101561089e576000818152600a6020526040902054825160ff90911690839083908110610f6857610f68612cfc565b9115156020928302919091019091015280610f8281612c98565b915050610f35565b600080805b60015481101561089e57610fa281612501565b610fac9083612c85565b915080610fb881612c98565b915050610f8f565b610fc8612288565b610fd26000612565565b565b60008181526008602052604090205460ff166110025760405162461bcd60e51b81526004016108e790612d4d565b600081815260096020526040902060040154610100900460ff166110385760405162461bcd60e51b81526004016108e790612d82565b60008181526009602052604090206004015462010000900460ff16156110705760405162461bcd60e51b81526004016108e790612dc3565b60008181526009602052604081209061108883610a21565b9050803410156110d25760405162461bcd60e51b815260206004820152601560248201527424b739bab33334b1b4b2b73a103830bcb6b2b73a1760591b60448201526064016108e7565b6000826003015460016110e59190612ce5565b6002808501546110f491612ce5565b6110fe9190612c85565b600085815260096020526040908190206004908101805462ff0000191662010000179055600d5491516340c10f1960e01b81523391810191909152602481018390529192506001600160a01b0316906340c10f1990604401600060405180830381600087803b15801561117057600080fd5b505af1158015611184573d6000803e3d6000fd5b5050505050505050565b600080805b60015481101561089e576000818152600960205260409020600301546111b99083612c85565b9150806111c581612c98565b915050611193565b6111d5612288565b600391909155600455565b6111e8612288565b60648111156112395760405162461bcd60e51b815260206004820152601c60248201527f50657263656e746167652063616e6e6f7420657863656564203130300000000060448201526064016108e7565b600555565b60008181526008602052604090205460ff1661126c5760405162461bcd60e51b81526004016108e790612d4d565b60008181526009602052604090206004015462010000900460ff166112a35760405162461bcd60e51b81526004016108e790612dc3565b600081815260096020526040902060040154610100900460ff166113095760405162461bcd60e51b815260206004820152601d60248201527f546869732070726f6a656374206973206e6f742076616c69646174656400000060448201526064016108e7565b6000818152600a602052604090205460ff16156113685760405162461bcd60e51b815260206004820181905260248201527f746869732069732070726f6a656374206973206e6f7420696e737572616e636560448201526064016108e7565b600061137382612501565b9050803410156113bd5760405162461bcd60e51b815260206004820152601560248201527424b739bab33334b1b4b2b73a103830bcb6b2b73a1760591b60448201526064016108e7565b803411156113fd57336108fc6113d38334612dfa565b6040518115909202916000818181858888f193505050501580156113fb573d6000803e3d6000fd5b505b6000828152600a602052604090819020805460ff1916600117905551339083907fa461e513d2aed580ba148ba370e44d9667f51611a9099cfab56c5369dc5421ae9061144c9085815260200190565b60405180910390a35050565b600080805b60015481101561089e5760008181526009602052604090206004015462010000900460ff1615611495578161149181612c98565b9250505b8061149f81612c98565b91505061145d565b6060600e805480602002602001604051908101604052809291908181526020016000905b828210156115e157838290600052602060002090600502016040518060e00160405290816000820154815260200160018201805461150890612cb1565b80601f016020809104026020016040519081016040528092919081815260200182805461153490612cb1565b80156115815780601f1061155657610100808354040283529160200191611581565b820191906000526020600020905b81548152906001019060200180831161156457829003601f168201915b505050918352505060028201546020808301919091526003830154604083015260049092015460ff8082161515606084015261010082048116151560808401526201000090910416151560a09091015290825260019290920191016114cb565b50505050905090565b6000600181670de0b6b3a7640000806116038487612ce5565b61160d9190612ce5565b6116179190612d12565b949350505050565b611627612288565b60008181526008602052604090205460ff166116555760405162461bcd60e51b81526004016108e790612d4d565b60008181526009602052604090206004015462010000900460ff161561168d5760405162461bcd60e51b81526004016108e790612dc3565b60008181526009602052604090206004810154610100900460ff16156116c55760405162461bcd60e51b81526004016108e790612d82565b60048101805461ff00191661010017905560005b600e548110156117625782600e82815481106116f7576116f7612cfc565b90600052602060002090600502016000015403611750576001600e828154811061172357611723612cfc565b906000526020600020906005020160040160016101000a81548160ff021916908315150217905550611762565b8061175a81612c98565b9150506116d9565b506002810154600382015460048301546040517fc9fc3aa04405be53fb86d02994d4187da48cd546f7dfb4dc3d63a18444ee3796936117b79360018701939192909160ff808216926101009092041690612e0d565b60405180910390a15050565b7ff0c57e16840df040f15088dc2f81fe391c3923bec73e23a9662efc9c229c6a008054600160401b810460ff16159067ffffffffffffffff166000811580156118095750825b905060008267ffffffffffffffff1660011480156118265750303b155b905081158015611834575080155b156118525760405163f92ee8a960e01b815260040160405180910390fd5b845467ffffffffffffffff19166001178555831561187c57845460ff60401b1916600160401b1785555b611885336125d6565b61188d6125e7565b600d80546001600160a01b0319166001600160a01b038816179055612710600355620186a06004556002600555600a6006558315610a1957845460ff60401b19168555604051600181527fc7f505b2f371ae2175ee4913f4499e1f2633a7b5936321eed1cdaeb6115181d2906020015b60405180910390a1505050505050565b6119536040518060e00160405280600081526020016060815260200160008152602001600081526020016000151581526020016000151581526020016000151581525090565b60008281526008602052604090205460ff166119aa5760405162461bcd60e51b8152602060048201526016602482015275141c9bda9958dd081b9bdd081c9959da5cdd195c995960521b60448201526064016108e7565b600960008381526020019081526020016000206040518060e0016040529081600082015481526020016001820180546119e290612cb1565b80601f0160208091040260200160405190810160405280929190818152602001828054611a0e90612cb1565b8015611a5b5780601f10611a3057610100808354040283529160200191611a5b565b820191906000526020600020905b815481529060010190602001808311611a3e57829003601f168201915b5050509183525050600282015460208201526003820154604082015260049091015460ff8082161515606084015261010082048116151560808401526201000090910416151560a09091015292915050565b83611afa5760405162461bcd60e51b815260206004820152601860248201527f4e616d652073686f756c64206e6f7420626520656d707479000000000000000060448201526064016108e7565b6127108310611b635760405162461bcd60e51b815260206004820152602f60248201527f416e6e75616c20656d697373696f6e73206d757374206265206c65737320746860448201526e30b710189816181818103a37b7399760891b60648201526084016108e7565b620186a08210611bd05760405162461bcd60e51b815260206004820152603260248201527f416e6e75616c207761746572207573616765206d757374206e6f74206578636560448201527132b21018981816181818103634ba32b9399760711b60648201526084016108e7565b80611c2f5760405162461bcd60e51b815260206004820152602960248201527f50726f6a656374206d75737420696e636c75646520656d697373696f6e73207260448201526832b23ab1ba34b7b71760b91b60648201526084016108e7565b600860006002546001611c429190612c85565b815260208101919091526040016000205460ff1615611cc95760405162461bcd60e51b815260206004820152603860248201527f726567697374657250726f6a6563743a2d20546869732070726f6a656374204960448201527f4420697320616c726561647920726567697374657265642e000000000000000060648201526084016108e7565b60018054906000611cd983612c98565b909155505060015460028190556040805180820190915260098152681c1c9bda9958dd125960ba1b6020820152611d0f916125ef565b60006040518060e00160405280600254815260200187878080601f016020809104026020016040519081016040528093929190818152602001838380828437600092018290525093855250505060208083018890526040830187905285151560608401526080830182905260a0909201819052600e80546001810182559152825160059091027fbb7b4a454dc3493923482f07822329ed19e8244eff582cc204f8554c3620c3fd810191825591830151929350839290917fbb7b4a454dc3493923482f07822329ed19e8244eff582cc204f8554c3620c3fe0190611df39082612efc565b506040828101516002808401919091556060840151600384015560808401516004909301805460a086015160c0909601511515620100000262ff0000199615156101000261ff00199615159690961661ffff19909216919091179490941794909416929092179092558054600090815260086020908152838220805460ff1916600190811790915592548252600981529290208351815591830151839291820190611e9e9082612efc565b5060408281015160028301556060830151600383015560808301516004909201805460a085015160c0909501511515620100000262ff0000199515156101000261ff00199515159590951661ffff1990921691909117939093179390931691909117909155517fc9fc3aa04405be53fb86d02994d4187da48cd546f7dfb4dc3d63a18444ee3796906118fd9088908890889088908890600090612fbc565b611f44612288565b6001600160a01b038116611f6e57604051631e4fbdf760e01b8152600060048201526024016108e7565b611f7781612565565b50565b60008181526008602052604090205460ff16611fa85760405162461bcd60e51b81526004016108e790612d4d565b60008181526009602052604090206004015462010000900460ff16611fdf5760405162461bcd60e51b81526004016108e790612dc3565b600081815260096020526040902060040154610100900460ff166120455760405162461bcd60e51b815260206004820152601d60248201527f546869732070726f6a656374206973206e6f742076616c69646174656400000060448201526064016108e7565b6000818152600a602052604090205460ff166120a35760405162461bcd60e51b815260206004820181905260248201527f746869732069732070726f6a656374206973206e6f7420696e737572616e636560448201526064016108e7565b6000818152600b602052604090205460ff16156121115760405162461bcd60e51b815260206004820152602660248201527f746869732069732070726f6a65637420636c61696d6564207468652020696e736044820152657572616e636560d01b60648201526084016108e7565b600061211c82612501565b604051909150339082156108fc029083906000818181858888f1935050505015801561214c573d6000803e3d6000fd5b50506000908152600b60205260409020805460ff19166001179055565b6000806000600960008581526020019081526020016000206040518060e0016040529081600082015481526020016001820180546121a690612cb1565b80601f01602080910402602001604051908101604052809291908181526020018280546121d290612cb1565b801561221f5780601f106121f45761010080835404028352916020019161221f565b820191906000526020600020905b81548152906001019060200180831161220257829003601f168201915b505050918352505060028201546020820152600382015460408083019190915260049092015460ff808216151560608085019190915261010083048216151560808501526201000090920416151560a09092019190915290820151910151909590945092505050565b336122ba7f9016d09d72d40fdae2fd8ceac6b6234c7706214fd39c1cd1e609a0528c199300546001600160a01b031690565b6001600160a01b031614610fd25760405163118cdaa760e01b81523360048201526024016108e7565b306001600160a01b037f000000000000000000000000000000000000000000000000000000000000000016148061236a57507f00000000000000000000000000000000000000000000000000000000000000006001600160a01b031661235e60008051602061304a833981519152546001600160a01b031690565b6001600160a01b031614155b15610fd25760405163703e46dd60e11b815260040160405180910390fd5b612390612288565b6001600160a01b038116611f775760405162461bcd60e51b815260206004820152602760248201527f4e657720696d706c656d656e746174696f6e2063616e6e6f74206265206164646044820152667265737328302960c81b60648201526084016108e7565b816001600160a01b03166352d1902d6040518163ffffffff1660e01b8152600401602060405180830381865afa925050508015612450575060408051601f3d908101601f1916820190925261244d91810190612d34565b60015b61247857604051634c9c8ce360e01b81526001600160a01b03831660048201526024016108e7565b60008051602061304a83398151915281146124a957604051632a87526960e21b8152600481018290526024016108e7565b6124b38383612634565b505050565b306001600160a01b037f00000000000000000000000000000000000000000000000000000000000000001614610fd25760405163703e46dd60e11b815260040160405180910390fd5b60008061250d83610a21565b90506000670de0b6b3a76400006006546125279190612ce5565b905060006125358284612ce5565b9050600061254c670de0b6b3a76400006064612ce5565b9050600061255a8284612d12565b979650505050505050565b7f9016d09d72d40fdae2fd8ceac6b6234c7706214fd39c1cd1e609a0528c19930080546001600160a01b031981166001600160a01b03848116918217845560405192169182907f8be0079c531659141344cd1fd0a4f28419497f9722a3daafe3b4186f6b6457e090600090a3505050565b6125de61268a565b611f77816126d3565b610fd261268a565b610e54828260405160240161260592919061300b565b60408051601f198184030181529190526020810180516001600160e01b0316632d839cb360e21b1790526126db565b61263d826126e4565b6040516001600160a01b038316907fbc7cd75a20ee27fd9adebab32041f755214dbc6bffa90cc0225b39da2e5c2d3b90600090a2805115612682576124b38282612749565b610e546127c1565b7ff0c57e16840df040f15088dc2f81fe391c3923bec73e23a9662efc9c229c6a0054600160401b900460ff16610fd257604051631afcd79f60e31b815260040160405180910390fd5b611f4461268a565b611f77816127e0565b806001600160a01b03163b60000361271a57604051634c9c8ce360e01b81526001600160a01b03821660048201526024016108e7565b60008051602061304a83398151915280546001600160a01b0319166001600160a01b0392909216919091179055565b6060600080846001600160a01b031684604051612766919061302d565b600060405180830381855af49150503d80600081146127a1576040519150601f19603f3d011682016040523d82523d6000602084013e6127a6565b606091505b50915091506127b6858383612801565b925050505b92915050565b3415610fd25760405163b398979f60e01b815260040160405180910390fd5b60006a636f6e736f6c652e6c6f679050600080835160208501845afa505050565b6060826128165761281182612860565b612859565b815115801561282d57506001600160a01b0384163b155b1561285657604051639996b31560e01b81526001600160a01b03851660048201526024016108e7565b50805b9392505050565b8051156128705780518082602001fd5b604051630a12f52160e11b815260040160405180910390fd5b60006020828403121561289b57600080fd5b5035919050565b6020808252825182820181905260009190848201906040850190845b818110156128da578351835292840192918401916001016128be565b50909695505050505050565b80356001600160a01b03811681146128fd57600080fd5b919050565b60006020828403121561291457600080fd5b612859826128e6565b60005b83811015612938578181015183820152602001612920565b50506000910152565b6000815180845261295981602086016020860161291d565b601f01601f19169290920160200192915050565b87815260e06020820152600061298660e0830189612941565b60408301979097525060608101949094529115156080840152151560a0830152151560c09091015292915050565b634e487b7160e01b600052604160045260246000fd5b600080604083850312156129dd57600080fd5b6129e6836128e6565b9150602083013567ffffffffffffffff80821115612a0357600080fd5b818501915085601f830112612a1757600080fd5b813581811115612a2957612a296129b4565b604051601f8201601f19908116603f01168101908382118183101715612a5157612a516129b4565b81604052828152886020848701011115612a6a57600080fd5b8260208601602083013760006020848301015280955050505050509250929050565b6020808252825182820181905260009190848201906040850190845b818110156128da578351151583529284019291840191600101612aa8565b60008060408385031215612ad957600080fd5b50508035926020909101359150565b6020815260006128596020830184612941565b805182526000602082015160e06020850152612b1a60e0850182612941565b9050604083015160408501526060830151606085015260808301511515608085015260a0830151151560a085015260c0830151151560c08501528091505092915050565b6000602080830181845280855180835260408601915060408160051b870101925083870160005b82811015612bb357603f19888603018452612ba1858351612afb565b94509285019290850190600101612b85565b5092979650505050505050565b6020815260006128596020830184612afb565b600080600080600060808688031215612beb57600080fd5b853567ffffffffffffffff80821115612c0357600080fd5b818801915088601f830112612c1757600080fd5b813581811115612c2657600080fd5b896020828501011115612c3857600080fd5b6020928301975095505086013592506040860135915060608601358015158114612c6157600080fd5b809150509295509295909350565b634e487b7160e01b600052601160045260246000fd5b808201808211156127bb576127bb612c6f565b600060018201612caa57612caa612c6f565b5060010190565b600181811c90821680612cc557607f821691505b60208210810361089e57634e487b7160e01b600052602260045260246000fd5b80820281158282048414176127bb576127bb612c6f565b634e487b7160e01b600052603260045260246000fd5b600082612d2f57634e487b7160e01b600052601260045260246000fd5b500490565b600060208284031215612d4657600080fd5b5051919050565b6020808252818101527f6869732070726f6a656374204944206973206e6f742072656769737465726564604082015260600190565b60208082526021908201527f546869732070726f6a65637420697320616c72656164792076616c69646174656040820152601960fa1b606082015260800190565b6020808252601c908201527f546869732070726f6a65637420697320616c7265616479205061696400000000604082015260600190565b818103818111156127bb576127bb612c6f565b60a081526000808754612e1f81612cb1565b8060a086015260c0600180841660008114612e415760018114612e5b57612e8c565b60ff1985168884015283151560051b880183019550612e8c565b8c60005260208060002060005b86811015612e835781548b8201870152908401908201612e68565b8a018501975050505b50505050506020830187905260408301869052841515606084015290508215156080830152610b62565b601f8211156124b357600081815260208120601f850160051c81016020861015612edd5750805b601f850160051c820191505b81811015610a1957828155600101612ee9565b815167ffffffffffffffff811115612f1657612f166129b4565b612f2a81612f248454612cb1565b84612eb6565b602080601f831160018114612f5f5760008415612f475750858301515b600019600386901b1c1916600185901b178555610a19565b600085815260208120601f198616915b82811015612f8e57888601518255948401946001909101908401612f6f565b5085821015612fac5787850151600019600388901b60f8161c191681555b5050505050600190811b01905550565b60a081528560a0820152858760c0830137600060c087830181019190915260208201959095526040810193909352901515606083015215156080820152601f909201601f191690910101919050565b60408152600061301e6040830185612941565b90508260208301529392505050565b6000825161303f81846020870161291d565b919091019291505056fe360894a13ba1a3210667c828492db98dca3e2076cc3735a920a3ca505d382bbca2646970667358221220babc32f7fdec48df4ed1822b17c93385a54733af3cf8c834c8e826fe62c8781d64736f6c63430008150033","opcodes":"PUSH1 0xA0 PUSH1 0x40 MSTORE ADDRESS PUSH1 0x80 MSTORE CALLVALUE DUP1 ISZERO PUSH2 0x14 JUMPI PUSH1 0x0 DUP1 REVERT JUMPDEST POP PUSH1 0x80 MLOAD PUSH2 0x309F PUSH2 0x3E PUSH1 0x0 CODECOPY PUSH1 0x0 DUP2 DUP2 PUSH2 0x22EE ADD MSTORE DUP2 DUP2 PUSH2 0x2317 ADD MSTORE PUSH2 0x24C3 ADD MSTORE PUSH2 0x309F PUSH1 0x0 RETURN INVALID PUSH1 0x80 PUSH1 0x40 MSTORE PUSH1 0x4 CALLDATASIZE LT PUSH2 0x288 JUMPI PUSH1 0x0 CALLDATALOAD PUSH1 0xE0 SHR DUP1 PUSH4 0x724ACB1C GT PUSH2 0x15A JUMPI DUP1 PUSH4 0xB1B6B763 GT PUSH2 0xC1 JUMPI DUP1 PUSH4 0xDDF556D0 GT PUSH2 0x7A JUMPI DUP1 PUSH4 0xDDF556D0 EQ PUSH2 0x79F JUMPI DUP1 PUSH4 0xE7D17884 EQ PUSH2 0x7B4 JUMPI DUP1 PUSH4 0xF2FDE38B EQ PUSH2 0x7CA JUMPI DUP1 PUSH4 0xF44CCBCC EQ PUSH2 0x7EA JUMPI DUP1 PUSH4 0xF85920D8 EQ PUSH2 0x80A JUMPI DUP1 PUSH4 0xF941F65E EQ PUSH2 0x82A JUMPI PUSH1 0x0 DUP1 REVERT JUMPDEST DUP1 PUSH4 0xB1B6B763 EQ PUSH2 0x6D2 JUMPI DUP1 PUSH4 0xB2CE6BCE EQ PUSH2 0x6F2 JUMPI DUP1 PUSH4 0xC4D66DE8 EQ PUSH2 0x712 JUMPI DUP1 PUSH4 0xCC6FFEFF EQ PUSH2 0x732 JUMPI DUP1 PUSH4 0xD57CA84A EQ PUSH2 0x75F JUMPI DUP1 PUSH4 0xDBA6335F EQ PUSH2 0x77F JUMPI PUSH1 0x0 DUP1 REVERT JUMPDEST DUP1 PUSH4 0x9B44C143 GT PUSH2 0x113 JUMPI DUP1 PUSH4 0x9B44C143 EQ PUSH2 0x5F8 JUMPI DUP1 PUSH4 0x9C361E4E EQ PUSH2 0x60D JUMPI DUP1 PUSH4 0xA46E8731 EQ PUSH2 0x623 JUMPI DUP1 PUSH4 0xAC09CA11 EQ PUSH2 0x65C JUMPI DUP1 PUSH4 0xAD3CB1CC EQ PUSH2 0x672 JUMPI DUP1 PUSH4 0xAF6F997E EQ PUSH2 0x6B0 JUMPI PUSH1 0x0 DUP1 REVERT JUMPDEST DUP1 PUSH4 0x724ACB1C EQ PUSH2 0x52C JUMPI DUP1 PUSH4 0x7A0EDF18 EQ PUSH2 0x53F JUMPI DUP1 PUSH4 0x84F0F810 EQ PUSH2 0x554 JUMPI DUP1 PUSH4 0x8DA5CB5B EQ PUSH2 0x574 JUMPI DUP1 PUSH4 0x8EC876E7 EQ PUSH2 0x5C5 JUMPI DUP1 PUSH4 0x9700E19E EQ PUSH2 0x5E5 JUMPI PUSH1 0x0 DUP1 REVERT JUMPDEST DUP1 PUSH4 0x42E94C90 GT PUSH2 0x1FE JUMPI DUP1 PUSH4 0x52D1902D GT PUSH2 0x1B7 JUMPI DUP1 PUSH4 0x52D1902D EQ PUSH2 0x486 JUMPI DUP1 PUSH4 0x579A6988 EQ PUSH2 0x49B JUMPI DUP1 PUSH4 0x68D4ACEB EQ PUSH2 0x4CB JUMPI DUP1 PUSH4 0x6A7AB08E EQ PUSH2 0x4E0 JUMPI DUP1 PUSH4 0x6C27B07A EQ PUSH2 0x502 JUMPI DUP1 PUSH4 0x715018A6 EQ PUSH2 0x517 JUMPI PUSH1 0x0 DUP1 REVERT JUMPDEST DUP1 PUSH4 0x42E94C90 EQ PUSH2 0x3D4 JUMPI DUP1 PUSH4 0x47C6EB78 EQ PUSH2 0x401 JUMPI DUP1 PUSH4 0x4A979D1D EQ PUSH2 0x416 JUMPI DUP1 PUSH4 0x4C1B8B18 EQ PUSH2 0x42B JUMPI DUP1 PUSH4 0x4F1EF286 EQ PUSH2 0x45E JUMPI DUP1 PUSH4 0x51FEF2F2 EQ PUSH2 0x471 JUMPI PUSH1 0x0 DUP1 REVERT JUMPDEST DUP1 PUSH4 0x2C331957 GT PUSH2 0x250 JUMPI DUP1 PUSH4 0x2C331957 EQ PUSH2 0x31F JUMPI DUP1 PUSH4 0x37C08923 EQ PUSH2 0x335 JUMPI DUP1 PUSH4 0x3CCFD60B EQ PUSH2 0x34B JUMPI DUP1 PUSH4 0x3FAFA127 EQ PUSH2 0x360 JUMPI DUP1 PUSH4 0x4098A2A6 EQ PUSH2 0x376 JUMPI DUP1 PUSH4 0x417B06E3 EQ PUSH2 0x38C JUMPI PUSH1 0x0 DUP1 REVERT JUMPDEST DUP1 PUSH4 0x9FD1032 EQ PUSH2 0x28D JUMPI DUP1 PUSH4 0xFF37681 EQ PUSH2 0x2B5 JUMPI DUP1 PUSH4 0x1C11342C EQ PUSH2 0x2CA JUMPI DUP1 PUSH4 0x2057C617 EQ PUSH2 0x2DD JUMPI DUP1 PUSH4 0x25B16419 EQ PUSH2 0x2FD JUMPI JUMPDEST PUSH1 0x0 DUP1 REVERT JUMPDEST CALLVALUE DUP1 ISZERO PUSH2 0x299 JUMPI PUSH1 0x0 DUP1 REVERT JUMPDEST POP PUSH2 0x2A2 PUSH2 0x85F JUMP JUMPDEST PUSH1 0x40 MLOAD SWAP1 DUP2 MSTORE PUSH1 0x20 ADD JUMPDEST PUSH1 0x40 MLOAD DUP1 SWAP2 SUB SWAP1 RETURN JUMPDEST PUSH2 0x2C8 PUSH2 0x2C3 CALLDATASIZE PUSH1 0x4 PUSH2 0x2889 JUMP JUMPDEST PUSH2 0x8A4 JUMP JUMPDEST STOP JUMPDEST PUSH2 0x2C8 PUSH2 0x2D8 CALLDATASIZE PUSH1 0x4 PUSH2 0x2889 JUMP JUMPDEST PUSH2 0x965 JUMP JUMPDEST CALLVALUE DUP1 ISZERO PUSH2 0x2E9 JUMPI PUSH1 0x0 DUP1 REVERT JUMPDEST POP PUSH2 0x2A2 PUSH2 0x2F8 CALLDATASIZE PUSH1 0x4 PUSH2 0x2889 JUMP JUMPDEST PUSH2 0xA21 JUMP JUMPDEST CALLVALUE DUP1 ISZERO PUSH2 0x309 JUMPI PUSH1 0x0 DUP1 REVERT JUMPDEST POP PUSH2 0x312 PUSH2 0xB6C JUMP JUMPDEST PUSH1 0x40 MLOAD PUSH2 0x2AC SWAP2 SWAP1 PUSH2 0x28A2 JUMP JUMPDEST CALLVALUE DUP1 ISZERO PUSH2 0x32B JUMPI PUSH1 0x0 DUP1 REVERT JUMPDEST POP PUSH2 0x2A2 PUSH1 0x5 SLOAD DUP2 JUMP JUMPDEST CALLVALUE DUP1 ISZERO PUSH2 0x341 JUMPI PUSH1 0x0 DUP1 REVERT JUMPDEST POP PUSH2 0x2A2 PUSH1 0x7 SLOAD DUP2 JUMP JUMPDEST CALLVALUE DUP1 ISZERO PUSH2 0x357 JUMPI PUSH1 0x0 DUP1 REVERT JUMPDEST POP PUSH2 0x2C8 PUSH2 0xC04 JUMP JUMPDEST CALLVALUE DUP1 ISZERO PUSH2 0x36C JUMPI PUSH1 0x0 DUP1 REVERT JUMPDEST POP PUSH2 0x2A2 PUSH1 0x2 SLOAD DUP2 JUMP JUMPDEST CALLVALUE DUP1 ISZERO PUSH2 0x382 JUMPI PUSH1 0x0 DUP1 REVERT JUMPDEST POP PUSH2 0x2A2 PUSH1 0x6 SLOAD DUP2 JUMP JUMPDEST CALLVALUE DUP1 ISZERO PUSH2 0x398 JUMPI PUSH1 0x0 DUP1 REVERT JUMPDEST POP PUSH2 0x3C4 PUSH2 0x3A7 CALLDATASIZE PUSH1 0x4 PUSH2 0x2889 JUMP JUMPDEST PUSH1 0x0 SWAP1 DUP2 MSTORE PUSH1 0x9 PUSH1 0x20 MSTORE PUSH1 0x40 SWAP1 KECCAK256 PUSH1 0x4 ADD SLOAD PUSH2 0x100 SWAP1 DIV PUSH1 0xFF AND SWAP1 JUMP JUMPDEST PUSH1 0x40 MLOAD SWAP1 ISZERO ISZERO DUP2 MSTORE PUSH1 0x20 ADD PUSH2 0x2AC JUMP JUMPDEST CALLVALUE DUP1 ISZERO PUSH2 0x3E0 JUMPI PUSH1 0x0 DUP1 REVERT JUMPDEST POP PUSH2 0x2A2 PUSH2 0x3EF CALLDATASIZE PUSH1 0x4 PUSH2 0x2902 JUMP JUMPDEST PUSH1 0xC PUSH1 0x20 MSTORE PUSH1 0x0 SWAP1 DUP2 MSTORE PUSH1 0x40 SWAP1 KECCAK256 SLOAD DUP2 JUMP JUMPDEST CALLVALUE DUP1 ISZERO PUSH2 0x40D JUMPI PUSH1 0x0 DUP1 REVERT JUMPDEST POP PUSH2 0x2A2 PUSH2 0xD12 JUMP JUMPDEST CALLVALUE DUP1 ISZERO PUSH2 0x422 JUMPI PUSH1 0x0 DUP1 REVERT JUMPDEST POP PUSH1 0xE SLOAD PUSH2 0x2A2 JUMP JUMPDEST CALLVALUE DUP1 ISZERO PUSH2 0x437 JUMPI PUSH1 0x0 DUP1 REVERT JUMPDEST POP PUSH2 0x44B PUSH2 0x446 CALLDATASIZE PUSH1 0x4 PUSH2 0x2889 JUMP JUMPDEST PUSH2 0xD58 JUMP JUMPDEST PUSH1 0x40 MLOAD PUSH2 0x2AC SWAP8 SWAP7 SWAP6 SWAP5 SWAP4 SWAP3 SWAP2 SWAP1 PUSH2 0x296D JUMP JUMPDEST PUSH2 0x2C8 PUSH2 0x46C CALLDATASIZE PUSH1 0x4 PUSH2 0x29CA JUMP JUMPDEST PUSH2 0xE39 JUMP JUMPDEST CALLVALUE DUP1 ISZERO PUSH2 0x47D JUMPI PUSH1 0x0 DUP1 REVERT JUMPDEST POP PUSH1 0x5 SLOAD PUSH2 0x2A2 JUMP JUMPDEST CALLVALUE DUP1 ISZERO PUSH2 0x492 JUMPI PUSH1 0x0 DUP1 REVERT JUMPDEST POP PUSH2 0x2A2 PUSH2 0xE58 JUMP JUMPDEST CALLVALUE DUP1 ISZERO PUSH2 0x4A7 JUMPI PUSH1 0x0 DUP1 REVERT JUMPDEST POP PUSH2 0x3C4 PUSH2 0x4B6 CALLDATASIZE PUSH1 0x4 PUSH2 0x2889 JUMP JUMPDEST PUSH1 0x8 PUSH1 0x20 MSTORE PUSH1 0x0 SWAP1 DUP2 MSTORE PUSH1 0x40 SWAP1 KECCAK256 SLOAD PUSH1 0xFF AND DUP2 JUMP JUMPDEST CALLVALUE DUP1 ISZERO PUSH2 0x4D7 JUMPI PUSH1 0x0 DUP1 REVERT JUMPDEST POP PUSH2 0x2A2 PUSH2 0xE75 JUMP JUMPDEST CALLVALUE DUP1 ISZERO PUSH2 0x4EC JUMPI PUSH1 0x0 DUP1 REVERT JUMPDEST POP PUSH2 0x4F5 PUSH2 0xEE7 JUMP JUMPDEST PUSH1 0x40 MLOAD PUSH2 0x2AC SWAP2 SWAP1 PUSH2 0x2A8C JUMP JUMPDEST CALLVALUE DUP1 ISZERO PUSH2 0x50E JUMPI PUSH1 0x0 DUP1 REVERT JUMPDEST POP PUSH2 0x2A2 PUSH2 0xF8A JUMP JUMPDEST CALLVALUE DUP1 ISZERO PUSH2 0x523 JUMPI PUSH1 0x0 DUP1 REVERT JUMPDEST POP PUSH2 0x2C8 PUSH2 0xFC0 JUMP JUMPDEST PUSH2 0x2C8 PUSH2 0x53A CALLDATASIZE PUSH1 0x4 PUSH2 0x2889 JUMP JUMPDEST PUSH2 0xFD4 JUMP JUMPDEST CALLVALUE DUP1 ISZERO PUSH2 0x54B JUMPI PUSH1 0x0 DUP1 REVERT JUMPDEST POP PUSH2 0x2A2 PUSH2 0x118E JUMP JUMPDEST CALLVALUE DUP1 ISZERO PUSH2 0x560 JUMPI PUSH1 0x0 DUP1 REVERT JUMPDEST POP PUSH2 0x2C8 PUSH2 0x56F CALLDATASIZE PUSH1 0x4 PUSH2 0x2AC6 JUMP JUMPDEST PUSH2 0x11CD JUMP JUMPDEST CALLVALUE DUP1 ISZERO PUSH2 0x580 JUMPI PUSH1 0x0 DUP1 REVERT JUMPDEST POP PUSH32 0x9016D09D72D40FDAE2FD8CEAC6B6234C7706214FD39C1CD1E609A0528C199300 SLOAD PUSH1 0x1 PUSH1 0x1 PUSH1 0xA0 SHL SUB AND JUMPDEST PUSH1 0x40 MLOAD PUSH1 0x1 PUSH1 0x1 PUSH1 0xA0 SHL SUB SWAP1 SWAP2 AND DUP2 MSTORE PUSH1 0x20 ADD PUSH2 0x2AC JUMP JUMPDEST CALLVALUE DUP1 ISZERO PUSH2 0x5D1 JUMPI PUSH1 0x0 DUP1 REVERT JUMPDEST POP PUSH2 0x2C8 PUSH2 0x5E0 CALLDATASIZE PUSH1 0x4 PUSH2 0x2889 JUMP JUMPDEST PUSH2 0x11E0 JUMP JUMPDEST PUSH2 0x2C8 PUSH2 0x5F3 CALLDATASIZE PUSH1 0x4 PUSH2 0x2889 JUMP JUMPDEST PUSH2 0x123E JUMP JUMPDEST CALLVALUE DUP1 ISZERO PUSH2 0x604 JUMPI PUSH1 0x0 DUP1 REVERT JUMPDEST POP PUSH2 0x2A2 PUSH2 0x1458 JUMP JUMPDEST CALLVALUE DUP1 ISZERO PUSH2 0x619 JUMPI PUSH1 0x0 DUP1 REVERT JUMPDEST POP PUSH2 0x2A2 PUSH1 0x1 SLOAD DUP2 JUMP JUMPDEST CALLVALUE DUP1 ISZERO PUSH2 0x62F JUMPI PUSH1 0x0 DUP1 REVERT JUMPDEST POP PUSH2 0x3C4 PUSH2 0x63E CALLDATASIZE PUSH1 0x4 PUSH2 0x2889 JUMP JUMPDEST PUSH1 0x0 SWAP1 DUP2 MSTORE PUSH1 0x9 PUSH1 0x20 MSTORE PUSH1 0x40 SWAP1 KECCAK256 PUSH1 0x4 ADD SLOAD PUSH3 0x10000 SWAP1 DIV PUSH1 0xFF AND SWAP1 JUMP JUMPDEST CALLVALUE DUP1 ISZERO PUSH2 0x668 JUMPI PUSH1 0x0 DUP1 REVERT JUMPDEST POP PUSH2 0x2A2 PUSH1 0x3 SLOAD DUP2 JUMP JUMPDEST CALLVALUE DUP1 ISZERO PUSH2 0x67E JUMPI PUSH1 0x0 DUP1 REVERT JUMPDEST POP PUSH2 0x6A3 PUSH1 0x40 MLOAD DUP1 PUSH1 0x40 ADD PUSH1 0x40 MSTORE DUP1 PUSH1 0x5 DUP2 MSTORE PUSH1 0x20 ADD PUSH5 0x352E302E3 PUSH1 0xDC SHL DUP2 MSTORE POP DUP2 JUMP JUMPDEST PUSH1 0x40 MLOAD PUSH2 0x2AC SWAP2 SWAP1 PUSH2 0x2AE8 JUMP JUMPDEST CALLVALUE DUP1 ISZERO PUSH2 0x6BC JUMPI PUSH1 0x0 DUP1 REVERT JUMPDEST POP PUSH2 0x6C5 PUSH2 0x14A7 JUMP JUMPDEST PUSH1 0x40 MLOAD PUSH2 0x2AC SWAP2 SWAP1 PUSH2 0x2B5E JUMP JUMPDEST CALLVALUE DUP1 ISZERO PUSH2 0x6DE JUMPI PUSH1 0x0 DUP1 REVERT JUMPDEST POP PUSH2 0x2A2 PUSH2 0x6ED CALLDATASIZE PUSH1 0x4 PUSH2 0x2889 JUMP JUMPDEST PUSH2 0x15EA JUMP JUMPDEST CALLVALUE DUP1 ISZERO PUSH2 0x6FE JUMPI PUSH1 0x0 DUP1 REVERT JUMPDEST POP PUSH2 0x2C8 PUSH2 0x70D CALLDATASIZE PUSH1 0x4 PUSH2 0x2889 JUMP JUMPDEST PUSH2 0x161F JUMP JUMPDEST CALLVALUE DUP1 ISZERO PUSH2 0x71E JUMPI PUSH1 0x0 DUP1 REVERT JUMPDEST POP PUSH2 0x2C8 PUSH2 0x72D CALLDATASIZE PUSH1 0x4 PUSH2 0x2902 JUMP JUMPDEST PUSH2 0x17C3 JUMP JUMPDEST CALLVALUE DUP1 ISZERO PUSH2 0x73E JUMPI PUSH1 0x0 DUP1 REVERT JUMPDEST POP PUSH2 0x752 PUSH2 0x74D CALLDATASIZE PUSH1 0x4 PUSH2 0x2889 JUMP JUMPDEST PUSH2 0x190D JUMP JUMPDEST PUSH1 0x40 MLOAD PUSH2 0x2AC SWAP2 SWAP1 PUSH2 0x2BC0 JUMP JUMPDEST CALLVALUE DUP1 ISZERO PUSH2 0x76B JUMPI PUSH1 0x0 DUP1 REVERT JUMPDEST POP PUSH2 0x2C8 PUSH2 0x77A CALLDATASIZE PUSH1 0x4 PUSH2 0x2BD3 JUMP JUMPDEST PUSH2 0x1AAD JUMP JUMPDEST CALLVALUE DUP1 ISZERO PUSH2 0x78B JUMPI PUSH1 0x0 DUP1 REVERT JUMPDEST POP PUSH1 0x0 SLOAD PUSH2 0x5AD SWAP1 PUSH1 0x1 PUSH1 0x1 PUSH1 0xA0 SHL SUB AND DUP2 JUMP JUMPDEST CALLVALUE DUP1 ISZERO PUSH2 0x7AB JUMPI PUSH1 0x0 DUP1 REVERT JUMPDEST POP PUSH1 0x7 SLOAD PUSH2 0x2A2 JUMP JUMPDEST CALLVALUE DUP1 ISZERO PUSH2 0x7C0 JUMPI PUSH1 0x0 DUP1 REVERT JUMPDEST POP PUSH2 0x2A2 PUSH1 0x4 SLOAD DUP2 JUMP JUMPDEST CALLVALUE DUP1 ISZERO PUSH2 0x7D6 JUMPI PUSH1 0x0 DUP1 REVERT JUMPDEST POP PUSH2 0x2C8 PUSH2 0x7E5 CALLDATASIZE PUSH1 0x4 PUSH2 0x2902 JUMP JUMPDEST PUSH2 0x1F3C JUMP JUMPDEST CALLVALUE DUP1 ISZERO PUSH2 0x7F6 JUMPI PUSH1 0x0 DUP1 REVERT JUMPDEST POP PUSH1 0xD SLOAD PUSH2 0x5AD SWAP1 PUSH1 0x1 PUSH1 0x1 PUSH1 0xA0 SHL SUB AND DUP2 JUMP JUMPDEST CALLVALUE DUP1 ISZERO PUSH2 0x816 JUMPI PUSH1 0x0 DUP1 REVERT JUMPDEST POP PUSH2 0x2C8 PUSH2 0x825 CALLDATASIZE PUSH1 0x4 PUSH2 0x2889 JUMP JUMPDEST PUSH2 0x1F7A JUMP JUMPDEST CALLVALUE DUP1 ISZERO PUSH2 0x836 JUMPI PUSH1 0x0 DUP1 REVERT JUMPDEST POP PUSH2 0x84A PUSH2 0x845 CALLDATASIZE PUSH1 0x4 PUSH2 0x2889 JUMP JUMPDEST PUSH2 0x2169 JUMP JUMPDEST PUSH1 0x40 DUP1 MLOAD SWAP3 DUP4 MSTORE PUSH1 0x20 DUP4 ADD SWAP2 SWAP1 SWAP2 MSTORE ADD PUSH2 0x2AC JUMP JUMPDEST PUSH1 0x0 DUP1 DUP1 JUMPDEST PUSH1 0x1 SLOAD DUP2 LT ISZERO PUSH2 0x89E JUMPI PUSH1 0x0 DUP2 DUP2 MSTORE PUSH1 0x9 PUSH1 0x20 MSTORE PUSH1 0x40 SWAP1 KECCAK256 PUSH1 0x2 ADD SLOAD PUSH2 0x88A SWAP1 DUP4 PUSH2 0x2C85 JUMP JUMPDEST SWAP2 POP DUP1 PUSH2 0x896 DUP2 PUSH2 0x2C98 JUMP JUMPDEST SWAP2 POP POP PUSH2 0x864 JUMP JUMPDEST POP SWAP2 SWAP1 POP JUMP JUMPDEST DUP1 CALLVALUE LT ISZERO PUSH2 0x8F0 JUMPI PUSH1 0x40 MLOAD PUSH3 0x461BCD PUSH1 0xE5 SHL DUP2 MSTORE PUSH1 0x20 PUSH1 0x4 DUP3 ADD MSTORE PUSH1 0x14 PUSH1 0x24 DUP3 ADD MSTORE PUSH20 0x125B9CDD59999A58DA595B9D081C185E5B595B9D PUSH1 0x62 SHL PUSH1 0x44 DUP3 ADD MSTORE PUSH1 0x64 ADD JUMPDEST PUSH1 0x40 MLOAD DUP1 SWAP2 SUB SWAP1 REVERT JUMPDEST CALLER PUSH1 0x0 SWAP1 DUP2 MSTORE PUSH1 0xC PUSH1 0x20 MSTORE PUSH1 0x40 DUP2 KECCAK256 DUP1 SLOAD DUP4 SWAP3 SWAP1 PUSH2 0x90F SWAP1 DUP5 SWAP1 PUSH2 0x2C85 JUMP JUMPDEST SWAP3 POP POP DUP2 SWAP1 SSTORE POP DUP1 PUSH1 0x7 PUSH1 0x0 DUP3 DUP3 SLOAD PUSH2 0x928 SWAP2 SWAP1 PUSH2 0x2C85 JUMP JUMPDEST SWAP1 SWAP2 SSTORE POP POP PUSH1 0x40 MLOAD DUP2 DUP2 MSTORE CALLER SWAP1 PUSH32 0x4D154D4AAE216BED6D0926DB77C00DF2B57C6B5BA4EEE05775DE20FACEDE3A7B SWAP1 PUSH1 0x20 ADD PUSH1 0x40 MLOAD DUP1 SWAP2 SUB SWAP1 LOG2 POP JUMP JUMPDEST PUSH1 0x0 PUSH2 0x970 DUP3 PUSH2 0x15EA JUMP JUMPDEST SWAP1 POP DUP1 CALLVALUE LT ISZERO PUSH2 0x9B9 JUMPI PUSH1 0x40 MLOAD PUSH3 0x461BCD PUSH1 0xE5 SHL DUP2 MSTORE PUSH1 0x20 PUSH1 0x4 DUP3 ADD MSTORE PUSH1 0x14 PUSH1 0x24 DUP3 ADD MSTORE PUSH20 0x125B9CDD59999A58DA595B9D081C185E5B595B9D PUSH1 0x62 SHL PUSH1 0x44 DUP3 ADD MSTORE PUSH1 0x64 ADD PUSH2 0x8E7 JUMP JUMPDEST PUSH1 0xD SLOAD PUSH1 0x40 MLOAD PUSH4 0x40C10F19 PUSH1 0xE0 SHL DUP2 MSTORE CALLER PUSH1 0x4 DUP3 ADD MSTORE PUSH1 0x24 DUP2 ADD DUP5 SWAP1 MSTORE PUSH1 0x1 PUSH1 0x1 PUSH1 0xA0 SHL SUB SWAP1 SWAP2 AND SWAP1 PUSH4 0x40C10F19 SWAP1 PUSH1 0x44 ADD PUSH1 0x0 PUSH1 0x40 MLOAD DUP1 DUP4 SUB DUP2 PUSH1 0x0 DUP8 DUP1 EXTCODESIZE ISZERO DUP1 ISZERO PUSH2 0xA05 JUMPI PUSH1 0x0 DUP1 REVERT JUMPDEST POP GAS CALL ISZERO DUP1 ISZERO PUSH2 0xA19 JUMPI RETURNDATASIZE PUSH1 0x0 DUP1 RETURNDATACOPY RETURNDATASIZE PUSH1 0x0 REVERT JUMPDEST POP POP POP POP POP POP JUMP JUMPDEST PUSH1 0x0 DUP2 DUP2 MSTORE PUSH1 0x9 PUSH1 0x20 SWAP1 DUP2 MSTORE PUSH1 0x40 DUP1 DUP4 KECCAK256 DUP2 MLOAD PUSH1 0xE0 DUP2 ADD SWAP1 SWAP3 MSTORE DUP1 SLOAD DUP3 MSTORE PUSH1 0x1 DUP2 ADD DUP1 SLOAD DUP6 SWAP5 DUP5 ADD SWAP2 SWAP1 PUSH2 0xA54 SWAP1 PUSH2 0x2CB1 JUMP JUMPDEST DUP1 PUSH1 0x1F ADD PUSH1 0x20 DUP1 SWAP2 DIV MUL PUSH1 0x20 ADD PUSH1 0x40 MLOAD SWAP1 DUP2 ADD PUSH1 0x40 MSTORE DUP1 SWAP3 SWAP2 SWAP1 DUP2 DUP2 MSTORE PUSH1 0x20 ADD DUP3 DUP1 SLOAD PUSH2 0xA80 SWAP1 PUSH2 0x2CB1 JUMP JUMPDEST DUP1 ISZERO PUSH2 0xACD JUMPI DUP1 PUSH1 0x1F LT PUSH2 0xAA2 JUMPI PUSH2 0x100 DUP1 DUP4 SLOAD DIV MUL DUP4 MSTORE SWAP2 PUSH1 0x20 ADD SWAP2 PUSH2 0xACD JUMP JUMPDEST DUP3 ADD SWAP2 SWAP1 PUSH1 0x0 MSTORE PUSH1 0x20 PUSH1 0x0 KECCAK256 SWAP1 JUMPDEST DUP2 SLOAD DUP2 MSTORE SWAP1 PUSH1 0x1 ADD SWAP1 PUSH1 0x20 ADD DUP1 DUP4 GT PUSH2 0xAB0 JUMPI DUP3 SWAP1 SUB PUSH1 0x1F AND DUP3 ADD SWAP2 JUMPDEST POP POP POP SWAP2 DUP4 MSTORE POP POP PUSH1 0x2 DUP3 ADD SLOAD PUSH1 0x20 DUP3 ADD MSTORE PUSH1 0x3 DUP3 ADD SLOAD PUSH1 0x40 DUP1 DUP4 ADD SWAP2 SWAP1 SWAP2 MSTORE PUSH1 0x4 SWAP1 SWAP3 ADD SLOAD PUSH1 0xFF DUP1 DUP3 AND ISZERO ISZERO PUSH1 0x60 DUP5 ADD MSTORE PUSH2 0x100 DUP3 DIV DUP2 AND ISZERO ISZERO PUSH1 0x80 DUP5 ADD MSTORE PUSH3 0x10000 SWAP1 SWAP2 DIV AND ISZERO ISZERO PUSH1 0xA0 SWAP1 SWAP2 ADD MSTORE DUP2 ADD MLOAD SWAP1 SWAP2 POP PUSH1 0x0 SWAP1 PUSH2 0xB38 SWAP1 PUSH8 0xDE0B6B3A7640000 PUSH2 0x2CE5 JUMP JUMPDEST SWAP1 POP PUSH1 0x0 DUP3 PUSH1 0x60 ADD MLOAD PUSH8 0xDE0B6B3A7640000 PUSH2 0xB54 SWAP2 SWAP1 PUSH2 0x2CE5 JUMP JUMPDEST SWAP1 POP PUSH1 0x0 PUSH2 0xB62 DUP3 DUP5 PUSH2 0x2C85 JUMP JUMPDEST SWAP7 SWAP6 POP POP POP POP POP POP JUMP JUMPDEST PUSH1 0x60 PUSH1 0x0 PUSH1 0x1 SLOAD PUSH8 0xFFFFFFFFFFFFFFFF DUP2 GT ISZERO PUSH2 0xB8B JUMPI PUSH2 0xB8B PUSH2 0x29B4 JUMP JUMPDEST PUSH1 0x40 MLOAD SWAP1 DUP1 DUP3 MSTORE DUP1 PUSH1 0x20 MUL PUSH1 0x20 ADD DUP3 ADD PUSH1 0x40 MSTORE DUP1 ISZERO PUSH2 0xBB4 JUMPI DUP2 PUSH1 0x20 ADD PUSH1 0x20 DUP3 MUL DUP1 CALLDATASIZE DUP4 CALLDATACOPY ADD SWAP1 POP JUMPDEST POP SWAP1 POP PUSH1 0x0 JUMPDEST PUSH1 0x1 SLOAD DUP2 LT ISZERO PUSH2 0x89E JUMPI PUSH1 0x0 DUP2 DUP2 MSTORE PUSH1 0x9 PUSH1 0x20 MSTORE PUSH1 0x40 SWAP1 KECCAK256 SLOAD DUP3 MLOAD DUP4 SWAP1 DUP4 SWAP1 DUP2 LT PUSH2 0xBE7 JUMPI PUSH2 0xBE7 PUSH2 0x2CFC JUMP JUMPDEST PUSH1 0x20 SWAP1 DUP2 MUL SWAP2 SWAP1 SWAP2 ADD ADD MSTORE DUP1 PUSH2 0xBFC DUP2 PUSH2 0x2C98 JUMP JUMPDEST SWAP2 POP POP PUSH2 0xBBA JUMP JUMPDEST PUSH2 0xC0C PUSH2 0x2288 JUMP JUMPDEST SELFBALANCE DUP1 PUSH2 0xC51 JUMPI PUSH1 0x40 MLOAD PUSH3 0x461BCD PUSH1 0xE5 SHL DUP2 MSTORE PUSH1 0x20 PUSH1 0x4 DUP3 ADD MSTORE PUSH1 0x14 PUSH1 0x24 DUP3 ADD MSTORE PUSH20 0x4E6F2066756E647320746F207769746864726177 PUSH1 0x60 SHL PUSH1 0x44 DUP3 ADD MSTORE PUSH1 0x64 ADD PUSH2 0x8E7 JUMP JUMPDEST PUSH1 0x0 PUSH8 0xDE0B6B3A7640000 PUSH1 0x5 SLOAD PUSH2 0xC69 SWAP2 SWAP1 PUSH2 0x2CE5 JUMP JUMPDEST SWAP1 POP PUSH1 0x0 PUSH2 0xC77 DUP3 DUP5 PUSH2 0x2CE5 JUMP JUMPDEST SWAP1 POP PUSH1 0x0 PUSH2 0xC8E PUSH8 0xDE0B6B3A7640000 PUSH1 0x64 PUSH2 0x2CE5 JUMP JUMPDEST SWAP1 POP PUSH1 0x0 PUSH2 0xC9C DUP3 DUP5 PUSH2 0x2D12 JUMP JUMPDEST PUSH1 0x0 DUP1 SLOAD PUSH1 0x40 MLOAD SWAP3 SWAP4 POP PUSH1 0x1 PUSH1 0x1 PUSH1 0xA0 SHL SUB AND SWAP2 DUP4 ISZERO PUSH2 0x8FC MUL SWAP2 DUP5 SWAP2 SWAP1 DUP2 DUP2 DUP2 DUP6 DUP9 DUP9 CALL SWAP4 POP POP POP POP ISZERO DUP1 ISZERO PUSH2 0xCD7 JUMPI RETURNDATASIZE PUSH1 0x0 DUP1 RETURNDATACOPY RETURNDATASIZE PUSH1 0x0 REVERT JUMPDEST POP PUSH1 0x40 MLOAD DUP2 DUP2 MSTORE PUSH32 0x4E70A604B23A8EDEE2B1D0A656E9B9C00B73AD8BB1AFC2C59381EE9F69197DE7 SWAP1 PUSH1 0x20 ADD PUSH1 0x40 MLOAD DUP1 SWAP2 SUB SWAP1 LOG1 POP POP POP POP POP JUMP JUMPDEST PUSH1 0x0 DUP1 DUP1 JUMPDEST PUSH1 0x1 SLOAD DUP2 LT ISZERO PUSH2 0x89E JUMPI PUSH1 0x0 DUP2 DUP2 MSTORE PUSH1 0xB PUSH1 0x20 MSTORE PUSH1 0x40 SWAP1 KECCAK256 SLOAD PUSH1 0xFF AND ISZERO PUSH2 0xD46 JUMPI DUP2 PUSH2 0xD42 DUP2 PUSH2 0x2C98 JUMP JUMPDEST SWAP3 POP POP JUMPDEST DUP1 PUSH2 0xD50 DUP2 PUSH2 0x2C98 JUMP JUMPDEST SWAP2 POP POP PUSH2 0xD17 JUMP JUMPDEST PUSH1 0xE DUP2 DUP2 SLOAD DUP2 LT PUSH2 0xD68 JUMPI PUSH1 0x0 DUP1 REVERT JUMPDEST PUSH1 0x0 SWAP2 DUP3 MSTORE PUSH1 0x20 SWAP1 SWAP2 KECCAK256 PUSH1 0x5 SWAP1 SWAP2 MUL ADD DUP1 SLOAD PUSH1 0x1 DUP3 ADD DUP1 SLOAD SWAP2 SWAP4 POP SWAP1 PUSH2 0xD8D SWAP1 PUSH2 0x2CB1 JUMP JUMPDEST DUP1 PUSH1 0x1F ADD PUSH1 0x20 DUP1 SWAP2 DIV MUL PUSH1 0x20 ADD PUSH1 0x40 MLOAD SWAP1 DUP2 ADD PUSH1 0x40 MSTORE DUP1 SWAP3 SWAP2 SWAP1 DUP2 DUP2 MSTORE PUSH1 0x20 ADD DUP3 DUP1 SLOAD PUSH2 0xDB9 SWAP1 PUSH2 0x2CB1 JUMP JUMPDEST DUP1 ISZERO PUSH2 0xE06 JUMPI DUP1 PUSH1 0x1F LT PUSH2 0xDDB JUMPI PUSH2 0x100 DUP1 DUP4 SLOAD DIV MUL DUP4 MSTORE SWAP2 PUSH1 0x20 ADD SWAP2 PUSH2 0xE06 JUMP JUMPDEST DUP3 ADD SWAP2 SWAP1 PUSH1 0x0 MSTORE PUSH1 0x20 PUSH1 0x0 KECCAK256 SWAP1 JUMPDEST DUP2 SLOAD DUP2 MSTORE SWAP1 PUSH1 0x1 ADD SWAP1 PUSH1 0x20 ADD DUP1 DUP4 GT PUSH2 0xDE9 JUMPI DUP3 SWAP1 SUB PUSH1 0x1F AND DUP3 ADD SWAP2 JUMPDEST POP POP POP PUSH1 0x2 DUP5 ADD SLOAD PUSH1 0x3 DUP6 ADD SLOAD PUSH1 0x4 SWAP1 SWAP6 ADD SLOAD SWAP4 SWAP5 SWAP1 SWAP4 SWAP1 SWAP3 POP PUSH1 0xFF DUP1 DUP3 AND SWAP3 POP PUSH2 0x100 DUP3 DIV DUP2 AND SWAP2 PUSH3 0x10000 SWAP1 DIV AND DUP8 JUMP JUMPDEST PUSH2 0xE41 PUSH2 0x22E3 JUMP JUMPDEST PUSH2 0xE4A DUP3 PUSH2 0x2388 JUMP JUMPDEST PUSH2 0xE54 DUP3 DUP3 PUSH2 0x23F6 JUMP JUMPDEST POP POP JUMP JUMPDEST PUSH1 0x0 PUSH2 0xE62 PUSH2 0x24B8 JUMP JUMPDEST POP PUSH1 0x0 DUP1 MLOAD PUSH1 0x20 PUSH2 0x304A DUP4 CODECOPY DUP2 MLOAD SWAP2 MSTORE SWAP1 JUMP JUMPDEST PUSH1 0xD SLOAD PUSH1 0x40 MLOAD PUSH4 0x70A08231 PUSH1 0xE0 SHL DUP2 MSTORE ADDRESS PUSH1 0x4 DUP3 ADD MSTORE PUSH1 0x0 SWAP2 PUSH1 0x1 PUSH1 0x1 PUSH1 0xA0 SHL SUB AND SWAP1 PUSH4 0x70A08231 SWAP1 PUSH1 0x24 ADD PUSH1 0x20 PUSH1 0x40 MLOAD DUP1 DUP4 SUB DUP2 DUP7 GAS STATICCALL ISZERO DUP1 ISZERO PUSH2 0xEBE JUMPI RETURNDATASIZE PUSH1 0x0 DUP1 RETURNDATACOPY RETURNDATASIZE PUSH1 0x0 REVERT JUMPDEST POP POP POP POP PUSH1 0x40 MLOAD RETURNDATASIZE PUSH1 0x1F NOT PUSH1 0x1F DUP3 ADD AND DUP3 ADD DUP1 PUSH1 0x40 MSTORE POP DUP2 ADD SWAP1 PUSH2 0xEE2 SWAP2 SWAP1 PUSH2 0x2D34 JUMP JUMPDEST SWAP1 POP SWAP1 JUMP JUMPDEST PUSH1 0x60 PUSH1 0x0 PUSH1 0x1 SLOAD PUSH8 0xFFFFFFFFFFFFFFFF DUP2 GT ISZERO PUSH2 0xF06 JUMPI PUSH2 0xF06 PUSH2 0x29B4 JUMP JUMPDEST PUSH1 0x40 MLOAD SWAP1 DUP1 DUP3 MSTORE DUP1 PUSH1 0x20 MUL PUSH1 0x20 ADD DUP3 ADD PUSH1 0x40 MSTORE DUP1 ISZERO PUSH2 0xF2F JUMPI DUP2 PUSH1 0x20 ADD PUSH1 0x20 DUP3 MUL DUP1 CALLDATASIZE DUP4 CALLDATACOPY ADD SWAP1 POP JUMPDEST POP SWAP1 POP PUSH1 0x0 JUMPDEST PUSH1 0x1 SLOAD DUP2 LT ISZERO PUSH2 0x89E JUMPI PUSH1 0x0 DUP2 DUP2 MSTORE PUSH1 0xA PUSH1 0x20 MSTORE PUSH1 0x40 SWAP1 KECCAK256 SLOAD DUP3 MLOAD PUSH1 0xFF SWAP1 SWAP2 AND SWAP1 DUP4 SWAP1 DUP4 SWAP1 DUP2 LT PUSH2 0xF68 JUMPI PUSH2 0xF68 PUSH2 0x2CFC JUMP JUMPDEST SWAP2 ISZERO ISZERO PUSH1 0x20 SWAP3 DUP4 MUL SWAP2 SWAP1 SWAP2 ADD SWAP1 SWAP2 ADD MSTORE DUP1 PUSH2 0xF82 DUP2 PUSH2 0x2C98 JUMP JUMPDEST SWAP2 POP POP PUSH2 0xF35 JUMP JUMPDEST PUSH1 0x0 DUP1 DUP1 JUMPDEST PUSH1 0x1 SLOAD DUP2 LT ISZERO PUSH2 0x89E JUMPI PUSH2 0xFA2 DUP2 PUSH2 0x2501 JUMP JUMPDEST PUSH2 0xFAC SWAP1 DUP4 PUSH2 0x2C85 JUMP JUMPDEST SWAP2 POP DUP1 PUSH2 0xFB8 DUP2 PUSH2 0x2C98 JUMP JUMPDEST SWAP2 POP POP PUSH2 0xF8F JUMP JUMPDEST PUSH2 0xFC8 PUSH2 0x2288 JUMP JUMPDEST PUSH2 0xFD2 PUSH1 0x0 PUSH2 0x2565 JUMP JUMPDEST JUMP JUMPDEST PUSH1 0x0 DUP2 DUP2 MSTORE PUSH1 0x8 PUSH1 0x20 MSTORE PUSH1 0x40 SWAP1 KECCAK256 SLOAD PUSH1 0xFF AND PUSH2 0x1002 JUMPI PUSH1 0x40 MLOAD PUSH3 0x461BCD PUSH1 0xE5 SHL DUP2 MSTORE PUSH1 0x4 ADD PUSH2 0x8E7 SWAP1 PUSH2 0x2D4D JUMP JUMPDEST PUSH1 0x0 DUP2 DUP2 MSTORE PUSH1 0x9 PUSH1 0x20 MSTORE PUSH1 0x40 SWAP1 KECCAK256 PUSH1 0x4 ADD SLOAD PUSH2 0x100 SWAP1 DIV PUSH1 0xFF AND PUSH2 0x1038 JUMPI PUSH1 0x40 MLOAD PUSH3 0x461BCD PUSH1 0xE5 SHL DUP2 MSTORE PUSH1 0x4 ADD PUSH2 0x8E7 SWAP1 PUSH2 0x2D82 JUMP JUMPDEST PUSH1 0x0 DUP2 DUP2 MSTORE PUSH1 0x9 PUSH1 0x20 MSTORE PUSH1 0x40 SWAP1 KECCAK256 PUSH1 0x4 ADD SLOAD PUSH3 0x10000 SWAP1 DIV PUSH1 0xFF AND ISZERO PUSH2 0x1070 JUMPI PUSH1 0x40 MLOAD PUSH3 0x461BCD PUSH1 0xE5 SHL DUP2 MSTORE PUSH1 0x4 ADD PUSH2 0x8E7 SWAP1 PUSH2 0x2DC3 JUMP JUMPDEST PUSH1 0x0 DUP2 DUP2 MSTORE PUSH1 0x9 PUSH1 0x20 MSTORE PUSH1 0x40 DUP2 KECCAK256 SWAP1 PUSH2 0x1088 DUP4 PUSH2 0xA21 JUMP JUMPDEST SWAP1 POP DUP1 CALLVALUE LT ISZERO PUSH2 0x10D2 JUMPI PUSH1 0x40 MLOAD PUSH3 0x461BCD PUSH1 0xE5 SHL DUP2 MSTORE PUSH1 0x20 PUSH1 0x4 DUP3 ADD MSTORE PUSH1 0x15 PUSH1 0x24 DUP3 ADD MSTORE PUSH21 0x24B739BAB33334B1B4B2B73A103830BCB6B2B73A17 PUSH1 0x59 SHL PUSH1 0x44 DUP3 ADD MSTORE PUSH1 0x64 ADD PUSH2 0x8E7 JUMP JUMPDEST PUSH1 0x0 DUP3 PUSH1 0x3 ADD SLOAD PUSH1 0x1 PUSH2 0x10E5 SWAP2 SWAP1 PUSH2 0x2CE5 JUMP JUMPDEST PUSH1 0x2 DUP1 DUP6 ADD SLOAD PUSH2 0x10F4 SWAP2 PUSH2 0x2CE5 JUMP JUMPDEST PUSH2 0x10FE SWAP2 SWAP1 PUSH2 0x2C85 JUMP JUMPDEST PUSH1 0x0 DUP6 DUP2 MSTORE PUSH1 0x9 PUSH1 0x20 MSTORE PUSH1 0x40 SWAP1 DUP2 SWAP1 KECCAK256 PUSH1 0x4 SWAP1 DUP2 ADD DUP1 SLOAD PUSH3 0xFF0000 NOT AND PUSH3 0x10000 OR SWAP1 SSTORE PUSH1 0xD SLOAD SWAP2 MLOAD PUSH4 0x40C10F19 PUSH1 0xE0 SHL DUP2 MSTORE CALLER SWAP2 DUP2 ADD SWAP2 SWAP1 SWAP2 MSTORE PUSH1 0x24 DUP2 ADD DUP4 SWAP1 MSTORE SWAP2 SWAP3 POP PUSH1 0x1 PUSH1 0x1 PUSH1 0xA0 SHL SUB AND SWAP1 PUSH4 0x40C10F19 SWAP1 PUSH1 0x44 ADD PUSH1 0x0 PUSH1 0x40 MLOAD DUP1 DUP4 SUB DUP2 PUSH1 0x0 DUP8 DUP1 EXTCODESIZE ISZERO DUP1 ISZERO PUSH2 0x1170 JUMPI PUSH1 0x0 DUP1 REVERT JUMPDEST POP GAS CALL ISZERO DUP1 ISZERO PUSH2 0x1184 JUMPI RETURNDATASIZE PUSH1 0x0 DUP1 RETURNDATACOPY RETURNDATASIZE PUSH1 0x0 REVERT JUMPDEST POP POP POP POP POP POP POP POP JUMP JUMPDEST PUSH1 0x0 DUP1 DUP1 JUMPDEST PUSH1 0x1 SLOAD DUP2 LT ISZERO PUSH2 0x89E JUMPI PUSH1 0x0 DUP2 DUP2 MSTORE PUSH1 0x9 PUSH1 0x20 MSTORE PUSH1 0x40 SWAP1 KECCAK256 PUSH1 0x3 ADD SLOAD PUSH2 0x11B9 SWAP1 DUP4 PUSH2 0x2C85 JUMP JUMPDEST SWAP2 POP DUP1 PUSH2 0x11C5 DUP2 PUSH2 0x2C98 JUMP JUMPDEST SWAP2 POP POP PUSH2 0x1193 JUMP JUMPDEST PUSH2 0x11D5 PUSH2 0x2288 JUMP JUMPDEST PUSH1 0x3 SWAP2 SWAP1 SWAP2 SSTORE PUSH1 0x4 SSTORE JUMP JUMPDEST PUSH2 0x11E8 PUSH2 0x2288 JUMP JUMPDEST PUSH1 0x64 DUP2 GT ISZERO PUSH2 0x1239 JUMPI PUSH1 0x40 MLOAD PUSH3 0x461BCD PUSH1 0xE5 SHL DUP2 MSTORE PUSH1 0x20 PUSH1 0x4 DUP3 ADD MSTORE PUSH1 0x1C PUSH1 0x24 DUP3 ADD MSTORE PUSH32 0x50657263656E746167652063616E6E6F74206578636565642031303000000000 PUSH1 0x44 DUP3 ADD MSTORE PUSH1 0x64 ADD PUSH2 0x8E7 JUMP JUMPDEST PUSH1 0x5 SSTORE JUMP JUMPDEST PUSH1 0x0 DUP2 DUP2 MSTORE PUSH1 0x8 PUSH1 0x20 MSTORE PUSH1 0x40 SWAP1 KECCAK256 SLOAD PUSH1 0xFF AND PUSH2 0x126C JUMPI PUSH1 0x40 MLOAD PUSH3 0x461BCD PUSH1 0xE5 SHL DUP2 MSTORE PUSH1 0x4 ADD PUSH2 0x8E7 SWAP1 PUSH2 0x2D4D JUMP JUMPDEST PUSH1 0x0 DUP2 DUP2 MSTORE PUSH1 0x9 PUSH1 0x20 MSTORE PUSH1 0x40 SWAP1 KECCAK256 PUSH1 0x4 ADD SLOAD PUSH3 0x10000 SWAP1 DIV PUSH1 0xFF AND PUSH2 0x12A3 JUMPI PUSH1 0x40 MLOAD PUSH3 0x461BCD PUSH1 0xE5 SHL DUP2 MSTORE PUSH1 0x4 ADD PUSH2 0x8E7 SWAP1 PUSH2 0x2DC3 JUMP JUMPDEST PUSH1 0x0 DUP2 DUP2 MSTORE PUSH1 0x9 PUSH1 0x20 MSTORE PUSH1 0x40 SWAP1 KECCAK256 PUSH1 0x4 ADD SLOAD PUSH2 0x100 SWAP1 DIV PUSH1 0xFF AND PUSH2 0x1309 JUMPI PUSH1 0x40 MLOAD PUSH3 0x461BCD PUSH1 0xE5 SHL DUP2 MSTORE PUSH1 0x20 PUSH1 0x4 DUP3 ADD MSTORE PUSH1 0x1D PUSH1 0x24 DUP3 ADD MSTORE PUSH32 0x546869732070726F6A656374206973206E6F742076616C696461746564000000 PUSH1 0x44 DUP3 ADD MSTORE PUSH1 0x64 ADD PUSH2 0x8E7 JUMP JUMPDEST PUSH1 0x0 DUP2 DUP2 MSTORE PUSH1 0xA PUSH1 0x20 MSTORE PUSH1 0x40 SWAP1 KECCAK256 SLOAD PUSH1 0xFF AND ISZERO PUSH2 0x1368 JUMPI PUSH1 0x40 MLOAD PUSH3 0x461BCD PUSH1 0xE5 SHL DUP2 MSTORE PUSH1 0x20 PUSH1 0x4 DUP3 ADD DUP2 SWAP1 MSTORE PUSH1 0x24 DUP3 ADD MSTORE PUSH32 0x746869732069732070726F6A656374206973206E6F7420696E737572616E6365 PUSH1 0x44 DUP3 ADD MSTORE PUSH1 0x64 ADD PUSH2 0x8E7 JUMP JUMPDEST PUSH1 0x0 PUSH2 0x1373 DUP3 PUSH2 0x2501 JUMP JUMPDEST SWAP1 POP DUP1 CALLVALUE LT ISZERO PUSH2 0x13BD JUMPI PUSH1 0x40 MLOAD PUSH3 0x461BCD PUSH1 0xE5 SHL DUP2 MSTORE PUSH1 0x20 PUSH1 0x4 DUP3 ADD MSTORE PUSH1 0x15 PUSH1 0x24 DUP3 ADD MSTORE PUSH21 0x24B739BAB33334B1B4B2B73A103830BCB6B2B73A17 PUSH1 0x59 SHL PUSH1 0x44 DUP3 ADD MSTORE PUSH1 0x64 ADD PUSH2 0x8E7 JUMP JUMPDEST DUP1 CALLVALUE GT ISZERO PUSH2 0x13FD JUMPI CALLER PUSH2 0x8FC PUSH2 0x13D3 DUP4 CALLVALUE PUSH2 0x2DFA JUMP JUMPDEST PUSH1 0x40 MLOAD DUP2 ISZERO SWAP1 SWAP3 MUL SWAP2 PUSH1 0x0 DUP2 DUP2 DUP2 DUP6 DUP9 DUP9 CALL SWAP4 POP POP POP POP ISZERO DUP1 ISZERO PUSH2 0x13FB JUMPI RETURNDATASIZE PUSH1 0x0 DUP1 RETURNDATACOPY RETURNDATASIZE PUSH1 0x0 REVERT JUMPDEST POP JUMPDEST PUSH1 0x0 DUP3 DUP2 MSTORE PUSH1 0xA PUSH1 0x20 MSTORE PUSH1 0x40 SWAP1 DUP2 SWAP1 KECCAK256 DUP1 SLOAD PUSH1 0xFF NOT AND PUSH1 0x1 OR SWAP1 SSTORE MLOAD CALLER SWAP1 DUP4 SWAP1 PUSH32 0xA461E513D2AED580BA148BA370E44D9667F51611A9099CFAB56C5369DC5421AE SWAP1 PUSH2 0x144C SWAP1 DUP6 DUP2 MSTORE PUSH1 0x20 ADD SWAP1 JUMP JUMPDEST PUSH1 0x40 MLOAD DUP1 SWAP2 SUB SWAP1 LOG3 POP POP JUMP JUMPDEST PUSH1 0x0 DUP1 DUP1 JUMPDEST PUSH1 0x1 SLOAD DUP2 LT ISZERO PUSH2 0x89E JUMPI PUSH1 0x0 DUP2 DUP2 MSTORE PUSH1 0x9 PUSH1 0x20 MSTORE PUSH1 0x40 SWAP1 KECCAK256 PUSH1 0x4 ADD SLOAD PUSH3 0x10000 SWAP1 DIV PUSH1 0xFF AND ISZERO PUSH2 0x1495 JUMPI DUP2 PUSH2 0x1491 DUP2 PUSH2 0x2C98 JUMP JUMPDEST SWAP3 POP POP JUMPDEST DUP1 PUSH2 0x149F DUP2 PUSH2 0x2C98 JUMP JUMPDEST SWAP2 POP POP PUSH2 0x145D JUMP JUMPDEST PUSH1 0x60 PUSH1 0xE DUP1 SLOAD DUP1 PUSH1 0x20 MUL PUSH1 0x20 ADD PUSH1 0x40 MLOAD SWAP1 DUP2 ADD PUSH1 0x40 MSTORE DUP1 SWAP3 SWAP2 SWAP1 DUP2 DUP2 MSTORE PUSH1 0x20 ADD PUSH1 0x0 SWAP1 JUMPDEST DUP3 DUP3 LT ISZERO PUSH2 0x15E1 JUMPI DUP4 DUP3 SWAP1 PUSH1 0x0 MSTORE PUSH1 0x20 PUSH1 0x0 KECCAK256 SWAP1 PUSH1 0x5 MUL ADD PUSH1 0x40 MLOAD DUP1 PUSH1 0xE0 ADD PUSH1 0x40 MSTORE SWAP1 DUP2 PUSH1 0x0 DUP3 ADD SLOAD DUP2 MSTORE PUSH1 0x20 ADD PUSH1 0x1 DUP3 ADD DUP1 SLOAD PUSH2 0x1508 SWAP1 PUSH2 0x2CB1 JUMP JUMPDEST DUP1 PUSH1 0x1F ADD PUSH1 0x20 DUP1 SWAP2 DIV MUL PUSH1 0x20 ADD PUSH1 0x40 MLOAD SWAP1 DUP2 ADD PUSH1 0x40 MSTORE DUP1 SWAP3 SWAP2 SWAP1 DUP2 DUP2 MSTORE PUSH1 0x20 ADD DUP3 DUP1 SLOAD PUSH2 0x1534 SWAP1 PUSH2 0x2CB1 JUMP JUMPDEST DUP1 ISZERO PUSH2 0x1581 JUMPI DUP1 PUSH1 0x1F LT PUSH2 0x1556 JUMPI PUSH2 0x100 DUP1 DUP4 SLOAD DIV MUL DUP4 MSTORE SWAP2 PUSH1 0x20 ADD SWAP2 PUSH2 0x1581 JUMP JUMPDEST DUP3 ADD SWAP2 SWAP1 PUSH1 0x0 MSTORE PUSH1 0x20 PUSH1 0x0 KECCAK256 SWAP1 JUMPDEST DUP2 SLOAD DUP2 MSTORE SWAP1 PUSH1 0x1 ADD SWAP1 PUSH1 0x20 ADD DUP1 DUP4 GT PUSH2 0x1564 JUMPI DUP3 SWAP1 SUB PUSH1 0x1F AND DUP3 ADD SWAP2 JUMPDEST POP POP POP SWAP2 DUP4 MSTORE POP POP PUSH1 0x2 DUP3 ADD SLOAD PUSH1 0x20 DUP1 DUP4 ADD SWAP2 SWAP1 SWAP2 MSTORE PUSH1 0x3 DUP4 ADD SLOAD PUSH1 0x40 DUP4 ADD MSTORE PUSH1 0x4 SWAP1 SWAP3 ADD SLOAD PUSH1 0xFF DUP1 DUP3 AND ISZERO ISZERO PUSH1 0x60 DUP5 ADD MSTORE PUSH2 0x100 DUP3 DIV DUP2 AND ISZERO ISZERO PUSH1 0x80 DUP5 ADD MSTORE PUSH3 0x10000 SWAP1 SWAP2 DIV AND ISZERO ISZERO PUSH1 0xA0 SWAP1 SWAP2 ADD MSTORE SWAP1 DUP3 MSTORE PUSH1 0x1 SWAP3 SWAP1 SWAP3 ADD SWAP2 ADD PUSH2 0x14CB JUMP JUMPDEST POP POP POP POP SWAP1 POP SWAP1 JUMP JUMPDEST PUSH1 0x0 PUSH1 0x1 DUP2 PUSH8 0xDE0B6B3A7640000 DUP1 PUSH2 0x1603 DUP5 DUP8 PUSH2 0x2CE5 JUMP JUMPDEST PUSH2 0x160D SWAP2 SWAP1 PUSH2 0x2CE5 JUMP JUMPDEST PUSH2 0x1617 SWAP2 SWAP1 PUSH2 0x2D12 JUMP JUMPDEST SWAP5 SWAP4 POP POP POP POP JUMP JUMPDEST PUSH2 0x1627 PUSH2 0x2288 JUMP JUMPDEST PUSH1 0x0 DUP2 DUP2 MSTORE PUSH1 0x8 PUSH1 0x20 MSTORE PUSH1 0x40 SWAP1 KECCAK256 SLOAD PUSH1 0xFF AND PUSH2 0x1655 JUMPI PUSH1 0x40 MLOAD PUSH3 0x461BCD PUSH1 0xE5 SHL DUP2 MSTORE PUSH1 0x4 ADD PUSH2 0x8E7 SWAP1 PUSH2 0x2D4D JUMP JUMPDEST PUSH1 0x0 DUP2 DUP2 MSTORE PUSH1 0x9 PUSH1 0x20 MSTORE PUSH1 0x40 SWAP1 KECCAK256 PUSH1 0x4 ADD SLOAD PUSH3 0x10000 SWAP1 DIV PUSH1 0xFF AND ISZERO PUSH2 0x168D JUMPI PUSH1 0x40 MLOAD PUSH3 0x461BCD PUSH1 0xE5 SHL DUP2 MSTORE PUSH1 0x4 ADD PUSH2 0x8E7 SWAP1 PUSH2 0x2DC3 JUMP JUMPDEST PUSH1 0x0 DUP2 DUP2 MSTORE PUSH1 0x9 PUSH1 0x20 MSTORE PUSH1 0x40 SWAP1 KECCAK256 PUSH1 0x4 DUP2 ADD SLOAD PUSH2 0x100 SWAP1 DIV PUSH1 0xFF AND ISZERO PUSH2 0x16C5 JUMPI PUSH1 0x40 MLOAD PUSH3 0x461BCD PUSH1 0xE5 SHL DUP2 MSTORE PUSH1 0x4 ADD PUSH2 0x8E7 SWAP1 PUSH2 0x2D82 JUMP JUMPDEST PUSH1 0x4 DUP2 ADD DUP1 SLOAD PUSH2 0xFF00 NOT AND PUSH2 0x100 OR SWAP1 SSTORE PUSH1 0x0 JUMPDEST PUSH1 0xE SLOAD DUP2 LT ISZERO PUSH2 0x1762 JUMPI DUP3 PUSH1 0xE DUP3 DUP2 SLOAD DUP2 LT PUSH2 0x16F7 JUMPI PUSH2 0x16F7 PUSH2 0x2CFC JUMP JUMPDEST SWAP1 PUSH1 0x0 MSTORE PUSH1 0x20 PUSH1 0x0 KECCAK256 SWAP1 PUSH1 0x5 MUL ADD PUSH1 0x0 ADD SLOAD SUB PUSH2 0x1750 JUMPI PUSH1 0x1 PUSH1 0xE DUP3 DUP2 SLOAD DUP2 LT PUSH2 0x1723 JUMPI PUSH2 0x1723 PUSH2 0x2CFC JUMP JUMPDEST SWAP1 PUSH1 0x0 MSTORE PUSH1 0x20 PUSH1 0x0 KECCAK256 SWAP1 PUSH1 0x5 MUL ADD PUSH1 0x4 ADD PUSH1 0x1 PUSH2 0x100 EXP DUP2 SLOAD DUP2 PUSH1 0xFF MUL NOT AND SWAP1 DUP4 ISZERO ISZERO MUL OR SWAP1 SSTORE POP PUSH2 0x1762 JUMP JUMPDEST DUP1 PUSH2 0x175A DUP2 PUSH2 0x2C98 JUMP JUMPDEST SWAP2 POP POP PUSH2 0x16D9 JUMP JUMPDEST POP PUSH1 0x2 DUP2 ADD SLOAD PUSH1 0x3 DUP3 ADD SLOAD PUSH1 0x4 DUP4 ADD SLOAD PUSH1 0x40 MLOAD PUSH32 0xC9FC3AA04405BE53FB86D02994D4187DA48CD546F7DFB4DC3D63A18444EE3796 SWAP4 PUSH2 0x17B7 SWAP4 PUSH1 0x1 DUP8 ADD SWAP4 SWAP2 SWAP3 SWAP1 SWAP2 PUSH1 0xFF DUP1 DUP3 AND SWAP3 PUSH2 0x100 SWAP1 SWAP3 DIV AND SWAP1 PUSH2 0x2E0D JUMP JUMPDEST PUSH1 0x40 MLOAD DUP1 SWAP2 SUB SWAP1 LOG1 POP POP JUMP JUMPDEST PUSH32 0xF0C57E16840DF040F15088DC2F81FE391C3923BEC73E23A9662EFC9C229C6A00 DUP1 SLOAD PUSH1 0x1 PUSH1 0x40 SHL DUP2 DIV PUSH1 0xFF AND ISZERO SWAP1 PUSH8 0xFFFFFFFFFFFFFFFF AND PUSH1 0x0 DUP2 ISZERO DUP1 ISZERO PUSH2 0x1809 JUMPI POP DUP3 JUMPDEST SWAP1 POP PUSH1 0x0 DUP3 PUSH8 0xFFFFFFFFFFFFFFFF AND PUSH1 0x1 EQ DUP1 ISZERO PUSH2 0x1826 JUMPI POP ADDRESS EXTCODESIZE ISZERO JUMPDEST SWAP1 POP DUP2 ISZERO DUP1 ISZERO PUSH2 0x1834 JUMPI POP DUP1 ISZERO JUMPDEST ISZERO PUSH2 0x1852 JUMPI PUSH1 0x40 MLOAD PUSH4 0xF92EE8A9 PUSH1 0xE0 SHL DUP2 MSTORE PUSH1 0x4 ADD PUSH1 0x40 MLOAD DUP1 SWAP2 SUB SWAP1 REVERT JUMPDEST DUP5 SLOAD PUSH8 0xFFFFFFFFFFFFFFFF NOT AND PUSH1 0x1 OR DUP6 SSTORE DUP4 ISZERO PUSH2 0x187C JUMPI DUP5 SLOAD PUSH1 0xFF PUSH1 0x40 SHL NOT AND PUSH1 0x1 PUSH1 0x40 SHL OR DUP6 SSTORE JUMPDEST PUSH2 0x1885 CALLER PUSH2 0x25D6 JUMP JUMPDEST PUSH2 0x188D PUSH2 0x25E7 JUMP JUMPDEST PUSH1 0xD DUP1 SLOAD PUSH1 0x1 PUSH1 0x1 PUSH1 0xA0 SHL SUB NOT AND PUSH1 0x1 PUSH1 0x1 PUSH1 0xA0 SHL SUB DUP9 AND OR SWAP1 SSTORE PUSH2 0x2710 PUSH1 0x3 SSTORE PUSH3 0x186A0 PUSH1 0x4 SSTORE PUSH1 0x2 PUSH1 0x5 SSTORE PUSH1 0xA PUSH1 0x6 SSTORE DUP4 ISZERO PUSH2 0xA19 JUMPI DUP5 SLOAD PUSH1 0xFF PUSH1 0x40 SHL NOT AND DUP6 SSTORE PUSH1 0x40 MLOAD PUSH1 0x1 DUP2 MSTORE PUSH32 0xC7F505B2F371AE2175EE4913F4499E1F2633A7B5936321EED1CDAEB6115181D2 SWAP1 PUSH1 0x20 ADD JUMPDEST PUSH1 0x40 MLOAD DUP1 SWAP2 SUB SWAP1 LOG1 POP POP POP POP POP POP JUMP JUMPDEST PUSH2 0x1953 PUSH1 0x40 MLOAD DUP1 PUSH1 0xE0 ADD PUSH1 0x40 MSTORE DUP1 PUSH1 0x0 DUP2 MSTORE PUSH1 0x20 ADD PUSH1 0x60 DUP2 MSTORE PUSH1 0x20 ADD PUSH1 0x0 DUP2 MSTORE PUSH1 0x20 ADD PUSH1 0x0 DUP2 MSTORE PUSH1 0x20 ADD PUSH1 0x0 ISZERO ISZERO DUP2 MSTORE PUSH1 0x20 ADD PUSH1 0x0 ISZERO ISZERO DUP2 MSTORE PUSH1 0x20 ADD PUSH1 0x0 ISZERO ISZERO DUP2 MSTORE POP SWAP1 JUMP JUMPDEST PUSH1 0x0 DUP3 DUP2 MSTORE PUSH1 0x8 PUSH1 0x20 MSTORE PUSH1 0x40 SWAP1 KECCAK256 SLOAD PUSH1 0xFF AND PUSH2 0x19AA JUMPI PUSH1 0x40 MLOAD PUSH3 0x461BCD PUSH1 0xE5 SHL DUP2 MSTORE PUSH1 0x20 PUSH1 0x4 DUP3 ADD MSTORE PUSH1 0x16 PUSH1 0x24 DUP3 ADD MSTORE PUSH22 0x141C9BDA9958DD081B9BDD081C9959DA5CDD195C9959 PUSH1 0x52 SHL PUSH1 0x44 DUP3 ADD MSTORE PUSH1 0x64 ADD PUSH2 0x8E7 JUMP JUMPDEST PUSH1 0x9 PUSH1 0x0 DUP4 DUP2 MSTORE PUSH1 0x20 ADD SWAP1 DUP2 MSTORE PUSH1 0x20 ADD PUSH1 0x0 KECCAK256 PUSH1 0x40 MLOAD DUP1 PUSH1 0xE0 ADD PUSH1 0x40 MSTORE SWAP1 DUP2 PUSH1 0x0 DUP3 ADD SLOAD DUP2 MSTORE PUSH1 0x20 ADD PUSH1 0x1 DUP3 ADD DUP1 SLOAD PUSH2 0x19E2 SWAP1 PUSH2 0x2CB1 JUMP JUMPDEST DUP1 PUSH1 0x1F ADD PUSH1 0x20 DUP1 SWAP2 DIV MUL PUSH1 0x20 ADD PUSH1 0x40 MLOAD SWAP1 DUP2 ADD PUSH1 0x40 MSTORE DUP1 SWAP3 SWAP2 SWAP1 DUP2 DUP2 MSTORE PUSH1 0x20 ADD DUP3 DUP1 SLOAD PUSH2 0x1A0E SWAP1 PUSH2 0x2CB1 JUMP JUMPDEST DUP1 ISZERO PUSH2 0x1A5B JUMPI DUP1 PUSH1 0x1F LT PUSH2 0x1A30 JUMPI PUSH2 0x100 DUP1 DUP4 SLOAD DIV MUL DUP4 MSTORE SWAP2 PUSH1 0x20 ADD SWAP2 PUSH2 0x1A5B JUMP JUMPDEST DUP3 ADD SWAP2 SWAP1 PUSH1 0x0 MSTORE PUSH1 0x20 PUSH1 0x0 KECCAK256 SWAP1 JUMPDEST DUP2 SLOAD DUP2 MSTORE SWAP1 PUSH1 0x1 ADD SWAP1 PUSH1 0x20 ADD DUP1 DUP4 GT PUSH2 0x1A3E JUMPI DUP3 SWAP1 SUB PUSH1 0x1F AND DUP3 ADD SWAP2 JUMPDEST POP POP POP SWAP2 DUP4 MSTORE POP POP PUSH1 0x2 DUP3 ADD SLOAD PUSH1 0x20 DUP3 ADD MSTORE PUSH1 0x3 DUP3 ADD SLOAD PUSH1 0x40 DUP3 ADD MSTORE PUSH1 0x4 SWAP1 SWAP2 ADD SLOAD PUSH1 0xFF DUP1 DUP3 AND ISZERO ISZERO PUSH1 0x60 DUP5 ADD MSTORE PUSH2 0x100 DUP3 DIV DUP2 AND ISZERO ISZERO PUSH1 0x80 DUP5 ADD MSTORE PUSH3 0x10000 SWAP1 SWAP2 DIV AND ISZERO ISZERO PUSH1 0xA0 SWAP1 SWAP2 ADD MSTORE SWAP3 SWAP2 POP POP JUMP JUMPDEST DUP4 PUSH2 0x1AFA JUMPI PUSH1 0x40 MLOAD PUSH3 0x461BCD PUSH1 0xE5 SHL DUP2 MSTORE PUSH1 0x20 PUSH1 0x4 DUP3 ADD MSTORE PUSH1 0x18 PUSH1 0x24 DUP3 ADD MSTORE PUSH32 0x4E616D652073686F756C64206E6F7420626520656D7074790000000000000000 PUSH1 0x44 DUP3 ADD MSTORE PUSH1 0x64 ADD PUSH2 0x8E7 JUMP JUMPDEST PUSH2 0x2710 DUP4 LT PUSH2 0x1B63 JUMPI PUSH1 0x40 MLOAD PUSH3 0x461BCD PUSH1 0xE5 SHL DUP2 MSTORE PUSH1 0x20 PUSH1 0x4 DUP3 ADD MSTORE PUSH1 0x2F PUSH1 0x24 DUP3 ADD MSTORE PUSH32 0x416E6E75616C20656D697373696F6E73206D757374206265206C657373207468 PUSH1 0x44 DUP3 ADD MSTORE PUSH15 0x30B710189816181818103A37B73997 PUSH1 0x89 SHL PUSH1 0x64 DUP3 ADD MSTORE PUSH1 0x84 ADD PUSH2 0x8E7 JUMP JUMPDEST PUSH3 0x186A0 DUP3 LT PUSH2 0x1BD0 JUMPI PUSH1 0x40 MLOAD PUSH3 0x461BCD PUSH1 0xE5 SHL DUP2 MSTORE PUSH1 0x20 PUSH1 0x4 DUP3 ADD MSTORE PUSH1 0x32 PUSH1 0x24 DUP3 ADD MSTORE PUSH32 0x416E6E75616C207761746572207573616765206D757374206E6F742065786365 PUSH1 0x44 DUP3 ADD MSTORE PUSH18 0x32B21018981816181818103634BA32B93997 PUSH1 0x71 SHL PUSH1 0x64 DUP3 ADD MSTORE PUSH1 0x84 ADD PUSH2 0x8E7 JUMP JUMPDEST DUP1 PUSH2 0x1C2F JUMPI PUSH1 0x40 MLOAD PUSH3 0x461BCD PUSH1 0xE5 SHL DUP2 MSTORE PUSH1 0x20 PUSH1 0x4 DUP3 ADD MSTORE PUSH1 0x29 PUSH1 0x24 DUP3 ADD MSTORE PUSH32 0x50726F6A656374206D75737420696E636C75646520656D697373696F6E732072 PUSH1 0x44 DUP3 ADD MSTORE PUSH9 0x32B23AB1BA34B7B717 PUSH1 0xB9 SHL PUSH1 0x64 DUP3 ADD MSTORE PUSH1 0x84 ADD PUSH2 0x8E7 JUMP JUMPDEST PUSH1 0x8 PUSH1 0x0 PUSH1 0x2 SLOAD PUSH1 0x1 PUSH2 0x1C42 SWAP2 SWAP1 PUSH2 0x2C85 JUMP JUMPDEST DUP2 MSTORE PUSH1 0x20 DUP2 ADD SWAP2 SWAP1 SWAP2 MSTORE PUSH1 0x40 ADD PUSH1 0x0 KECCAK256 SLOAD PUSH1 0xFF AND ISZERO PUSH2 0x1CC9 JUMPI PUSH1 0x40 MLOAD PUSH3 0x461BCD PUSH1 0xE5 SHL DUP2 MSTORE PUSH1 0x20 PUSH1 0x4 DUP3 ADD MSTORE PUSH1 0x38 PUSH1 0x24 DUP3 ADD MSTORE PUSH32 0x726567697374657250726F6A6563743A2D20546869732070726F6A6563742049 PUSH1 0x44 DUP3 ADD MSTORE PUSH32 0x4420697320616C726561647920726567697374657265642E0000000000000000 PUSH1 0x64 DUP3 ADD MSTORE PUSH1 0x84 ADD PUSH2 0x8E7 JUMP JUMPDEST PUSH1 0x1 DUP1 SLOAD SWAP1 PUSH1 0x0 PUSH2 0x1CD9 DUP4 PUSH2 0x2C98 JUMP JUMPDEST SWAP1 SWAP2 SSTORE POP POP PUSH1 0x1 SLOAD PUSH1 0x2 DUP2 SWAP1 SSTORE PUSH1 0x40 DUP1 MLOAD DUP1 DUP3 ADD SWAP1 SWAP2 MSTORE PUSH1 0x9 DUP2 MSTORE PUSH9 0x1C1C9BDA9958DD1259 PUSH1 0xBA SHL PUSH1 0x20 DUP3 ADD MSTORE PUSH2 0x1D0F SWAP2 PUSH2 0x25EF JUMP JUMPDEST PUSH1 0x0 PUSH1 0x40 MLOAD DUP1 PUSH1 0xE0 ADD PUSH1 0x40 MSTORE DUP1 PUSH1 0x2 SLOAD DUP2 MSTORE PUSH1 0x20 ADD DUP8 DUP8 DUP1 DUP1 PUSH1 0x1F ADD PUSH1 0x20 DUP1 SWAP2 DIV MUL PUSH1 0x20 ADD PUSH1 0x40 MLOAD SWAP1 DUP2 ADD PUSH1 0x40 MSTORE DUP1 SWAP4 SWAP3 SWAP2 SWAP1 DUP2 DUP2 MSTORE PUSH1 0x20 ADD DUP4 DUP4 DUP1 DUP3 DUP5 CALLDATACOPY PUSH1 0x0 SWAP3 ADD DUP3 SWAP1 MSTORE POP SWAP4 DUP6 MSTORE POP POP POP PUSH1 0x20 DUP1 DUP4 ADD DUP9 SWAP1 MSTORE PUSH1 0x40 DUP4 ADD DUP8 SWAP1 MSTORE DUP6 ISZERO ISZERO PUSH1 0x60 DUP5 ADD MSTORE PUSH1 0x80 DUP4 ADD DUP3 SWAP1 MSTORE PUSH1 0xA0 SWAP1 SWAP3 ADD DUP2 SWAP1 MSTORE PUSH1 0xE DUP1 SLOAD PUSH1 0x1 DUP2 ADD DUP3 SSTORE SWAP2 MSTORE DUP3 MLOAD PUSH1 0x5 SWAP1 SWAP2 MUL PUSH32 0xBB7B4A454DC3493923482F07822329ED19E8244EFF582CC204F8554C3620C3FD DUP2 ADD SWAP2 DUP3 SSTORE SWAP2 DUP4 ADD MLOAD SWAP3 SWAP4 POP DUP4 SWAP3 SWAP1 SWAP2 PUSH32 0xBB7B4A454DC3493923482F07822329ED19E8244EFF582CC204F8554C3620C3FE ADD SWAP1 PUSH2 0x1DF3 SWAP1 DUP3 PUSH2 0x2EFC JUMP JUMPDEST POP PUSH1 0x40 DUP3 DUP2 ADD MLOAD PUSH1 0x2 DUP1 DUP5 ADD SWAP2 SWAP1 SWAP2 SSTORE PUSH1 0x60 DUP5 ADD MLOAD PUSH1 0x3 DUP5 ADD SSTORE PUSH1 0x80 DUP5 ADD MLOAD PUSH1 0x4 SWAP1 SWAP4 ADD DUP1 SLOAD PUSH1 0xA0 DUP7 ADD MLOAD PUSH1 0xC0 SWAP1 SWAP7 ADD MLOAD ISZERO ISZERO PUSH3 0x10000 MUL PUSH3 0xFF0000 NOT SWAP7 ISZERO ISZERO PUSH2 0x100 MUL PUSH2 0xFF00 NOT SWAP7 ISZERO ISZERO SWAP7 SWAP1 SWAP7 AND PUSH2 0xFFFF NOT SWAP1 SWAP3 AND SWAP2 SWAP1 SWAP2 OR SWAP5 SWAP1 SWAP5 OR SWAP5 SWAP1 SWAP5 AND SWAP3 SWAP1 SWAP3 OR SWAP1 SWAP3 SSTORE DUP1 SLOAD PUSH1 0x0 SWAP1 DUP2 MSTORE PUSH1 0x8 PUSH1 0x20 SWAP1 DUP2 MSTORE DUP4 DUP3 KECCAK256 DUP1 SLOAD PUSH1 0xFF NOT AND PUSH1 0x1 SWAP1 DUP2 OR SWAP1 SWAP2 SSTORE SWAP3 SLOAD DUP3 MSTORE PUSH1 0x9 DUP2 MSTORE SWAP3 SWAP1 KECCAK256 DUP4 MLOAD DUP2 SSTORE SWAP2 DUP4 ADD MLOAD DUP4 SWAP3 SWAP2 DUP3 ADD SWAP1 PUSH2 0x1E9E SWAP1 DUP3 PUSH2 0x2EFC JUMP JUMPDEST POP PUSH1 0x40 DUP3 DUP2 ADD MLOAD PUSH1 0x2 DUP4 ADD SSTORE PUSH1 0x60 DUP4 ADD MLOAD PUSH1 0x3 DUP4 ADD SSTORE PUSH1 0x80 DUP4 ADD MLOAD PUSH1 0x4 SWAP1 SWAP3 ADD DUP1 SLOAD PUSH1 0xA0 DUP6 ADD MLOAD PUSH1 0xC0 SWAP1 SWAP6 ADD MLOAD ISZERO ISZERO PUSH3 0x10000 MUL PUSH3 0xFF0000 NOT SWAP6 ISZERO ISZERO PUSH2 0x100 MUL PUSH2 0xFF00 NOT SWAP6 ISZERO ISZERO SWAP6 SWAP1 SWAP6 AND PUSH2 0xFFFF NOT SWAP1 SWAP3 AND SWAP2 SWAP1 SWAP2 OR SWAP4 SWAP1 SWAP4 OR SWAP4 SWAP1 SWAP4 AND SWAP2 SWAP1 SWAP2 OR SWAP1 SWAP2 SSTORE MLOAD PUSH32 0xC9FC3AA04405BE53FB86D02994D4187DA48CD546F7DFB4DC3D63A18444EE3796 SWAP1 PUSH2 0x18FD SWAP1 DUP9 SWAP1 DUP9 SWAP1 DUP9 SWAP1 DUP9 SWAP1 DUP9 SWAP1 PUSH1 0x0 SWAP1 PUSH2 0x2FBC JUMP JUMPDEST PUSH2 0x1F44 PUSH2 0x2288 JUMP JUMPDEST PUSH1 0x1 PUSH1 0x1 PUSH1 0xA0 SHL SUB DUP2 AND PUSH2 0x1F6E JUMPI PUSH1 0x40 MLOAD PUSH4 0x1E4FBDF7 PUSH1 0xE0 SHL DUP2 MSTORE PUSH1 0x0 PUSH1 0x4 DUP3 ADD MSTORE PUSH1 0x24 ADD PUSH2 0x8E7 JUMP JUMPDEST PUSH2 0x1F77 DUP2 PUSH2 0x2565 JUMP JUMPDEST POP JUMP JUMPDEST PUSH1 0x0 DUP2 DUP2 MSTORE PUSH1 0x8 PUSH1 0x20 MSTORE PUSH1 0x40 SWAP1 KECCAK256 SLOAD PUSH1 0xFF AND PUSH2 0x1FA8 JUMPI PUSH1 0x40 MLOAD PUSH3 0x461BCD PUSH1 0xE5 SHL DUP2 MSTORE PUSH1 0x4 ADD PUSH2 0x8E7 SWAP1 PUSH2 0x2D4D JUMP JUMPDEST PUSH1 0x0 DUP2 DUP2 MSTORE PUSH1 0x9 PUSH1 0x20 MSTORE PUSH1 0x40 SWAP1 KECCAK256 PUSH1 0x4 ADD SLOAD PUSH3 0x10000 SWAP1 DIV PUSH1 0xFF AND PUSH2 0x1FDF JUMPI PUSH1 0x40 MLOAD PUSH3 0x461BCD PUSH1 0xE5 SHL DUP2 MSTORE PUSH1 0x4 ADD PUSH2 0x8E7 SWAP1 PUSH2 0x2DC3 JUMP JUMPDEST PUSH1 0x0 DUP2 DUP2 MSTORE PUSH1 0x9 PUSH1 0x20 MSTORE PUSH1 0x40 SWAP1 KECCAK256 PUSH1 0x4 ADD SLOAD PUSH2 0x100 SWAP1 DIV PUSH1 0xFF AND PUSH2 0x2045 JUMPI PUSH1 0x40 MLOAD PUSH3 0x461BCD PUSH1 0xE5 SHL DUP2 MSTORE PUSH1 0x20 PUSH1 0x4 DUP3 ADD MSTORE PUSH1 0x1D PUSH1 0x24 DUP3 ADD MSTORE PUSH32 0x546869732070726F6A656374206973206E6F742076616C696461746564000000 PUSH1 0x44 DUP3 ADD MSTORE PUSH1 0x64 ADD PUSH2 0x8E7 JUMP JUMPDEST PUSH1 0x0 DUP2 DUP2 MSTORE PUSH1 0xA PUSH1 0x20 MSTORE PUSH1 0x40 SWAP1 KECCAK256 SLOAD PUSH1 0xFF AND PUSH2 0x20A3 JUMPI PUSH1 0x40 MLOAD PUSH3 0x461BCD PUSH1 0xE5 SHL DUP2 MSTORE PUSH1 0x20 PUSH1 0x4 DUP3 ADD DUP2 SWAP1 MSTORE PUSH1 0x24 DUP3 ADD MSTORE PUSH32 0x746869732069732070726F6A656374206973206E6F7420696E737572616E6365 PUSH1 0x44 DUP3 ADD MSTORE PUSH1 0x64 ADD PUSH2 0x8E7 JUMP JUMPDEST PUSH1 0x0 DUP2 DUP2 MSTORE PUSH1 0xB PUSH1 0x20 MSTORE PUSH1 0x40 SWAP1 KECCAK256 SLOAD PUSH1 0xFF AND ISZERO PUSH2 0x2111 JUMPI PUSH1 0x40 MLOAD PUSH3 0x461BCD PUSH1 0xE5 SHL DUP2 MSTORE PUSH1 0x20 PUSH1 0x4 DUP3 ADD MSTORE PUSH1 0x26 PUSH1 0x24 DUP3 ADD MSTORE PUSH32 0x746869732069732070726F6A65637420636C61696D6564207468652020696E73 PUSH1 0x44 DUP3 ADD MSTORE PUSH6 0x7572616E6365 PUSH1 0xD0 SHL PUSH1 0x64 DUP3 ADD MSTORE PUSH1 0x84 ADD PUSH2 0x8E7 JUMP JUMPDEST PUSH1 0x0 PUSH2 0x211C DUP3 PUSH2 0x2501 JUMP JUMPDEST PUSH1 0x40 MLOAD SWAP1 SWAP2 POP CALLER SWAP1 DUP3 ISZERO PUSH2 0x8FC MUL SWAP1 DUP4 SWAP1 PUSH1 0x0 DUP2 DUP2 DUP2 DUP6 DUP9 DUP9 CALL SWAP4 POP POP POP POP ISZERO DUP1 ISZERO PUSH2 0x214C JUMPI RETURNDATASIZE PUSH1 0x0 DUP1 RETURNDATACOPY RETURNDATASIZE PUSH1 0x0 REVERT JUMPDEST POP POP PUSH1 0x0 SWAP1 DUP2 MSTORE PUSH1 0xB PUSH1 0x20 MSTORE PUSH1 0x40 SWAP1 KECCAK256 DUP1 SLOAD PUSH1 0xFF NOT AND PUSH1 0x1 OR SWAP1 SSTORE JUMP JUMPDEST PUSH1 0x0 DUP1 PUSH1 0x0 PUSH1 0x9 PUSH1 0x0 DUP6 DUP2 MSTORE PUSH1 0x20 ADD SWAP1 DUP2 MSTORE PUSH1 0x20 ADD PUSH1 0x0 KECCAK256 PUSH1 0x40 MLOAD DUP1 PUSH1 0xE0 ADD PUSH1 0x40 MSTORE SWAP1 DUP2 PUSH1 0x0 DUP3 ADD SLOAD DUP2 MSTORE PUSH1 0x20 ADD PUSH1 0x1 DUP3 ADD DUP1 SLOAD PUSH2 0x21A6 SWAP1 PUSH2 0x2CB1 JUMP JUMPDEST DUP1 PUSH1 0x1F ADD PUSH1 0x20 DUP1 SWAP2 DIV MUL PUSH1 0x20 ADD PUSH1 0x40 MLOAD SWAP1 DUP2 ADD PUSH1 0x40 MSTORE DUP1 SWAP3 SWAP2 SWAP1 DUP2 DUP2 MSTORE PUSH1 0x20 ADD DUP3 DUP1 SLOAD PUSH2 0x21D2 SWAP1 PUSH2 0x2CB1 JUMP JUMPDEST DUP1 ISZERO PUSH2 0x221F JUMPI DUP1 PUSH1 0x1F LT PUSH2 0x21F4 JUMPI PUSH2 0x100 DUP1 DUP4 SLOAD DIV MUL DUP4 MSTORE SWAP2 PUSH1 0x20 ADD SWAP2 PUSH2 0x221F JUMP JUMPDEST DUP3 ADD SWAP2 SWAP1 PUSH1 0x0 MSTORE PUSH1 0x20 PUSH1 0x0 KECCAK256 SWAP1 JUMPDEST DUP2 SLOAD DUP2 MSTORE SWAP1 PUSH1 0x1 ADD SWAP1 PUSH1 0x20 ADD DUP1 DUP4 GT PUSH2 0x2202 JUMPI DUP3 SWAP1 SUB PUSH1 0x1F AND DUP3 ADD SWAP2 JUMPDEST POP POP POP SWAP2 DUP4 MSTORE POP POP PUSH1 0x2 DUP3 ADD SLOAD PUSH1 0x20 DUP3 ADD MSTORE PUSH1 0x3 DUP3 ADD SLOAD PUSH1 0x40 DUP1 DUP4 ADD SWAP2 SWAP1 SWAP2 MSTORE PUSH1 0x4 SWAP1 SWAP3 ADD SLOAD PUSH1 0xFF DUP1 DUP3 AND ISZERO ISZERO PUSH1 0x60 DUP1 DUP6 ADD SWAP2 SWAP1 SWAP2 MSTORE PUSH2 0x100 DUP4 DIV DUP3 AND ISZERO ISZERO PUSH1 0x80 DUP6 ADD MSTORE PUSH3 0x10000 SWAP1 SWAP3 DIV AND ISZERO ISZERO PUSH1 0xA0 SWAP1 SWAP3 ADD SWAP2 SWAP1 SWAP2 MSTORE SWAP1 DUP3 ADD MLOAD SWAP2 ADD MLOAD SWAP1 SWAP6 SWAP1 SWAP5 POP SWAP3 POP POP POP JUMP JUMPDEST CALLER PUSH2 0x22BA PUSH32 0x9016D09D72D40FDAE2FD8CEAC6B6234C7706214FD39C1CD1E609A0528C199300 SLOAD PUSH1 0x1 PUSH1 0x1 PUSH1 0xA0 SHL SUB AND SWAP1 JUMP JUMPDEST PUSH1 0x1 PUSH1 0x1 PUSH1 0xA0 SHL SUB AND EQ PUSH2 0xFD2 JUMPI PUSH1 0x40 MLOAD PUSH4 0x118CDAA7 PUSH1 0xE0 SHL DUP2 MSTORE CALLER PUSH1 0x4 DUP3 ADD MSTORE PUSH1 0x24 ADD PUSH2 0x8E7 JUMP JUMPDEST ADDRESS PUSH1 0x1 PUSH1 0x1 PUSH1 0xA0 SHL SUB PUSH32 0x0 AND EQ DUP1 PUSH2 0x236A JUMPI POP PUSH32 0x0 PUSH1 0x1 PUSH1 0x1 PUSH1 0xA0 SHL SUB AND PUSH2 0x235E PUSH1 0x0 DUP1 MLOAD PUSH1 0x20 PUSH2 0x304A DUP4 CODECOPY DUP2 MLOAD SWAP2 MSTORE SLOAD PUSH1 0x1 PUSH1 0x1 PUSH1 0xA0 SHL SUB AND SWAP1 JUMP JUMPDEST PUSH1 0x1 PUSH1 0x1 PUSH1 0xA0 SHL SUB AND EQ ISZERO JUMPDEST ISZERO PUSH2 0xFD2 JUMPI PUSH1 0x40 MLOAD PUSH4 0x703E46DD PUSH1 0xE1 SHL DUP2 MSTORE PUSH1 0x4 ADD PUSH1 0x40 MLOAD DUP1 SWAP2 SUB SWAP1 REVERT JUMPDEST PUSH2 0x2390 PUSH2 0x2288 JUMP JUMPDEST PUSH1 0x1 PUSH1 0x1 PUSH1 0xA0 SHL SUB DUP2 AND PUSH2 0x1F77 JUMPI PUSH1 0x40 MLOAD PUSH3 0x461BCD PUSH1 0xE5 SHL DUP2 MSTORE PUSH1 0x20 PUSH1 0x4 DUP3 ADD MSTORE PUSH1 0x27 PUSH1 0x24 DUP3 ADD MSTORE PUSH32 0x4E657720696D706C656D656E746174696F6E2063616E6E6F7420626520616464 PUSH1 0x44 DUP3 ADD MSTORE PUSH7 0x72657373283029 PUSH1 0xC8 SHL PUSH1 0x64 DUP3 ADD MSTORE PUSH1 0x84 ADD PUSH2 0x8E7 JUMP JUMPDEST DUP2 PUSH1 0x1 PUSH1 0x1 PUSH1 0xA0 SHL SUB AND PUSH4 0x52D1902D PUSH1 0x40 MLOAD DUP2 PUSH4 0xFFFFFFFF AND PUSH1 0xE0 SHL DUP2 MSTORE PUSH1 0x4 ADD PUSH1 0x20 PUSH1 0x40 MLOAD DUP1 DUP4 SUB DUP2 DUP7 GAS STATICCALL SWAP3 POP POP POP DUP1 ISZERO PUSH2 0x2450 JUMPI POP PUSH1 0x40 DUP1 MLOAD PUSH1 0x1F RETURNDATASIZE SWAP1 DUP2 ADD PUSH1 0x1F NOT AND DUP3 ADD SWAP1 SWAP3 MSTORE PUSH2 0x244D SWAP2 DUP2 ADD SWAP1 PUSH2 0x2D34 JUMP JUMPDEST PUSH1 0x1 JUMPDEST PUSH2 0x2478 JUMPI PUSH1 0x40 MLOAD PUSH4 0x4C9C8CE3 PUSH1 0xE0 SHL DUP2 MSTORE PUSH1 0x1 PUSH1 0x1 PUSH1 0xA0 SHL SUB DUP4 AND PUSH1 0x4 DUP3 ADD MSTORE PUSH1 0x24 ADD PUSH2 0x8E7 JUMP JUMPDEST PUSH1 0x0 DUP1 MLOAD PUSH1 0x20 PUSH2 0x304A DUP4 CODECOPY DUP2 MLOAD SWAP2 MSTORE DUP2 EQ PUSH2 0x24A9 JUMPI PUSH1 0x40 MLOAD PUSH4 0x2A875269 PUSH1 0xE2 SHL DUP2 MSTORE PUSH1 0x4 DUP2 ADD DUP3 SWAP1 MSTORE PUSH1 0x24 ADD PUSH2 0x8E7 JUMP JUMPDEST PUSH2 0x24B3 DUP4 DUP4 PUSH2 0x2634 JUMP JUMPDEST POP POP POP JUMP JUMPDEST ADDRESS PUSH1 0x1 PUSH1 0x1 PUSH1 0xA0 SHL SUB PUSH32 0x0 AND EQ PUSH2 0xFD2 JUMPI PUSH1 0x40 MLOAD PUSH4 0x703E46DD PUSH1 0xE1 SHL DUP2 MSTORE PUSH1 0x4 ADD PUSH1 0x40 MLOAD DUP1 SWAP2 SUB SWAP1 REVERT JUMPDEST PUSH1 0x0 DUP1 PUSH2 0x250D DUP4 PUSH2 0xA21 JUMP JUMPDEST SWAP1 POP PUSH1 0x0 PUSH8 0xDE0B6B3A7640000 PUSH1 0x6 SLOAD PUSH2 0x2527 SWAP2 SWAP1 PUSH2 0x2CE5 JUMP JUMPDEST SWAP1 POP PUSH1 0x0 PUSH2 0x2535 DUP3 DUP5 PUSH2 0x2CE5 JUMP JUMPDEST SWAP1 POP PUSH1 0x0 PUSH2 0x254C PUSH8 0xDE0B6B3A7640000 PUSH1 0x64 PUSH2 0x2CE5 JUMP JUMPDEST SWAP1 POP PUSH1 0x0 PUSH2 0x255A DUP3 DUP5 PUSH2 0x2D12 JUMP JUMPDEST SWAP8 SWAP7 POP POP POP POP POP POP POP JUMP JUMPDEST PUSH32 0x9016D09D72D40FDAE2FD8CEAC6B6234C7706214FD39C1CD1E609A0528C199300 DUP1 SLOAD PUSH1 0x1 PUSH1 0x1 PUSH1 0xA0 SHL SUB NOT DUP2 AND PUSH1 0x1 PUSH1 0x1 PUSH1 0xA0 SHL SUB DUP5 DUP2 AND SWAP2 DUP3 OR DUP5 SSTORE PUSH1 0x40 MLOAD SWAP3 AND SWAP2 DUP3 SWAP1 PUSH32 0x8BE0079C531659141344CD1FD0A4F28419497F9722A3DAAFE3B4186F6B6457E0 SWAP1 PUSH1 0x0 SWAP1 LOG3 POP POP POP JUMP JUMPDEST PUSH2 0x25DE PUSH2 0x268A JUMP JUMPDEST PUSH2 0x1F77 DUP2 PUSH2 0x26D3 JUMP JUMPDEST PUSH2 0xFD2 PUSH2 0x268A JUMP JUMPDEST PUSH2 0xE54 DUP3 DUP3 PUSH1 0x40 MLOAD PUSH1 0x24 ADD PUSH2 0x2605 SWAP3 SWAP2 SWAP1 PUSH2 0x300B JUMP JUMPDEST PUSH1 0x40 DUP1 MLOAD PUSH1 0x1F NOT DUP2 DUP5 SUB ADD DUP2 MSTORE SWAP2 SWAP1 MSTORE PUSH1 0x20 DUP2 ADD DUP1 MLOAD PUSH1 0x1 PUSH1 0x1 PUSH1 0xE0 SHL SUB AND PUSH4 0x2D839CB3 PUSH1 0xE2 SHL OR SWAP1 MSTORE PUSH2 0x26DB JUMP JUMPDEST PUSH2 0x263D DUP3 PUSH2 0x26E4 JUMP JUMPDEST PUSH1 0x40 MLOAD PUSH1 0x1 PUSH1 0x1 PUSH1 0xA0 SHL SUB DUP4 AND SWAP1 PUSH32 0xBC7CD75A20EE27FD9ADEBAB32041F755214DBC6BFFA90CC0225B39DA2E5C2D3B SWAP1 PUSH1 0x0 SWAP1 LOG2 DUP1 MLOAD ISZERO PUSH2 0x2682 JUMPI PUSH2 0x24B3 DUP3 DUP3 PUSH2 0x2749 JUMP JUMPDEST PUSH2 0xE54 PUSH2 0x27C1 JUMP JUMPDEST PUSH32 0xF0C57E16840DF040F15088DC2F81FE391C3923BEC73E23A9662EFC9C229C6A00 SLOAD PUSH1 0x1 PUSH1 0x40 SHL SWAP1 DIV PUSH1 0xFF AND PUSH2 0xFD2 JUMPI PUSH1 0x40 MLOAD PUSH4 0x1AFCD79F PUSH1 0xE3 SHL DUP2 MSTORE PUSH1 0x4 ADD PUSH1 0x40 MLOAD DUP1 SWAP2 SUB SWAP1 REVERT JUMPDEST PUSH2 0x1F44 PUSH2 0x268A JUMP JUMPDEST PUSH2 0x1F77 DUP2 PUSH2 0x27E0 JUMP JUMPDEST DUP1 PUSH1 0x1 PUSH1 0x1 PUSH1 0xA0 SHL SUB AND EXTCODESIZE PUSH1 0x0 SUB PUSH2 0x271A JUMPI PUSH1 0x40 MLOAD PUSH4 0x4C9C8CE3 PUSH1 0xE0 SHL DUP2 MSTORE PUSH1 0x1 PUSH1 0x1 PUSH1 0xA0 SHL SUB DUP3 AND PUSH1 0x4 DUP3 ADD MSTORE PUSH1 0x24 ADD PUSH2 0x8E7 JUMP JUMPDEST PUSH1 0x0 DUP1 MLOAD PUSH1 0x20 PUSH2 0x304A DUP4 CODECOPY DUP2 MLOAD SWAP2 MSTORE DUP1 SLOAD PUSH1 0x1 PUSH1 0x1 PUSH1 0xA0 SHL SUB NOT AND PUSH1 0x1 PUSH1 0x1 PUSH1 0xA0 SHL SUB SWAP3 SWAP1 SWAP3 AND SWAP2 SWAP1 SWAP2 OR SWAP1 SSTORE JUMP JUMPDEST PUSH1 0x60 PUSH1 0x0 DUP1 DUP5 PUSH1 0x1 PUSH1 0x1 PUSH1 0xA0 SHL SUB AND DUP5 PUSH1 0x40 MLOAD PUSH2 0x2766 SWAP2 SWAP1 PUSH2 0x302D JUMP JUMPDEST PUSH1 0x0 PUSH1 0x40 MLOAD DUP1 DUP4 SUB DUP2 DUP6 GAS DELEGATECALL SWAP2 POP POP RETURNDATASIZE DUP1 PUSH1 0x0 DUP2 EQ PUSH2 0x27A1 JUMPI PUSH1 0x40 MLOAD SWAP2 POP PUSH1 0x1F NOT PUSH1 0x3F RETURNDATASIZE ADD AND DUP3 ADD PUSH1 0x40 MSTORE RETURNDATASIZE DUP3 MSTORE RETURNDATASIZE PUSH1 0x0 PUSH1 0x20 DUP5 ADD RETURNDATACOPY PUSH2 0x27A6 JUMP JUMPDEST PUSH1 0x60 SWAP2 POP JUMPDEST POP SWAP2 POP SWAP2 POP PUSH2 0x27B6 DUP6 DUP4 DUP4 PUSH2 0x2801 JUMP JUMPDEST SWAP3 POP POP POP JUMPDEST SWAP3 SWAP2 POP POP JUMP JUMPDEST CALLVALUE ISZERO PUSH2 0xFD2 JUMPI PUSH1 0x40 MLOAD PUSH4 0xB398979F PUSH1 0xE0 SHL DUP2 MSTORE PUSH1 0x4 ADD PUSH1 0x40 MLOAD DUP1 SWAP2 SUB SWAP1 REVERT JUMPDEST PUSH1 0x0 PUSH11 0x636F6E736F6C652E6C6F67 SWAP1 POP PUSH1 0x0 DUP1 DUP4 MLOAD PUSH1 0x20 DUP6 ADD DUP5 GAS STATICCALL POP POP POP JUMP JUMPDEST PUSH1 0x60 DUP3 PUSH2 0x2816 JUMPI PUSH2 0x2811 DUP3 PUSH2 0x2860 JUMP JUMPDEST PUSH2 0x2859 JUMP JUMPDEST DUP2 MLOAD ISZERO DUP1 ISZERO PUSH2 0x282D JUMPI POP PUSH1 0x1 PUSH1 0x1 PUSH1 0xA0 SHL SUB DUP5 AND EXTCODESIZE ISZERO JUMPDEST ISZERO PUSH2 0x2856 JUMPI PUSH1 0x40 MLOAD PUSH4 0x9996B315 PUSH1 0xE0 SHL DUP2 MSTORE PUSH1 0x1 PUSH1 0x1 PUSH1 0xA0 SHL SUB DUP6 AND PUSH1 0x4 DUP3 ADD MSTORE PUSH1 0x24 ADD PUSH2 0x8E7 JUMP JUMPDEST POP DUP1 JUMPDEST SWAP4 SWAP3 POP POP POP JUMP JUMPDEST DUP1 MLOAD ISZERO PUSH2 0x2870 JUMPI DUP1 MLOAD DUP1 DUP3 PUSH1 0x20 ADD REVERT JUMPDEST PUSH1 0x40 MLOAD PUSH4 0xA12F521 PUSH1 0xE1 SHL DUP2 MSTORE PUSH1 0x4 ADD PUSH1 0x40 MLOAD DUP1 SWAP2 SUB SWAP1 REVERT JUMPDEST PUSH1 0x0 PUSH1 0x20 DUP3 DUP5 SUB SLT ISZERO PUSH2 0x289B JUMPI PUSH1 0x0 DUP1 REVERT JUMPDEST POP CALLDATALOAD SWAP2 SWAP1 POP JUMP JUMPDEST PUSH1 0x20 DUP1 DUP3 MSTORE DUP3 MLOAD DUP3 DUP3 ADD DUP2 SWAP1 MSTORE PUSH1 0x0 SWAP2 SWAP1 DUP5 DUP3 ADD SWAP1 PUSH1 0x40 DUP6 ADD SWAP1 DUP5 JUMPDEST DUP2 DUP2 LT ISZERO PUSH2 0x28DA JUMPI DUP4 MLOAD DUP4 MSTORE SWAP3 DUP5 ADD SWAP3 SWAP2 DUP5 ADD SWAP2 PUSH1 0x1 ADD PUSH2 0x28BE JUMP JUMPDEST POP SWAP1 SWAP7 SWAP6 POP POP POP POP POP POP JUMP JUMPDEST DUP1 CALLDATALOAD PUSH1 0x1 PUSH1 0x1 PUSH1 0xA0 SHL SUB DUP2 AND DUP2 EQ PUSH2 0x28FD JUMPI PUSH1 0x0 DUP1 REVERT JUMPDEST SWAP2 SWAP1 POP JUMP JUMPDEST PUSH1 0x0 PUSH1 0x20 DUP3 DUP5 SUB SLT ISZERO PUSH2 0x2914 JUMPI PUSH1 0x0 DUP1 REVERT JUMPDEST PUSH2 0x2859 DUP3 PUSH2 0x28E6 JUMP JUMPDEST PUSH1 0x0 JUMPDEST DUP4 DUP2 LT ISZERO PUSH2 0x2938 JUMPI DUP2 DUP2 ADD MLOAD DUP4 DUP3 ADD MSTORE PUSH1 0x20 ADD PUSH2 0x2920 JUMP JUMPDEST POP POP PUSH1 0x0 SWAP2 ADD MSTORE JUMP JUMPDEST PUSH1 0x0 DUP2 MLOAD DUP1 DUP5 MSTORE PUSH2 0x2959 DUP2 PUSH1 0x20 DUP7 ADD PUSH1 0x20 DUP7 ADD PUSH2 0x291D JUMP JUMPDEST PUSH1 0x1F ADD PUSH1 0x1F NOT AND SWAP3 SWAP1 SWAP3 ADD PUSH1 0x20 ADD SWAP3 SWAP2 POP POP JUMP JUMPDEST DUP8 DUP2 MSTORE PUSH1 0xE0 PUSH1 0x20 DUP3 ADD MSTORE PUSH1 0x0 PUSH2 0x2986 PUSH1 0xE0 DUP4 ADD DUP10 PUSH2 0x2941 JUMP JUMPDEST PUSH1 0x40 DUP4 ADD SWAP8 SWAP1 SWAP8 MSTORE POP PUSH1 0x60 DUP2 ADD SWAP5 SWAP1 SWAP5 MSTORE SWAP2 ISZERO ISZERO PUSH1 0x80 DUP5 ADD MSTORE ISZERO ISZERO PUSH1 0xA0 DUP4 ADD MSTORE ISZERO ISZERO PUSH1 0xC0 SWAP1 SWAP2 ADD MSTORE SWAP3 SWAP2 POP POP JUMP JUMPDEST PUSH4 0x4E487B71 PUSH1 0xE0 SHL PUSH1 0x0 MSTORE PUSH1 0x41 PUSH1 0x4 MSTORE PUSH1 0x24 PUSH1 0x0 REVERT JUMPDEST PUSH1 0x0 DUP1 PUSH1 0x40 DUP4 DUP6 SUB SLT ISZERO PUSH2 0x29DD JUMPI PUSH1 0x0 DUP1 REVERT JUMPDEST PUSH2 0x29E6 DUP4 PUSH2 0x28E6 JUMP JUMPDEST SWAP2 POP PUSH1 0x20 DUP4 ADD CALLDATALOAD PUSH8 0xFFFFFFFFFFFFFFFF DUP1 DUP3 GT ISZERO PUSH2 0x2A03 JUMPI PUSH1 0x0 DUP1 REVERT JUMPDEST DUP2 DUP6 ADD SWAP2 POP DUP6 PUSH1 0x1F DUP4 ADD SLT PUSH2 0x2A17 JUMPI PUSH1 0x0 DUP1 REVERT JUMPDEST DUP2 CALLDATALOAD DUP2 DUP2 GT ISZERO PUSH2 0x2A29 JUMPI PUSH2 0x2A29 PUSH2 0x29B4 JUMP JUMPDEST PUSH1 0x40 MLOAD PUSH1 0x1F DUP3 ADD PUSH1 0x1F NOT SWAP1 DUP2 AND PUSH1 0x3F ADD AND DUP2 ADD SWAP1 DUP4 DUP3 GT DUP2 DUP4 LT OR ISZERO PUSH2 0x2A51 JUMPI PUSH2 0x2A51 PUSH2 0x29B4 JUMP JUMPDEST DUP2 PUSH1 0x40 MSTORE DUP3 DUP2 MSTORE DUP9 PUSH1 0x20 DUP5 DUP8 ADD ADD GT ISZERO PUSH2 0x2A6A JUMPI PUSH1 0x0 DUP1 REVERT JUMPDEST DUP3 PUSH1 0x20 DUP7 ADD PUSH1 0x20 DUP4 ADD CALLDATACOPY PUSH1 0x0 PUSH1 0x20 DUP5 DUP4 ADD ADD MSTORE DUP1 SWAP6 POP POP POP POP POP POP SWAP3 POP SWAP3 SWAP1 POP JUMP JUMPDEST PUSH1 0x20 DUP1 DUP3 MSTORE DUP3 MLOAD DUP3 DUP3 ADD DUP2 SWAP1 MSTORE PUSH1 0x0 SWAP2 SWAP1 DUP5 DUP3 ADD SWAP1 PUSH1 0x40 DUP6 ADD SWAP1 DUP5 JUMPDEST DUP2 DUP2 LT ISZERO PUSH2 0x28DA JUMPI DUP4 MLOAD ISZERO ISZERO DUP4 MSTORE SWAP3 DUP5 ADD SWAP3 SWAP2 DUP5 ADD SWAP2 PUSH1 0x1 ADD PUSH2 0x2AA8 JUMP JUMPDEST PUSH1 0x0 DUP1 PUSH1 0x40 DUP4 DUP6 SUB SLT ISZERO PUSH2 0x2AD9 JUMPI PUSH1 0x0 DUP1 REVERT JUMPDEST POP POP DUP1 CALLDATALOAD SWAP3 PUSH1 0x20 SWAP1 SWAP2 ADD CALLDATALOAD SWAP2 POP JUMP JUMPDEST PUSH1 0x20 DUP2 MSTORE PUSH1 0x0 PUSH2 0x2859 PUSH1 0x20 DUP4 ADD DUP5 PUSH2 0x2941 JUMP JUMPDEST DUP1 MLOAD DUP3 MSTORE PUSH1 0x0 PUSH1 0x20 DUP3 ADD MLOAD PUSH1 0xE0 PUSH1 0x20 DUP6 ADD MSTORE PUSH2 0x2B1A PUSH1 0xE0 DUP6 ADD DUP3 PUSH2 0x2941 JUMP JUMPDEST SWAP1 POP PUSH1 0x40 DUP4 ADD MLOAD PUSH1 0x40 DUP6 ADD MSTORE PUSH1 0x60 DUP4 ADD MLOAD PUSH1 0x60 DUP6 ADD MSTORE PUSH1 0x80 DUP4 ADD MLOAD ISZERO ISZERO PUSH1 0x80 DUP6 ADD MSTORE PUSH1 0xA0 DUP4 ADD MLOAD ISZERO ISZERO PUSH1 0xA0 DUP6 ADD MSTORE PUSH1 0xC0 DUP4 ADD MLOAD ISZERO ISZERO PUSH1 0xC0 DUP6 ADD MSTORE DUP1 SWAP2 POP POP SWAP3 SWAP2 POP POP JUMP JUMPDEST PUSH1 0x0 PUSH1 0x20 DUP1 DUP4 ADD DUP2 DUP5 MSTORE DUP1 DUP6 MLOAD DUP1 DUP4 MSTORE PUSH1 0x40 DUP7 ADD SWAP2 POP PUSH1 0x40 DUP2 PUSH1 0x5 SHL DUP8 ADD ADD SWAP3 POP DUP4 DUP8 ADD PUSH1 0x0 JUMPDEST DUP3 DUP2 LT ISZERO PUSH2 0x2BB3 JUMPI PUSH1 0x3F NOT DUP9 DUP7 SUB ADD DUP5 MSTORE PUSH2 0x2BA1 DUP6 DUP4 MLOAD PUSH2 0x2AFB JUMP JUMPDEST SWAP5 POP SWAP3 DUP6 ADD SWAP3 SWAP1 DUP6 ADD SWAP1 PUSH1 0x1 ADD PUSH2 0x2B85 JUMP JUMPDEST POP SWAP3 SWAP8 SWAP7 POP POP POP POP POP POP POP JUMP JUMPDEST PUSH1 0x20 DUP2 MSTORE PUSH1 0x0 PUSH2 0x2859 PUSH1 0x20 DUP4 ADD DUP5 PUSH2 0x2AFB JUMP JUMPDEST PUSH1 0x0 DUP1 PUSH1 0x0 DUP1 PUSH1 0x0 PUSH1 0x80 DUP7 DUP9 SUB SLT ISZERO PUSH2 0x2BEB JUMPI PUSH1 0x0 DUP1 REVERT JUMPDEST DUP6 CALLDATALOAD PUSH8 0xFFFFFFFFFFFFFFFF DUP1 DUP3 GT ISZERO PUSH2 0x2C03 JUMPI PUSH1 0x0 DUP1 REVERT JUMPDEST DUP2 DUP9 ADD SWAP2 POP DUP9 PUSH1 0x1F DUP4 ADD SLT PUSH2 0x2C17 JUMPI PUSH1 0x0 DUP1 REVERT JUMPDEST DUP2 CALLDATALOAD DUP2 DUP2 GT ISZERO PUSH2 0x2C26 JUMPI PUSH1 0x0 DUP1 REVERT JUMPDEST DUP10 PUSH1 0x20 DUP3 DUP6 ADD ADD GT ISZERO PUSH2 0x2C38 JUMPI PUSH1 0x0 DUP1 REVERT JUMPDEST PUSH1 0x20 SWAP3 DUP4 ADD SWAP8 POP SWAP6 POP POP DUP7 ADD CALLDATALOAD SWAP3 POP PUSH1 0x40 DUP7 ADD CALLDATALOAD SWAP2 POP PUSH1 0x60 DUP7 ADD CALLDATALOAD DUP1 ISZERO ISZERO DUP2 EQ PUSH2 0x2C61 JUMPI PUSH1 0x0 DUP1 REVERT JUMPDEST DUP1 SWAP2 POP POP SWAP3 SWAP6 POP SWAP3 SWAP6 SWAP1 SWAP4 POP JUMP JUMPDEST PUSH4 0x4E487B71 PUSH1 0xE0 SHL PUSH1 0x0 MSTORE PUSH1 0x11 PUSH1 0x4 MSTORE PUSH1 0x24 PUSH1 0x0 REVERT JUMPDEST DUP1 DUP3 ADD DUP1 DUP3 GT ISZERO PUSH2 0x27BB JUMPI PUSH2 0x27BB PUSH2 0x2C6F JUMP JUMPDEST PUSH1 0x0 PUSH1 0x1 DUP3 ADD PUSH2 0x2CAA JUMPI PUSH2 0x2CAA PUSH2 0x2C6F JUMP JUMPDEST POP PUSH1 0x1 ADD SWAP1 JUMP JUMPDEST PUSH1 0x1 DUP2 DUP2 SHR SWAP1 DUP3 AND DUP1 PUSH2 0x2CC5 JUMPI PUSH1 0x7F DUP3 AND SWAP2 POP JUMPDEST PUSH1 0x20 DUP3 LT DUP2 SUB PUSH2 0x89E JUMPI PUSH4 0x4E487B71 PUSH1 0xE0 SHL PUSH1 0x0 MSTORE PUSH1 0x22 PUSH1 0x4 MSTORE PUSH1 0x24 PUSH1 0x0 REVERT JUMPDEST DUP1 DUP3 MUL DUP2 ISZERO DUP3 DUP3 DIV DUP5 EQ OR PUSH2 0x27BB JUMPI PUSH2 0x27BB PUSH2 0x2C6F JUMP JUMPDEST PUSH4 0x4E487B71 PUSH1 0xE0 SHL PUSH1 0x0 MSTORE PUSH1 0x32 PUSH1 0x4 MSTORE PUSH1 0x24 PUSH1 0x0 REVERT JUMPDEST PUSH1 0x0 DUP3 PUSH2 0x2D2F JUMPI PUSH4 0x4E487B71 PUSH1 0xE0 SHL PUSH1 0x0 MSTORE PUSH1 0x12 PUSH1 0x4 MSTORE PUSH1 0x24 PUSH1 0x0 REVERT JUMPDEST POP DIV SWAP1 JUMP JUMPDEST PUSH1 0x0 PUSH1 0x20 DUP3 DUP5 SUB SLT ISZERO PUSH2 0x2D46 JUMPI PUSH1 0x0 DUP1 REVERT JUMPDEST POP MLOAD SWAP2 SWAP1 POP JUMP JUMPDEST PUSH1 0x20 DUP1 DUP3 MSTORE DUP2 DUP2 ADD MSTORE PUSH32 0x6869732070726F6A656374204944206973206E6F742072656769737465726564 PUSH1 0x40 DUP3 ADD MSTORE PUSH1 0x60 ADD SWAP1 JUMP JUMPDEST PUSH1 0x20 DUP1 DUP3 MSTORE PUSH1 0x21 SWAP1 DUP3 ADD MSTORE PUSH32 0x546869732070726F6A65637420697320616C72656164792076616C6964617465 PUSH1 0x40 DUP3 ADD MSTORE PUSH1 0x19 PUSH1 0xFA SHL PUSH1 0x60 DUP3 ADD MSTORE PUSH1 0x80 ADD SWAP1 JUMP JUMPDEST PUSH1 0x20 DUP1 DUP3 MSTORE PUSH1 0x1C SWAP1 DUP3 ADD MSTORE PUSH32 0x546869732070726F6A65637420697320616C7265616479205061696400000000 PUSH1 0x40 DUP3 ADD MSTORE PUSH1 0x60 ADD SWAP1 JUMP JUMPDEST DUP2 DUP2 SUB DUP2 DUP2 GT ISZERO PUSH2 0x27BB JUMPI PUSH2 0x27BB PUSH2 0x2C6F JUMP JUMPDEST PUSH1 0xA0 DUP2 MSTORE PUSH1 0x0 DUP1 DUP8 SLOAD PUSH2 0x2E1F DUP2 PUSH2 0x2CB1 JUMP JUMPDEST DUP1 PUSH1 0xA0 DUP7 ADD MSTORE PUSH1 0xC0 PUSH1 0x1 DUP1 DUP5 AND PUSH1 0x0 DUP2 EQ PUSH2 0x2E41 JUMPI PUSH1 0x1 DUP2 EQ PUSH2 0x2E5B JUMPI PUSH2 0x2E8C JUMP JUMPDEST PUSH1 0xFF NOT DUP6 AND DUP9 DUP5 ADD MSTORE DUP4 ISZERO ISZERO PUSH1 0x5 SHL DUP9 ADD DUP4 ADD SWAP6 POP PUSH2 0x2E8C JUMP JUMPDEST DUP13 PUSH1 0x0 MSTORE PUSH1 0x20 DUP1 PUSH1 0x0 KECCAK256 PUSH1 0x0 JUMPDEST DUP7 DUP2 LT ISZERO PUSH2 0x2E83 JUMPI DUP2 SLOAD DUP12 DUP3 ADD DUP8 ADD MSTORE SWAP1 DUP5 ADD SWAP1 DUP3 ADD PUSH2 0x2E68 JUMP JUMPDEST DUP11 ADD DUP6 ADD SWAP8 POP POP POP JUMPDEST POP POP POP POP POP PUSH1 0x20 DUP4 ADD DUP8 SWAP1 MSTORE PUSH1 0x40 DUP4 ADD DUP7 SWAP1 MSTORE DUP5 ISZERO ISZERO PUSH1 0x60 DUP5 ADD MSTORE SWAP1 POP DUP3 ISZERO ISZERO PUSH1 0x80 DUP4 ADD MSTORE PUSH2 0xB62 JUMP JUMPDEST PUSH1 0x1F DUP3 GT ISZERO PUSH2 0x24B3 JUMPI PUSH1 0x0 DUP2 DUP2 MSTORE PUSH1 0x20 DUP2 KECCAK256 PUSH1 0x1F DUP6 ADD PUSH1 0x5 SHR DUP2 ADD PUSH1 0x20 DUP7 LT ISZERO PUSH2 0x2EDD JUMPI POP DUP1 JUMPDEST PUSH1 0x1F DUP6 ADD PUSH1 0x5 SHR DUP3 ADD SWAP2 POP JUMPDEST DUP2 DUP2 LT ISZERO PUSH2 0xA19 JUMPI DUP3 DUP2 SSTORE PUSH1 0x1 ADD PUSH2 0x2EE9 JUMP JUMPDEST DUP2 MLOAD PUSH8 0xFFFFFFFFFFFFFFFF DUP2 GT ISZERO PUSH2 0x2F16 JUMPI PUSH2 0x2F16 PUSH2 0x29B4 JUMP JUMPDEST PUSH2 0x2F2A DUP2 PUSH2 0x2F24 DUP5 SLOAD PUSH2 0x2CB1 JUMP JUMPDEST DUP5 PUSH2 0x2EB6 JUMP JUMPDEST PUSH1 0x20 DUP1 PUSH1 0x1F DUP4 GT PUSH1 0x1 DUP2 EQ PUSH2 0x2F5F JUMPI PUSH1 0x0 DUP5 ISZERO PUSH2 0x2F47 JUMPI POP DUP6 DUP4 ADD MLOAD JUMPDEST PUSH1 0x0 NOT PUSH1 0x3 DUP7 SWAP1 SHL SHR NOT AND PUSH1 0x1 DUP6 SWAP1 SHL OR DUP6 SSTORE PUSH2 0xA19 JUMP JUMPDEST PUSH1 0x0 DUP6 DUP2 MSTORE PUSH1 0x20 DUP2 KECCAK256 PUSH1 0x1F NOT DUP7 AND SWAP2 JUMPDEST DUP3 DUP2 LT ISZERO PUSH2 0x2F8E JUMPI DUP9 DUP7 ADD MLOAD DUP3 SSTORE SWAP5 DUP5 ADD SWAP5 PUSH1 0x1 SWAP1 SWAP2 ADD SWAP1 DUP5 ADD PUSH2 0x2F6F JUMP JUMPDEST POP DUP6 DUP3 LT ISZERO PUSH2 0x2FAC JUMPI DUP8 DUP6 ADD MLOAD PUSH1 0x0 NOT PUSH1 0x3 DUP9 SWAP1 SHL PUSH1 0xF8 AND SHR NOT AND DUP2 SSTORE JUMPDEST POP POP POP POP POP PUSH1 0x1 SWAP1 DUP2 SHL ADD SWAP1 SSTORE POP JUMP JUMPDEST PUSH1 0xA0 DUP2 MSTORE DUP6 PUSH1 0xA0 DUP3 ADD MSTORE DUP6 DUP8 PUSH1 0xC0 DUP4 ADD CALLDATACOPY PUSH1 0x0 PUSH1 0xC0 DUP8 DUP4 ADD DUP2 ADD SWAP2 SWAP1 SWAP2 MSTORE PUSH1 0x20 DUP3 ADD SWAP6 SWAP1 SWAP6 MSTORE PUSH1 0x40 DUP2 ADD SWAP4 SWAP1 SWAP4 MSTORE SWAP1 ISZERO ISZERO PUSH1 0x60 DUP4 ADD MSTORE ISZERO ISZERO PUSH1 0x80 DUP3 ADD MSTORE PUSH1 0x1F SWAP1 SWAP3 ADD PUSH1 0x1F NOT AND SWAP1 SWAP2 ADD ADD SWAP2 SWAP1 POP JUMP JUMPDEST PUSH1 0x40 DUP2 MSTORE PUSH1 0x0 PUSH2 0x301E PUSH1 0x40 DUP4 ADD DUP6 PUSH2 0x2941 JUMP JUMPDEST SWAP1 POP DUP3 PUSH1 0x20 DUP4 ADD MSTORE SWAP4 SWAP3 POP POP POP JUMP JUMPDEST PUSH1 0x0 DUP3 MLOAD PUSH2 0x303F DUP2 DUP5 PUSH1 0x20 DUP8 ADD PUSH2 0x291D JUMP JUMPDEST SWAP2 SWAP1 SWAP2 ADD SWAP3 SWAP2 POP POP JUMP INVALID CALLDATASIZE ADDMOD SWAP5 LOG1 EXTCODESIZE LOG1 LOG3 0x21 MOD PUSH8 0xC828492DB98DCA3E KECCAK256 PUSH23 0xCC3735A920A3CA505D382BBCA2646970667358221220BA 0xBC ORIGIN 0xF7 REVERT 0xEC BASEFEE 0xDF 0x4E 0xD1 DUP3 0x2B OR 0xC9 CALLER DUP6 0xA5 SELFBALANCE CALLER 0xAF EXTCODECOPY 0xF8 0xC8 CALLVALUE 0xC8 0xE8 0x26 INVALID PUSH3 0xC8781D PUSH5 0x736F6C6343 STOP ADDMOD ISZERO STOP CALLER "},"methodIdentifiers":{"UPGRADE_INTERFACE_VERSION()":"ad3cb1cc","_calculateTotalPayment(uint256)":"2057c617","buySustainabilityCoin(uint256)":"1c11342c","carbonProjects(uint256)":"4c1b8b18","claimInsurance(uint256)":"f85920d8","contributeTosayNoCarbon(uint256)":"0ff37681","contributions(address)":"42e94c90","getAllProjectInsuranceStatus()":"6a7ab08e","getAllRegisteredProjectIds()":"25b16419","getAllRegisteredProjects()":"af6f997e","getFullCarbonProject(uint256)":"cc6ffeff","getPaidProjectsCount()":"9b44c143","getProjectEmissionsAndWaterUsage(uint256)":"f941f65e","getSustainabilityTokenBalance()":"68d4aceb","getTotalContributions()":"ddf556d0","getTotalEmissions()":"09fd1032","getTotalInsuranceClaims()":"47c6eb78","getTotalInsurancePayments()":"6c27b07a","getTotalWaterUsage()":"7a0edf18","getWithdrawalPercentage()":"51fef2f2","getcarbonProjectsLength()":"4a979d1d","i_owner()":"dba6335f","initialize(address)":"c4d66de8","insurance(uint256)":"9700e19e","insurancePercentage()":"4098a2a6","isProjectPaid(uint256)":"a46e8731","isProjectValidated(uint256)":"417b06e3","isRegistered(uint256)":"579a6988","maxAnnualEmissions()":"ac09ca11","maxAnnualWaterUsage()":"e7d17884","owner()":"8da5cb5b","payForCarbon(uint256)":"724acb1c","priceOfSustainabilityCoin(uint256)":"b1b6b763","projectId()":"3fafa127","proxiableUUID()":"52d1902d","registerProject(string,uint256,uint256,bool)":"d57ca84a","renounceOwnership()":"715018a6","setConstraints(uint256,uint256)":"84f0f810","setWithdrawalPercentage(uint256)":"8ec876e7","sustainabilityToken()":"f44ccbcc","totalContributions()":"37c08923","totalProjects()":"9c361e4e","transferOwnership(address)":"f2fde38b","upgradeToAndCall(address,bytes)":"4f1ef286","validateRegisteredProject(uint256)":"b2ce6bce","withdraw()":"3ccfd60b","withdrawalPercentage()":"2c331957"}},"storageLayout":{"storage":[{"astId":2149,"contract":"contracts/Ecoledger.sol:EcoLedger","label":"i_owner","offset":0,"slot":"0","type":"t_address_payable"},{"astId":2151,"contract":"contracts/Ecoledger.sol:EcoLedger","label":"totalProjects","offset":0,"slot":"1","type":"t_uint256"},{"astId":2153,"contract":"contracts/Ecoledger.sol:EcoLedger","label":"projectId","offset":0,"slot":"2","type":"t_uint256"},{"astId":2155,"contract":"contracts/Ecoledger.sol:EcoLedger","label":"maxAnnualEmissions","offset":0,"slot":"3","type":"t_uint256"},{"astId":2157,"contract":"contracts/Ecoledger.sol:EcoLedger","label":"maxAnnualWaterUsage","offset":0,"slot":"4","type":"t_uint256"},{"astId":2159,"contract":"contracts/Ecoledger.sol:EcoLedger","label":"withdrawalPercentage","offset":0,"slot":"5","type":"t_uint256"},{"astId":2161,"contract":"contracts/Ecoledger.sol:EcoLedger","label":"insurancePercentage","offset":0,"slot":"6","type":"t_uint256"},{"astId":2166,"contract":"contracts/Ecoledger.sol:EcoLedger","label":"totalContributions","offset":0,"slot":"7","type":"t_uint256"},{"astId":2170,"contract":"contracts/Ecoledger.sol:EcoLedger","label":"isRegistered","offset":0,"slot":"8","type":"t_mapping(t_uint256,t_bool)"},{"astId":2175,"contract":"contracts/Ecoledger.sol:EcoLedger","label":"idToProject","offset":0,"slot":"9","type":"t_mapping(t_uint256,t_struct(CarbonProject)2235_storage)"},{"astId":2179,"contract":"contracts/Ecoledger.sol:EcoLedger","label":"insuranceOrNot","offset":0,"slot":"10","type":"t_mapping(t_uint256,t_bool)"},{"astId":2183,"contract":"contracts/Ecoledger.sol:EcoLedger","label":"insuranceClaimedOrNot","offset":0,"slot":"11","type":"t_mapping(t_uint256,t_bool)"},{"astId":2187,"contract":"contracts/Ecoledger.sol:EcoLedger","label":"contributions","offset":0,"slot":"12","type":"t_mapping(t_address,t_uint256)"},{"astId":2190,"contract":"contracts/Ecoledger.sol:EcoLedger","label":"sustainabilityToken","offset":0,"slot":"13","type":"t_contract(ISustainabilityCoin)3350"},{"astId":2239,"contract":"contracts/Ecoledger.sol:EcoLedger","label":"carbonProjects","offset":0,"slot":"14","type":"t_array(t_struct(CarbonProject)2235_storage)dyn_storage"}],"types":{"t_address":{"encoding":"inplace","label":"address","numberOfBytes":"20"},"t_address_payable":{"encoding":"inplace","label":"address payable","numberOfBytes":"20"},"t_array(t_struct(CarbonProject)2235_storage)dyn_storage":{"base":"t_struct(CarbonProject)2235_storage","encoding":"dynamic_array","label":"struct EcoLedger.CarbonProject[]","numberOfBytes":"32"},"t_bool":{"encoding":"inplace","label":"bool","numberOfBytes":"1"},"t_contract(ISustainabilityCoin)3350":{"encoding":"inplace","label":"contract ISustainabilityCoin","numberOfBytes":"20"},"t_mapping(t_address,t_uint256)":{"encoding":"mapping","key":"t_address","label":"mapping(address => uint256)","numberOfBytes":"32","value":"t_uint256"},"t_mapping(t_uint256,t_bool)":{"encoding":"mapping","key":"t_uint256","label":"mapping(uint256 => bool)","numberOfBytes":"32","value":"t_bool"},"t_mapping(t_uint256,t_struct(CarbonProject)2235_storage)":{"encoding":"mapping","key":"t_uint256","label":"mapping(uint256 => struct EcoLedger.CarbonProject)","numberOfBytes":"32","value":"t_struct(CarbonProject)2235_storage"},"t_string_storage":{"encoding":"bytes","label":"string","numberOfBytes":"32"},"t_struct(CarbonProject)2235_storage":{"encoding":"inplace","label":"struct EcoLedger.CarbonProject","members":[{"astId":2222,"contract":"contracts/Ecoledger.sol:EcoLedger","label":"id","offset":0,"slot":"0","type":"t_uint256"},{"astId":2224,"contract":"contracts/Ecoledger.sol:EcoLedger","label":"name","offset":0,"slot":"1","type":"t_string_storage"},{"astId":2226,"contract":"contracts/Ecoledger.sol:EcoLedger","label":"Annualemissions","offset":0,"slot":"2","type":"t_uint256"},{"astId":2228,"contract":"contracts/Ecoledger.sol:EcoLedger","label":"AnnualWaterusage","offset":0,"slot":"3","type":"t_uint256"},{"astId":2230,"contract":"contracts/Ecoledger.sol:EcoLedger","label":"EmissionsReductionProject","offset":0,"slot":"4","type":"t_bool"},{"astId":2232,"contract":"contracts/Ecoledger.sol:EcoLedger","label":"Validated","offset":1,"slot":"4","type":"t_bool"},{"astId":2234,"contract":"contracts/Ecoledger.sol:EcoLedger","label":"Paid","offset":2,"slot":"4","type":"t_bool"}],"numberOfBytes":"160"},"t_uint256":{"encoding":"inplace","label":"uint256","numberOfBytes":"32"}}}}}}