{
  "_format": "hh-sol-artifact-1",
  "contractName": "EcoLedger",
  "sourceName": "contracts/Ecoledger.sol",
  "abi": [
    {
      "inputs": [
        {
          "internalType": "address",
          "name": "target",
          "type": "address"
        }
      ],
      "name": "AddressEmptyCode",
      "type": "error"
    },
    {
      "inputs": [
        {
          "internalType": "address",
          "name": "implementation",
          "type": "address"
        }
      ],
      "name": "ERC1967InvalidImplementation",
      "type": "error"
    },
    {
      "inputs": [],
      "name": "ERC1967NonPayable",
      "type": "error"
    },
    {
      "inputs": [],
      "name": "FailedInnerCall",
      "type": "error"
    },
    {
      "inputs": [],
      "name": "InvalidInitialization",
      "type": "error"
    },
    {
      "inputs": [],
      "name": "NotInitializing",
      "type": "error"
    },
    {
      "inputs": [
        {
          "internalType": "address",
          "name": "owner",
          "type": "address"
        }
      ],
      "name": "OwnableInvalidOwner",
      "type": "error"
    },
    {
      "inputs": [
        {
          "internalType": "address",
          "name": "account",
          "type": "address"
        }
      ],
      "name": "OwnableUnauthorizedAccount",
      "type": "error"
    },
    {
      "inputs": [],
      "name": "UUPSUnauthorizedCallContext",
      "type": "error"
    },
    {
      "inputs": [
        {
          "internalType": "bytes32",
          "name": "slot",
          "type": "bytes32"
        }
      ],
      "name": "UUPSUnsupportedProxiableUUID",
      "type": "error"
    },
    {
      "anonymous": false,
      "inputs": [
        {
          "indexed": false,
          "internalType": "string",
          "name": "name",
          "type": "string"
        },
        {
          "indexed": false,
          "internalType": "uint256",
          "name": "Annualemissions",
          "type": "uint256"
        },
        {
          "indexed": false,
          "internalType": "uint256",
          "name": "AnnualWaterusage",
          "type": "uint256"
        },
        {
          "indexed": false,
          "internalType": "bool",
          "name": "EmissionsReductionProject",
          "type": "bool"
        },
        {
          "indexed": false,
          "internalType": "bool",
          "name": "Validated",
          "type": "bool"
        }
      ],
      "name": "CarbonProjectEvent",
      "type": "event"
    },
    {
      "anonymous": false,
      "inputs": [
        {
          "indexed": true,
          "internalType": "address",
          "name": "contributor",
          "type": "address"
        },
        {
          "indexed": false,
          "internalType": "uint256",
          "name": "amount",
          "type": "uint256"
        }
      ],
      "name": "Contribution",
      "type": "event"
    },
    {
      "anonymous": false,
      "inputs": [
        {
          "indexed": false,
          "internalType": "uint64",
          "name": "version",
          "type": "uint64"
        }
      ],
      "name": "Initialized",
      "type": "event"
    },
    {
      "anonymous": false,
      "inputs": [
        {
          "indexed": true,
          "internalType": "uint256",
          "name": "projectId",
          "type": "uint256"
        },
        {
          "indexed": false,
          "internalType": "uint256",
          "name": "amount",
          "type": "uint256"
        },
        {
          "indexed": true,
          "internalType": "address",
          "name": "buyer",
          "type": "address"
        }
      ],
      "name": "InsurancePurchased",
      "type": "event"
    },
    {
      "anonymous": false,
      "inputs": [
        {
          "indexed": true,
          "internalType": "address",
          "name": "previousOwner",
          "type": "address"
        },
        {
          "indexed": true,
          "internalType": "address",
          "name": "newOwner",
          "type": "address"
        }
      ],
      "name": "OwnershipTransferred",
      "type": "event"
    },
    {
      "anonymous": false,
      "inputs": [
        {
          "indexed": true,
          "internalType": "address",
          "name": "implementation",
          "type": "address"
        }
      ],
      "name": "Upgraded",
      "type": "event"
    },
    {
      "anonymous": false,
      "inputs": [
        {
          "indexed": false,
          "internalType": "uint256",
          "name": "amount",
          "type": "uint256"
        }
      ],
      "name": "Withdrawal",
      "type": "event"
    },
    {
      "inputs": [],
      "name": "UPGRADE_INTERFACE_VERSION",
      "outputs": [
        {
          "internalType": "string",
          "name": "",
          "type": "string"
        }
      ],
      "stateMutability": "view",
      "type": "function"
    },
    {
      "inputs": [
        {
          "internalType": "uint256",
          "name": "id",
          "type": "uint256"
        }
      ],
      "name": "_calculateTotalPayment",
      "outputs": [
        {
          "internalType": "uint256",
          "name": "",
          "type": "uint256"
        }
      ],
      "stateMutability": "view",
      "type": "function"
    },
    {
      "inputs": [
        {
          "internalType": "uint256",
          "name": "amount",
          "type": "uint256"
        }
      ],
      "name": "buySustainabilityCoin",
      "outputs": [],
      "stateMutability": "payable",
      "type": "function"
    },
    {
      "inputs": [
        {
          "internalType": "uint256",
          "name": "",
          "type": "uint256"
        }
      ],
      "name": "carbonProjects",
      "outputs": [
        {
          "internalType": "uint256",
          "name": "id",
          "type": "uint256"
        },
        {
          "internalType": "string",
          "name": "name",
          "type": "string"
        },
        {
          "internalType": "uint256",
          "name": "Annualemissions",
          "type": "uint256"
        },
        {
          "internalType": "uint256",
          "name": "AnnualWaterusage",
          "type": "uint256"
        },
        {
          "internalType": "bool",
          "name": "EmissionsReductionProject",
          "type": "bool"
        },
        {
          "internalType": "bool",
          "name": "Validated",
          "type": "bool"
        },
        {
          "internalType": "bool",
          "name": "Paid",
          "type": "bool"
        }
      ],
      "stateMutability": "view",
      "type": "function"
    },
    {
      "inputs": [
        {
          "internalType": "uint256",
          "name": "id",
          "type": "uint256"
        }
      ],
      "name": "claimInsurance",
      "outputs": [],
      "stateMutability": "nonpayable",
      "type": "function"
    },
    {
      "inputs": [
        {
          "internalType": "uint256",
          "name": "amount",
          "type": "uint256"
        }
      ],
      "name": "contributeTosayNoCarbon",
      "outputs": [],
      "stateMutability": "payable",
      "type": "function"
    },
    {
      "inputs": [
        {
          "internalType": "address",
          "name": "",
          "type": "address"
        }
      ],
      "name": "contributions",
      "outputs": [
        {
          "internalType": "uint256",
          "name": "",
          "type": "uint256"
        }
      ],
      "stateMutability": "view",
      "type": "function"
    },
    {
      "inputs": [],
      "name": "getAllProjectInsuranceStatus",
      "outputs": [
        {
          "internalType": "bool[]",
          "name": "",
          "type": "bool[]"
        }
      ],
      "stateMutability": "view",
      "type": "function"
    },
    {
      "inputs": [],
      "name": "getAllRegisteredProjectIds",
      "outputs": [
        {
          "internalType": "uint256[]",
          "name": "",
          "type": "uint256[]"
        }
      ],
      "stateMutability": "view",
      "type": "function"
    },
    {
      "inputs": [],
      "name": "getAllRegisteredProjects",
      "outputs": [
        {
          "components": [
            {
              "internalType": "uint256",
              "name": "id",
              "type": "uint256"
            },
            {
              "internalType": "string",
              "name": "name",
              "type": "string"
            },
            {
              "internalType": "uint256",
              "name": "Annualemissions",
              "type": "uint256"
            },
            {
              "internalType": "uint256",
              "name": "AnnualWaterusage",
              "type": "uint256"
            },
            {
              "internalType": "bool",
              "name": "EmissionsReductionProject",
              "type": "bool"
            },
            {
              "internalType": "bool",
              "name": "Validated",
              "type": "bool"
            },
            {
              "internalType": "bool",
              "name": "Paid",
              "type": "bool"
            }
          ],
          "internalType": "struct EcoLedger.CarbonProject[]",
          "name": "",
          "type": "tuple[]"
        }
      ],
      "stateMutability": "view",
      "type": "function"
    },
    {
      "inputs": [
        {
          "internalType": "uint256",
          "name": "id",
          "type": "uint256"
        }
      ],
      "name": "getFullCarbonProject",
      "outputs": [
        {
          "components": [
            {
              "internalType": "uint256",
              "name": "id",
              "type": "uint256"
            },
            {
              "internalType": "string",
              "name": "name",
              "type": "string"
            },
            {
              "internalType": "uint256",
              "name": "Annualemissions",
              "type": "uint256"
            },
            {
              "internalType": "uint256",
              "name": "AnnualWaterusage",
              "type": "uint256"
            },
            {
              "internalType": "bool",
              "name": "EmissionsReductionProject",
              "type": "bool"
            },
            {
              "internalType": "bool",
              "name": "Validated",
              "type": "bool"
            },
            {
              "internalType": "bool",
              "name": "Paid",
              "type": "bool"
            }
          ],
          "internalType": "struct EcoLedger.CarbonProject",
          "name": "",
          "type": "tuple"
        }
      ],
      "stateMutability": "view",
      "type": "function"
    },
    {
      "inputs": [],
      "name": "getPaidProjectsCount",
      "outputs": [
        {
          "internalType": "uint256",
          "name": "",
          "type": "uint256"
        }
      ],
      "stateMutability": "view",
      "type": "function"
    },
    {
      "inputs": [
        {
          "internalType": "uint256",
          "name": "id",
          "type": "uint256"
        }
      ],
      "name": "getProjectEmissionsAndWaterUsage",
      "outputs": [
        {
          "internalType": "uint256",
          "name": "emissions",
          "type": "uint256"
        },
        {
          "internalType": "uint256",
          "name": "waterUsage",
          "type": "uint256"
        }
      ],
      "stateMutability": "view",
      "type": "function"
    },
    {
      "inputs": [],
      "name": "getSustainabilityTokenBalance",
      "outputs": [
        {
          "internalType": "uint256",
          "name": "",
          "type": "uint256"
        }
      ],
      "stateMutability": "view",
      "type": "function"
    },
    {
      "inputs": [],
      "name": "getTotalContributions",
      "outputs": [
        {
          "internalType": "uint256",
          "name": "",
          "type": "uint256"
        }
      ],
      "stateMutability": "view",
      "type": "function"
    },
    {
      "inputs": [],
      "name": "getTotalEmissions",
      "outputs": [
        {
          "internalType": "uint256",
          "name": "",
          "type": "uint256"
        }
      ],
      "stateMutability": "view",
      "type": "function"
    },
    {
      "inputs": [],
      "name": "getTotalInsuranceClaims",
      "outputs": [
        {
          "internalType": "uint256",
          "name": "",
          "type": "uint256"
        }
      ],
      "stateMutability": "view",
      "type": "function"
    },
    {
      "inputs": [],
      "name": "getTotalInsurancePayments",
      "outputs": [
        {
          "internalType": "uint256",
          "name": "",
          "type": "uint256"
        }
      ],
      "stateMutability": "view",
      "type": "function"
    },
    {
      "inputs": [],
      "name": "getTotalWaterUsage",
      "outputs": [
        {
          "internalType": "uint256",
          "name": "",
          "type": "uint256"
        }
      ],
      "stateMutability": "view",
      "type": "function"
    },
    {
      "inputs": [],
      "name": "getWithdrawalPercentage",
      "outputs": [
        {
          "internalType": "uint256",
          "name": "",
          "type": "uint256"
        }
      ],
      "stateMutability": "view",
      "type": "function"
    },
    {
      "inputs": [],
      "name": "getcarbonProjectsLength",
      "outputs": [
        {
          "internalType": "uint256",
          "name": "",
          "type": "uint256"
        }
      ],
      "stateMutability": "view",
      "type": "function"
    },
    {
      "inputs": [],
      "name": "i_owner",
      "outputs": [
        {
          "internalType": "address payable",
          "name": "",
          "type": "address"
        }
      ],
      "stateMutability": "view",
      "type": "function"
    },
    {
      "inputs": [
        {
          "internalType": "address",
          "name": "tokenAddress",
          "type": "address"
        }
      ],
      "name": "initialize",
      "outputs": [],
      "stateMutability": "nonpayable",
      "type": "function"
    },
    {
      "inputs": [
        {
          "internalType": "uint256",
          "name": "id",
          "type": "uint256"
        }
      ],
      "name": "insurance",
      "outputs": [],
      "stateMutability": "payable",
      "type": "function"
    },
    {
      "inputs": [],
      "name": "insurancePercentage",
      "outputs": [
        {
          "internalType": "uint256",
          "name": "",
          "type": "uint256"
        }
      ],
      "stateMutability": "view",
      "type": "function"
    },
    {
      "inputs": [
        {
          "internalType": "uint256",
          "name": "id",
          "type": "uint256"
        }
      ],
      "name": "isProjectPaid",
      "outputs": [
        {
          "internalType": "bool",
          "name": "",
          "type": "bool"
        }
      ],
      "stateMutability": "view",
      "type": "function"
    },
    {
      "inputs": [
        {
          "internalType": "uint256",
          "name": "id",
          "type": "uint256"
        }
      ],
      "name": "isProjectValidated",
      "outputs": [
        {
          "internalType": "bool",
          "name": "",
          "type": "bool"
        }
      ],
      "stateMutability": "view",
      "type": "function"
    },
    {
      "inputs": [
        {
          "internalType": "uint256",
          "name": "",
          "type": "uint256"
        }
      ],
      "name": "isRegistered",
      "outputs": [
        {
          "internalType": "bool",
          "name": "",
          "type": "bool"
        }
      ],
      "stateMutability": "view",
      "type": "function"
    },
    {
      "inputs": [],
      "name": "maxAnnualEmissions",
      "outputs": [
        {
          "internalType": "uint256",
          "name": "",
          "type": "uint256"
        }
      ],
      "stateMutability": "view",
      "type": "function"
    },
    {
      "inputs": [],
      "name": "maxAnnualWaterUsage",
      "outputs": [
        {
          "internalType": "uint256",
          "name": "",
          "type": "uint256"
        }
      ],
      "stateMutability": "view",
      "type": "function"
    },
    {
      "inputs": [],
      "name": "owner",
      "outputs": [
        {
          "internalType": "address",
          "name": "",
          "type": "address"
        }
      ],
      "stateMutability": "view",
      "type": "function"
    },
    {
      "inputs": [
        {
          "internalType": "uint256",
          "name": "id",
          "type": "uint256"
        }
      ],
      "name": "payForCarbon",
      "outputs": [],
      "stateMutability": "payable",
      "type": "function"
    },
    {
      "inputs": [
        {
          "internalType": "uint256",
          "name": "amount",
          "type": "uint256"
        }
      ],
      "name": "priceOfSustainabilityCoin",
      "outputs": [
        {
          "internalType": "uint256",
          "name": "",
          "type": "uint256"
        }
      ],
      "stateMutability": "pure",
      "type": "function"
    },
    {
      "inputs": [],
      "name": "projectId",
      "outputs": [
        {
          "internalType": "uint256",
          "name": "",
          "type": "uint256"
        }
      ],
      "stateMutability": "view",
      "type": "function"
    },
    {
      "inputs": [],
      "name": "proxiableUUID",
      "outputs": [
        {
          "internalType": "bytes32",
          "name": "",
          "type": "bytes32"
        }
      ],
      "stateMutability": "view",
      "type": "function"
    },
    {
      "inputs": [
        {
          "internalType": "string",
          "name": "name",
          "type": "string"
        },
        {
          "internalType": "uint256",
          "name": "annualemissions",
          "type": "uint256"
        },
        {
          "internalType": "uint256",
          "name": "annualWaterusage",
          "type": "uint256"
        },
        {
          "internalType": "bool",
          "name": "emissionsReductionProject",
          "type": "bool"
        }
      ],
      "name": "registerProject",
      "outputs": [],
      "stateMutability": "nonpayable",
      "type": "function"
    },
    {
      "inputs": [],
      "name": "renounceOwnership",
      "outputs": [],
      "stateMutability": "nonpayable",
      "type": "function"
    },
    {
      "inputs": [
        {
          "internalType": "uint256",
          "name": "newMaxEmissions",
          "type": "uint256"
        },
        {
          "internalType": "uint256",
          "name": "newMaxWaterUsage",
          "type": "uint256"
        }
      ],
      "name": "setConstraints",
      "outputs": [],
      "stateMutability": "nonpayable",
      "type": "function"
    },
    {
      "inputs": [
        {
          "internalType": "uint256",
          "name": "newPercentage",
          "type": "uint256"
        }
      ],
      "name": "setWithdrawalPercentage",
      "outputs": [],
      "stateMutability": "nonpayable",
      "type": "function"
    },
    {
      "inputs": [],
      "name": "sustainabilityToken",
      "outputs": [
        {
          "internalType": "contract ISustainabilityCoin",
          "name": "",
          "type": "address"
        }
      ],
      "stateMutability": "view",
      "type": "function"
    },
    {
      "inputs": [],
      "name": "totalContributions",
      "outputs": [
        {
          "internalType": "uint256",
          "name": "",
          "type": "uint256"
        }
      ],
      "stateMutability": "view",
      "type": "function"
    },
    {
      "inputs": [],
      "name": "totalProjects",
      "outputs": [
        {
          "internalType": "uint256",
          "name": "",
          "type": "uint256"
        }
      ],
      "stateMutability": "view",
      "type": "function"
    },
    {
      "inputs": [
        {
          "internalType": "address",
          "name": "newOwner",
          "type": "address"
        }
      ],
      "name": "transferOwnership",
      "outputs": [],
      "stateMutability": "nonpayable",
      "type": "function"
    },
    {
      "inputs": [
        {
          "internalType": "address",
          "name": "newImplementation",
          "type": "address"
        },
        {
          "internalType": "bytes",
          "name": "data",
          "type": "bytes"
        }
      ],
      "name": "upgradeToAndCall",
      "outputs": [],
      "stateMutability": "payable",
      "type": "function"
    },
    {
      "inputs": [
        {
          "internalType": "uint256",
          "name": "id",
          "type": "uint256"
        }
      ],
      "name": "validateRegisteredProject",
      "outputs": [],
      "stateMutability": "nonpayable",
      "type": "function"
    },
    {
      "inputs": [],
      "name": "withdraw",
      "outputs": [],
      "stateMutability": "nonpayable",
      "type": "function"
    },
    {
      "inputs": [],
      "name": "withdrawalPercentage",
      "outputs": [
        {
          "internalType": "uint256",
          "name": "",
          "type": "uint256"
        }
      ],
      "stateMutability": "view",
      "type": "function"
    }
  ],
  "bytecode": "0x60a06040523060805234801561001457600080fd5b5060805161312c61003e6000396000818161237b015281816123a40152612550015261312c6000f3fe6080604052600436106102885760003560e01c8063724acb1c1161015a578063b1b6b763116100c1578063ddf556d01161007a578063ddf556d01461079f578063e7d17884146107b4578063f2fde38b146107ca578063f44ccbcc146107ea578063f85920d81461080a578063f941f65e1461082a57600080fd5b8063b1b6b763146106d2578063b2ce6bce146106f2578063c4d66de814610712578063cc6ffeff14610732578063d57ca84a1461075f578063dba6335f1461077f57600080fd5b80639b44c143116101135780639b44c143146105f85780639c361e4e1461060d578063a46e873114610623578063ac09ca111461065c578063ad3cb1cc14610672578063af6f997e146106b057600080fd5b8063724acb1c1461052c5780637a0edf181461053f57806384f0f810146105545780638da5cb5b146105745780638ec876e7146105c55780639700e19e146105e557600080fd5b806342e94c90116101fe57806352d1902d116101b757806352d1902d14610486578063579a69881461049b57806368d4aceb146104cb5780636a7ab08e146104e05780636c27b07a14610502578063715018a61461051757600080fd5b806342e94c90146103d457806347c6eb78146104015780634a979d1d146104165780634c1b8b181461042b5780634f1ef2861461045e57806351fef2f21461047157600080fd5b80632c331957116102505780632c3319571461031f57806337c08923146103355780633ccfd60b1461034b5780633fafa127146103605780634098a2a614610376578063417b06e31461038c57600080fd5b806309fd10321461028d5780630ff37681146102b55780631c11342c146102ca5780632057c617146102dd57806325b16419146102fd575b600080fd5b34801561029957600080fd5b506102a261085f565b6040519081526020015b60405180910390f35b6102c86102c3366004612916565b6108a4565b005b6102c86102d8366004612916565b610965565b3480156102e957600080fd5b506102a26102f8366004612916565b610a21565b34801561030957600080fd5b50610312610b6c565b6040516102ac919061292f565b34801561032b57600080fd5b506102a260055481565b34801561034157600080fd5b506102a260075481565b34801561035757600080fd5b506102c8610c04565b34801561036c57600080fd5b506102a260025481565b34801561038257600080fd5b506102a260065481565b34801561039857600080fd5b506103c46103a7366004612916565b600090815260096020526040902060040154610100900460ff1690565b60405190151581526020016102ac565b3480156103e057600080fd5b506102a26103ef36600461298f565b600c6020526000908152604090205481565b34801561040d57600080fd5b506102a2610d12565b34801561042257600080fd5b50600e546102a2565b34801561043757600080fd5b5061044b610446366004612916565b610d58565b6040516102ac97969594939291906129fa565b6102c861046c366004612a57565b610e39565b34801561047d57600080fd5b506005546102a2565b34801561049257600080fd5b506102a2610e58565b3480156104a757600080fd5b506103c46104b6366004612916565b60086020526000908152604090205460ff1681565b3480156104d757600080fd5b506102a2610e75565b3480156104ec57600080fd5b506104f5610ee7565b6040516102ac9190612b19565b34801561050e57600080fd5b506102a2610f8a565b34801561052357600080fd5b506102c8610fc0565b6102c861053a366004612916565b610fd4565b34801561054b57600080fd5b506102a261121b565b34801561056057600080fd5b506102c861056f366004612b53565b61125a565b34801561058057600080fd5b507f9016d09d72d40fdae2fd8ceac6b6234c7706214fd39c1cd1e609a0528c199300546001600160a01b03165b6040516001600160a01b0390911681526020016102ac565b3480156105d157600080fd5b506102c86105e0366004612916565b61126d565b6102c86105f3366004612916565b6112cb565b34801561060457600080fd5b506102a26114e5565b34801561061957600080fd5b506102a260015481565b34801561062f57600080fd5b506103c461063e366004612916565b60009081526009602052604090206004015462010000900460ff1690565b34801561066857600080fd5b506102a260035481565b34801561067e57600080fd5b506106a3604051806040016040528060058152602001640352e302e360dc1b81525081565b6040516102ac9190612b75565b3480156106bc57600080fd5b506106c5611534565b6040516102ac9190612beb565b3480156106de57600080fd5b506102a26106ed366004612916565b611677565b3480156106fe57600080fd5b506102c861070d366004612916565b6116ac565b34801561071e57600080fd5b506102c861072d36600461298f565b611850565b34801561073e57600080fd5b5061075261074d366004612916565b61199a565b6040516102ac9190612c4d565b34801561076b57600080fd5b506102c861077a366004612c60565b611b3a565b34801561078b57600080fd5b506000546105ad906001600160a01b031681565b3480156107ab57600080fd5b506007546102a2565b3480156107c057600080fd5b506102a260045481565b3480156107d657600080fd5b506102c86107e536600461298f565b611fc9565b3480156107f657600080fd5b50600d546105ad906001600160a01b031681565b34801561081657600080fd5b506102c8610825366004612916565b612007565b34801561083657600080fd5b5061084a610845366004612916565b6121f6565b604080519283526020830191909152016102ac565b600080805b60015481101561089e5760008181526009602052604090206002015461088a9083612d12565b91508061089681612d25565b915050610864565b50919050565b803410156108f05760405162461bcd60e51b8152602060048201526014602482015273125b9cdd59999a58da595b9d081c185e5b595b9d60621b60448201526064015b60405180910390fd5b336000908152600c60205260408120805483929061090f908490612d12565b9250508190555080600760008282546109289190612d12565b909155505060405181815233907f4d154d4aae216bed6d0926db77c00df2b57c6b5ba4eee05775de20facede3a7b9060200160405180910390a250565b600061097082611677565b9050803410156109b95760405162461bcd60e51b8152602060048201526014602482015273125b9cdd59999a58da595b9d081c185e5b595b9d60621b60448201526064016108e7565b600d546040516340c10f1960e01b8152336004820152602481018490526001600160a01b03909116906340c10f1990604401600060405180830381600087803b158015610a0557600080fd5b505af1158015610a19573d6000803e3d6000fd5b505050505050565b6000818152600960209081526040808320815160e0810190925280548252600181018054859484019190610a5490612d3e565b80601f0160208091040260200160405190810160405280929190818152602001828054610a8090612d3e565b8015610acd5780601f10610aa257610100808354040283529160200191610acd565b820191906000526020600020905b815481529060010190602001808311610ab057829003601f168201915b505050918352505060028201546020820152600382015460408083019190915260049092015460ff8082161515606084015261010082048116151560808401526201000090910416151560a090910152810151909150600090610b3890670de0b6b3a7640000612d72565b905060008260600151670de0b6b3a7640000610b549190612d72565b90506000610b628284612d12565b9695505050505050565b6060600060015467ffffffffffffffff811115610b8b57610b8b612a41565b604051908082528060200260200182016040528015610bb4578160200160208202803683370190505b50905060005b60015481101561089e576000818152600960205260409020548251839083908110610be757610be7612d89565b602090810291909101015280610bfc81612d25565b915050610bba565b610c0c612315565b4780610c515760405162461bcd60e51b81526020600482015260146024820152734e6f2066756e647320746f20776974686472617760601b60448201526064016108e7565b6000670de0b6b3a7640000600554610c699190612d72565b90506000610c778284612d72565b90506000610c8e670de0b6b3a76400006064612d72565b90506000610c9c8284612d9f565b600080546040519293506001600160a01b03169183156108fc0291849190818181858888f19350505050158015610cd7573d6000803e3d6000fd5b506040518181527f4e70a604b23a8edee2b1d0a656e9b9c00b73ad8bb1afc2c59381ee9f69197de79060200160405180910390a15050505050565b600080805b60015481101561089e576000818152600b602052604090205460ff1615610d465781610d4281612d25565b9250505b80610d5081612d25565b915050610d17565b600e8181548110610d6857600080fd5b60009182526020909120600590910201805460018201805491935090610d8d90612d3e565b80601f0160208091040260200160405190810160405280929190818152602001828054610db990612d3e565b8015610e065780601f10610ddb57610100808354040283529160200191610e06565b820191906000526020600020905b815481529060010190602001808311610de957829003601f168201915b505050600284015460038501546004909501549394909390925060ff808216925061010082048116916201000090041687565b610e41612370565b610e4a82612415565b610e548282612483565b5050565b6000610e62612545565b506000805160206130d783398151915290565b600d546040516370a0823160e01b81523060048201526000916001600160a01b0316906370a0823190602401602060405180830381865afa158015610ebe573d6000803e3d6000fd5b505050506040513d601f19601f82011682018060405250810190610ee29190612dc1565b905090565b6060600060015467ffffffffffffffff811115610f0657610f06612a41565b604051908082528060200260200182016040528015610f2f578160200160208202803683370190505b50905060005b60015481101561089e576000818152600a6020526040902054825160ff90911690839083908110610f6857610f68612d89565b9115156020928302919091019091015280610f8281612d25565b915050610f35565b600080805b60015481101561089e57610fa28161258e565b610fac9083612d12565b915080610fb881612d25565b915050610f8f565b610fc8612315565b610fd260006125f2565b565b60008181526008602052604090205460ff166110025760405162461bcd60e51b81526004016108e790612dda565b600081815260096020526040902060040154610100900460ff166110385760405162461bcd60e51b81526004016108e790612e0f565b60008181526009602052604090206004015462010000900460ff16156110705760405162461bcd60e51b81526004016108e790612e50565b60008181526009602052604081209061108883610a21565b9050803410156110d25760405162461bcd60e51b815260206004820152601560248201527424b739bab33334b1b4b2b73a103830bcb6b2b73a1760591b60448201526064016108e7565b6000826003015460016110e59190612d72565b6002808501546110f491612d72565b6110fe9190612d12565b600085815260096020526040908190206004908101805462ff0000191662010000179055600d5491516340c10f1960e01b81523391810191909152602481018390529192506001600160a01b0316906340c10f1990604401600060405180830381600087803b15801561117057600080fd5b505af1158015611184573d6000803e3d6000fd5b5050505060005b600e548110156112145784600e82815481106111a9576111a9612d89565b90600052602060002090600502016000015403611202576001600e82815481106111d5576111d5612d89565b906000526020600020906005020160040160026101000a81548160ff021916908315150217905550611214565b8061120c81612d25565b91505061118b565b5050505050565b600080805b60015481101561089e576000818152600960205260409020600301546112469083612d12565b91508061125281612d25565b915050611220565b611262612315565b600391909155600455565b611275612315565b60648111156112c65760405162461bcd60e51b815260206004820152601c60248201527f50657263656e746167652063616e6e6f7420657863656564203130300000000060448201526064016108e7565b600555565b60008181526008602052604090205460ff166112f95760405162461bcd60e51b81526004016108e790612dda565b60008181526009602052604090206004015462010000900460ff166113305760405162461bcd60e51b81526004016108e790612e50565b600081815260096020526040902060040154610100900460ff166113965760405162461bcd60e51b815260206004820152601d60248201527f546869732070726f6a656374206973206e6f742076616c69646174656400000060448201526064016108e7565b6000818152600a602052604090205460ff16156113f55760405162461bcd60e51b815260206004820181905260248201527f746869732069732070726f6a656374206973206e6f7420696e737572616e636560448201526064016108e7565b60006114008261258e565b90508034101561144a5760405162461bcd60e51b815260206004820152601560248201527424b739bab33334b1b4b2b73a103830bcb6b2b73a1760591b60448201526064016108e7565b8034111561148a57336108fc6114608334612e87565b6040518115909202916000818181858888f19350505050158015611488573d6000803e3d6000fd5b505b6000828152600a602052604090819020805460ff1916600117905551339083907fa461e513d2aed580ba148ba370e44d9667f51611a9099cfab56c5369dc5421ae906114d99085815260200190565b60405180910390a35050565b600080805b60015481101561089e5760008181526009602052604090206004015462010000900460ff1615611522578161151e81612d25565b9250505b8061152c81612d25565b9150506114ea565b6060600e805480602002602001604051908101604052809291908181526020016000905b8282101561166e57838290600052602060002090600502016040518060e00160405290816000820154815260200160018201805461159590612d3e565b80601f01602080910402602001604051908101604052809291908181526020018280546115c190612d3e565b801561160e5780601f106115e35761010080835404028352916020019161160e565b820191906000526020600020905b8154815290600101906020018083116115f157829003601f168201915b505050918352505060028201546020808301919091526003830154604083015260049092015460ff8082161515606084015261010082048116151560808401526201000090910416151560a0909101529082526001929092019101611558565b50505050905090565b6000600181670de0b6b3a7640000806116908487612d72565b61169a9190612d72565b6116a49190612d9f565b949350505050565b6116b4612315565b60008181526008602052604090205460ff166116e25760405162461bcd60e51b81526004016108e790612dda565b60008181526009602052604090206004015462010000900460ff161561171a5760405162461bcd60e51b81526004016108e790612e50565b60008181526009602052604090206004810154610100900460ff16156117525760405162461bcd60e51b81526004016108e790612e0f565b60048101805461ff00191661010017905560005b600e548110156117ef5782600e828154811061178457611784612d89565b906000526020600020906005020160000154036117dd576001600e82815481106117b0576117b0612d89565b906000526020600020906005020160040160016101000a81548160ff0219169083151502179055506117ef565b806117e781612d25565b915050611766565b506002810154600382015460048301546040517fc9fc3aa04405be53fb86d02994d4187da48cd546f7dfb4dc3d63a18444ee3796936118449360018701939192909160ff808216926101009092041690612e9a565b60405180910390a15050565b7ff0c57e16840df040f15088dc2f81fe391c3923bec73e23a9662efc9c229c6a008054600160401b810460ff16159067ffffffffffffffff166000811580156118965750825b905060008267ffffffffffffffff1660011480156118b35750303b155b9050811580156118c1575080155b156118df5760405163f92ee8a960e01b815260040160405180910390fd5b845467ffffffffffffffff19166001178555831561190957845460ff60401b1916600160401b1785555b61191233612663565b61191a612674565b600d80546001600160a01b0319166001600160a01b038816179055612710600355620186a06004556002600555600a6006558315610a1957845460ff60401b19168555604051600181527fc7f505b2f371ae2175ee4913f4499e1f2633a7b5936321eed1cdaeb6115181d2906020015b60405180910390a1505050505050565b6119e06040518060e00160405280600081526020016060815260200160008152602001600081526020016000151581526020016000151581526020016000151581525090565b60008281526008602052604090205460ff16611a375760405162461bcd60e51b8152602060048201526016602482015275141c9bda9958dd081b9bdd081c9959da5cdd195c995960521b60448201526064016108e7565b600960008381526020019081526020016000206040518060e001604052908160008201548152602001600182018054611a6f90612d3e565b80601f0160208091040260200160405190810160405280929190818152602001828054611a9b90612d3e565b8015611ae85780601f10611abd57610100808354040283529160200191611ae8565b820191906000526020600020905b815481529060010190602001808311611acb57829003601f168201915b5050509183525050600282015460208201526003820154604082015260049091015460ff8082161515606084015261010082048116151560808401526201000090910416151560a09091015292915050565b83611b875760405162461bcd60e51b815260206004820152601860248201527f4e616d652073686f756c64206e6f7420626520656d707479000000000000000060448201526064016108e7565b6127108310611bf05760405162461bcd60e51b815260206004820152602f60248201527f416e6e75616c20656d697373696f6e73206d757374206265206c65737320746860448201526e30b710189816181818103a37b7399760891b60648201526084016108e7565b620186a08210611c5d5760405162461bcd60e51b815260206004820152603260248201527f416e6e75616c207761746572207573616765206d757374206e6f74206578636560448201527132b21018981816181818103634ba32b9399760711b60648201526084016108e7565b80611cbc5760405162461bcd60e51b815260206004820152602960248201527f50726f6a656374206d75737420696e636c75646520656d697373696f6e73207260448201526832b23ab1ba34b7b71760b91b60648201526084016108e7565b600860006002546001611ccf9190612d12565b815260208101919091526040016000205460ff1615611d565760405162461bcd60e51b815260206004820152603860248201527f726567697374657250726f6a6563743a2d20546869732070726f6a656374204960448201527f4420697320616c726561647920726567697374657265642e000000000000000060648201526084016108e7565b60018054906000611d6683612d25565b909155505060015460028190556040805180820190915260098152681c1c9bda9958dd125960ba1b6020820152611d9c9161267c565b60006040518060e00160405280600254815260200187878080601f016020809104026020016040519081016040528093929190818152602001838380828437600092018290525093855250505060208083018890526040830187905285151560608401526080830182905260a0909201819052600e80546001810182559152825160059091027fbb7b4a454dc3493923482f07822329ed19e8244eff582cc204f8554c3620c3fd810191825591830151929350839290917fbb7b4a454dc3493923482f07822329ed19e8244eff582cc204f8554c3620c3fe0190611e809082612f89565b506040828101516002808401919091556060840151600384015560808401516004909301805460a086015160c0909601511515620100000262ff0000199615156101000261ff00199615159690961661ffff19909216919091179490941794909416929092179092558054600090815260086020908152838220805460ff1916600190811790915592548252600981529290208351815591830151839291820190611f2b9082612f89565b5060408281015160028301556060830151600383015560808301516004909201805460a085015160c0909501511515620100000262ff0000199515156101000261ff00199515159590951661ffff1990921691909117939093179390931691909117909155517fc9fc3aa04405be53fb86d02994d4187da48cd546f7dfb4dc3d63a18444ee37969061198a9088908890889088908890600090613049565b611fd1612315565b6001600160a01b038116611ffb57604051631e4fbdf760e01b8152600060048201526024016108e7565b612004816125f2565b50565b60008181526008602052604090205460ff166120355760405162461bcd60e51b81526004016108e790612dda565b60008181526009602052604090206004015462010000900460ff1661206c5760405162461bcd60e51b81526004016108e790612e50565b600081815260096020526040902060040154610100900460ff166120d25760405162461bcd60e51b815260206004820152601d60248201527f546869732070726f6a656374206973206e6f742076616c69646174656400000060448201526064016108e7565b6000818152600a602052604090205460ff166121305760405162461bcd60e51b815260206004820181905260248201527f746869732069732070726f6a656374206973206e6f7420696e737572616e636560448201526064016108e7565b6000818152600b602052604090205460ff161561219e5760405162461bcd60e51b815260206004820152602660248201527f746869732069732070726f6a65637420636c61696d6564207468652020696e736044820152657572616e636560d01b60648201526084016108e7565b60006121a98261258e565b604051909150339082156108fc029083906000818181858888f193505050501580156121d9573d6000803e3d6000fd5b50506000908152600b60205260409020805460ff19166001179055565b6000806000600960008581526020019081526020016000206040518060e00160405290816000820154815260200160018201805461223390612d3e565b80601f016020809104026020016040519081016040528092919081815260200182805461225f90612d3e565b80156122ac5780601f10612281576101008083540402835291602001916122ac565b820191906000526020600020905b81548152906001019060200180831161228f57829003601f168201915b505050918352505060028201546020820152600382015460408083019190915260049092015460ff808216151560608085019190915261010083048216151560808501526201000090920416151560a09092019190915290820151910151909590945092505050565b336123477f9016d09d72d40fdae2fd8ceac6b6234c7706214fd39c1cd1e609a0528c199300546001600160a01b031690565b6001600160a01b031614610fd25760405163118cdaa760e01b81523360048201526024016108e7565b306001600160a01b037f00000000000000000000000000000000000000000000000000000000000000001614806123f757507f00000000000000000000000000000000000000000000000000000000000000006001600160a01b03166123eb6000805160206130d7833981519152546001600160a01b031690565b6001600160a01b031614155b15610fd25760405163703e46dd60e11b815260040160405180910390fd5b61241d612315565b6001600160a01b0381166120045760405162461bcd60e51b815260206004820152602760248201527f4e657720696d706c656d656e746174696f6e2063616e6e6f74206265206164646044820152667265737328302960c81b60648201526084016108e7565b816001600160a01b03166352d1902d6040518163ffffffff1660e01b8152600401602060405180830381865afa9250505080156124dd575060408051601f3d908101601f191682019092526124da91810190612dc1565b60015b61250557604051634c9c8ce360e01b81526001600160a01b03831660048201526024016108e7565b6000805160206130d7833981519152811461253657604051632a87526960e21b8152600481018290526024016108e7565b61254083836126c1565b505050565b306001600160a01b037f00000000000000000000000000000000000000000000000000000000000000001614610fd25760405163703e46dd60e11b815260040160405180910390fd5b60008061259a83610a21565b90506000670de0b6b3a76400006006546125b49190612d72565b905060006125c28284612d72565b905060006125d9670de0b6b3a76400006064612d72565b905060006125e78284612d9f565b979650505050505050565b7f9016d09d72d40fdae2fd8ceac6b6234c7706214fd39c1cd1e609a0528c19930080546001600160a01b031981166001600160a01b03848116918217845560405192169182907f8be0079c531659141344cd1fd0a4f28419497f9722a3daafe3b4186f6b6457e090600090a3505050565b61266b612717565b61200481612760565b610fd2612717565b610e548282604051602401612692929190613098565b60408051601f198184030181529190526020810180516001600160e01b0316632d839cb360e21b179052612768565b6126ca82612771565b6040516001600160a01b038316907fbc7cd75a20ee27fd9adebab32041f755214dbc6bffa90cc0225b39da2e5c2d3b90600090a280511561270f5761254082826127d6565b610e5461284e565b7ff0c57e16840df040f15088dc2f81fe391c3923bec73e23a9662efc9c229c6a0054600160401b900460ff16610fd257604051631afcd79f60e31b815260040160405180910390fd5b611fd1612717565b6120048161286d565b806001600160a01b03163b6000036127a757604051634c9c8ce360e01b81526001600160a01b03821660048201526024016108e7565b6000805160206130d783398151915280546001600160a01b0319166001600160a01b0392909216919091179055565b6060600080846001600160a01b0316846040516127f391906130ba565b600060405180830381855af49150503d806000811461282e576040519150601f19603f3d011682016040523d82523d6000602084013e612833565b606091505b509150915061284385838361288e565b925050505b92915050565b3415610fd25760405163b398979f60e01b815260040160405180910390fd5b60006a636f6e736f6c652e6c6f679050600080835160208501845afa505050565b6060826128a35761289e826128ed565b6128e6565b81511580156128ba57506001600160a01b0384163b155b156128e357604051639996b31560e01b81526001600160a01b03851660048201526024016108e7565b50805b9392505050565b8051156128fd5780518082602001fd5b604051630a12f52160e11b815260040160405180910390fd5b60006020828403121561292857600080fd5b5035919050565b6020808252825182820181905260009190848201906040850190845b818110156129675783518352928401929184019160010161294b565b50909695505050505050565b80356001600160a01b038116811461298a57600080fd5b919050565b6000602082840312156129a157600080fd5b6128e682612973565b60005b838110156129c55781810151838201526020016129ad565b50506000910152565b600081518084526129e68160208601602086016129aa565b601f01601f19169290920160200192915050565b87815260e060208201526000612a1360e08301896129ce565b60408301979097525060608101949094529115156080840152151560a0830152151560c09091015292915050565b634e487b7160e01b600052604160045260246000fd5b60008060408385031215612a6a57600080fd5b612a7383612973565b9150602083013567ffffffffffffffff80821115612a9057600080fd5b818501915085601f830112612aa457600080fd5b813581811115612ab657612ab6612a41565b604051601f8201601f19908116603f01168101908382118183101715612ade57612ade612a41565b81604052828152886020848701011115612af757600080fd5b8260208601602083013760006020848301015280955050505050509250929050565b6020808252825182820181905260009190848201906040850190845b81811015612967578351151583529284019291840191600101612b35565b60008060408385031215612b6657600080fd5b50508035926020909101359150565b6020815260006128e660208301846129ce565b805182526000602082015160e06020850152612ba760e08501826129ce565b9050604083015160408501526060830151606085015260808301511515608085015260a0830151151560a085015260c0830151151560c08501528091505092915050565b6000602080830181845280855180835260408601915060408160051b870101925083870160005b82811015612c4057603f19888603018452612c2e858351612b88565b94509285019290850190600101612c12565b5092979650505050505050565b6020815260006128e66020830184612b88565b600080600080600060808688031215612c7857600080fd5b853567ffffffffffffffff80821115612c9057600080fd5b818801915088601f830112612ca457600080fd5b813581811115612cb357600080fd5b896020828501011115612cc557600080fd5b6020928301975095505086013592506040860135915060608601358015158114612cee57600080fd5b809150509295509295909350565b634e487b7160e01b600052601160045260246000fd5b8082018082111561284857612848612cfc565b600060018201612d3757612d37612cfc565b5060010190565b600181811c90821680612d5257607f821691505b60208210810361089e57634e487b7160e01b600052602260045260246000fd5b808202811582820484141761284857612848612cfc565b634e487b7160e01b600052603260045260246000fd5b600082612dbc57634e487b7160e01b600052601260045260246000fd5b500490565b600060208284031215612dd357600080fd5b5051919050565b6020808252818101527f6869732070726f6a656374204944206973206e6f742072656769737465726564604082015260600190565b60208082526021908201527f546869732070726f6a65637420697320616c72656164792076616c69646174656040820152601960fa1b606082015260800190565b6020808252601c908201527f546869732070726f6a65637420697320616c7265616479205061696400000000604082015260600190565b8181038181111561284857612848612cfc565b60a081526000808754612eac81612d3e565b8060a086015260c0600180841660008114612ece5760018114612ee857612f19565b60ff1985168884015283151560051b880183019550612f19565b8c60005260208060002060005b86811015612f105781548b8201870152908401908201612ef5565b8a018501975050505b50505050506020830187905260408301869052841515606084015290508215156080830152610b62565b601f82111561254057600081815260208120601f850160051c81016020861015612f6a5750805b601f850160051c820191505b81811015610a1957828155600101612f76565b815167ffffffffffffffff811115612fa357612fa3612a41565b612fb781612fb18454612d3e565b84612f43565b602080601f831160018114612fec5760008415612fd45750858301515b600019600386901b1c1916600185901b178555610a19565b600085815260208120601f198616915b8281101561301b57888601518255948401946001909101908401612ffc565b50858210156130395787850151600019600388901b60f8161c191681555b5050505050600190811b01905550565b60a081528560a0820152858760c0830137600060c087830181019190915260208201959095526040810193909352901515606083015215156080820152601f909201601f191690910101919050565b6040815260006130ab60408301856129ce565b90508260208301529392505050565b600082516130cc8184602087016129aa565b919091019291505056fe360894a13ba1a3210667c828492db98dca3e2076cc3735a920a3ca505d382bbca264697066735822122053345a3dfeb39728b45cd7b91a826576a04227a62d722d3be3c4e0c121c75b4f64736f6c63430008150033",
  "linkReferences": {},
  "deployedLinkReferences": {}
}