{
  "_format": "hh-sol-artifact-1",
  "contractName": "EcoLedger",
  "sourceName": "contracts/Ecoledger.sol",
  "abi": [
    {
      "inputs": [
        {
          "internalType": "address",
          "name": "target",
          "type": "address"
        }
      ],
      "name": "AddressEmptyCode",
      "type": "error"
    },
    {
      "inputs": [
        {
          "internalType": "address",
          "name": "implementation",
          "type": "address"
        }
      ],
      "name": "ERC1967InvalidImplementation",
      "type": "error"
    },
    {
      "inputs": [],
      "name": "ERC1967NonPayable",
      "type": "error"
    },
    {
      "inputs": [],
      "name": "FailedInnerCall",
      "type": "error"
    },
    {
      "inputs": [],
      "name": "InvalidInitialization",
      "type": "error"
    },
    {
      "inputs": [],
      "name": "NotInitializing",
      "type": "error"
    },
    {
      "inputs": [
        {
          "internalType": "address",
          "name": "owner",
          "type": "address"
        }
      ],
      "name": "OwnableInvalidOwner",
      "type": "error"
    },
    {
      "inputs": [
        {
          "internalType": "address",
          "name": "account",
          "type": "address"
        }
      ],
      "name": "OwnableUnauthorizedAccount",
      "type": "error"
    },
    {
      "inputs": [],
      "name": "UUPSUnauthorizedCallContext",
      "type": "error"
    },
    {
      "inputs": [
        {
          "internalType": "bytes32",
          "name": "slot",
          "type": "bytes32"
        }
      ],
      "name": "UUPSUnsupportedProxiableUUID",
      "type": "error"
    },
    {
      "anonymous": false,
      "inputs": [
        {
          "indexed": false,
          "internalType": "string",
          "name": "name",
          "type": "string"
        },
        {
          "indexed": false,
          "internalType": "uint256",
          "name": "Annualemissions",
          "type": "uint256"
        },
        {
          "indexed": false,
          "internalType": "uint256",
          "name": "AnnualWaterusage",
          "type": "uint256"
        },
        {
          "indexed": false,
          "internalType": "bool",
          "name": "EmissionsReductionProject",
          "type": "bool"
        },
        {
          "indexed": false,
          "internalType": "bool",
          "name": "Validated",
          "type": "bool"
        }
      ],
      "name": "CarbonProjectEvent",
      "type": "event"
    },
    {
      "anonymous": false,
      "inputs": [
        {
          "indexed": true,
          "internalType": "address",
          "name": "contributor",
          "type": "address"
        },
        {
          "indexed": false,
          "internalType": "uint256",
          "name": "amount",
          "type": "uint256"
        }
      ],
      "name": "Contribution",
      "type": "event"
    },
    {
      "anonymous": false,
      "inputs": [
        {
          "indexed": false,
          "internalType": "uint64",
          "name": "version",
          "type": "uint64"
        }
      ],
      "name": "Initialized",
      "type": "event"
    },
    {
      "anonymous": false,
      "inputs": [
        {
          "indexed": true,
          "internalType": "uint256",
          "name": "projectId",
          "type": "uint256"
        },
        {
          "indexed": false,
          "internalType": "uint256",
          "name": "amount",
          "type": "uint256"
        },
        {
          "indexed": true,
          "internalType": "address",
          "name": "buyer",
          "type": "address"
        }
      ],
      "name": "InsurancePurchased",
      "type": "event"
    },
    {
      "anonymous": false,
      "inputs": [
        {
          "indexed": true,
          "internalType": "address",
          "name": "previousOwner",
          "type": "address"
        },
        {
          "indexed": true,
          "internalType": "address",
          "name": "newOwner",
          "type": "address"
        }
      ],
      "name": "OwnershipTransferred",
      "type": "event"
    },
    {
      "anonymous": false,
      "inputs": [
        {
          "indexed": true,
          "internalType": "address",
          "name": "implementation",
          "type": "address"
        }
      ],
      "name": "Upgraded",
      "type": "event"
    },
    {
      "anonymous": false,
      "inputs": [
        {
          "indexed": false,
          "internalType": "uint256",
          "name": "amount",
          "type": "uint256"
        }
      ],
      "name": "Withdrawal",
      "type": "event"
    },
    {
      "inputs": [],
      "name": "UPGRADE_INTERFACE_VERSION",
      "outputs": [
        {
          "internalType": "string",
          "name": "",
          "type": "string"
        }
      ],
      "stateMutability": "view",
      "type": "function"
    },
    {
      "inputs": [
        {
          "internalType": "uint256",
          "name": "id",
          "type": "uint256"
        }
      ],
      "name": "_calculateInsurancePayment",
      "outputs": [
        {
          "internalType": "uint256",
          "name": "",
          "type": "uint256"
        }
      ],
      "stateMutability": "view",
      "type": "function"
    },
    {
      "inputs": [
        {
          "internalType": "uint256",
          "name": "id",
          "type": "uint256"
        }
      ],
      "name": "_calculateTotalPayment",
      "outputs": [
        {
          "internalType": "uint256",
          "name": "",
          "type": "uint256"
        }
      ],
      "stateMutability": "view",
      "type": "function"
    },
    {
      "inputs": [
        {
          "internalType": "uint256",
          "name": "amount",
          "type": "uint256"
        }
      ],
      "name": "buySustainabilityCoin",
      "outputs": [],
      "stateMutability": "payable",
      "type": "function"
    },
    {
      "inputs": [
        {
          "internalType": "uint256",
          "name": "",
          "type": "uint256"
        }
      ],
      "name": "carbonProjects",
      "outputs": [
        {
          "internalType": "uint256",
          "name": "id",
          "type": "uint256"
        },
        {
          "internalType": "string",
          "name": "name",
          "type": "string"
        },
        {
          "internalType": "uint256",
          "name": "Annualemissions",
          "type": "uint256"
        },
        {
          "internalType": "uint256",
          "name": "AnnualWaterusage",
          "type": "uint256"
        },
        {
          "internalType": "bool",
          "name": "EmissionsReductionProject",
          "type": "bool"
        },
        {
          "internalType": "bool",
          "name": "Validated",
          "type": "bool"
        },
        {
          "internalType": "bool",
          "name": "Paid",
          "type": "bool"
        }
      ],
      "stateMutability": "view",
      "type": "function"
    },
    {
      "inputs": [
        {
          "internalType": "uint256",
          "name": "id",
          "type": "uint256"
        }
      ],
      "name": "claimInsurance",
      "outputs": [],
      "stateMutability": "nonpayable",
      "type": "function"
    },
    {
      "inputs": [
        {
          "internalType": "uint256",
          "name": "amount",
          "type": "uint256"
        }
      ],
      "name": "contributeTosayNoCarbon",
      "outputs": [],
      "stateMutability": "payable",
      "type": "function"
    },
    {
      "inputs": [
        {
          "internalType": "address",
          "name": "",
          "type": "address"
        }
      ],
      "name": "contributions",
      "outputs": [
        {
          "internalType": "uint256",
          "name": "",
          "type": "uint256"
        }
      ],
      "stateMutability": "view",
      "type": "function"
    },
    {
      "inputs": [],
      "name": "getAllProjectInsuranceStatus",
      "outputs": [
        {
          "internalType": "bool[]",
          "name": "",
          "type": "bool[]"
        }
      ],
      "stateMutability": "view",
      "type": "function"
    },
    {
      "inputs": [],
      "name": "getAllRegisteredProjectIds",
      "outputs": [
        {
          "internalType": "uint256[]",
          "name": "",
          "type": "uint256[]"
        }
      ],
      "stateMutability": "view",
      "type": "function"
    },
    {
      "inputs": [],
      "name": "getAllRegisteredProjects",
      "outputs": [
        {
          "components": [
            {
              "internalType": "uint256",
              "name": "id",
              "type": "uint256"
            },
            {
              "internalType": "string",
              "name": "name",
              "type": "string"
            },
            {
              "internalType": "uint256",
              "name": "Annualemissions",
              "type": "uint256"
            },
            {
              "internalType": "uint256",
              "name": "AnnualWaterusage",
              "type": "uint256"
            },
            {
              "internalType": "bool",
              "name": "EmissionsReductionProject",
              "type": "bool"
            },
            {
              "internalType": "bool",
              "name": "Validated",
              "type": "bool"
            },
            {
              "internalType": "bool",
              "name": "Paid",
              "type": "bool"
            }
          ],
          "internalType": "struct EcoLedger.CarbonProject[]",
          "name": "",
          "type": "tuple[]"
        }
      ],
      "stateMutability": "view",
      "type": "function"
    },
    {
      "inputs": [
        {
          "internalType": "uint256",
          "name": "id",
          "type": "uint256"
        }
      ],
      "name": "getFullCarbonProject",
      "outputs": [
        {
          "components": [
            {
              "internalType": "uint256",
              "name": "id",
              "type": "uint256"
            },
            {
              "internalType": "string",
              "name": "name",
              "type": "string"
            },
            {
              "internalType": "uint256",
              "name": "Annualemissions",
              "type": "uint256"
            },
            {
              "internalType": "uint256",
              "name": "AnnualWaterusage",
              "type": "uint256"
            },
            {
              "internalType": "bool",
              "name": "EmissionsReductionProject",
              "type": "bool"
            },
            {
              "internalType": "bool",
              "name": "Validated",
              "type": "bool"
            },
            {
              "internalType": "bool",
              "name": "Paid",
              "type": "bool"
            }
          ],
          "internalType": "struct EcoLedger.CarbonProject",
          "name": "",
          "type": "tuple"
        }
      ],
      "stateMutability": "view",
      "type": "function"
    },
    {
      "inputs": [],
      "name": "getPaidProjectsCount",
      "outputs": [
        {
          "internalType": "uint256",
          "name": "",
          "type": "uint256"
        }
      ],
      "stateMutability": "view",
      "type": "function"
    },
    {
      "inputs": [
        {
          "internalType": "uint256",
          "name": "id",
          "type": "uint256"
        }
      ],
      "name": "getProjectEmissionsAndWaterUsage",
      "outputs": [
        {
          "internalType": "uint256",
          "name": "emissions",
          "type": "uint256"
        },
        {
          "internalType": "uint256",
          "name": "waterUsage",
          "type": "uint256"
        }
      ],
      "stateMutability": "view",
      "type": "function"
    },
    {
      "inputs": [],
      "name": "getSustainabilityTokenBalance",
      "outputs": [
        {
          "internalType": "uint256",
          "name": "",
          "type": "uint256"
        }
      ],
      "stateMutability": "view",
      "type": "function"
    },
    {
      "inputs": [],
      "name": "getTotalContributions",
      "outputs": [
        {
          "internalType": "uint256",
          "name": "",
          "type": "uint256"
        }
      ],
      "stateMutability": "view",
      "type": "function"
    },
    {
      "inputs": [],
      "name": "getTotalEmissions",
      "outputs": [
        {
          "internalType": "uint256",
          "name": "",
          "type": "uint256"
        }
      ],
      "stateMutability": "view",
      "type": "function"
    },
    {
      "inputs": [],
      "name": "getTotalInsuranceClaims",
      "outputs": [
        {
          "internalType": "uint256",
          "name": "",
          "type": "uint256"
        }
      ],
      "stateMutability": "view",
      "type": "function"
    },
    {
      "inputs": [],
      "name": "getTotalInsurancePayments",
      "outputs": [
        {
          "internalType": "uint256",
          "name": "",
          "type": "uint256"
        }
      ],
      "stateMutability": "view",
      "type": "function"
    },
    {
      "inputs": [],
      "name": "getTotalWaterUsage",
      "outputs": [
        {
          "internalType": "uint256",
          "name": "",
          "type": "uint256"
        }
      ],
      "stateMutability": "view",
      "type": "function"
    },
    {
      "inputs": [],
      "name": "getWithdrawalPercentage",
      "outputs": [
        {
          "internalType": "uint256",
          "name": "",
          "type": "uint256"
        }
      ],
      "stateMutability": "view",
      "type": "function"
    },
    {
      "inputs": [],
      "name": "getcarbonProjectsLength",
      "outputs": [
        {
          "internalType": "uint256",
          "name": "",
          "type": "uint256"
        }
      ],
      "stateMutability": "view",
      "type": "function"
    },
    {
      "inputs": [],
      "name": "i_owner",
      "outputs": [
        {
          "internalType": "address payable",
          "name": "",
          "type": "address"
        }
      ],
      "stateMutability": "view",
      "type": "function"
    },
    {
      "inputs": [
        {
          "internalType": "address",
          "name": "tokenAddress",
          "type": "address"
        }
      ],
      "name": "initialize",
      "outputs": [],
      "stateMutability": "nonpayable",
      "type": "function"
    },
    {
      "inputs": [
        {
          "internalType": "uint256",
          "name": "id",
          "type": "uint256"
        }
      ],
      "name": "insurance",
      "outputs": [],
      "stateMutability": "payable",
      "type": "function"
    },
    {
      "inputs": [
        {
          "internalType": "uint256",
          "name": "",
          "type": "uint256"
        }
      ],
      "name": "insuranceOrNot",
      "outputs": [
        {
          "internalType": "bool",
          "name": "",
          "type": "bool"
        }
      ],
      "stateMutability": "view",
      "type": "function"
    },
    {
      "inputs": [],
      "name": "insurancePercentage",
      "outputs": [
        {
          "internalType": "uint256",
          "name": "",
          "type": "uint256"
        }
      ],
      "stateMutability": "view",
      "type": "function"
    },
    {
      "inputs": [
        {
          "internalType": "uint256",
          "name": "id",
          "type": "uint256"
        }
      ],
      "name": "isProjectPaid",
      "outputs": [
        {
          "internalType": "bool",
          "name": "",
          "type": "bool"
        }
      ],
      "stateMutability": "view",
      "type": "function"
    },
    {
      "inputs": [
        {
          "internalType": "uint256",
          "name": "id",
          "type": "uint256"
        }
      ],
      "name": "isProjectValidated",
      "outputs": [
        {
          "internalType": "bool",
          "name": "",
          "type": "bool"
        }
      ],
      "stateMutability": "view",
      "type": "function"
    },
    {
      "inputs": [
        {
          "internalType": "uint256",
          "name": "",
          "type": "uint256"
        }
      ],
      "name": "isRegistered",
      "outputs": [
        {
          "internalType": "bool",
          "name": "",
          "type": "bool"
        }
      ],
      "stateMutability": "view",
      "type": "function"
    },
    {
      "inputs": [],
      "name": "maxAnnualEmissions",
      "outputs": [
        {
          "internalType": "uint256",
          "name": "",
          "type": "uint256"
        }
      ],
      "stateMutability": "view",
      "type": "function"
    },
    {
      "inputs": [],
      "name": "maxAnnualWaterUsage",
      "outputs": [
        {
          "internalType": "uint256",
          "name": "",
          "type": "uint256"
        }
      ],
      "stateMutability": "view",
      "type": "function"
    },
    {
      "inputs": [],
      "name": "owner",
      "outputs": [
        {
          "internalType": "address",
          "name": "",
          "type": "address"
        }
      ],
      "stateMutability": "view",
      "type": "function"
    },
    {
      "inputs": [
        {
          "internalType": "uint256",
          "name": "id",
          "type": "uint256"
        }
      ],
      "name": "payForCarbon",
      "outputs": [],
      "stateMutability": "payable",
      "type": "function"
    },
    {
      "inputs": [
        {
          "internalType": "uint256",
          "name": "amount",
          "type": "uint256"
        }
      ],
      "name": "priceOfSustainabilityCoin",
      "outputs": [
        {
          "internalType": "uint256",
          "name": "",
          "type": "uint256"
        }
      ],
      "stateMutability": "pure",
      "type": "function"
    },
    {
      "inputs": [],
      "name": "projectId",
      "outputs": [
        {
          "internalType": "uint256",
          "name": "",
          "type": "uint256"
        }
      ],
      "stateMutability": "view",
      "type": "function"
    },
    {
      "inputs": [],
      "name": "proxiableUUID",
      "outputs": [
        {
          "internalType": "bytes32",
          "name": "",
          "type": "bytes32"
        }
      ],
      "stateMutability": "view",
      "type": "function"
    },
    {
      "inputs": [
        {
          "internalType": "string",
          "name": "name",
          "type": "string"
        },
        {
          "internalType": "uint256",
          "name": "annualemissions",
          "type": "uint256"
        },
        {
          "internalType": "uint256",
          "name": "annualWaterusage",
          "type": "uint256"
        },
        {
          "internalType": "bool",
          "name": "emissionsReductionProject",
          "type": "bool"
        }
      ],
      "name": "registerProject",
      "outputs": [],
      "stateMutability": "nonpayable",
      "type": "function"
    },
    {
      "inputs": [],
      "name": "renounceOwnership",
      "outputs": [],
      "stateMutability": "nonpayable",
      "type": "function"
    },
    {
      "inputs": [
        {
          "internalType": "uint256",
          "name": "newMaxEmissions",
          "type": "uint256"
        },
        {
          "internalType": "uint256",
          "name": "newMaxWaterUsage",
          "type": "uint256"
        }
      ],
      "name": "setConstraints",
      "outputs": [],
      "stateMutability": "nonpayable",
      "type": "function"
    },
    {
      "inputs": [
        {
          "internalType": "uint256",
          "name": "newPercentage",
          "type": "uint256"
        }
      ],
      "name": "setWithdrawalPercentage",
      "outputs": [],
      "stateMutability": "nonpayable",
      "type": "function"
    },
    {
      "inputs": [],
      "name": "sustainabilityToken",
      "outputs": [
        {
          "internalType": "contract ISustainabilityCoin",
          "name": "",
          "type": "address"
        }
      ],
      "stateMutability": "view",
      "type": "function"
    },
    {
      "inputs": [],
      "name": "totalContributions",
      "outputs": [
        {
          "internalType": "uint256",
          "name": "",
          "type": "uint256"
        }
      ],
      "stateMutability": "view",
      "type": "function"
    },
    {
      "inputs": [],
      "name": "totalProjects",
      "outputs": [
        {
          "internalType": "uint256",
          "name": "",
          "type": "uint256"
        }
      ],
      "stateMutability": "view",
      "type": "function"
    },
    {
      "inputs": [
        {
          "internalType": "address",
          "name": "newOwner",
          "type": "address"
        }
      ],
      "name": "transferOwnership",
      "outputs": [],
      "stateMutability": "nonpayable",
      "type": "function"
    },
    {
      "inputs": [
        {
          "internalType": "address",
          "name": "newImplementation",
          "type": "address"
        },
        {
          "internalType": "bytes",
          "name": "data",
          "type": "bytes"
        }
      ],
      "name": "upgradeToAndCall",
      "outputs": [],
      "stateMutability": "payable",
      "type": "function"
    },
    {
      "inputs": [
        {
          "internalType": "uint256",
          "name": "id",
          "type": "uint256"
        }
      ],
      "name": "validateRegisteredProject",
      "outputs": [],
      "stateMutability": "nonpayable",
      "type": "function"
    },
    {
      "inputs": [],
      "name": "withdraw",
      "outputs": [],
      "stateMutability": "nonpayable",
      "type": "function"
    },
    {
      "inputs": [],
      "name": "withdrawalPercentage",
      "outputs": [
        {
          "internalType": "uint256",
          "name": "",
          "type": "uint256"
        }
      ],
      "stateMutability": "view",
      "type": "function"
    }
  ],
  "bytecode": "0x60a06040523060805234801561001457600080fd5b506080516131ff61003e60003960008181612490015281816124b9015261266501526131ff6000f3fe6080604052600436106102ae5760003560e01c8063715018a611610175578063af6f997e116100dc578063dba6335f11610095578063f2fde38b1161006f578063f2fde38b14610840578063f44ccbcc14610860578063f85920d814610880578063f941f65e146108a057600080fd5b8063dba6335f146107f5578063ddf556d014610815578063e7d178841461082a57600080fd5b8063af6f997e14610726578063b1b6b76314610748578063b2ce6bce14610768578063c4d66de814610788578063cc6ffeff146107a8578063d57ca84a146107d557600080fd5b80639700e19e1161012e5780639700e19e1461065b5780639b44c1431461066e5780639c361e4e14610683578063a46e873114610699578063ac09ca11146106d2578063ad3cb1cc146106e857600080fd5b8063715018a61461058d578063724acb1c146105a25780637a0edf18146105b557806384f0f810146105ca5780638da5cb5b146105ea5780638ec876e71461063b57600080fd5b806342e94c901161021957806352d1902d116101d257806352d1902d146104dc57806356cb7ec6146104f1578063579a69881461051157806368d4aceb146105415780636a7ab08e146105565780636c27b07a1461057857600080fd5b806342e94c901461042a57806347c6eb78146104575780634a979d1d1461046c5780634c1b8b18146104815780634f1ef286146104b457806351fef2f2146104c757600080fd5b80632f8b274e1161026b5780632f8b274e1461035b57806337c089231461039b5780633ccfd60b146103b15780633fafa127146103c65780634098a2a6146103dc578063417b06e3146103f257600080fd5b806309fd1032146102b35780630ff37681146102db5780631c11342c146102f05780632057c6171461030357806325b16419146103235780632c33195714610345575b600080fd5b3480156102bf57600080fd5b506102c86108d5565b6040519081526020015b60405180910390f35b6102ee6102e93660046129c7565b61091a565b005b6102ee6102fe3660046129c7565b6109db565b34801561030f57600080fd5b506102c861031e3660046129c7565b610a97565b34801561032f57600080fd5b50610338610be2565b6040516102d291906129e0565b34801561035157600080fd5b506102c860055481565b34801561036757600080fd5b5061038b6103763660046129c7565b600a6020526000908152604090205460ff1681565b60405190151581526020016102d2565b3480156103a757600080fd5b506102c860075481565b3480156103bd57600080fd5b506102ee610c7a565b3480156103d257600080fd5b506102c860025481565b3480156103e857600080fd5b506102c860065481565b3480156103fe57600080fd5b5061038b61040d3660046129c7565b600090815260096020526040902060040154610100900460ff1690565b34801561043657600080fd5b506102c8610445366004612a40565b600c6020526000908152604090205481565b34801561046357600080fd5b506102c8610d88565b34801561047857600080fd5b50600e546102c8565b34801561048d57600080fd5b506104a161049c3660046129c7565b610dce565b6040516102d29796959493929190612aab565b6102ee6104c2366004612b08565b610eaf565b3480156104d357600080fd5b506005546102c8565b3480156104e857600080fd5b506102c8610ece565b3480156104fd57600080fd5b506102c861050c3660046129c7565b610eeb565b34801561051d57600080fd5b5061038b61052c3660046129c7565b60086020526000908152604090205460ff1681565b34801561054d57600080fd5b506102c8610f68565b34801561056257600080fd5b5061056b610fda565b6040516102d29190612bca565b34801561058457600080fd5b506102c861107d565b34801561059957600080fd5b506102ee6110b3565b6102ee6105b03660046129c7565b6110c7565b3480156105c157600080fd5b506102c861130e565b3480156105d657600080fd5b506102ee6105e5366004612c04565b61134d565b3480156105f657600080fd5b507f9016d09d72d40fdae2fd8ceac6b6234c7706214fd39c1cd1e609a0528c199300546001600160a01b03165b6040516001600160a01b0390911681526020016102d2565b34801561064757600080fd5b506102ee6106563660046129c7565b611360565b6102ee6106693660046129c7565b6113be565b34801561067a57600080fd5b506102c86115fa565b34801561068f57600080fd5b506102c860015481565b3480156106a557600080fd5b5061038b6106b43660046129c7565b60009081526009602052604090206004015462010000900460ff1690565b3480156106de57600080fd5b506102c860035481565b3480156106f457600080fd5b50610719604051806040016040528060058152602001640352e302e360dc1b81525081565b6040516102d29190612c26565b34801561073257600080fd5b5061073b611649565b6040516102d29190612c9c565b34801561075457600080fd5b506102c86107633660046129c7565b61178c565b34801561077457600080fd5b506102ee6107833660046129c7565b6117c1565b34801561079457600080fd5b506102ee6107a3366004612a40565b611965565b3480156107b457600080fd5b506107c86107c33660046129c7565b611aaf565b6040516102d29190612cfe565b3480156107e157600080fd5b506102ee6107f0366004612d11565b611c4f565b34801561080157600080fd5b50600054610623906001600160a01b031681565b34801561082157600080fd5b506007546102c8565b34801561083657600080fd5b506102c860045481565b34801561084c57600080fd5b506102ee61085b366004612a40565b6120de565b34801561086c57600080fd5b50600d54610623906001600160a01b031681565b34801561088c57600080fd5b506102ee61089b3660046129c7565b61211c565b3480156108ac57600080fd5b506108c06108bb3660046129c7565b61230b565b604080519283526020830191909152016102d2565b600080805b600154811015610914576000818152600960205260409020600201546109009083612dc3565b91508061090c81612dd6565b9150506108da565b50919050565b803410156109665760405162461bcd60e51b8152602060048201526014602482015273125b9cdd59999a58da595b9d081c185e5b595b9d60621b60448201526064015b60405180910390fd5b336000908152600c602052604081208054839290610985908490612dc3565b92505081905550806007600082825461099e9190612dc3565b909155505060405181815233907f4d154d4aae216bed6d0926db77c00df2b57c6b5ba4eee05775de20facede3a7b9060200160405180910390a250565b60006109e68261178c565b905080341015610a2f5760405162461bcd60e51b8152602060048201526014602482015273125b9cdd59999a58da595b9d081c185e5b595b9d60621b604482015260640161095d565b600d546040516340c10f1960e01b8152336004820152602481018490526001600160a01b03909116906340c10f1990604401600060405180830381600087803b158015610a7b57600080fd5b505af1158015610a8f573d6000803e3d6000fd5b505050505050565b6000818152600960209081526040808320815160e0810190925280548252600181018054859484019190610aca90612def565b80601f0160208091040260200160405190810160405280929190818152602001828054610af690612def565b8015610b435780601f10610b1857610100808354040283529160200191610b43565b820191906000526020600020905b815481529060010190602001808311610b2657829003601f168201915b505050918352505060028201546020820152600382015460408083019190915260049092015460ff8082161515606084015261010082048116151560808401526201000090910416151560a090910152810151909150600090610bae90670de0b6b3a7640000612e23565b905060008260600151670de0b6b3a7640000610bca9190612e23565b90506000610bd88284612dc3565b9695505050505050565b6060600060015467ffffffffffffffff811115610c0157610c01612af2565b604051908082528060200260200182016040528015610c2a578160200160208202803683370190505b50905060005b600154811015610914576000818152600960205260409020548251839083908110610c5d57610c5d612e3a565b602090810291909101015280610c7281612dd6565b915050610c30565b610c8261242a565b4780610cc75760405162461bcd60e51b81526020600482015260146024820152734e6f2066756e647320746f20776974686472617760601b604482015260640161095d565b6000670de0b6b3a7640000600554610cdf9190612e23565b90506000610ced8284612e23565b90506000610d04670de0b6b3a76400006064612e23565b90506000610d128284612e50565b600080546040519293506001600160a01b03169183156108fc0291849190818181858888f19350505050158015610d4d573d6000803e3d6000fd5b506040518181527f4e70a604b23a8edee2b1d0a656e9b9c00b73ad8bb1afc2c59381ee9f69197de79060200160405180910390a15050505050565b600080805b600154811015610914576000818152600b602052604090205460ff1615610dbc5781610db881612dd6565b9250505b80610dc681612dd6565b915050610d8d565b600e8181548110610dde57600080fd5b60009182526020909120600590910201805460018201805491935090610e0390612def565b80601f0160208091040260200160405190810160405280929190818152602001828054610e2f90612def565b8015610e7c5780601f10610e5157610100808354040283529160200191610e7c565b820191906000526020600020905b815481529060010190602001808311610e5f57829003601f168201915b505050600284015460038501546004909501549394909390925060ff808216925061010082048116916201000090041687565b610eb7612485565b610ec08261252a565b610eca8282612598565b5050565b6000610ed861265a565b5060008051602061318883398151915290565b600080610ef783610a97565b90506000670de0b6b3a7640000600654610f119190612e23565b90506000610f1f8284612e23565b90506000610f36670de0b6b3a76400006064612e23565b90506000610f448284612e50565b9050610bd86040518060600160405280602281526020016131a860229139826126a3565b600d546040516370a0823160e01b81523060048201526000916001600160a01b0316906370a0823190602401602060405180830381865afa158015610fb1573d6000803e3d6000fd5b505050506040513d601f19601f82011682018060405250810190610fd59190612e72565b905090565b6060600060015467ffffffffffffffff811115610ff957610ff9612af2565b604051908082528060200260200182016040528015611022578160200160208202803683370190505b50905060005b600154811015610914576000818152600a6020526040902054825160ff9091169083908390811061105b5761105b612e3a565b911515602092830291909101909101528061107581612dd6565b915050611028565b600080805b6001548110156109145761109581610eeb565b61109f9083612dc3565b9150806110ab81612dd6565b915050611082565b6110bb61242a565b6110c560006126e8565b565b60008181526008602052604090205460ff166110f55760405162461bcd60e51b815260040161095d90612e8b565b600081815260096020526040902060040154610100900460ff1661112b5760405162461bcd60e51b815260040161095d90612ec0565b60008181526009602052604090206004015462010000900460ff16156111635760405162461bcd60e51b815260040161095d90612f01565b60008181526009602052604081209061117b83610a97565b9050803410156111c55760405162461bcd60e51b815260206004820152601560248201527424b739bab33334b1b4b2b73a103830bcb6b2b73a1760591b604482015260640161095d565b6000826003015460016111d89190612e23565b6002808501546111e791612e23565b6111f19190612dc3565b600085815260096020526040908190206004908101805462ff0000191662010000179055600d5491516340c10f1960e01b81523391810191909152602481018390529192506001600160a01b0316906340c10f1990604401600060405180830381600087803b15801561126357600080fd5b505af1158015611277573d6000803e3d6000fd5b5050505060005b600e548110156113075784600e828154811061129c5761129c612e3a565b906000526020600020906005020160000154036112f5576001600e82815481106112c8576112c8612e3a565b906000526020600020906005020160040160026101000a81548160ff021916908315150217905550611307565b806112ff81612dd6565b91505061127e565b5050505050565b600080805b600154811015610914576000818152600960205260409020600301546113399083612dc3565b91508061134581612dd6565b915050611313565b61135561242a565b600391909155600455565b61136861242a565b60648111156113b95760405162461bcd60e51b815260206004820152601c60248201527f50657263656e746167652063616e6e6f74206578636565642031303000000000604482015260640161095d565b600555565b60008181526008602052604090205460ff166113ec5760405162461bcd60e51b815260040161095d90612e8b565b60008181526009602052604090206004015462010000900460ff166114235760405162461bcd60e51b815260040161095d90612f01565b600081815260096020526040902060040154610100900460ff166114895760405162461bcd60e51b815260206004820152601d60248201527f546869732070726f6a656374206973206e6f742076616c696461746564000000604482015260640161095d565b6000818152600a602052604090205460ff16156114f75760405162461bcd60e51b815260206004820152602660248201527f746869732069732070726f6a65637420697320416c72656164792020696e73756044820152651c985b98d95960d21b606482015260840161095d565b600061150282610eeb565b90508034101561155f5760405162461bcd60e51b815260206004820152602260248201527f496e73756666696369656e74207061796d656e7420466f7220496e737572616e604482015261636560f01b606482015260840161095d565b8034111561159f57336108fc6115758334612f38565b6040518115909202916000818181858888f1935050505015801561159d573d6000803e3d6000fd5b505b6000828152600a602052604090819020805460ff1916600117905551339083907fa461e513d2aed580ba148ba370e44d9667f51611a9099cfab56c5369dc5421ae906115ee9085815260200190565b60405180910390a35050565b600080805b6001548110156109145760008181526009602052604090206004015462010000900460ff1615611637578161163381612dd6565b9250505b8061164181612dd6565b9150506115ff565b6060600e805480602002602001604051908101604052809291908181526020016000905b8282101561178357838290600052602060002090600502016040518060e0016040529081600082015481526020016001820180546116aa90612def565b80601f01602080910402602001604051908101604052809291908181526020018280546116d690612def565b80156117235780601f106116f857610100808354040283529160200191611723565b820191906000526020600020905b81548152906001019060200180831161170657829003601f168201915b505050918352505060028201546020808301919091526003830154604083015260049092015460ff8082161515606084015261010082048116151560808401526201000090910416151560a090910152908252600192909201910161166d565b50505050905090565b6000600181670de0b6b3a7640000806117a58487612e23565b6117af9190612e23565b6117b99190612e50565b949350505050565b6117c961242a565b60008181526008602052604090205460ff166117f75760405162461bcd60e51b815260040161095d90612e8b565b60008181526009602052604090206004015462010000900460ff161561182f5760405162461bcd60e51b815260040161095d90612f01565b60008181526009602052604090206004810154610100900460ff16156118675760405162461bcd60e51b815260040161095d90612ec0565b60048101805461ff00191661010017905560005b600e548110156119045782600e828154811061189957611899612e3a565b906000526020600020906005020160000154036118f2576001600e82815481106118c5576118c5612e3a565b906000526020600020906005020160040160016101000a81548160ff021916908315150217905550611904565b806118fc81612dd6565b91505061187b565b506002810154600382015460048301546040517fc9fc3aa04405be53fb86d02994d4187da48cd546f7dfb4dc3d63a18444ee3796936119599360018701939192909160ff808216926101009092041690612f4b565b60405180910390a15050565b7ff0c57e16840df040f15088dc2f81fe391c3923bec73e23a9662efc9c229c6a008054600160401b810460ff16159067ffffffffffffffff166000811580156119ab5750825b905060008267ffffffffffffffff1660011480156119c85750303b155b9050811580156119d6575080155b156119f45760405163f92ee8a960e01b815260040160405180910390fd5b845467ffffffffffffffff191660011785558315611a1e57845460ff60401b1916600160401b1785555b611a2733612759565b611a2f61276a565b600d80546001600160a01b0319166001600160a01b038816179055612710600355620186a06004556002600555600a6006558315610a8f57845460ff60401b19168555604051600181527fc7f505b2f371ae2175ee4913f4499e1f2633a7b5936321eed1cdaeb6115181d2906020015b60405180910390a1505050505050565b611af56040518060e00160405280600081526020016060815260200160008152602001600081526020016000151581526020016000151581526020016000151581525090565b60008281526008602052604090205460ff16611b4c5760405162461bcd60e51b8152602060048201526016602482015275141c9bda9958dd081b9bdd081c9959da5cdd195c995960521b604482015260640161095d565b600960008381526020019081526020016000206040518060e001604052908160008201548152602001600182018054611b8490612def565b80601f0160208091040260200160405190810160405280929190818152602001828054611bb090612def565b8015611bfd5780601f10611bd257610100808354040283529160200191611bfd565b820191906000526020600020905b815481529060010190602001808311611be057829003601f168201915b5050509183525050600282015460208201526003820154604082015260049091015460ff8082161515606084015261010082048116151560808401526201000090910416151560a09091015292915050565b83611c9c5760405162461bcd60e51b815260206004820152601860248201527f4e616d652073686f756c64206e6f7420626520656d7074790000000000000000604482015260640161095d565b6127108310611d055760405162461bcd60e51b815260206004820152602f60248201527f416e6e75616c20656d697373696f6e73206d757374206265206c65737320746860448201526e30b710189816181818103a37b7399760891b606482015260840161095d565b620186a08210611d725760405162461bcd60e51b815260206004820152603260248201527f416e6e75616c207761746572207573616765206d757374206e6f74206578636560448201527132b21018981816181818103634ba32b9399760711b606482015260840161095d565b80611dd15760405162461bcd60e51b815260206004820152602960248201527f50726f6a656374206d75737420696e636c75646520656d697373696f6e73207260448201526832b23ab1ba34b7b71760b91b606482015260840161095d565b600860006002546001611de49190612dc3565b815260208101919091526040016000205460ff1615611e6b5760405162461bcd60e51b815260206004820152603860248201527f726567697374657250726f6a6563743a2d20546869732070726f6a656374204960448201527f4420697320616c726561647920726567697374657265642e0000000000000000606482015260840161095d565b60018054906000611e7b83612dd6565b909155505060015460028190556040805180820190915260098152681c1c9bda9958dd125960ba1b6020820152611eb1916126a3565b60006040518060e00160405280600254815260200187878080601f016020809104026020016040519081016040528093929190818152602001838380828437600092018290525093855250505060208083018890526040830187905285151560608401526080830182905260a0909201819052600e80546001810182559152825160059091027fbb7b4a454dc3493923482f07822329ed19e8244eff582cc204f8554c3620c3fd810191825591830151929350839290917fbb7b4a454dc3493923482f07822329ed19e8244eff582cc204f8554c3620c3fe0190611f95908261303a565b506040828101516002808401919091556060840151600384015560808401516004909301805460a086015160c0909601511515620100000262ff0000199615156101000261ff00199615159690961661ffff19909216919091179490941794909416929092179092558054600090815260086020908152838220805460ff1916600190811790915592548252600981529290208351815591830151839291820190612040908261303a565b5060408281015160028301556060830151600383015560808301516004909201805460a085015160c0909501511515620100000262ff0000199515156101000261ff00199515159590951661ffff1990921691909117939093179390931691909117909155517fc9fc3aa04405be53fb86d02994d4187da48cd546f7dfb4dc3d63a18444ee379690611a9f90889088908890889088906000906130fa565b6120e661242a565b6001600160a01b03811661211057604051631e4fbdf760e01b81526000600482015260240161095d565b612119816126e8565b50565b60008181526008602052604090205460ff1661214a5760405162461bcd60e51b815260040161095d90612e8b565b60008181526009602052604090206004015462010000900460ff166121815760405162461bcd60e51b815260040161095d90612f01565b600081815260096020526040902060040154610100900460ff166121e75760405162461bcd60e51b815260206004820152601d60248201527f546869732070726f6a656374206973206e6f742076616c696461746564000000604482015260640161095d565b6000818152600a602052604090205460ff166122455760405162461bcd60e51b815260206004820181905260248201527f746869732069732070726f6a656374206973206e6f7420696e737572616e6365604482015260640161095d565b6000818152600b602052604090205460ff16156122b35760405162461bcd60e51b815260206004820152602660248201527f746869732069732070726f6a65637420636c61696d6564207468652020696e736044820152657572616e636560d01b606482015260840161095d565b60006122be82610eeb565b604051909150339082156108fc029083906000818181858888f193505050501580156122ee573d6000803e3d6000fd5b50506000908152600b60205260409020805460ff19166001179055565b6000806000600960008581526020019081526020016000206040518060e00160405290816000820154815260200160018201805461234890612def565b80601f016020809104026020016040519081016040528092919081815260200182805461237490612def565b80156123c15780601f10612396576101008083540402835291602001916123c1565b820191906000526020600020905b8154815290600101906020018083116123a457829003601f168201915b505050918352505060028201546020820152600382015460408083019190915260049092015460ff808216151560608085019190915261010083048216151560808501526201000090920416151560a09092019190915290820151910151909590945092505050565b3361245c7f9016d09d72d40fdae2fd8ceac6b6234c7706214fd39c1cd1e609a0528c199300546001600160a01b031690565b6001600160a01b0316146110c55760405163118cdaa760e01b815233600482015260240161095d565b306001600160a01b037f000000000000000000000000000000000000000000000000000000000000000016148061250c57507f00000000000000000000000000000000000000000000000000000000000000006001600160a01b0316612500600080516020613188833981519152546001600160a01b031690565b6001600160a01b031614155b156110c55760405163703e46dd60e11b815260040160405180910390fd5b61253261242a565b6001600160a01b0381166121195760405162461bcd60e51b815260206004820152602760248201527f4e657720696d706c656d656e746174696f6e2063616e6e6f74206265206164646044820152667265737328302960c81b606482015260840161095d565b816001600160a01b03166352d1902d6040518163ffffffff1660e01b8152600401602060405180830381865afa9250505080156125f2575060408051601f3d908101601f191682019092526125ef91810190612e72565b60015b61261a57604051634c9c8ce360e01b81526001600160a01b038316600482015260240161095d565b600080516020613188833981519152811461264b57604051632a87526960e21b81526004810182905260240161095d565b6126558383612772565b505050565b306001600160a01b037f000000000000000000000000000000000000000000000000000000000000000016146110c55760405163703e46dd60e11b815260040160405180910390fd5b610eca82826040516024016126b9929190613149565b60408051601f198184030181529190526020810180516001600160e01b0316632d839cb360e21b1790526127c8565b7f9016d09d72d40fdae2fd8ceac6b6234c7706214fd39c1cd1e609a0528c19930080546001600160a01b031981166001600160a01b03848116918217845560405192169182907f8be0079c531659141344cd1fd0a4f28419497f9722a3daafe3b4186f6b6457e090600090a3505050565b6127616127d1565b6121198161281a565b6110c56127d1565b61277b82612822565b6040516001600160a01b038316907fbc7cd75a20ee27fd9adebab32041f755214dbc6bffa90cc0225b39da2e5c2d3b90600090a28051156127c0576126558282612887565b610eca6128ff565b6121198161291e565b7ff0c57e16840df040f15088dc2f81fe391c3923bec73e23a9662efc9c229c6a0054600160401b900460ff166110c557604051631afcd79f60e31b815260040160405180910390fd5b6120e66127d1565b806001600160a01b03163b60000361285857604051634c9c8ce360e01b81526001600160a01b038216600482015260240161095d565b60008051602061318883398151915280546001600160a01b0319166001600160a01b0392909216919091179055565b6060600080846001600160a01b0316846040516128a4919061316b565b600060405180830381855af49150503d80600081146128df576040519150601f19603f3d011682016040523d82523d6000602084013e6128e4565b606091505b50915091506128f485838361293f565b925050505b92915050565b34156110c55760405163b398979f60e01b815260040160405180910390fd5b60006a636f6e736f6c652e6c6f679050600080835160208501845afa505050565b6060826129545761294f8261299e565b612997565b815115801561296b57506001600160a01b0384163b155b1561299457604051639996b31560e01b81526001600160a01b038516600482015260240161095d565b50805b9392505050565b8051156129ae5780518082602001fd5b604051630a12f52160e11b815260040160405180910390fd5b6000602082840312156129d957600080fd5b5035919050565b6020808252825182820181905260009190848201906040850190845b81811015612a18578351835292840192918401916001016129fc565b50909695505050505050565b80356001600160a01b0381168114612a3b57600080fd5b919050565b600060208284031215612a5257600080fd5b61299782612a24565b60005b83811015612a76578181015183820152602001612a5e565b50506000910152565b60008151808452612a97816020860160208601612a5b565b601f01601f19169290920160200192915050565b87815260e060208201526000612ac460e0830189612a7f565b60408301979097525060608101949094529115156080840152151560a0830152151560c09091015292915050565b634e487b7160e01b600052604160045260246000fd5b60008060408385031215612b1b57600080fd5b612b2483612a24565b9150602083013567ffffffffffffffff80821115612b4157600080fd5b818501915085601f830112612b5557600080fd5b813581811115612b6757612b67612af2565b604051601f8201601f19908116603f01168101908382118183101715612b8f57612b8f612af2565b81604052828152886020848701011115612ba857600080fd5b8260208601602083013760006020848301015280955050505050509250929050565b6020808252825182820181905260009190848201906040850190845b81811015612a18578351151583529284019291840191600101612be6565b60008060408385031215612c1757600080fd5b50508035926020909101359150565b6020815260006129976020830184612a7f565b805182526000602082015160e06020850152612c5860e0850182612a7f565b9050604083015160408501526060830151606085015260808301511515608085015260a0830151151560a085015260c0830151151560c08501528091505092915050565b6000602080830181845280855180835260408601915060408160051b870101925083870160005b82811015612cf157603f19888603018452612cdf858351612c39565b94509285019290850190600101612cc3565b5092979650505050505050565b6020815260006129976020830184612c39565b600080600080600060808688031215612d2957600080fd5b853567ffffffffffffffff80821115612d4157600080fd5b818801915088601f830112612d5557600080fd5b813581811115612d6457600080fd5b896020828501011115612d7657600080fd5b6020928301975095505086013592506040860135915060608601358015158114612d9f57600080fd5b809150509295509295909350565b634e487b7160e01b600052601160045260246000fd5b808201808211156128f9576128f9612dad565b600060018201612de857612de8612dad565b5060010190565b600181811c90821680612e0357607f821691505b60208210810361091457634e487b7160e01b600052602260045260246000fd5b80820281158282048414176128f9576128f9612dad565b634e487b7160e01b600052603260045260246000fd5b600082612e6d57634e487b7160e01b600052601260045260246000fd5b500490565b600060208284031215612e8457600080fd5b5051919050565b6020808252818101527f6869732070726f6a656374204944206973206e6f742072656769737465726564604082015260600190565b60208082526021908201527f546869732070726f6a65637420697320616c72656164792076616c69646174656040820152601960fa1b606082015260800190565b6020808252601c908201527f546869732070726f6a65637420697320616c7265616479205061696400000000604082015260600190565b818103818111156128f9576128f9612dad565b60a081526000808754612f5d81612def565b8060a086015260c0600180841660008114612f7f5760018114612f9957612fca565b60ff1985168884015283151560051b880183019550612fca565b8c60005260208060002060005b86811015612fc15781548b8201870152908401908201612fa6565b8a018501975050505b50505050506020830187905260408301869052841515606084015290508215156080830152610bd8565b601f82111561265557600081815260208120601f850160051c8101602086101561301b5750805b601f850160051c820191505b81811015610a8f57828155600101613027565b815167ffffffffffffffff81111561305457613054612af2565b613068816130628454612def565b84612ff4565b602080601f83116001811461309d57600084156130855750858301515b600019600386901b1c1916600185901b178555610a8f565b600085815260208120601f198616915b828110156130cc578886015182559484019460019091019084016130ad565b50858210156130ea5787850151600019600388901b60f8161c191681555b5050505050600190811b01905550565b60a081528560a0820152858760c0830137600060c087830181019190915260208201959095526040810193909352901515606083015215156080820152601f909201601f191690910101919050565b60408152600061315c6040830185612a7f565b90508260208301529392505050565b6000825161317d818460208701612a5b565b919091019291505056fe360894a13ba1a3210667c828492db98dca3e2076cc3735a920a3ca505d382bbc66726f6d2074686520636f6e74726163742060696e737572616e6365546f50617960a26469706673582212207809efc341900ee747088efd21ee92104de20cfad2ff29b041fe81d10832c85464736f6c63430008150033",
  "linkReferences": {},
  "deployedLinkReferences": {}
}