{
  "_format": "hh-sol-artifact-1",
  "contractName": "EcoLedger",
  "sourceName": "contracts/Ecoledger.sol",
  "abi": [
    {
      "inputs": [
        {
          "internalType": "address",
          "name": "target",
          "type": "address"
        }
      ],
      "name": "AddressEmptyCode",
      "type": "error"
    },
    {
      "inputs": [
        {
          "internalType": "address",
          "name": "implementation",
          "type": "address"
        }
      ],
      "name": "ERC1967InvalidImplementation",
      "type": "error"
    },
    {
      "inputs": [],
      "name": "ERC1967NonPayable",
      "type": "error"
    },
    {
      "inputs": [],
      "name": "FailedInnerCall",
      "type": "error"
    },
    {
      "inputs": [],
      "name": "InvalidInitialization",
      "type": "error"
    },
    {
      "inputs": [],
      "name": "NotInitializing",
      "type": "error"
    },
    {
      "inputs": [
        {
          "internalType": "address",
          "name": "owner",
          "type": "address"
        }
      ],
      "name": "OwnableInvalidOwner",
      "type": "error"
    },
    {
      "inputs": [
        {
          "internalType": "address",
          "name": "account",
          "type": "address"
        }
      ],
      "name": "OwnableUnauthorizedAccount",
      "type": "error"
    },
    {
      "inputs": [],
      "name": "UUPSUnauthorizedCallContext",
      "type": "error"
    },
    {
      "inputs": [
        {
          "internalType": "bytes32",
          "name": "slot",
          "type": "bytes32"
        }
      ],
      "name": "UUPSUnsupportedProxiableUUID",
      "type": "error"
    },
    {
      "anonymous": false,
      "inputs": [
        {
          "indexed": false,
          "internalType": "string",
          "name": "name",
          "type": "string"
        },
        {
          "indexed": false,
          "internalType": "uint256",
          "name": "Annualemissions",
          "type": "uint256"
        },
        {
          "indexed": false,
          "internalType": "uint256",
          "name": "AnnualWaterusage",
          "type": "uint256"
        },
        {
          "indexed": false,
          "internalType": "bool",
          "name": "EmissionsReductionProject",
          "type": "bool"
        },
        {
          "indexed": false,
          "internalType": "bool",
          "name": "Validated",
          "type": "bool"
        }
      ],
      "name": "CarbonProjectEvent",
      "type": "event"
    },
    {
      "anonymous": false,
      "inputs": [
        {
          "indexed": true,
          "internalType": "address",
          "name": "contributor",
          "type": "address"
        },
        {
          "indexed": false,
          "internalType": "uint256",
          "name": "amount",
          "type": "uint256"
        }
      ],
      "name": "Contribution",
      "type": "event"
    },
    {
      "anonymous": false,
      "inputs": [
        {
          "indexed": false,
          "internalType": "uint64",
          "name": "version",
          "type": "uint64"
        }
      ],
      "name": "Initialized",
      "type": "event"
    },
    {
      "anonymous": false,
      "inputs": [
        {
          "indexed": true,
          "internalType": "uint256",
          "name": "projectId",
          "type": "uint256"
        },
        {
          "indexed": false,
          "internalType": "uint256",
          "name": "amount",
          "type": "uint256"
        },
        {
          "indexed": true,
          "internalType": "address",
          "name": "buyer",
          "type": "address"
        }
      ],
      "name": "InsurancePurchased",
      "type": "event"
    },
    {
      "anonymous": false,
      "inputs": [
        {
          "indexed": true,
          "internalType": "address",
          "name": "previousOwner",
          "type": "address"
        },
        {
          "indexed": true,
          "internalType": "address",
          "name": "newOwner",
          "type": "address"
        }
      ],
      "name": "OwnershipTransferred",
      "type": "event"
    },
    {
      "anonymous": false,
      "inputs": [
        {
          "indexed": true,
          "internalType": "address",
          "name": "implementation",
          "type": "address"
        }
      ],
      "name": "Upgraded",
      "type": "event"
    },
    {
      "anonymous": false,
      "inputs": [
        {
          "indexed": false,
          "internalType": "uint256",
          "name": "amount",
          "type": "uint256"
        }
      ],
      "name": "Withdrawal",
      "type": "event"
    },
    {
      "inputs": [],
      "name": "UPGRADE_INTERFACE_VERSION",
      "outputs": [
        {
          "internalType": "string",
          "name": "",
          "type": "string"
        }
      ],
      "stateMutability": "view",
      "type": "function"
    },
    {
      "inputs": [
        {
          "internalType": "uint256",
          "name": "id",
          "type": "uint256"
        }
      ],
      "name": "_calculateInsurancePayment",
      "outputs": [
        {
          "internalType": "uint256",
          "name": "",
          "type": "uint256"
        }
      ],
      "stateMutability": "view",
      "type": "function"
    },
    {
      "inputs": [
        {
          "internalType": "uint256",
          "name": "id",
          "type": "uint256"
        }
      ],
      "name": "_calculateTotalPayment",
      "outputs": [
        {
          "internalType": "uint256",
          "name": "",
          "type": "uint256"
        }
      ],
      "stateMutability": "view",
      "type": "function"
    },
    {
      "inputs": [
        {
          "internalType": "uint256",
          "name": "amount",
          "type": "uint256"
        }
      ],
      "name": "buySustainabilityCoin",
      "outputs": [],
      "stateMutability": "payable",
      "type": "function"
    },
    {
      "inputs": [
        {
          "internalType": "uint256",
          "name": "",
          "type": "uint256"
        }
      ],
      "name": "carbonProjects",
      "outputs": [
        {
          "internalType": "uint256",
          "name": "id",
          "type": "uint256"
        },
        {
          "internalType": "string",
          "name": "name",
          "type": "string"
        },
        {
          "internalType": "uint256",
          "name": "Annualemissions",
          "type": "uint256"
        },
        {
          "internalType": "uint256",
          "name": "AnnualWaterusage",
          "type": "uint256"
        },
        {
          "internalType": "bool",
          "name": "EmissionsReductionProject",
          "type": "bool"
        },
        {
          "internalType": "bool",
          "name": "Validated",
          "type": "bool"
        },
        {
          "internalType": "bool",
          "name": "Paid",
          "type": "bool"
        }
      ],
      "stateMutability": "view",
      "type": "function"
    },
    {
      "inputs": [
        {
          "internalType": "uint256",
          "name": "id",
          "type": "uint256"
        }
      ],
      "name": "claimInsurance",
      "outputs": [],
      "stateMutability": "nonpayable",
      "type": "function"
    },
    {
      "inputs": [
        {
          "internalType": "uint256",
          "name": "amount",
          "type": "uint256"
        }
      ],
      "name": "contributeTosayNoCarbon",
      "outputs": [],
      "stateMutability": "payable",
      "type": "function"
    },
    {
      "inputs": [
        {
          "internalType": "address",
          "name": "",
          "type": "address"
        }
      ],
      "name": "contributions",
      "outputs": [
        {
          "internalType": "uint256",
          "name": "",
          "type": "uint256"
        }
      ],
      "stateMutability": "view",
      "type": "function"
    },
    {
      "inputs": [],
      "name": "getAllProjectInsuranceStatus",
      "outputs": [
        {
          "internalType": "bool[]",
          "name": "",
          "type": "bool[]"
        }
      ],
      "stateMutability": "view",
      "type": "function"
    },
    {
      "inputs": [],
      "name": "getAllRegisteredProjectIds",
      "outputs": [
        {
          "internalType": "uint256[]",
          "name": "",
          "type": "uint256[]"
        }
      ],
      "stateMutability": "view",
      "type": "function"
    },
    {
      "inputs": [],
      "name": "getAllRegisteredProjects",
      "outputs": [
        {
          "components": [
            {
              "internalType": "uint256",
              "name": "id",
              "type": "uint256"
            },
            {
              "internalType": "string",
              "name": "name",
              "type": "string"
            },
            {
              "internalType": "uint256",
              "name": "Annualemissions",
              "type": "uint256"
            },
            {
              "internalType": "uint256",
              "name": "AnnualWaterusage",
              "type": "uint256"
            },
            {
              "internalType": "bool",
              "name": "EmissionsReductionProject",
              "type": "bool"
            },
            {
              "internalType": "bool",
              "name": "Validated",
              "type": "bool"
            },
            {
              "internalType": "bool",
              "name": "Paid",
              "type": "bool"
            }
          ],
          "internalType": "struct EcoLedger.CarbonProject[]",
          "name": "",
          "type": "tuple[]"
        }
      ],
      "stateMutability": "view",
      "type": "function"
    },
    {
      "inputs": [
        {
          "internalType": "uint256",
          "name": "id",
          "type": "uint256"
        }
      ],
      "name": "getFullCarbonProject",
      "outputs": [
        {
          "components": [
            {
              "internalType": "uint256",
              "name": "id",
              "type": "uint256"
            },
            {
              "internalType": "string",
              "name": "name",
              "type": "string"
            },
            {
              "internalType": "uint256",
              "name": "Annualemissions",
              "type": "uint256"
            },
            {
              "internalType": "uint256",
              "name": "AnnualWaterusage",
              "type": "uint256"
            },
            {
              "internalType": "bool",
              "name": "EmissionsReductionProject",
              "type": "bool"
            },
            {
              "internalType": "bool",
              "name": "Validated",
              "type": "bool"
            },
            {
              "internalType": "bool",
              "name": "Paid",
              "type": "bool"
            }
          ],
          "internalType": "struct EcoLedger.CarbonProject",
          "name": "",
          "type": "tuple"
        }
      ],
      "stateMutability": "view",
      "type": "function"
    },
    {
      "inputs": [],
      "name": "getPaidProjectsCount",
      "outputs": [
        {
          "internalType": "uint256",
          "name": "",
          "type": "uint256"
        }
      ],
      "stateMutability": "view",
      "type": "function"
    },
    {
      "inputs": [
        {
          "internalType": "uint256",
          "name": "id",
          "type": "uint256"
        }
      ],
      "name": "getProjectEmissionsAndWaterUsage",
      "outputs": [
        {
          "internalType": "uint256",
          "name": "emissions",
          "type": "uint256"
        },
        {
          "internalType": "uint256",
          "name": "waterUsage",
          "type": "uint256"
        }
      ],
      "stateMutability": "view",
      "type": "function"
    },
    {
      "inputs": [],
      "name": "getSustainabilityTokenBalance",
      "outputs": [
        {
          "internalType": "uint256",
          "name": "",
          "type": "uint256"
        }
      ],
      "stateMutability": "view",
      "type": "function"
    },
    {
      "inputs": [],
      "name": "getTotalContributions",
      "outputs": [
        {
          "internalType": "uint256",
          "name": "",
          "type": "uint256"
        }
      ],
      "stateMutability": "view",
      "type": "function"
    },
    {
      "inputs": [],
      "name": "getTotalEmissions",
      "outputs": [
        {
          "internalType": "uint256",
          "name": "",
          "type": "uint256"
        }
      ],
      "stateMutability": "view",
      "type": "function"
    },
    {
      "inputs": [],
      "name": "getTotalInsuranceClaims",
      "outputs": [
        {
          "internalType": "uint256",
          "name": "",
          "type": "uint256"
        }
      ],
      "stateMutability": "view",
      "type": "function"
    },
    {
      "inputs": [],
      "name": "getTotalInsurancePayments",
      "outputs": [
        {
          "internalType": "uint256",
          "name": "",
          "type": "uint256"
        }
      ],
      "stateMutability": "view",
      "type": "function"
    },
    {
      "inputs": [],
      "name": "getTotalWaterUsage",
      "outputs": [
        {
          "internalType": "uint256",
          "name": "",
          "type": "uint256"
        }
      ],
      "stateMutability": "view",
      "type": "function"
    },
    {
      "inputs": [],
      "name": "getWithdrawalPercentage",
      "outputs": [
        {
          "internalType": "uint256",
          "name": "",
          "type": "uint256"
        }
      ],
      "stateMutability": "view",
      "type": "function"
    },
    {
      "inputs": [],
      "name": "getcarbonProjectsLength",
      "outputs": [
        {
          "internalType": "uint256",
          "name": "",
          "type": "uint256"
        }
      ],
      "stateMutability": "view",
      "type": "function"
    },
    {
      "inputs": [],
      "name": "i_owner",
      "outputs": [
        {
          "internalType": "address payable",
          "name": "",
          "type": "address"
        }
      ],
      "stateMutability": "view",
      "type": "function"
    },
    {
      "inputs": [
        {
          "internalType": "address",
          "name": "tokenAddress",
          "type": "address"
        }
      ],
      "name": "initialize",
      "outputs": [],
      "stateMutability": "nonpayable",
      "type": "function"
    },
    {
      "inputs": [
        {
          "internalType": "uint256",
          "name": "id",
          "type": "uint256"
        }
      ],
      "name": "insurance",
      "outputs": [],
      "stateMutability": "payable",
      "type": "function"
    },
    {
      "inputs": [
        {
          "internalType": "uint256",
          "name": "",
          "type": "uint256"
        }
      ],
      "name": "insuranceClaimedOrNot",
      "outputs": [
        {
          "internalType": "bool",
          "name": "",
          "type": "bool"
        }
      ],
      "stateMutability": "view",
      "type": "function"
    },
    {
      "inputs": [
        {
          "internalType": "uint256",
          "name": "",
          "type": "uint256"
        }
      ],
      "name": "insuranceOrNot",
      "outputs": [
        {
          "internalType": "bool",
          "name": "",
          "type": "bool"
        }
      ],
      "stateMutability": "view",
      "type": "function"
    },
    {
      "inputs": [],
      "name": "insurancePercentage",
      "outputs": [
        {
          "internalType": "uint256",
          "name": "",
          "type": "uint256"
        }
      ],
      "stateMutability": "view",
      "type": "function"
    },
    {
      "inputs": [
        {
          "internalType": "uint256",
          "name": "id",
          "type": "uint256"
        }
      ],
      "name": "isProjectPaid",
      "outputs": [
        {
          "internalType": "bool",
          "name": "",
          "type": "bool"
        }
      ],
      "stateMutability": "view",
      "type": "function"
    },
    {
      "inputs": [
        {
          "internalType": "uint256",
          "name": "id",
          "type": "uint256"
        }
      ],
      "name": "isProjectValidated",
      "outputs": [
        {
          "internalType": "bool",
          "name": "",
          "type": "bool"
        }
      ],
      "stateMutability": "view",
      "type": "function"
    },
    {
      "inputs": [
        {
          "internalType": "uint256",
          "name": "",
          "type": "uint256"
        }
      ],
      "name": "isRegistered",
      "outputs": [
        {
          "internalType": "bool",
          "name": "",
          "type": "bool"
        }
      ],
      "stateMutability": "view",
      "type": "function"
    },
    {
      "inputs": [],
      "name": "maxAnnualEmissions",
      "outputs": [
        {
          "internalType": "uint256",
          "name": "",
          "type": "uint256"
        }
      ],
      "stateMutability": "view",
      "type": "function"
    },
    {
      "inputs": [],
      "name": "maxAnnualWaterUsage",
      "outputs": [
        {
          "internalType": "uint256",
          "name": "",
          "type": "uint256"
        }
      ],
      "stateMutability": "view",
      "type": "function"
    },
    {
      "inputs": [],
      "name": "owner",
      "outputs": [
        {
          "internalType": "address",
          "name": "",
          "type": "address"
        }
      ],
      "stateMutability": "view",
      "type": "function"
    },
    {
      "inputs": [
        {
          "internalType": "uint256",
          "name": "id",
          "type": "uint256"
        }
      ],
      "name": "payForCarbon",
      "outputs": [],
      "stateMutability": "payable",
      "type": "function"
    },
    {
      "inputs": [
        {
          "internalType": "uint256",
          "name": "amount",
          "type": "uint256"
        }
      ],
      "name": "priceOfSustainabilityCoin",
      "outputs": [
        {
          "internalType": "uint256",
          "name": "",
          "type": "uint256"
        }
      ],
      "stateMutability": "pure",
      "type": "function"
    },
    {
      "inputs": [],
      "name": "projectId",
      "outputs": [
        {
          "internalType": "uint256",
          "name": "",
          "type": "uint256"
        }
      ],
      "stateMutability": "view",
      "type": "function"
    },
    {
      "inputs": [],
      "name": "proxiableUUID",
      "outputs": [
        {
          "internalType": "bytes32",
          "name": "",
          "type": "bytes32"
        }
      ],
      "stateMutability": "view",
      "type": "function"
    },
    {
      "inputs": [
        {
          "internalType": "string",
          "name": "name",
          "type": "string"
        },
        {
          "internalType": "uint256",
          "name": "annualemissions",
          "type": "uint256"
        },
        {
          "internalType": "uint256",
          "name": "annualWaterusage",
          "type": "uint256"
        },
        {
          "internalType": "bool",
          "name": "emissionsReductionProject",
          "type": "bool"
        }
      ],
      "name": "registerProject",
      "outputs": [],
      "stateMutability": "nonpayable",
      "type": "function"
    },
    {
      "inputs": [],
      "name": "renounceOwnership",
      "outputs": [],
      "stateMutability": "nonpayable",
      "type": "function"
    },
    {
      "inputs": [
        {
          "internalType": "uint256",
          "name": "newMaxEmissions",
          "type": "uint256"
        },
        {
          "internalType": "uint256",
          "name": "newMaxWaterUsage",
          "type": "uint256"
        }
      ],
      "name": "setConstraints",
      "outputs": [],
      "stateMutability": "nonpayable",
      "type": "function"
    },
    {
      "inputs": [
        {
          "internalType": "uint256",
          "name": "newPercentage",
          "type": "uint256"
        }
      ],
      "name": "setWithdrawalPercentage",
      "outputs": [],
      "stateMutability": "nonpayable",
      "type": "function"
    },
    {
      "inputs": [],
      "name": "sustainabilityToken",
      "outputs": [
        {
          "internalType": "contract ISustainabilityCoin",
          "name": "",
          "type": "address"
        }
      ],
      "stateMutability": "view",
      "type": "function"
    },
    {
      "inputs": [],
      "name": "totalContributions",
      "outputs": [
        {
          "internalType": "uint256",
          "name": "",
          "type": "uint256"
        }
      ],
      "stateMutability": "view",
      "type": "function"
    },
    {
      "inputs": [],
      "name": "totalProjects",
      "outputs": [
        {
          "internalType": "uint256",
          "name": "",
          "type": "uint256"
        }
      ],
      "stateMutability": "view",
      "type": "function"
    },
    {
      "inputs": [
        {
          "internalType": "address",
          "name": "newOwner",
          "type": "address"
        }
      ],
      "name": "transferOwnership",
      "outputs": [],
      "stateMutability": "nonpayable",
      "type": "function"
    },
    {
      "inputs": [
        {
          "internalType": "address",
          "name": "newImplementation",
          "type": "address"
        },
        {
          "internalType": "bytes",
          "name": "data",
          "type": "bytes"
        }
      ],
      "name": "upgradeToAndCall",
      "outputs": [],
      "stateMutability": "payable",
      "type": "function"
    },
    {
      "inputs": [
        {
          "internalType": "uint256",
          "name": "id",
          "type": "uint256"
        }
      ],
      "name": "validateRegisteredProject",
      "outputs": [],
      "stateMutability": "nonpayable",
      "type": "function"
    },
    {
      "inputs": [],
      "name": "withdraw",
      "outputs": [],
      "stateMutability": "nonpayable",
      "type": "function"
    },
    {
      "inputs": [],
      "name": "withdrawalPercentage",
      "outputs": [
        {
          "internalType": "uint256",
          "name": "",
          "type": "uint256"
        }
      ],
      "stateMutability": "view",
      "type": "function"
    }
  ],
  "bytecode": "0x60a06040523060805234801561001457600080fd5b5060805161315661003e6000396000818161249a015281816124c3015261266f01526131566000f3fe6080604052600436106102c95760003560e01c8063724acb1c11610175578063b1b6b763116100dc578063dba6335f11610095578063f2fde38b1161006f578063f2fde38b1461088b578063f44ccbcc146108ab578063f85920d8146108cb578063f941f65e146108eb57600080fd5b8063dba6335f14610840578063ddf556d014610860578063e7d178841461087557600080fd5b8063b1b6b76314610763578063b2ce6bce14610783578063c4d66de8146107a3578063cc6ffeff146107c3578063d57ca84a146107f0578063d7f1ff651461081057600080fd5b80639b44c1431161012e5780639b44c143146106895780639c361e4e1461069e578063a46e8731146106b4578063ac09ca11146106ed578063ad3cb1cc14610703578063af6f997e1461074157600080fd5b8063724acb1c146105bd5780637a0edf18146105d057806384f0f810146105e55780638da5cb5b146106055780638ec876e7146106565780639700e19e1461067657600080fd5b806342e94c901161023457806352d1902d116101ed57806368d4aceb116101c757806368d4aceb1461055c5780636a7ab08e146105715780636c27b07a14610593578063715018a6146105a857600080fd5b806352d1902d146104f757806356cb7ec61461050c578063579a69881461052c57600080fd5b806342e94c901461044557806347c6eb78146104725780634a979d1d146104875780634c1b8b181461049c5780634f1ef286146104cf57806351fef2f2146104e257600080fd5b80632f8b274e116102865780632f8b274e1461037657806337c08923146103b65780633ccfd60b146103cc5780633fafa127146103e15780634098a2a6146103f7578063417b06e31461040d57600080fd5b806309fd1032146102ce5780630ff37681146102f65780631c11342c1461030b5780632057c6171461031e57806325b164191461033e5780632c33195714610360575b600080fd5b3480156102da57600080fd5b506102e3610920565b6040519081526020015b60405180910390f35b610309610304366004612962565b610965565b005b610309610319366004612962565b610a26565b34801561032a57600080fd5b506102e3610339366004612962565b610ae2565b34801561034a57600080fd5b50610353610c2d565b6040516102ed919061297b565b34801561036c57600080fd5b506102e360055481565b34801561038257600080fd5b506103a6610391366004612962565b600a6020526000908152604090205460ff1681565b60405190151581526020016102ed565b3480156103c257600080fd5b506102e360075481565b3480156103d857600080fd5b50610309610cc5565b3480156103ed57600080fd5b506102e360025481565b34801561040357600080fd5b506102e360065481565b34801561041957600080fd5b506103a6610428366004612962565b600090815260096020526040902060040154610100900460ff1690565b34801561045157600080fd5b506102e36104603660046129db565b600c6020526000908152604090205481565b34801561047e57600080fd5b506102e3610dd3565b34801561049357600080fd5b50600e546102e3565b3480156104a857600080fd5b506104bc6104b7366004612962565b610e19565b6040516102ed9796959493929190612a46565b6103096104dd366004612aa3565b610efa565b3480156104ee57600080fd5b506005546102e3565b34801561050357600080fd5b506102e3610f19565b34801561051857600080fd5b506102e3610527366004612962565b610f36565b34801561053857600080fd5b506103a6610547366004612962565b60086020526000908152604090205460ff1681565b34801561056857600080fd5b506102e3610f9a565b34801561057d57600080fd5b5061058661100c565b6040516102ed9190612b65565b34801561059f57600080fd5b506102e36110af565b3480156105b457600080fd5b506103096110e5565b6103096105cb366004612962565b6110f9565b3480156105dc57600080fd5b506102e3611340565b3480156105f157600080fd5b50610309610600366004612b9f565b61137f565b34801561061157600080fd5b507f9016d09d72d40fdae2fd8ceac6b6234c7706214fd39c1cd1e609a0528c199300546001600160a01b03165b6040516001600160a01b0390911681526020016102ed565b34801561066257600080fd5b50610309610671366004612962565b611392565b610309610684366004612962565b6113f0565b34801561069557600080fd5b506102e361162c565b3480156106aa57600080fd5b506102e360015481565b3480156106c057600080fd5b506103a66106cf366004612962565b60009081526009602052604090206004015462010000900460ff1690565b3480156106f957600080fd5b506102e360035481565b34801561070f57600080fd5b50610734604051806040016040528060058152602001640352e302e360dc1b81525081565b6040516102ed9190612bc1565b34801561074d57600080fd5b5061075661167b565b6040516102ed9190612c37565b34801561076f57600080fd5b506102e361077e366004612962565b6117be565b34801561078f57600080fd5b5061030961079e366004612962565b6117f3565b3480156107af57600080fd5b506103096107be3660046129db565b611997565b3480156107cf57600080fd5b506107e36107de366004612962565b611ae1565b6040516102ed9190612c99565b3480156107fc57600080fd5b5061030961080b366004612cac565b611c81565b34801561081c57600080fd5b506103a661082b366004612962565b600b6020526000908152604090205460ff1681565b34801561084c57600080fd5b5060005461063e906001600160a01b031681565b34801561086c57600080fd5b506007546102e3565b34801561088157600080fd5b506102e360045481565b34801561089757600080fd5b506103096108a63660046129db565b6120e8565b3480156108b757600080fd5b50600d5461063e906001600160a01b031681565b3480156108d757600080fd5b506103096108e6366004612962565b612126565b3480156108f757600080fd5b5061090b610906366004612962565b612315565b604080519283526020830191909152016102ed565b600080805b60015481101561095f5760008181526009602052604090206002015461094b9083612d5e565b91508061095781612d71565b915050610925565b50919050565b803410156109b15760405162461bcd60e51b8152602060048201526014602482015273125b9cdd59999a58da595b9d081c185e5b595b9d60621b60448201526064015b60405180910390fd5b336000908152600c6020526040812080548392906109d0908490612d5e565b9250508190555080600760008282546109e99190612d5e565b909155505060405181815233907f4d154d4aae216bed6d0926db77c00df2b57c6b5ba4eee05775de20facede3a7b9060200160405180910390a250565b6000610a31826117be565b905080341015610a7a5760405162461bcd60e51b8152602060048201526014602482015273125b9cdd59999a58da595b9d081c185e5b595b9d60621b60448201526064016109a8565b600d546040516340c10f1960e01b8152336004820152602481018490526001600160a01b03909116906340c10f1990604401600060405180830381600087803b158015610ac657600080fd5b505af1158015610ada573d6000803e3d6000fd5b505050505050565b6000818152600960209081526040808320815160e0810190925280548252600181018054859484019190610b1590612d8a565b80601f0160208091040260200160405190810160405280929190818152602001828054610b4190612d8a565b8015610b8e5780601f10610b6357610100808354040283529160200191610b8e565b820191906000526020600020905b815481529060010190602001808311610b7157829003601f168201915b505050918352505060028201546020820152600382015460408083019190915260049092015460ff8082161515606084015261010082048116151560808401526201000090910416151560a090910152810151909150600090610bf990670de0b6b3a7640000612dbe565b905060008260600151670de0b6b3a7640000610c159190612dbe565b90506000610c238284612d5e565b9695505050505050565b6060600060015467ffffffffffffffff811115610c4c57610c4c612a8d565b604051908082528060200260200182016040528015610c75578160200160208202803683370190505b50905060005b60015481101561095f576000818152600960205260409020548251839083908110610ca857610ca8612dd5565b602090810291909101015280610cbd81612d71565b915050610c7b565b610ccd612434565b4780610d125760405162461bcd60e51b81526020600482015260146024820152734e6f2066756e647320746f20776974686472617760601b60448201526064016109a8565b6000670de0b6b3a7640000600554610d2a9190612dbe565b90506000610d388284612dbe565b90506000610d4f670de0b6b3a76400006064612dbe565b90506000610d5d8284612deb565b600080546040519293506001600160a01b03169183156108fc0291849190818181858888f19350505050158015610d98573d6000803e3d6000fd5b506040518181527f4e70a604b23a8edee2b1d0a656e9b9c00b73ad8bb1afc2c59381ee9f69197de79060200160405180910390a15050505050565b600080805b60015481101561095f576000818152600b602052604090205460ff1615610e075781610e0381612d71565b9250505b80610e1181612d71565b915050610dd8565b600e8181548110610e2957600080fd5b60009182526020909120600590910201805460018201805491935090610e4e90612d8a565b80601f0160208091040260200160405190810160405280929190818152602001828054610e7a90612d8a565b8015610ec75780601f10610e9c57610100808354040283529160200191610ec7565b820191906000526020600020905b815481529060010190602001808311610eaa57829003601f168201915b505050600284015460038501546004909501549394909390925060ff808216925061010082048116916201000090041687565b610f0261248f565b610f0b82612534565b610f1582826125a2565b5050565b6000610f23612664565b5060008051602061310183398151915290565b600080610f4283610ae2565b90506000670de0b6b3a7640000600654610f5c9190612dbe565b90506000610f6a8284612dbe565b90506000610f81670de0b6b3a76400006064612dbe565b90506000610f8f8284612deb565b979650505050505050565b600d546040516370a0823160e01b81523060048201526000916001600160a01b0316906370a0823190602401602060405180830381865afa158015610fe3573d6000803e3d6000fd5b505050506040513d601f19601f820116820180604052508101906110079190612e0d565b905090565b6060600060015467ffffffffffffffff81111561102b5761102b612a8d565b604051908082528060200260200182016040528015611054578160200160208202803683370190505b50905060005b60015481101561095f576000818152600a6020526040902054825160ff9091169083908390811061108d5761108d612dd5565b91151560209283029190910190910152806110a781612d71565b91505061105a565b600080805b60015481101561095f576110c781610f36565b6110d19083612d5e565b9150806110dd81612d71565b9150506110b4565b6110ed612434565b6110f760006126ad565b565b60008181526008602052604090205460ff166111275760405162461bcd60e51b81526004016109a890612e26565b600081815260096020526040902060040154610100900460ff1661115d5760405162461bcd60e51b81526004016109a890612e5b565b60008181526009602052604090206004015462010000900460ff16156111955760405162461bcd60e51b81526004016109a890612e9c565b6000818152600960205260408120906111ad83610ae2565b9050803410156111f75760405162461bcd60e51b815260206004820152601560248201527424b739bab33334b1b4b2b73a103830bcb6b2b73a1760591b60448201526064016109a8565b60008260030154600161120a9190612dbe565b60028085015461121991612dbe565b6112239190612d5e565b600085815260096020526040908190206004908101805462ff0000191662010000179055600d5491516340c10f1960e01b81523391810191909152602481018390529192506001600160a01b0316906340c10f1990604401600060405180830381600087803b15801561129557600080fd5b505af11580156112a9573d6000803e3d6000fd5b5050505060005b600e548110156113395784600e82815481106112ce576112ce612dd5565b90600052602060002090600502016000015403611327576001600e82815481106112fa576112fa612dd5565b906000526020600020906005020160040160026101000a81548160ff021916908315150217905550611339565b8061133181612d71565b9150506112b0565b5050505050565b600080805b60015481101561095f5760008181526009602052604090206003015461136b9083612d5e565b91508061137781612d71565b915050611345565b611387612434565b600391909155600455565b61139a612434565b60648111156113eb5760405162461bcd60e51b815260206004820152601c60248201527f50657263656e746167652063616e6e6f7420657863656564203130300000000060448201526064016109a8565b600555565b60008181526008602052604090205460ff1661141e5760405162461bcd60e51b81526004016109a890612e26565b60008181526009602052604090206004015462010000900460ff166114555760405162461bcd60e51b81526004016109a890612e9c565b600081815260096020526040902060040154610100900460ff166114bb5760405162461bcd60e51b815260206004820152601d60248201527f546869732070726f6a656374206973206e6f742076616c69646174656400000060448201526064016109a8565b6000818152600a602052604090205460ff16156115295760405162461bcd60e51b815260206004820152602660248201527f746869732069732070726f6a65637420697320416c72656164792020696e73756044820152651c985b98d95960d21b60648201526084016109a8565b600061153482610f36565b9050803410156115915760405162461bcd60e51b815260206004820152602260248201527f496e73756666696369656e74207061796d656e7420466f7220496e737572616e604482015261636560f01b60648201526084016109a8565b803411156115d157336108fc6115a78334612ed3565b6040518115909202916000818181858888f193505050501580156115cf573d6000803e3d6000fd5b505b6000828152600a602052604090819020805460ff1916600117905551339083907fa461e513d2aed580ba148ba370e44d9667f51611a9099cfab56c5369dc5421ae906116209085815260200190565b60405180910390a35050565b600080805b60015481101561095f5760008181526009602052604090206004015462010000900460ff1615611669578161166581612d71565b9250505b8061167381612d71565b915050611631565b6060600e805480602002602001604051908101604052809291908181526020016000905b828210156117b557838290600052602060002090600502016040518060e0016040529081600082015481526020016001820180546116dc90612d8a565b80601f016020809104026020016040519081016040528092919081815260200182805461170890612d8a565b80156117555780601f1061172a57610100808354040283529160200191611755565b820191906000526020600020905b81548152906001019060200180831161173857829003601f168201915b505050918352505060028201546020808301919091526003830154604083015260049092015460ff8082161515606084015261010082048116151560808401526201000090910416151560a090910152908252600192909201910161169f565b50505050905090565b6000600181670de0b6b3a7640000806117d78487612dbe565b6117e19190612dbe565b6117eb9190612deb565b949350505050565b6117fb612434565b60008181526008602052604090205460ff166118295760405162461bcd60e51b81526004016109a890612e26565b60008181526009602052604090206004015462010000900460ff16156118615760405162461bcd60e51b81526004016109a890612e9c565b60008181526009602052604090206004810154610100900460ff16156118995760405162461bcd60e51b81526004016109a890612e5b565b60048101805461ff00191661010017905560005b600e548110156119365782600e82815481106118cb576118cb612dd5565b90600052602060002090600502016000015403611924576001600e82815481106118f7576118f7612dd5565b906000526020600020906005020160040160016101000a81548160ff021916908315150217905550611936565b8061192e81612d71565b9150506118ad565b506002810154600382015460048301546040517fc9fc3aa04405be53fb86d02994d4187da48cd546f7dfb4dc3d63a18444ee37969361198b9360018701939192909160ff808216926101009092041690612ee6565b60405180910390a15050565b7ff0c57e16840df040f15088dc2f81fe391c3923bec73e23a9662efc9c229c6a008054600160401b810460ff16159067ffffffffffffffff166000811580156119dd5750825b905060008267ffffffffffffffff1660011480156119fa5750303b155b905081158015611a08575080155b15611a265760405163f92ee8a960e01b815260040160405180910390fd5b845467ffffffffffffffff191660011785558315611a5057845460ff60401b1916600160401b1785555b611a593361271e565b611a6161272f565b600d80546001600160a01b0319166001600160a01b038816179055612710600355620186a06004556002600555600a6006558315610ada57845460ff60401b19168555604051600181527fc7f505b2f371ae2175ee4913f4499e1f2633a7b5936321eed1cdaeb6115181d2906020015b60405180910390a1505050505050565b611b276040518060e00160405280600081526020016060815260200160008152602001600081526020016000151581526020016000151581526020016000151581525090565b60008281526008602052604090205460ff16611b7e5760405162461bcd60e51b8152602060048201526016602482015275141c9bda9958dd081b9bdd081c9959da5cdd195c995960521b60448201526064016109a8565b600960008381526020019081526020016000206040518060e001604052908160008201548152602001600182018054611bb690612d8a565b80601f0160208091040260200160405190810160405280929190818152602001828054611be290612d8a565b8015611c2f5780601f10611c0457610100808354040283529160200191611c2f565b820191906000526020600020905b815481529060010190602001808311611c1257829003601f168201915b5050509183525050600282015460208201526003820154604082015260049091015460ff8082161515606084015261010082048116151560808401526201000090910416151560a09091015292915050565b83611cce5760405162461bcd60e51b815260206004820152601860248201527f4e616d652073686f756c64206e6f7420626520656d707479000000000000000060448201526064016109a8565b6127108310611d375760405162461bcd60e51b815260206004820152602f60248201527f416e6e75616c20656d697373696f6e73206d757374206265206c65737320746860448201526e30b710189816181818103a37b7399760891b60648201526084016109a8565b620186a08210611da45760405162461bcd60e51b815260206004820152603260248201527f416e6e75616c207761746572207573616765206d757374206e6f74206578636560448201527132b21018981816181818103634ba32b9399760711b60648201526084016109a8565b80611e035760405162461bcd60e51b815260206004820152602960248201527f50726f6a656374206d75737420696e636c75646520656d697373696f6e73207260448201526832b23ab1ba34b7b71760b91b60648201526084016109a8565b600860006002546001611e169190612d5e565b815260208101919091526040016000205460ff1615611e9d5760405162461bcd60e51b815260206004820152603860248201527f726567697374657250726f6a6563743a2d20546869732070726f6a656374204960448201527f4420697320616c726561647920726567697374657265642e000000000000000060648201526084016109a8565b60018054906000611ead83612d71565b919050555060015460028190555060006040518060e00160405280600254815260200187878080601f016020809104026020016040519081016040528093929190818152602001838380828437600092018290525093855250505060208083018890526040830187905285151560608401526080830182905260a0909201819052600e80546001810182559152825160059091027fbb7b4a454dc3493923482f07822329ed19e8244eff582cc204f8554c3620c3fd810191825591830151929350839290917fbb7b4a454dc3493923482f07822329ed19e8244eff582cc204f8554c3620c3fe0190611f9f9082612fd5565b506040828101516002808401919091556060840151600384015560808401516004909301805460a086015160c0909601511515620100000262ff0000199615156101000261ff00199615159690961661ffff19909216919091179490941794909416929092179092558054600090815260086020908152838220805460ff191660019081179091559254825260098152929020835181559183015183929182019061204a9082612fd5565b5060408281015160028301556060830151600383015560808301516004909201805460a085015160c0909501511515620100000262ff0000199515156101000261ff00199515159590951661ffff1990921691909117939093179390931691909117909155517fc9fc3aa04405be53fb86d02994d4187da48cd546f7dfb4dc3d63a18444ee379690611ad19088908890889088908890600090613095565b6120f0612434565b6001600160a01b03811661211a57604051631e4fbdf760e01b8152600060048201526024016109a8565b612123816126ad565b50565b60008181526008602052604090205460ff166121545760405162461bcd60e51b81526004016109a890612e26565b60008181526009602052604090206004015462010000900460ff1661218b5760405162461bcd60e51b81526004016109a890612e9c565b600081815260096020526040902060040154610100900460ff166121f15760405162461bcd60e51b815260206004820152601d60248201527f546869732070726f6a656374206973206e6f742076616c69646174656400000060448201526064016109a8565b6000818152600a602052604090205460ff1661224f5760405162461bcd60e51b815260206004820181905260248201527f746869732069732070726f6a656374206973206e6f7420696e737572616e636560448201526064016109a8565b6000818152600b602052604090205460ff16156122bd5760405162461bcd60e51b815260206004820152602660248201527f746869732069732070726f6a65637420636c61696d6564207468652020696e736044820152657572616e636560d01b60648201526084016109a8565b60006122c882610f36565b604051909150339082156108fc029083906000818181858888f193505050501580156122f8573d6000803e3d6000fd5b50506000908152600b60205260409020805460ff19166001179055565b6000806000600960008581526020019081526020016000206040518060e00160405290816000820154815260200160018201805461235290612d8a565b80601f016020809104026020016040519081016040528092919081815260200182805461237e90612d8a565b80156123cb5780601f106123a0576101008083540402835291602001916123cb565b820191906000526020600020905b8154815290600101906020018083116123ae57829003601f168201915b505050918352505060028201546020820152600382015460408083019190915260049092015460ff808216151560608085019190915261010083048216151560808501526201000090920416151560a09092019190915290820151910151909590945092505050565b336124667f9016d09d72d40fdae2fd8ceac6b6234c7706214fd39c1cd1e609a0528c199300546001600160a01b031690565b6001600160a01b0316146110f75760405163118cdaa760e01b81523360048201526024016109a8565b306001600160a01b037f000000000000000000000000000000000000000000000000000000000000000016148061251657507f00000000000000000000000000000000000000000000000000000000000000006001600160a01b031661250a600080516020613101833981519152546001600160a01b031690565b6001600160a01b031614155b156110f75760405163703e46dd60e11b815260040160405180910390fd5b61253c612434565b6001600160a01b0381166121235760405162461bcd60e51b815260206004820152602760248201527f4e657720696d706c656d656e746174696f6e2063616e6e6f74206265206164646044820152667265737328302960c81b60648201526084016109a8565b816001600160a01b03166352d1902d6040518163ffffffff1660e01b8152600401602060405180830381865afa9250505080156125fc575060408051601f3d908101601f191682019092526125f991810190612e0d565b60015b61262457604051634c9c8ce360e01b81526001600160a01b03831660048201526024016109a8565b600080516020613101833981519152811461265557604051632a87526960e21b8152600481018290526024016109a8565b61265f8383612737565b505050565b306001600160a01b037f000000000000000000000000000000000000000000000000000000000000000016146110f75760405163703e46dd60e11b815260040160405180910390fd5b7f9016d09d72d40fdae2fd8ceac6b6234c7706214fd39c1cd1e609a0528c19930080546001600160a01b031981166001600160a01b03848116918217845560405192169182907f8be0079c531659141344cd1fd0a4f28419497f9722a3daafe3b4186f6b6457e090600090a3505050565b61272661278d565b612123816127d6565b6110f761278d565b612740826127de565b6040516001600160a01b038316907fbc7cd75a20ee27fd9adebab32041f755214dbc6bffa90cc0225b39da2e5c2d3b90600090a28051156127855761265f8282612843565b610f156128bb565b7ff0c57e16840df040f15088dc2f81fe391c3923bec73e23a9662efc9c229c6a0054600160401b900460ff166110f757604051631afcd79f60e31b815260040160405180910390fd5b6120f061278d565b806001600160a01b03163b60000361281457604051634c9c8ce360e01b81526001600160a01b03821660048201526024016109a8565b60008051602061310183398151915280546001600160a01b0319166001600160a01b0392909216919091179055565b6060600080846001600160a01b03168460405161286091906130e4565b600060405180830381855af49150503d806000811461289b576040519150601f19603f3d011682016040523d82523d6000602084013e6128a0565b606091505b50915091506128b08583836128da565b925050505b92915050565b34156110f75760405163b398979f60e01b815260040160405180910390fd5b6060826128ef576128ea82612939565b612932565b815115801561290657506001600160a01b0384163b155b1561292f57604051639996b31560e01b81526001600160a01b03851660048201526024016109a8565b50805b9392505050565b8051156129495780518082602001fd5b604051630a12f52160e11b815260040160405180910390fd5b60006020828403121561297457600080fd5b5035919050565b6020808252825182820181905260009190848201906040850190845b818110156129b357835183529284019291840191600101612997565b50909695505050505050565b80356001600160a01b03811681146129d657600080fd5b919050565b6000602082840312156129ed57600080fd5b612932826129bf565b60005b83811015612a115781810151838201526020016129f9565b50506000910152565b60008151808452612a328160208601602086016129f6565b601f01601f19169290920160200192915050565b87815260e060208201526000612a5f60e0830189612a1a565b60408301979097525060608101949094529115156080840152151560a0830152151560c09091015292915050565b634e487b7160e01b600052604160045260246000fd5b60008060408385031215612ab657600080fd5b612abf836129bf565b9150602083013567ffffffffffffffff80821115612adc57600080fd5b818501915085601f830112612af057600080fd5b813581811115612b0257612b02612a8d565b604051601f8201601f19908116603f01168101908382118183101715612b2a57612b2a612a8d565b81604052828152886020848701011115612b4357600080fd5b8260208601602083013760006020848301015280955050505050509250929050565b6020808252825182820181905260009190848201906040850190845b818110156129b3578351151583529284019291840191600101612b81565b60008060408385031215612bb257600080fd5b50508035926020909101359150565b6020815260006129326020830184612a1a565b805182526000602082015160e06020850152612bf360e0850182612a1a565b9050604083015160408501526060830151606085015260808301511515608085015260a0830151151560a085015260c0830151151560c08501528091505092915050565b6000602080830181845280855180835260408601915060408160051b870101925083870160005b82811015612c8c57603f19888603018452612c7a858351612bd4565b94509285019290850190600101612c5e565b5092979650505050505050565b6020815260006129326020830184612bd4565b600080600080600060808688031215612cc457600080fd5b853567ffffffffffffffff80821115612cdc57600080fd5b818801915088601f830112612cf057600080fd5b813581811115612cff57600080fd5b896020828501011115612d1157600080fd5b6020928301975095505086013592506040860135915060608601358015158114612d3a57600080fd5b809150509295509295909350565b634e487b7160e01b600052601160045260246000fd5b808201808211156128b5576128b5612d48565b600060018201612d8357612d83612d48565b5060010190565b600181811c90821680612d9e57607f821691505b60208210810361095f57634e487b7160e01b600052602260045260246000fd5b80820281158282048414176128b5576128b5612d48565b634e487b7160e01b600052603260045260246000fd5b600082612e0857634e487b7160e01b600052601260045260246000fd5b500490565b600060208284031215612e1f57600080fd5b5051919050565b6020808252818101527f6869732070726f6a656374204944206973206e6f742072656769737465726564604082015260600190565b60208082526021908201527f546869732070726f6a65637420697320616c72656164792076616c69646174656040820152601960fa1b606082015260800190565b6020808252601c908201527f546869732070726f6a65637420697320616c7265616479205061696400000000604082015260600190565b818103818111156128b5576128b5612d48565b60a081526000808754612ef881612d8a565b8060a086015260c0600180841660008114612f1a5760018114612f3457612f65565b60ff1985168884015283151560051b880183019550612f65565b8c60005260208060002060005b86811015612f5c5781548b8201870152908401908201612f41565b8a018501975050505b50505050506020830187905260408301869052841515606084015290508215156080830152610c23565b601f82111561265f57600081815260208120601f850160051c81016020861015612fb65750805b601f850160051c820191505b81811015610ada57828155600101612fc2565b815167ffffffffffffffff811115612fef57612fef612a8d565b61300381612ffd8454612d8a565b84612f8f565b602080601f83116001811461303857600084156130205750858301515b600019600386901b1c1916600185901b178555610ada565b600085815260208120601f198616915b8281101561306757888601518255948401946001909101908401613048565b50858210156130855787850151600019600388901b60f8161c191681555b5050505050600190811b01905550565b60a081528560a0820152858760c0830137600060c087830181019190915260208201959095526040810193909352901515606083015215156080820152601f909201601f191690910101919050565b600082516130f68184602087016129f6565b919091019291505056fe360894a13ba1a3210667c828492db98dca3e2076cc3735a920a3ca505d382bbca2646970667358221220944f83cbb46165e8444028d52c9ca6aeecc944bdf199474633bda98674c3552964736f6c63430008150033",
  "linkReferences": {},
  "deployedLinkReferences": {}
}