{
  "_format": "hh-sol-artifact-1",
  "contractName": "EcoLedger",
  "sourceName": "contracts/Ecoledger.sol",
  "abi": [
    {
      "inputs": [
        {
          "internalType": "address",
          "name": "target",
          "type": "address"
        }
      ],
      "name": "AddressEmptyCode",
      "type": "error"
    },
    {
      "inputs": [
        {
          "internalType": "address",
          "name": "implementation",
          "type": "address"
        }
      ],
      "name": "ERC1967InvalidImplementation",
      "type": "error"
    },
    {
      "inputs": [],
      "name": "ERC1967NonPayable",
      "type": "error"
    },
    {
      "inputs": [],
      "name": "FailedInnerCall",
      "type": "error"
    },
    {
      "inputs": [],
      "name": "InvalidInitialization",
      "type": "error"
    },
    {
      "inputs": [],
      "name": "NotInitializing",
      "type": "error"
    },
    {
      "inputs": [
        {
          "internalType": "address",
          "name": "owner",
          "type": "address"
        }
      ],
      "name": "OwnableInvalidOwner",
      "type": "error"
    },
    {
      "inputs": [
        {
          "internalType": "address",
          "name": "account",
          "type": "address"
        }
      ],
      "name": "OwnableUnauthorizedAccount",
      "type": "error"
    },
    {
      "inputs": [],
      "name": "UUPSUnauthorizedCallContext",
      "type": "error"
    },
    {
      "inputs": [
        {
          "internalType": "bytes32",
          "name": "slot",
          "type": "bytes32"
        }
      ],
      "name": "UUPSUnsupportedProxiableUUID",
      "type": "error"
    },
    {
      "anonymous": false,
      "inputs": [
        {
          "indexed": false,
          "internalType": "string",
          "name": "name",
          "type": "string"
        },
        {
          "indexed": false,
          "internalType": "uint256",
          "name": "Annualemissions",
          "type": "uint256"
        },
        {
          "indexed": false,
          "internalType": "uint256",
          "name": "AnnualWaterusage",
          "type": "uint256"
        },
        {
          "indexed": false,
          "internalType": "bool",
          "name": "EmissionsReductionProject",
          "type": "bool"
        },
        {
          "indexed": false,
          "internalType": "bool",
          "name": "Validated",
          "type": "bool"
        }
      ],
      "name": "CarbonProjectEvent",
      "type": "event"
    },
    {
      "anonymous": false,
      "inputs": [
        {
          "indexed": true,
          "internalType": "address",
          "name": "contributor",
          "type": "address"
        },
        {
          "indexed": false,
          "internalType": "uint256",
          "name": "amount",
          "type": "uint256"
        }
      ],
      "name": "Contribution",
      "type": "event"
    },
    {
      "anonymous": false,
      "inputs": [
        {
          "indexed": false,
          "internalType": "uint64",
          "name": "version",
          "type": "uint64"
        }
      ],
      "name": "Initialized",
      "type": "event"
    },
    {
      "anonymous": false,
      "inputs": [
        {
          "indexed": true,
          "internalType": "uint256",
          "name": "projectId",
          "type": "uint256"
        },
        {
          "indexed": false,
          "internalType": "uint256",
          "name": "amount",
          "type": "uint256"
        },
        {
          "indexed": true,
          "internalType": "address",
          "name": "buyer",
          "type": "address"
        }
      ],
      "name": "InsurancePurchased",
      "type": "event"
    },
    {
      "anonymous": false,
      "inputs": [
        {
          "indexed": true,
          "internalType": "address",
          "name": "previousOwner",
          "type": "address"
        },
        {
          "indexed": true,
          "internalType": "address",
          "name": "newOwner",
          "type": "address"
        }
      ],
      "name": "OwnershipTransferred",
      "type": "event"
    },
    {
      "anonymous": false,
      "inputs": [
        {
          "indexed": true,
          "internalType": "address",
          "name": "implementation",
          "type": "address"
        }
      ],
      "name": "Upgraded",
      "type": "event"
    },
    {
      "anonymous": false,
      "inputs": [
        {
          "indexed": false,
          "internalType": "uint256",
          "name": "amount",
          "type": "uint256"
        }
      ],
      "name": "Withdrawal",
      "type": "event"
    },
    {
      "inputs": [],
      "name": "UPGRADE_INTERFACE_VERSION",
      "outputs": [
        {
          "internalType": "string",
          "name": "",
          "type": "string"
        }
      ],
      "stateMutability": "view",
      "type": "function"
    },
    {
      "inputs": [
        {
          "internalType": "uint256",
          "name": "id",
          "type": "uint256"
        }
      ],
      "name": "_calculateInsurancePayment",
      "outputs": [
        {
          "internalType": "uint256",
          "name": "",
          "type": "uint256"
        }
      ],
      "stateMutability": "view",
      "type": "function"
    },
    {
      "inputs": [
        {
          "internalType": "uint256",
          "name": "id",
          "type": "uint256"
        }
      ],
      "name": "_calculateTotalPayment",
      "outputs": [
        {
          "internalType": "uint256",
          "name": "",
          "type": "uint256"
        }
      ],
      "stateMutability": "view",
      "type": "function"
    },
    {
      "inputs": [
        {
          "internalType": "uint256",
          "name": "amount",
          "type": "uint256"
        }
      ],
      "name": "buySustainabilityCoin",
      "outputs": [],
      "stateMutability": "payable",
      "type": "function"
    },
    {
      "inputs": [
        {
          "internalType": "uint256",
          "name": "",
          "type": "uint256"
        }
      ],
      "name": "carbonProjects",
      "outputs": [
        {
          "internalType": "uint256",
          "name": "id",
          "type": "uint256"
        },
        {
          "internalType": "string",
          "name": "name",
          "type": "string"
        },
        {
          "internalType": "uint256",
          "name": "Annualemissions",
          "type": "uint256"
        },
        {
          "internalType": "uint256",
          "name": "AnnualWaterusage",
          "type": "uint256"
        },
        {
          "internalType": "bool",
          "name": "EmissionsReductionProject",
          "type": "bool"
        },
        {
          "internalType": "bool",
          "name": "Validated",
          "type": "bool"
        },
        {
          "internalType": "bool",
          "name": "Paid",
          "type": "bool"
        }
      ],
      "stateMutability": "view",
      "type": "function"
    },
    {
      "inputs": [
        {
          "internalType": "uint256",
          "name": "id",
          "type": "uint256"
        }
      ],
      "name": "claimInsurance",
      "outputs": [],
      "stateMutability": "nonpayable",
      "type": "function"
    },
    {
      "inputs": [
        {
          "internalType": "uint256",
          "name": "amount",
          "type": "uint256"
        }
      ],
      "name": "contributeTosayNoCarbon",
      "outputs": [],
      "stateMutability": "payable",
      "type": "function"
    },
    {
      "inputs": [
        {
          "internalType": "address",
          "name": "",
          "type": "address"
        }
      ],
      "name": "contributions",
      "outputs": [
        {
          "internalType": "uint256",
          "name": "",
          "type": "uint256"
        }
      ],
      "stateMutability": "view",
      "type": "function"
    },
    {
      "inputs": [],
      "name": "getAllProjectInsuranceStatus",
      "outputs": [
        {
          "internalType": "bool[]",
          "name": "",
          "type": "bool[]"
        }
      ],
      "stateMutability": "view",
      "type": "function"
    },
    {
      "inputs": [],
      "name": "getAllRegisteredProjectIds",
      "outputs": [
        {
          "internalType": "uint256[]",
          "name": "",
          "type": "uint256[]"
        }
      ],
      "stateMutability": "view",
      "type": "function"
    },
    {
      "inputs": [],
      "name": "getAllRegisteredProjects",
      "outputs": [
        {
          "components": [
            {
              "internalType": "uint256",
              "name": "id",
              "type": "uint256"
            },
            {
              "internalType": "string",
              "name": "name",
              "type": "string"
            },
            {
              "internalType": "uint256",
              "name": "Annualemissions",
              "type": "uint256"
            },
            {
              "internalType": "uint256",
              "name": "AnnualWaterusage",
              "type": "uint256"
            },
            {
              "internalType": "bool",
              "name": "EmissionsReductionProject",
              "type": "bool"
            },
            {
              "internalType": "bool",
              "name": "Validated",
              "type": "bool"
            },
            {
              "internalType": "bool",
              "name": "Paid",
              "type": "bool"
            }
          ],
          "internalType": "struct EcoLedger.CarbonProject[]",
          "name": "",
          "type": "tuple[]"
        }
      ],
      "stateMutability": "view",
      "type": "function"
    },
    {
      "inputs": [
        {
          "internalType": "uint256",
          "name": "id",
          "type": "uint256"
        }
      ],
      "name": "getFullCarbonProject",
      "outputs": [
        {
          "components": [
            {
              "internalType": "uint256",
              "name": "id",
              "type": "uint256"
            },
            {
              "internalType": "string",
              "name": "name",
              "type": "string"
            },
            {
              "internalType": "uint256",
              "name": "Annualemissions",
              "type": "uint256"
            },
            {
              "internalType": "uint256",
              "name": "AnnualWaterusage",
              "type": "uint256"
            },
            {
              "internalType": "bool",
              "name": "EmissionsReductionProject",
              "type": "bool"
            },
            {
              "internalType": "bool",
              "name": "Validated",
              "type": "bool"
            },
            {
              "internalType": "bool",
              "name": "Paid",
              "type": "bool"
            }
          ],
          "internalType": "struct EcoLedger.CarbonProject",
          "name": "",
          "type": "tuple"
        }
      ],
      "stateMutability": "view",
      "type": "function"
    },
    {
      "inputs": [],
      "name": "getPaidProjectsCount",
      "outputs": [
        {
          "internalType": "uint256",
          "name": "",
          "type": "uint256"
        }
      ],
      "stateMutability": "view",
      "type": "function"
    },
    {
      "inputs": [
        {
          "internalType": "uint256",
          "name": "id",
          "type": "uint256"
        }
      ],
      "name": "getProjectEmissionsAndWaterUsage",
      "outputs": [
        {
          "internalType": "uint256",
          "name": "emissions",
          "type": "uint256"
        },
        {
          "internalType": "uint256",
          "name": "waterUsage",
          "type": "uint256"
        }
      ],
      "stateMutability": "view",
      "type": "function"
    },
    {
      "inputs": [],
      "name": "getSustainabilityTokenBalance",
      "outputs": [
        {
          "internalType": "uint256",
          "name": "",
          "type": "uint256"
        }
      ],
      "stateMutability": "view",
      "type": "function"
    },
    {
      "inputs": [],
      "name": "getTotalContributions",
      "outputs": [
        {
          "internalType": "uint256",
          "name": "",
          "type": "uint256"
        }
      ],
      "stateMutability": "view",
      "type": "function"
    },
    {
      "inputs": [],
      "name": "getTotalEmissions",
      "outputs": [
        {
          "internalType": "uint256",
          "name": "",
          "type": "uint256"
        }
      ],
      "stateMutability": "view",
      "type": "function"
    },
    {
      "inputs": [],
      "name": "getTotalInsuranceClaims",
      "outputs": [
        {
          "internalType": "uint256",
          "name": "",
          "type": "uint256"
        }
      ],
      "stateMutability": "view",
      "type": "function"
    },
    {
      "inputs": [],
      "name": "getTotalInsurancePayments",
      "outputs": [
        {
          "internalType": "uint256",
          "name": "",
          "type": "uint256"
        }
      ],
      "stateMutability": "view",
      "type": "function"
    },
    {
      "inputs": [],
      "name": "getTotalWaterUsage",
      "outputs": [
        {
          "internalType": "uint256",
          "name": "",
          "type": "uint256"
        }
      ],
      "stateMutability": "view",
      "type": "function"
    },
    {
      "inputs": [],
      "name": "getWithdrawalPercentage",
      "outputs": [
        {
          "internalType": "uint256",
          "name": "",
          "type": "uint256"
        }
      ],
      "stateMutability": "view",
      "type": "function"
    },
    {
      "inputs": [],
      "name": "getcarbonProjectsLength",
      "outputs": [
        {
          "internalType": "uint256",
          "name": "",
          "type": "uint256"
        }
      ],
      "stateMutability": "view",
      "type": "function"
    },
    {
      "inputs": [],
      "name": "i_owner",
      "outputs": [
        {
          "internalType": "address payable",
          "name": "",
          "type": "address"
        }
      ],
      "stateMutability": "view",
      "type": "function"
    },
    {
      "inputs": [
        {
          "internalType": "address",
          "name": "tokenAddress",
          "type": "address"
        }
      ],
      "name": "initialize",
      "outputs": [],
      "stateMutability": "nonpayable",
      "type": "function"
    },
    {
      "inputs": [
        {
          "internalType": "uint256",
          "name": "id",
          "type": "uint256"
        }
      ],
      "name": "insurance",
      "outputs": [],
      "stateMutability": "payable",
      "type": "function"
    },
    {
      "inputs": [
        {
          "internalType": "uint256",
          "name": "",
          "type": "uint256"
        }
      ],
      "name": "insuranceClaimedOrNot",
      "outputs": [
        {
          "internalType": "bool",
          "name": "",
          "type": "bool"
        }
      ],
      "stateMutability": "view",
      "type": "function"
    },
    {
      "inputs": [
        {
          "internalType": "uint256",
          "name": "",
          "type": "uint256"
        }
      ],
      "name": "insuranceOrNot",
      "outputs": [
        {
          "internalType": "bool",
          "name": "",
          "type": "bool"
        }
      ],
      "stateMutability": "view",
      "type": "function"
    },
    {
      "inputs": [],
      "name": "insurancePercentage",
      "outputs": [
        {
          "internalType": "uint256",
          "name": "",
          "type": "uint256"
        }
      ],
      "stateMutability": "view",
      "type": "function"
    },
    {
      "inputs": [
        {
          "internalType": "uint256",
          "name": "id",
          "type": "uint256"
        }
      ],
      "name": "isProjectPaid",
      "outputs": [
        {
          "internalType": "bool",
          "name": "",
          "type": "bool"
        }
      ],
      "stateMutability": "view",
      "type": "function"
    },
    {
      "inputs": [
        {
          "internalType": "uint256",
          "name": "id",
          "type": "uint256"
        }
      ],
      "name": "isProjectValidated",
      "outputs": [
        {
          "internalType": "bool",
          "name": "",
          "type": "bool"
        }
      ],
      "stateMutability": "view",
      "type": "function"
    },
    {
      "inputs": [
        {
          "internalType": "uint256",
          "name": "",
          "type": "uint256"
        }
      ],
      "name": "isRegistered",
      "outputs": [
        {
          "internalType": "bool",
          "name": "",
          "type": "bool"
        }
      ],
      "stateMutability": "view",
      "type": "function"
    },
    {
      "inputs": [],
      "name": "maxAnnualEmissions",
      "outputs": [
        {
          "internalType": "uint256",
          "name": "",
          "type": "uint256"
        }
      ],
      "stateMutability": "view",
      "type": "function"
    },
    {
      "inputs": [],
      "name": "maxAnnualWaterUsage",
      "outputs": [
        {
          "internalType": "uint256",
          "name": "",
          "type": "uint256"
        }
      ],
      "stateMutability": "view",
      "type": "function"
    },
    {
      "inputs": [],
      "name": "owner",
      "outputs": [
        {
          "internalType": "address",
          "name": "",
          "type": "address"
        }
      ],
      "stateMutability": "view",
      "type": "function"
    },
    {
      "inputs": [
        {
          "internalType": "uint256",
          "name": "id",
          "type": "uint256"
        }
      ],
      "name": "payForCarbon",
      "outputs": [],
      "stateMutability": "payable",
      "type": "function"
    },
    {
      "inputs": [
        {
          "internalType": "uint256",
          "name": "amount",
          "type": "uint256"
        }
      ],
      "name": "priceOfSustainabilityCoin",
      "outputs": [
        {
          "internalType": "uint256",
          "name": "",
          "type": "uint256"
        }
      ],
      "stateMutability": "pure",
      "type": "function"
    },
    {
      "inputs": [],
      "name": "projectId",
      "outputs": [
        {
          "internalType": "uint256",
          "name": "",
          "type": "uint256"
        }
      ],
      "stateMutability": "view",
      "type": "function"
    },
    {
      "inputs": [],
      "name": "proxiableUUID",
      "outputs": [
        {
          "internalType": "bytes32",
          "name": "",
          "type": "bytes32"
        }
      ],
      "stateMutability": "view",
      "type": "function"
    },
    {
      "inputs": [
        {
          "internalType": "string",
          "name": "name",
          "type": "string"
        },
        {
          "internalType": "uint256",
          "name": "annualemissions",
          "type": "uint256"
        },
        {
          "internalType": "uint256",
          "name": "annualWaterusage",
          "type": "uint256"
        },
        {
          "internalType": "bool",
          "name": "emissionsReductionProject",
          "type": "bool"
        }
      ],
      "name": "registerProject",
      "outputs": [],
      "stateMutability": "nonpayable",
      "type": "function"
    },
    {
      "inputs": [],
      "name": "renounceOwnership",
      "outputs": [],
      "stateMutability": "nonpayable",
      "type": "function"
    },
    {
      "inputs": [
        {
          "internalType": "uint256",
          "name": "newMaxEmissions",
          "type": "uint256"
        },
        {
          "internalType": "uint256",
          "name": "newMaxWaterUsage",
          "type": "uint256"
        }
      ],
      "name": "setConstraints",
      "outputs": [],
      "stateMutability": "nonpayable",
      "type": "function"
    },
    {
      "inputs": [
        {
          "internalType": "uint256",
          "name": "newPercentage",
          "type": "uint256"
        }
      ],
      "name": "setWithdrawalPercentage",
      "outputs": [],
      "stateMutability": "nonpayable",
      "type": "function"
    },
    {
      "inputs": [],
      "name": "sustainabilityToken",
      "outputs": [
        {
          "internalType": "contract ISustainabilityCoin",
          "name": "",
          "type": "address"
        }
      ],
      "stateMutability": "view",
      "type": "function"
    },
    {
      "inputs": [],
      "name": "totalContributions",
      "outputs": [
        {
          "internalType": "uint256",
          "name": "",
          "type": "uint256"
        }
      ],
      "stateMutability": "view",
      "type": "function"
    },
    {
      "inputs": [],
      "name": "totalProjects",
      "outputs": [
        {
          "internalType": "uint256",
          "name": "",
          "type": "uint256"
        }
      ],
      "stateMutability": "view",
      "type": "function"
    },
    {
      "inputs": [
        {
          "internalType": "address",
          "name": "newOwner",
          "type": "address"
        }
      ],
      "name": "transferOwnership",
      "outputs": [],
      "stateMutability": "nonpayable",
      "type": "function"
    },
    {
      "inputs": [
        {
          "internalType": "address",
          "name": "newImplementation",
          "type": "address"
        },
        {
          "internalType": "bytes",
          "name": "data",
          "type": "bytes"
        }
      ],
      "name": "upgradeToAndCall",
      "outputs": [],
      "stateMutability": "payable",
      "type": "function"
    },
    {
      "inputs": [
        {
          "internalType": "uint256",
          "name": "id",
          "type": "uint256"
        }
      ],
      "name": "validateRegisteredProject",
      "outputs": [],
      "stateMutability": "nonpayable",
      "type": "function"
    },
    {
      "inputs": [],
      "name": "withdraw",
      "outputs": [],
      "stateMutability": "nonpayable",
      "type": "function"
    },
    {
      "inputs": [],
      "name": "withdrawalPercentage",
      "outputs": [
        {
          "internalType": "uint256",
          "name": "",
          "type": "uint256"
        }
      ],
      "stateMutability": "view",
      "type": "function"
    }
  ],
  "bytecode": "0x60a06040523060805234801561001457600080fd5b5060805161324a61003e600039600081816124db0152818161250401526126b0015261324a6000f3fe6080604052600436106102c95760003560e01c8063724acb1c11610175578063b1b6b763116100dc578063dba6335f11610095578063f2fde38b1161006f578063f2fde38b1461088b578063f44ccbcc146108ab578063f85920d8146108cb578063f941f65e146108eb57600080fd5b8063dba6335f14610840578063ddf556d014610860578063e7d178841461087557600080fd5b8063b1b6b76314610763578063b2ce6bce14610783578063c4d66de8146107a3578063cc6ffeff146107c3578063d57ca84a146107f0578063d7f1ff651461081057600080fd5b80639b44c1431161012e5780639b44c143146106895780639c361e4e1461069e578063a46e8731146106b4578063ac09ca11146106ed578063ad3cb1cc14610703578063af6f997e1461074157600080fd5b8063724acb1c146105bd5780637a0edf18146105d057806384f0f810146105e55780638da5cb5b146106055780638ec876e7146106565780639700e19e1461067657600080fd5b806342e94c901161023457806352d1902d116101ed57806368d4aceb116101c757806368d4aceb1461055c5780636a7ab08e146105715780636c27b07a14610593578063715018a6146105a857600080fd5b806352d1902d146104f757806356cb7ec61461050c578063579a69881461052c57600080fd5b806342e94c901461044557806347c6eb78146104725780634a979d1d146104875780634c1b8b181461049c5780634f1ef286146104cf57806351fef2f2146104e257600080fd5b80632f8b274e116102865780632f8b274e1461037657806337c08923146103b65780633ccfd60b146103cc5780633fafa127146103e15780634098a2a6146103f7578063417b06e31461040d57600080fd5b806309fd1032146102ce5780630ff37681146102f65780631c11342c1461030b5780632057c6171461031e57806325b164191461033e5780632c33195714610360575b600080fd5b3480156102da57600080fd5b506102e3610920565b6040519081526020015b60405180910390f35b610309610304366004612a12565b610965565b005b610309610319366004612a12565b610a26565b34801561032a57600080fd5b506102e3610339366004612a12565b610ae2565b34801561034a57600080fd5b50610353610c2d565b6040516102ed9190612a2b565b34801561036c57600080fd5b506102e360055481565b34801561038257600080fd5b506103a6610391366004612a12565b600a6020526000908152604090205460ff1681565b60405190151581526020016102ed565b3480156103c257600080fd5b506102e360075481565b3480156103d857600080fd5b50610309610cc5565b3480156103ed57600080fd5b506102e360025481565b34801561040357600080fd5b506102e360065481565b34801561041957600080fd5b506103a6610428366004612a12565b600090815260096020526040902060040154610100900460ff1690565b34801561045157600080fd5b506102e3610460366004612a8b565b600c6020526000908152604090205481565b34801561047e57600080fd5b506102e3610dd3565b34801561049357600080fd5b50600e546102e3565b3480156104a857600080fd5b506104bc6104b7366004612a12565b610e19565b6040516102ed9796959493929190612af6565b6103096104dd366004612b53565b610efa565b3480156104ee57600080fd5b506005546102e3565b34801561050357600080fd5b506102e3610f19565b34801561051857600080fd5b506102e3610527366004612a12565b610f36565b34801561053857600080fd5b506103a6610547366004612a12565b60086020526000908152604090205460ff1681565b34801561056857600080fd5b506102e3610fb3565b34801561057d57600080fd5b50610586611025565b6040516102ed9190612c15565b34801561059f57600080fd5b506102e36110c8565b3480156105b457600080fd5b506103096110fe565b6103096105cb366004612a12565b611112565b3480156105dc57600080fd5b506102e3611359565b3480156105f157600080fd5b50610309610600366004612c4f565b611398565b34801561061157600080fd5b507f9016d09d72d40fdae2fd8ceac6b6234c7706214fd39c1cd1e609a0528c199300546001600160a01b03165b6040516001600160a01b0390911681526020016102ed565b34801561066257600080fd5b50610309610671366004612a12565b6113ab565b610309610684366004612a12565b611409565b34801561069557600080fd5b506102e3611645565b3480156106aa57600080fd5b506102e360015481565b3480156106c057600080fd5b506103a66106cf366004612a12565b60009081526009602052604090206004015462010000900460ff1690565b3480156106f957600080fd5b506102e360035481565b34801561070f57600080fd5b50610734604051806040016040528060058152602001640352e302e360dc1b81525081565b6040516102ed9190612c71565b34801561074d57600080fd5b50610756611694565b6040516102ed9190612ce7565b34801561076f57600080fd5b506102e361077e366004612a12565b6117d7565b34801561078f57600080fd5b5061030961079e366004612a12565b61180c565b3480156107af57600080fd5b506103096107be366004612a8b565b6119b0565b3480156107cf57600080fd5b506107e36107de366004612a12565b611afa565b6040516102ed9190612d49565b3480156107fc57600080fd5b5061030961080b366004612d5c565b611c9a565b34801561081c57600080fd5b506103a661082b366004612a12565b600b6020526000908152604090205460ff1681565b34801561084c57600080fd5b5060005461063e906001600160a01b031681565b34801561086c57600080fd5b506007546102e3565b34801561088157600080fd5b506102e360045481565b34801561089757600080fd5b506103096108a6366004612a8b565b612129565b3480156108b757600080fd5b50600d5461063e906001600160a01b031681565b3480156108d757600080fd5b506103096108e6366004612a12565b612167565b3480156108f757600080fd5b5061090b610906366004612a12565b612356565b604080519283526020830191909152016102ed565b600080805b60015481101561095f5760008181526009602052604090206002015461094b9083612e0e565b91508061095781612e21565b915050610925565b50919050565b803410156109b15760405162461bcd60e51b8152602060048201526014602482015273125b9cdd59999a58da595b9d081c185e5b595b9d60621b60448201526064015b60405180910390fd5b336000908152600c6020526040812080548392906109d0908490612e0e565b9250508190555080600760008282546109e99190612e0e565b909155505060405181815233907f4d154d4aae216bed6d0926db77c00df2b57c6b5ba4eee05775de20facede3a7b9060200160405180910390a250565b6000610a31826117d7565b905080341015610a7a5760405162461bcd60e51b8152602060048201526014602482015273125b9cdd59999a58da595b9d081c185e5b595b9d60621b60448201526064016109a8565b600d546040516340c10f1960e01b8152336004820152602481018490526001600160a01b03909116906340c10f1990604401600060405180830381600087803b158015610ac657600080fd5b505af1158015610ada573d6000803e3d6000fd5b505050505050565b6000818152600960209081526040808320815160e0810190925280548252600181018054859484019190610b1590612e3a565b80601f0160208091040260200160405190810160405280929190818152602001828054610b4190612e3a565b8015610b8e5780601f10610b6357610100808354040283529160200191610b8e565b820191906000526020600020905b815481529060010190602001808311610b7157829003601f168201915b505050918352505060028201546020820152600382015460408083019190915260049092015460ff8082161515606084015261010082048116151560808401526201000090910416151560a090910152810151909150600090610bf990670de0b6b3a7640000612e6e565b905060008260600151670de0b6b3a7640000610c159190612e6e565b90506000610c238284612e0e565b9695505050505050565b6060600060015467ffffffffffffffff811115610c4c57610c4c612b3d565b604051908082528060200260200182016040528015610c75578160200160208202803683370190505b50905060005b60015481101561095f576000818152600960205260409020548251839083908110610ca857610ca8612e85565b602090810291909101015280610cbd81612e21565b915050610c7b565b610ccd612475565b4780610d125760405162461bcd60e51b81526020600482015260146024820152734e6f2066756e647320746f20776974686472617760601b60448201526064016109a8565b6000670de0b6b3a7640000600554610d2a9190612e6e565b90506000610d388284612e6e565b90506000610d4f670de0b6b3a76400006064612e6e565b90506000610d5d8284612e9b565b600080546040519293506001600160a01b03169183156108fc0291849190818181858888f19350505050158015610d98573d6000803e3d6000fd5b506040518181527f4e70a604b23a8edee2b1d0a656e9b9c00b73ad8bb1afc2c59381ee9f69197de79060200160405180910390a15050505050565b600080805b60015481101561095f576000818152600b602052604090205460ff1615610e075781610e0381612e21565b9250505b80610e1181612e21565b915050610dd8565b600e8181548110610e2957600080fd5b60009182526020909120600590910201805460018201805491935090610e4e90612e3a565b80601f0160208091040260200160405190810160405280929190818152602001828054610e7a90612e3a565b8015610ec75780601f10610e9c57610100808354040283529160200191610ec7565b820191906000526020600020905b815481529060010190602001808311610eaa57829003601f168201915b505050600284015460038501546004909501549394909390925060ff808216925061010082048116916201000090041687565b610f026124d0565b610f0b82612575565b610f1582826125e3565b5050565b6000610f236126a5565b506000805160206131d383398151915290565b600080610f4283610ae2565b90506000670de0b6b3a7640000600654610f5c9190612e6e565b90506000610f6a8284612e6e565b90506000610f81670de0b6b3a76400006064612e6e565b90506000610f8f8284612e9b565b9050610c236040518060600160405280602281526020016131f360229139826126ee565b600d546040516370a0823160e01b81523060048201526000916001600160a01b0316906370a0823190602401602060405180830381865afa158015610ffc573d6000803e3d6000fd5b505050506040513d601f19601f820116820180604052508101906110209190612ebd565b905090565b6060600060015467ffffffffffffffff81111561104457611044612b3d565b60405190808252806020026020018201604052801561106d578160200160208202803683370190505b50905060005b60015481101561095f576000818152600a6020526040902054825160ff909116908390839081106110a6576110a6612e85565b91151560209283029190910190910152806110c081612e21565b915050611073565b600080805b60015481101561095f576110e081610f36565b6110ea9083612e0e565b9150806110f681612e21565b9150506110cd565b611106612475565b6111106000612733565b565b60008181526008602052604090205460ff166111405760405162461bcd60e51b81526004016109a890612ed6565b600081815260096020526040902060040154610100900460ff166111765760405162461bcd60e51b81526004016109a890612f0b565b60008181526009602052604090206004015462010000900460ff16156111ae5760405162461bcd60e51b81526004016109a890612f4c565b6000818152600960205260408120906111c683610ae2565b9050803410156112105760405162461bcd60e51b815260206004820152601560248201527424b739bab33334b1b4b2b73a103830bcb6b2b73a1760591b60448201526064016109a8565b6000826003015460016112239190612e6e565b60028085015461123291612e6e565b61123c9190612e0e565b600085815260096020526040908190206004908101805462ff0000191662010000179055600d5491516340c10f1960e01b81523391810191909152602481018390529192506001600160a01b0316906340c10f1990604401600060405180830381600087803b1580156112ae57600080fd5b505af11580156112c2573d6000803e3d6000fd5b5050505060005b600e548110156113525784600e82815481106112e7576112e7612e85565b90600052602060002090600502016000015403611340576001600e828154811061131357611313612e85565b906000526020600020906005020160040160026101000a81548160ff021916908315150217905550611352565b8061134a81612e21565b9150506112c9565b5050505050565b600080805b60015481101561095f576000818152600960205260409020600301546113849083612e0e565b91508061139081612e21565b91505061135e565b6113a0612475565b600391909155600455565b6113b3612475565b60648111156114045760405162461bcd60e51b815260206004820152601c60248201527f50657263656e746167652063616e6e6f7420657863656564203130300000000060448201526064016109a8565b600555565b60008181526008602052604090205460ff166114375760405162461bcd60e51b81526004016109a890612ed6565b60008181526009602052604090206004015462010000900460ff1661146e5760405162461bcd60e51b81526004016109a890612f4c565b600081815260096020526040902060040154610100900460ff166114d45760405162461bcd60e51b815260206004820152601d60248201527f546869732070726f6a656374206973206e6f742076616c69646174656400000060448201526064016109a8565b6000818152600a602052604090205460ff16156115425760405162461bcd60e51b815260206004820152602660248201527f746869732069732070726f6a65637420697320416c72656164792020696e73756044820152651c985b98d95960d21b60648201526084016109a8565b600061154d82610f36565b9050803410156115aa5760405162461bcd60e51b815260206004820152602260248201527f496e73756666696369656e74207061796d656e7420466f7220496e737572616e604482015261636560f01b60648201526084016109a8565b803411156115ea57336108fc6115c08334612f83565b6040518115909202916000818181858888f193505050501580156115e8573d6000803e3d6000fd5b505b6000828152600a602052604090819020805460ff1916600117905551339083907fa461e513d2aed580ba148ba370e44d9667f51611a9099cfab56c5369dc5421ae906116399085815260200190565b60405180910390a35050565b600080805b60015481101561095f5760008181526009602052604090206004015462010000900460ff1615611682578161167e81612e21565b9250505b8061168c81612e21565b91505061164a565b6060600e805480602002602001604051908101604052809291908181526020016000905b828210156117ce57838290600052602060002090600502016040518060e0016040529081600082015481526020016001820180546116f590612e3a565b80601f016020809104026020016040519081016040528092919081815260200182805461172190612e3a565b801561176e5780601f106117435761010080835404028352916020019161176e565b820191906000526020600020905b81548152906001019060200180831161175157829003601f168201915b505050918352505060028201546020808301919091526003830154604083015260049092015460ff8082161515606084015261010082048116151560808401526201000090910416151560a09091015290825260019290920191016116b8565b50505050905090565b6000600181670de0b6b3a7640000806117f08487612e6e565b6117fa9190612e6e565b6118049190612e9b565b949350505050565b611814612475565b60008181526008602052604090205460ff166118425760405162461bcd60e51b81526004016109a890612ed6565b60008181526009602052604090206004015462010000900460ff161561187a5760405162461bcd60e51b81526004016109a890612f4c565b60008181526009602052604090206004810154610100900460ff16156118b25760405162461bcd60e51b81526004016109a890612f0b565b60048101805461ff00191661010017905560005b600e5481101561194f5782600e82815481106118e4576118e4612e85565b9060005260206000209060050201600001540361193d576001600e828154811061191057611910612e85565b906000526020600020906005020160040160016101000a81548160ff02191690831515021790555061194f565b8061194781612e21565b9150506118c6565b506002810154600382015460048301546040517fc9fc3aa04405be53fb86d02994d4187da48cd546f7dfb4dc3d63a18444ee3796936119a49360018701939192909160ff808216926101009092041690612f96565b60405180910390a15050565b7ff0c57e16840df040f15088dc2f81fe391c3923bec73e23a9662efc9c229c6a008054600160401b810460ff16159067ffffffffffffffff166000811580156119f65750825b905060008267ffffffffffffffff166001148015611a135750303b155b905081158015611a21575080155b15611a3f5760405163f92ee8a960e01b815260040160405180910390fd5b845467ffffffffffffffff191660011785558315611a6957845460ff60401b1916600160401b1785555b611a72336127a4565b611a7a6127b5565b600d80546001600160a01b0319166001600160a01b038816179055612710600355620186a06004556002600555600a6006558315610ada57845460ff60401b19168555604051600181527fc7f505b2f371ae2175ee4913f4499e1f2633a7b5936321eed1cdaeb6115181d2906020015b60405180910390a1505050505050565b611b406040518060e00160405280600081526020016060815260200160008152602001600081526020016000151581526020016000151581526020016000151581525090565b60008281526008602052604090205460ff16611b975760405162461bcd60e51b8152602060048201526016602482015275141c9bda9958dd081b9bdd081c9959da5cdd195c995960521b60448201526064016109a8565b600960008381526020019081526020016000206040518060e001604052908160008201548152602001600182018054611bcf90612e3a565b80601f0160208091040260200160405190810160405280929190818152602001828054611bfb90612e3a565b8015611c485780601f10611c1d57610100808354040283529160200191611c48565b820191906000526020600020905b815481529060010190602001808311611c2b57829003601f168201915b5050509183525050600282015460208201526003820154604082015260049091015460ff8082161515606084015261010082048116151560808401526201000090910416151560a09091015292915050565b83611ce75760405162461bcd60e51b815260206004820152601860248201527f4e616d652073686f756c64206e6f7420626520656d707479000000000000000060448201526064016109a8565b6127108310611d505760405162461bcd60e51b815260206004820152602f60248201527f416e6e75616c20656d697373696f6e73206d757374206265206c65737320746860448201526e30b710189816181818103a37b7399760891b60648201526084016109a8565b620186a08210611dbd5760405162461bcd60e51b815260206004820152603260248201527f416e6e75616c207761746572207573616765206d757374206e6f74206578636560448201527132b21018981816181818103634ba32b9399760711b60648201526084016109a8565b80611e1c5760405162461bcd60e51b815260206004820152602960248201527f50726f6a656374206d75737420696e636c75646520656d697373696f6e73207260448201526832b23ab1ba34b7b71760b91b60648201526084016109a8565b600860006002546001611e2f9190612e0e565b815260208101919091526040016000205460ff1615611eb65760405162461bcd60e51b815260206004820152603860248201527f726567697374657250726f6a6563743a2d20546869732070726f6a656374204960448201527f4420697320616c726561647920726567697374657265642e000000000000000060648201526084016109a8565b60018054906000611ec683612e21565b909155505060015460028190556040805180820190915260098152681c1c9bda9958dd125960ba1b6020820152611efc916126ee565b60006040518060e00160405280600254815260200187878080601f016020809104026020016040519081016040528093929190818152602001838380828437600092018290525093855250505060208083018890526040830187905285151560608401526080830182905260a0909201819052600e80546001810182559152825160059091027fbb7b4a454dc3493923482f07822329ed19e8244eff582cc204f8554c3620c3fd810191825591830151929350839290917fbb7b4a454dc3493923482f07822329ed19e8244eff582cc204f8554c3620c3fe0190611fe09082613085565b506040828101516002808401919091556060840151600384015560808401516004909301805460a086015160c0909601511515620100000262ff0000199615156101000261ff00199615159690961661ffff19909216919091179490941794909416929092179092558054600090815260086020908152838220805460ff191660019081179091559254825260098152929020835181559183015183929182019061208b9082613085565b5060408281015160028301556060830151600383015560808301516004909201805460a085015160c0909501511515620100000262ff0000199515156101000261ff00199515159590951661ffff1990921691909117939093179390931691909117909155517fc9fc3aa04405be53fb86d02994d4187da48cd546f7dfb4dc3d63a18444ee379690611aea9088908890889088908890600090613145565b612131612475565b6001600160a01b03811661215b57604051631e4fbdf760e01b8152600060048201526024016109a8565b61216481612733565b50565b60008181526008602052604090205460ff166121955760405162461bcd60e51b81526004016109a890612ed6565b60008181526009602052604090206004015462010000900460ff166121cc5760405162461bcd60e51b81526004016109a890612f4c565b600081815260096020526040902060040154610100900460ff166122325760405162461bcd60e51b815260206004820152601d60248201527f546869732070726f6a656374206973206e6f742076616c69646174656400000060448201526064016109a8565b6000818152600a602052604090205460ff166122905760405162461bcd60e51b815260206004820181905260248201527f746869732069732070726f6a656374206973206e6f7420696e737572616e636560448201526064016109a8565b6000818152600b602052604090205460ff16156122fe5760405162461bcd60e51b815260206004820152602660248201527f746869732069732070726f6a65637420636c61696d6564207468652020696e736044820152657572616e636560d01b60648201526084016109a8565b600061230982610f36565b604051909150339082156108fc029083906000818181858888f19350505050158015612339573d6000803e3d6000fd5b50506000908152600b60205260409020805460ff19166001179055565b6000806000600960008581526020019081526020016000206040518060e00160405290816000820154815260200160018201805461239390612e3a565b80601f01602080910402602001604051908101604052809291908181526020018280546123bf90612e3a565b801561240c5780601f106123e15761010080835404028352916020019161240c565b820191906000526020600020905b8154815290600101906020018083116123ef57829003601f168201915b505050918352505060028201546020820152600382015460408083019190915260049092015460ff808216151560608085019190915261010083048216151560808501526201000090920416151560a09092019190915290820151910151909590945092505050565b336124a77f9016d09d72d40fdae2fd8ceac6b6234c7706214fd39c1cd1e609a0528c199300546001600160a01b031690565b6001600160a01b0316146111105760405163118cdaa760e01b81523360048201526024016109a8565b306001600160a01b037f000000000000000000000000000000000000000000000000000000000000000016148061255757507f00000000000000000000000000000000000000000000000000000000000000006001600160a01b031661254b6000805160206131d3833981519152546001600160a01b031690565b6001600160a01b031614155b156111105760405163703e46dd60e11b815260040160405180910390fd5b61257d612475565b6001600160a01b0381166121645760405162461bcd60e51b815260206004820152602760248201527f4e657720696d706c656d656e746174696f6e2063616e6e6f74206265206164646044820152667265737328302960c81b60648201526084016109a8565b816001600160a01b03166352d1902d6040518163ffffffff1660e01b8152600401602060405180830381865afa92505050801561263d575060408051601f3d908101601f1916820190925261263a91810190612ebd565b60015b61266557604051634c9c8ce360e01b81526001600160a01b03831660048201526024016109a8565b6000805160206131d3833981519152811461269657604051632a87526960e21b8152600481018290526024016109a8565b6126a083836127bd565b505050565b306001600160a01b037f000000000000000000000000000000000000000000000000000000000000000016146111105760405163703e46dd60e11b815260040160405180910390fd5b610f158282604051602401612704929190613194565b60408051601f198184030181529190526020810180516001600160e01b0316632d839cb360e21b179052612813565b7f9016d09d72d40fdae2fd8ceac6b6234c7706214fd39c1cd1e609a0528c19930080546001600160a01b031981166001600160a01b03848116918217845560405192169182907f8be0079c531659141344cd1fd0a4f28419497f9722a3daafe3b4186f6b6457e090600090a3505050565b6127ac61281c565b61216481612865565b61111061281c565b6127c68261286d565b6040516001600160a01b038316907fbc7cd75a20ee27fd9adebab32041f755214dbc6bffa90cc0225b39da2e5c2d3b90600090a280511561280b576126a082826128d2565b610f1561294a565b61216481612969565b7ff0c57e16840df040f15088dc2f81fe391c3923bec73e23a9662efc9c229c6a0054600160401b900460ff1661111057604051631afcd79f60e31b815260040160405180910390fd5b61213161281c565b806001600160a01b03163b6000036128a357604051634c9c8ce360e01b81526001600160a01b03821660048201526024016109a8565b6000805160206131d383398151915280546001600160a01b0319166001600160a01b0392909216919091179055565b6060600080846001600160a01b0316846040516128ef91906131b6565b600060405180830381855af49150503d806000811461292a576040519150601f19603f3d011682016040523d82523d6000602084013e61292f565b606091505b509150915061293f85838361298a565b925050505b92915050565b34156111105760405163b398979f60e01b815260040160405180910390fd5b60006a636f6e736f6c652e6c6f679050600080835160208501845afa505050565b60608261299f5761299a826129e9565b6129e2565b81511580156129b657506001600160a01b0384163b155b156129df57604051639996b31560e01b81526001600160a01b03851660048201526024016109a8565b50805b9392505050565b8051156129f95780518082602001fd5b604051630a12f52160e11b815260040160405180910390fd5b600060208284031215612a2457600080fd5b5035919050565b6020808252825182820181905260009190848201906040850190845b81811015612a6357835183529284019291840191600101612a47565b50909695505050505050565b80356001600160a01b0381168114612a8657600080fd5b919050565b600060208284031215612a9d57600080fd5b6129e282612a6f565b60005b83811015612ac1578181015183820152602001612aa9565b50506000910152565b60008151808452612ae2816020860160208601612aa6565b601f01601f19169290920160200192915050565b87815260e060208201526000612b0f60e0830189612aca565b60408301979097525060608101949094529115156080840152151560a0830152151560c09091015292915050565b634e487b7160e01b600052604160045260246000fd5b60008060408385031215612b6657600080fd5b612b6f83612a6f565b9150602083013567ffffffffffffffff80821115612b8c57600080fd5b818501915085601f830112612ba057600080fd5b813581811115612bb257612bb2612b3d565b604051601f8201601f19908116603f01168101908382118183101715612bda57612bda612b3d565b81604052828152886020848701011115612bf357600080fd5b8260208601602083013760006020848301015280955050505050509250929050565b6020808252825182820181905260009190848201906040850190845b81811015612a63578351151583529284019291840191600101612c31565b60008060408385031215612c6257600080fd5b50508035926020909101359150565b6020815260006129e26020830184612aca565b805182526000602082015160e06020850152612ca360e0850182612aca565b9050604083015160408501526060830151606085015260808301511515608085015260a0830151151560a085015260c0830151151560c08501528091505092915050565b6000602080830181845280855180835260408601915060408160051b870101925083870160005b82811015612d3c57603f19888603018452612d2a858351612c84565b94509285019290850190600101612d0e565b5092979650505050505050565b6020815260006129e26020830184612c84565b600080600080600060808688031215612d7457600080fd5b853567ffffffffffffffff80821115612d8c57600080fd5b818801915088601f830112612da057600080fd5b813581811115612daf57600080fd5b896020828501011115612dc157600080fd5b6020928301975095505086013592506040860135915060608601358015158114612dea57600080fd5b809150509295509295909350565b634e487b7160e01b600052601160045260246000fd5b8082018082111561294457612944612df8565b600060018201612e3357612e33612df8565b5060010190565b600181811c90821680612e4e57607f821691505b60208210810361095f57634e487b7160e01b600052602260045260246000fd5b808202811582820484141761294457612944612df8565b634e487b7160e01b600052603260045260246000fd5b600082612eb857634e487b7160e01b600052601260045260246000fd5b500490565b600060208284031215612ecf57600080fd5b5051919050565b6020808252818101527f6869732070726f6a656374204944206973206e6f742072656769737465726564604082015260600190565b60208082526021908201527f546869732070726f6a65637420697320616c72656164792076616c69646174656040820152601960fa1b606082015260800190565b6020808252601c908201527f546869732070726f6a65637420697320616c7265616479205061696400000000604082015260600190565b8181038181111561294457612944612df8565b60a081526000808754612fa881612e3a565b8060a086015260c0600180841660008114612fca5760018114612fe457613015565b60ff1985168884015283151560051b880183019550613015565b8c60005260208060002060005b8681101561300c5781548b8201870152908401908201612ff1565b8a018501975050505b50505050506020830187905260408301869052841515606084015290508215156080830152610c23565b601f8211156126a057600081815260208120601f850160051c810160208610156130665750805b601f850160051c820191505b81811015610ada57828155600101613072565b815167ffffffffffffffff81111561309f5761309f612b3d565b6130b3816130ad8454612e3a565b8461303f565b602080601f8311600181146130e857600084156130d05750858301515b600019600386901b1c1916600185901b178555610ada565b600085815260208120601f198616915b82811015613117578886015182559484019460019091019084016130f8565b50858210156131355787850151600019600388901b60f8161c191681555b5050505050600190811b01905550565b60a081528560a0820152858760c0830137600060c087830181019190915260208201959095526040810193909352901515606083015215156080820152601f909201601f191690910101919050565b6040815260006131a76040830185612aca565b90508260208301529392505050565b600082516131c8818460208701612aa6565b919091019291505056fe360894a13ba1a3210667c828492db98dca3e2076cc3735a920a3ca505d382bbc66726f6d2074686520636f6e74726163742060696e737572616e6365546f50617960a26469706673582212205c596ea5b2876e37039a1d54b7350461668a753b477306ec225857d33f0a9d0664736f6c63430008150033",
  "linkReferences": {},
  "deployedLinkReferences": {}
}