{
  "_format": "hh-sol-artifact-1",
  "contractName": "EcoLedger",
  "sourceName": "contracts/Ecoledger.sol",
  "abi": [
    {
      "inputs": [
        {
          "internalType": "address",
          "name": "target",
          "type": "address"
        }
      ],
      "name": "AddressEmptyCode",
      "type": "error"
    },
    {
      "inputs": [
        {
          "internalType": "address",
          "name": "implementation",
          "type": "address"
        }
      ],
      "name": "ERC1967InvalidImplementation",
      "type": "error"
    },
    {
      "inputs": [],
      "name": "ERC1967NonPayable",
      "type": "error"
    },
    {
      "inputs": [],
      "name": "FailedInnerCall",
      "type": "error"
    },
    {
      "inputs": [],
      "name": "InvalidInitialization",
      "type": "error"
    },
    {
      "inputs": [],
      "name": "NotInitializing",
      "type": "error"
    },
    {
      "inputs": [
        {
          "internalType": "address",
          "name": "owner",
          "type": "address"
        }
      ],
      "name": "OwnableInvalidOwner",
      "type": "error"
    },
    {
      "inputs": [
        {
          "internalType": "address",
          "name": "account",
          "type": "address"
        }
      ],
      "name": "OwnableUnauthorizedAccount",
      "type": "error"
    },
    {
      "inputs": [],
      "name": "UUPSUnauthorizedCallContext",
      "type": "error"
    },
    {
      "inputs": [
        {
          "internalType": "bytes32",
          "name": "slot",
          "type": "bytes32"
        }
      ],
      "name": "UUPSUnsupportedProxiableUUID",
      "type": "error"
    },
    {
      "anonymous": false,
      "inputs": [
        {
          "indexed": false,
          "internalType": "string",
          "name": "name",
          "type": "string"
        },
        {
          "indexed": false,
          "internalType": "uint256",
          "name": "Annualemissions",
          "type": "uint256"
        },
        {
          "indexed": false,
          "internalType": "uint256",
          "name": "AnnualWaterusage",
          "type": "uint256"
        },
        {
          "indexed": false,
          "internalType": "bool",
          "name": "EmissionsReductionProject",
          "type": "bool"
        },
        {
          "indexed": false,
          "internalType": "bool",
          "name": "Validated",
          "type": "bool"
        }
      ],
      "name": "CarbonProjectEvent",
      "type": "event"
    },
    {
      "anonymous": false,
      "inputs": [
        {
          "indexed": true,
          "internalType": "address",
          "name": "contributor",
          "type": "address"
        },
        {
          "indexed": false,
          "internalType": "uint256",
          "name": "amount",
          "type": "uint256"
        }
      ],
      "name": "Contribution",
      "type": "event"
    },
    {
      "anonymous": false,
      "inputs": [
        {
          "indexed": false,
          "internalType": "uint64",
          "name": "version",
          "type": "uint64"
        }
      ],
      "name": "Initialized",
      "type": "event"
    },
    {
      "anonymous": false,
      "inputs": [
        {
          "indexed": true,
          "internalType": "uint256",
          "name": "projectId",
          "type": "uint256"
        },
        {
          "indexed": false,
          "internalType": "uint256",
          "name": "amount",
          "type": "uint256"
        },
        {
          "indexed": true,
          "internalType": "address",
          "name": "buyer",
          "type": "address"
        }
      ],
      "name": "InsurancePurchased",
      "type": "event"
    },
    {
      "anonymous": false,
      "inputs": [
        {
          "indexed": true,
          "internalType": "address",
          "name": "previousOwner",
          "type": "address"
        },
        {
          "indexed": true,
          "internalType": "address",
          "name": "newOwner",
          "type": "address"
        }
      ],
      "name": "OwnershipTransferred",
      "type": "event"
    },
    {
      "anonymous": false,
      "inputs": [
        {
          "indexed": true,
          "internalType": "address",
          "name": "implementation",
          "type": "address"
        }
      ],
      "name": "Upgraded",
      "type": "event"
    },
    {
      "anonymous": false,
      "inputs": [
        {
          "indexed": false,
          "internalType": "uint256",
          "name": "amount",
          "type": "uint256"
        }
      ],
      "name": "Withdrawal",
      "type": "event"
    },
    {
      "inputs": [],
      "name": "UPGRADE_INTERFACE_VERSION",
      "outputs": [
        {
          "internalType": "string",
          "name": "",
          "type": "string"
        }
      ],
      "stateMutability": "view",
      "type": "function"
    },
    {
      "inputs": [
        {
          "internalType": "uint256",
          "name": "id",
          "type": "uint256"
        }
      ],
      "name": "_calculateInsurancePayment",
      "outputs": [
        {
          "internalType": "uint256",
          "name": "",
          "type": "uint256"
        }
      ],
      "stateMutability": "view",
      "type": "function"
    },
    {
      "inputs": [
        {
          "internalType": "uint256",
          "name": "id",
          "type": "uint256"
        }
      ],
      "name": "_calculateTotalPayment",
      "outputs": [
        {
          "internalType": "uint256",
          "name": "",
          "type": "uint256"
        }
      ],
      "stateMutability": "view",
      "type": "function"
    },
    {
      "inputs": [
        {
          "internalType": "uint256",
          "name": "amount",
          "type": "uint256"
        }
      ],
      "name": "buySustainabilityCoin",
      "outputs": [],
      "stateMutability": "payable",
      "type": "function"
    },
    {
      "inputs": [
        {
          "internalType": "uint256",
          "name": "",
          "type": "uint256"
        }
      ],
      "name": "carbonProjects",
      "outputs": [
        {
          "internalType": "uint256",
          "name": "id",
          "type": "uint256"
        },
        {
          "internalType": "string",
          "name": "name",
          "type": "string"
        },
        {
          "internalType": "uint256",
          "name": "Annualemissions",
          "type": "uint256"
        },
        {
          "internalType": "uint256",
          "name": "AnnualWaterusage",
          "type": "uint256"
        },
        {
          "internalType": "bool",
          "name": "EmissionsReductionProject",
          "type": "bool"
        },
        {
          "internalType": "bool",
          "name": "Validated",
          "type": "bool"
        },
        {
          "internalType": "bool",
          "name": "Paid",
          "type": "bool"
        }
      ],
      "stateMutability": "view",
      "type": "function"
    },
    {
      "inputs": [
        {
          "internalType": "uint256",
          "name": "id",
          "type": "uint256"
        }
      ],
      "name": "claimInsurance",
      "outputs": [],
      "stateMutability": "nonpayable",
      "type": "function"
    },
    {
      "inputs": [],
      "name": "contractBalance",
      "outputs": [
        {
          "internalType": "uint256",
          "name": "",
          "type": "uint256"
        }
      ],
      "stateMutability": "view",
      "type": "function"
    },
    {
      "inputs": [
        {
          "internalType": "uint256",
          "name": "amount",
          "type": "uint256"
        }
      ],
      "name": "contributeTosayNoCarbon",
      "outputs": [],
      "stateMutability": "payable",
      "type": "function"
    },
    {
      "inputs": [
        {
          "internalType": "address",
          "name": "",
          "type": "address"
        }
      ],
      "name": "contributions",
      "outputs": [
        {
          "internalType": "uint256",
          "name": "",
          "type": "uint256"
        }
      ],
      "stateMutability": "view",
      "type": "function"
    },
    {
      "inputs": [],
      "name": "getAllProjectInsuranceStatus",
      "outputs": [
        {
          "internalType": "bool[]",
          "name": "",
          "type": "bool[]"
        }
      ],
      "stateMutability": "view",
      "type": "function"
    },
    {
      "inputs": [],
      "name": "getAllRegisteredProjectIds",
      "outputs": [
        {
          "internalType": "uint256[]",
          "name": "",
          "type": "uint256[]"
        }
      ],
      "stateMutability": "view",
      "type": "function"
    },
    {
      "inputs": [],
      "name": "getAllRegisteredProjects",
      "outputs": [
        {
          "components": [
            {
              "internalType": "uint256",
              "name": "id",
              "type": "uint256"
            },
            {
              "internalType": "string",
              "name": "name",
              "type": "string"
            },
            {
              "internalType": "uint256",
              "name": "Annualemissions",
              "type": "uint256"
            },
            {
              "internalType": "uint256",
              "name": "AnnualWaterusage",
              "type": "uint256"
            },
            {
              "internalType": "bool",
              "name": "EmissionsReductionProject",
              "type": "bool"
            },
            {
              "internalType": "bool",
              "name": "Validated",
              "type": "bool"
            },
            {
              "internalType": "bool",
              "name": "Paid",
              "type": "bool"
            }
          ],
          "internalType": "struct EcoLedger.CarbonProject[]",
          "name": "",
          "type": "tuple[]"
        }
      ],
      "stateMutability": "view",
      "type": "function"
    },
    {
      "inputs": [
        {
          "internalType": "uint256",
          "name": "id",
          "type": "uint256"
        }
      ],
      "name": "getFullCarbonProject",
      "outputs": [
        {
          "components": [
            {
              "internalType": "uint256",
              "name": "id",
              "type": "uint256"
            },
            {
              "internalType": "string",
              "name": "name",
              "type": "string"
            },
            {
              "internalType": "uint256",
              "name": "Annualemissions",
              "type": "uint256"
            },
            {
              "internalType": "uint256",
              "name": "AnnualWaterusage",
              "type": "uint256"
            },
            {
              "internalType": "bool",
              "name": "EmissionsReductionProject",
              "type": "bool"
            },
            {
              "internalType": "bool",
              "name": "Validated",
              "type": "bool"
            },
            {
              "internalType": "bool",
              "name": "Paid",
              "type": "bool"
            }
          ],
          "internalType": "struct EcoLedger.CarbonProject",
          "name": "",
          "type": "tuple"
        }
      ],
      "stateMutability": "view",
      "type": "function"
    },
    {
      "inputs": [],
      "name": "getPaidProjectsCount",
      "outputs": [
        {
          "internalType": "uint256",
          "name": "",
          "type": "uint256"
        }
      ],
      "stateMutability": "view",
      "type": "function"
    },
    {
      "inputs": [
        {
          "internalType": "uint256",
          "name": "id",
          "type": "uint256"
        }
      ],
      "name": "getProjectEmissionsAndWaterUsage",
      "outputs": [
        {
          "internalType": "uint256",
          "name": "emissions",
          "type": "uint256"
        },
        {
          "internalType": "uint256",
          "name": "waterUsage",
          "type": "uint256"
        }
      ],
      "stateMutability": "view",
      "type": "function"
    },
    {
      "inputs": [],
      "name": "getSustainabilityTokenBalance",
      "outputs": [
        {
          "internalType": "uint256",
          "name": "",
          "type": "uint256"
        }
      ],
      "stateMutability": "view",
      "type": "function"
    },
    {
      "inputs": [],
      "name": "getTotalContributions",
      "outputs": [
        {
          "internalType": "uint256",
          "name": "",
          "type": "uint256"
        }
      ],
      "stateMutability": "view",
      "type": "function"
    },
    {
      "inputs": [],
      "name": "getTotalEmissions",
      "outputs": [
        {
          "internalType": "uint256",
          "name": "",
          "type": "uint256"
        }
      ],
      "stateMutability": "view",
      "type": "function"
    },
    {
      "inputs": [],
      "name": "getTotalInsuranceClaims",
      "outputs": [
        {
          "internalType": "uint256",
          "name": "",
          "type": "uint256"
        }
      ],
      "stateMutability": "view",
      "type": "function"
    },
    {
      "inputs": [],
      "name": "getTotalInsurancePayments",
      "outputs": [
        {
          "internalType": "uint256",
          "name": "",
          "type": "uint256"
        }
      ],
      "stateMutability": "view",
      "type": "function"
    },
    {
      "inputs": [],
      "name": "getTotalWaterUsage",
      "outputs": [
        {
          "internalType": "uint256",
          "name": "",
          "type": "uint256"
        }
      ],
      "stateMutability": "view",
      "type": "function"
    },
    {
      "inputs": [],
      "name": "getWithdrawalPercentage",
      "outputs": [
        {
          "internalType": "uint256",
          "name": "",
          "type": "uint256"
        }
      ],
      "stateMutability": "view",
      "type": "function"
    },
    {
      "inputs": [],
      "name": "getcarbonProjectsLength",
      "outputs": [
        {
          "internalType": "uint256",
          "name": "",
          "type": "uint256"
        }
      ],
      "stateMutability": "view",
      "type": "function"
    },
    {
      "inputs": [],
      "name": "i_owner",
      "outputs": [
        {
          "internalType": "address payable",
          "name": "",
          "type": "address"
        }
      ],
      "stateMutability": "view",
      "type": "function"
    },
    {
      "inputs": [
        {
          "internalType": "address",
          "name": "tokenAddress",
          "type": "address"
        }
      ],
      "name": "initialize",
      "outputs": [],
      "stateMutability": "nonpayable",
      "type": "function"
    },
    {
      "inputs": [
        {
          "internalType": "uint256",
          "name": "id",
          "type": "uint256"
        }
      ],
      "name": "insurance",
      "outputs": [],
      "stateMutability": "payable",
      "type": "function"
    },
    {
      "inputs": [
        {
          "internalType": "uint256",
          "name": "",
          "type": "uint256"
        }
      ],
      "name": "insuranceClaimedOrNot",
      "outputs": [
        {
          "internalType": "bool",
          "name": "",
          "type": "bool"
        }
      ],
      "stateMutability": "view",
      "type": "function"
    },
    {
      "inputs": [
        {
          "internalType": "uint256",
          "name": "",
          "type": "uint256"
        }
      ],
      "name": "insuranceOrNot",
      "outputs": [
        {
          "internalType": "bool",
          "name": "",
          "type": "bool"
        }
      ],
      "stateMutability": "view",
      "type": "function"
    },
    {
      "inputs": [],
      "name": "insurancePercentage",
      "outputs": [
        {
          "internalType": "uint256",
          "name": "",
          "type": "uint256"
        }
      ],
      "stateMutability": "view",
      "type": "function"
    },
    {
      "inputs": [
        {
          "internalType": "uint256",
          "name": "id",
          "type": "uint256"
        }
      ],
      "name": "isProjectPaid",
      "outputs": [
        {
          "internalType": "bool",
          "name": "",
          "type": "bool"
        }
      ],
      "stateMutability": "view",
      "type": "function"
    },
    {
      "inputs": [
        {
          "internalType": "uint256",
          "name": "id",
          "type": "uint256"
        }
      ],
      "name": "isProjectValidated",
      "outputs": [
        {
          "internalType": "bool",
          "name": "",
          "type": "bool"
        }
      ],
      "stateMutability": "view",
      "type": "function"
    },
    {
      "inputs": [
        {
          "internalType": "uint256",
          "name": "",
          "type": "uint256"
        }
      ],
      "name": "isRegistered",
      "outputs": [
        {
          "internalType": "bool",
          "name": "",
          "type": "bool"
        }
      ],
      "stateMutability": "view",
      "type": "function"
    },
    {
      "inputs": [],
      "name": "maxAnnualEmissions",
      "outputs": [
        {
          "internalType": "uint256",
          "name": "",
          "type": "uint256"
        }
      ],
      "stateMutability": "view",
      "type": "function"
    },
    {
      "inputs": [],
      "name": "maxAnnualWaterUsage",
      "outputs": [
        {
          "internalType": "uint256",
          "name": "",
          "type": "uint256"
        }
      ],
      "stateMutability": "view",
      "type": "function"
    },
    {
      "inputs": [],
      "name": "owner",
      "outputs": [
        {
          "internalType": "address",
          "name": "",
          "type": "address"
        }
      ],
      "stateMutability": "view",
      "type": "function"
    },
    {
      "inputs": [
        {
          "internalType": "uint256",
          "name": "id",
          "type": "uint256"
        }
      ],
      "name": "payForCarbon",
      "outputs": [],
      "stateMutability": "payable",
      "type": "function"
    },
    {
      "inputs": [
        {
          "internalType": "uint256",
          "name": "amount",
          "type": "uint256"
        }
      ],
      "name": "priceOfSustainabilityCoin",
      "outputs": [
        {
          "internalType": "uint256",
          "name": "",
          "type": "uint256"
        }
      ],
      "stateMutability": "pure",
      "type": "function"
    },
    {
      "inputs": [],
      "name": "projectId",
      "outputs": [
        {
          "internalType": "uint256",
          "name": "",
          "type": "uint256"
        }
      ],
      "stateMutability": "view",
      "type": "function"
    },
    {
      "inputs": [],
      "name": "proxiableUUID",
      "outputs": [
        {
          "internalType": "bytes32",
          "name": "",
          "type": "bytes32"
        }
      ],
      "stateMutability": "view",
      "type": "function"
    },
    {
      "inputs": [
        {
          "internalType": "string",
          "name": "name",
          "type": "string"
        },
        {
          "internalType": "uint256",
          "name": "annualemissions",
          "type": "uint256"
        },
        {
          "internalType": "uint256",
          "name": "annualWaterusage",
          "type": "uint256"
        },
        {
          "internalType": "bool",
          "name": "emissionsReductionProject",
          "type": "bool"
        }
      ],
      "name": "registerProject",
      "outputs": [],
      "stateMutability": "nonpayable",
      "type": "function"
    },
    {
      "inputs": [],
      "name": "renounceOwnership",
      "outputs": [],
      "stateMutability": "nonpayable",
      "type": "function"
    },
    {
      "inputs": [
        {
          "internalType": "uint256",
          "name": "newMaxEmissions",
          "type": "uint256"
        },
        {
          "internalType": "uint256",
          "name": "newMaxWaterUsage",
          "type": "uint256"
        }
      ],
      "name": "setConstraints",
      "outputs": [],
      "stateMutability": "nonpayable",
      "type": "function"
    },
    {
      "inputs": [
        {
          "internalType": "uint256",
          "name": "newPercentage",
          "type": "uint256"
        }
      ],
      "name": "setWithdrawalPercentage",
      "outputs": [],
      "stateMutability": "nonpayable",
      "type": "function"
    },
    {
      "inputs": [],
      "name": "sustainabilityToken",
      "outputs": [
        {
          "internalType": "contract ISustainabilityCoin",
          "name": "",
          "type": "address"
        }
      ],
      "stateMutability": "view",
      "type": "function"
    },
    {
      "inputs": [],
      "name": "totalContributions",
      "outputs": [
        {
          "internalType": "uint256",
          "name": "",
          "type": "uint256"
        }
      ],
      "stateMutability": "view",
      "type": "function"
    },
    {
      "inputs": [],
      "name": "totalProjects",
      "outputs": [
        {
          "internalType": "uint256",
          "name": "",
          "type": "uint256"
        }
      ],
      "stateMutability": "view",
      "type": "function"
    },
    {
      "inputs": [
        {
          "internalType": "address",
          "name": "newOwner",
          "type": "address"
        }
      ],
      "name": "transferOwnership",
      "outputs": [],
      "stateMutability": "nonpayable",
      "type": "function"
    },
    {
      "inputs": [
        {
          "internalType": "address",
          "name": "newImplementation",
          "type": "address"
        },
        {
          "internalType": "bytes",
          "name": "data",
          "type": "bytes"
        }
      ],
      "name": "upgradeToAndCall",
      "outputs": [],
      "stateMutability": "payable",
      "type": "function"
    },
    {
      "inputs": [
        {
          "internalType": "uint256",
          "name": "id",
          "type": "uint256"
        }
      ],
      "name": "validateRegisteredProject",
      "outputs": [],
      "stateMutability": "nonpayable",
      "type": "function"
    },
    {
      "inputs": [],
      "name": "withdraw",
      "outputs": [],
      "stateMutability": "nonpayable",
      "type": "function"
    },
    {
      "inputs": [],
      "name": "withdrawalPercentage",
      "outputs": [
        {
          "internalType": "uint256",
          "name": "",
          "type": "uint256"
        }
      ],
      "stateMutability": "view",
      "type": "function"
    }
  ],
  "bytecode": "0x60a06040523060805234801561001457600080fd5b5060805161323d61003e6000396000818161255701528181612580015261272c015261323d6000f3fe6080604052600436106102e45760003560e01c8063724acb1c11610190578063b1b6b763116100dc578063dba6335f11610095578063f2fde38b1161006f578063f2fde38b146108b9578063f44ccbcc146108d9578063f85920d8146108f9578063f941f65e1461091957600080fd5b8063dba6335f1461086e578063ddf556d01461088e578063e7d17884146108a357600080fd5b8063b1b6b76314610791578063b2ce6bce146107b1578063c4d66de8146107d1578063cc6ffeff146107f1578063d57ca84a1461081e578063d7f1ff651461083e57600080fd5b80639700e19e11610149578063a46e873111610123578063a46e8731146106e2578063ac09ca111461071b578063ad3cb1cc14610731578063af6f997e1461076f57600080fd5b80639700e19e146106a45780639b44c143146106b75780639c361e4e146106cc57600080fd5b8063724acb1c146105d85780637a0edf18146105eb57806384f0f810146106005780638b7afe2e146106205780638da5cb5b146106335780638ec876e71461068457600080fd5b806342e94c901161024f57806352d1902d1161020857806368d4aceb116101e257806368d4aceb146105775780636a7ab08e1461058c5780636c27b07a146105ae578063715018a6146105c357600080fd5b806352d1902d1461051257806356cb7ec614610527578063579a69881461054757600080fd5b806342e94c901461046057806347c6eb781461048d5780634a979d1d146104a25780634c1b8b18146104b75780634f1ef286146104ea57806351fef2f2146104fd57600080fd5b80632f8b274e116102a15780632f8b274e1461039157806337c08923146103d15780633ccfd60b146103e75780633fafa127146103fc5780634098a2a614610412578063417b06e31461042857600080fd5b806309fd1032146102e95780630ff37681146103115780631c11342c146103265780632057c6171461033957806325b16419146103595780632c3319571461037b575b600080fd5b3480156102f557600080fd5b506102fe61094e565b6040519081526020015b60405180910390f35b61032461031f366004612a49565b610993565b005b610324610334366004612a49565b610a54565b34801561034557600080fd5b506102fe610354366004612a49565b610b57565b34801561036557600080fd5b5061036e610ca2565b6040516103089190612a62565b34801561038757600080fd5b506102fe60055481565b34801561039d57600080fd5b506103c16103ac366004612a49565b600a6020526000908152604090205460ff1681565b6040519015158152602001610308565b3480156103dd57600080fd5b506102fe60075481565b3480156103f357600080fd5b50610324610d3a565b34801561040857600080fd5b506102fe60025481565b34801561041e57600080fd5b506102fe60065481565b34801561043457600080fd5b506103c1610443366004612a49565b600090815260096020526040902060040154610100900460ff1690565b34801561046c57600080fd5b506102fe61047b366004612ac2565b600c6020526000908152604090205481565b34801561049957600080fd5b506102fe610e48565b3480156104ae57600080fd5b50600e546102fe565b3480156104c357600080fd5b506104d76104d2366004612a49565b610e8e565b6040516103089796959493929190612b2d565b6103246104f8366004612b8a565b610f6f565b34801561050957600080fd5b506005546102fe565b34801561051e57600080fd5b506102fe610f8e565b34801561053357600080fd5b506102fe610542366004612a49565b610fab565b34801561055357600080fd5b506103c1610562366004612a49565b60086020526000908152604090205460ff1681565b34801561058357600080fd5b506102fe61100f565b34801561059857600080fd5b506105a1611081565b6040516103089190612c4c565b3480156105ba57600080fd5b506102fe611124565b3480156105cf57600080fd5b5061032461115a565b6103246105e6366004612a49565b61116e565b3480156105f757600080fd5b506102fe6113b5565b34801561060c57600080fd5b5061032461061b366004612c86565b6113f4565b34801561062c57600080fd5b50476102fe565b34801561063f57600080fd5b507f9016d09d72d40fdae2fd8ceac6b6234c7706214fd39c1cd1e609a0528c199300546001600160a01b03165b6040516001600160a01b039091168152602001610308565b34801561069057600080fd5b5061032461069f366004612a49565b611407565b6103246106b2366004612a49565b611465565b3480156106c357600080fd5b506102fe6116a1565b3480156106d857600080fd5b506102fe60015481565b3480156106ee57600080fd5b506103c16106fd366004612a49565b60009081526009602052604090206004015462010000900460ff1690565b34801561072757600080fd5b506102fe60035481565b34801561073d57600080fd5b50610762604051806040016040528060058152602001640352e302e360dc1b81525081565b6040516103089190612ca8565b34801561077b57600080fd5b506107846116f0565b6040516103089190612d1e565b34801561079d57600080fd5b506102fe6107ac366004612a49565b611833565b3480156107bd57600080fd5b506103246107cc366004612a49565b611868565b3480156107dd57600080fd5b506103246107ec366004612ac2565b611a0c565b3480156107fd57600080fd5b5061081161080c366004612a49565b611b56565b6040516103089190612d80565b34801561082a57600080fd5b50610324610839366004612d93565b611cf6565b34801561084a57600080fd5b506103c1610859366004612a49565b600b6020526000908152604090205460ff1681565b34801561087a57600080fd5b5060005461066c906001600160a01b031681565b34801561089a57600080fd5b506007546102fe565b3480156108af57600080fd5b506102fe60045481565b3480156108c557600080fd5b506103246108d4366004612ac2565b61215d565b3480156108e557600080fd5b50600d5461066c906001600160a01b031681565b34801561090557600080fd5b50610324610914366004612a49565b61219b565b34801561092557600080fd5b50610939610934366004612a49565b61238a565b60408051928352602083019190915201610308565b600080805b60015481101561098d576000818152600960205260409020600201546109799083612e45565b91508061098581612e58565b915050610953565b50919050565b803410156109df5760405162461bcd60e51b8152602060048201526014602482015273125b9cdd59999a58da595b9d081c185e5b595b9d60621b60448201526064015b60405180910390fd5b336000908152600c6020526040812080548392906109fe908490612e45565b925050819055508060076000828254610a179190612e45565b909155505060405181815233907f4d154d4aae216bed6d0926db77c00df2b57c6b5ba4eee05775de20facede3a7b9060200160405180910390a250565b6000610a5f82611833565b905080341015610aa85760405162461bcd60e51b8152602060048201526014602482015273125b9cdd59999a58da595b9d081c185e5b595b9d60621b60448201526064016109d6565b336000908152600c602052604081208054839290610ac7908490612e45565b925050819055508060076000828254610ae09190612e45565b90915550610aef9050336124a9565b600d546040516340c10f1960e01b8152336004820152602481018490526001600160a01b03909116906340c10f1990604401600060405180830381600087803b158015610b3b57600080fd5b505af1158015610b4f573d6000803e3d6000fd5b505050505050565b6000818152600960209081526040808320815160e0810190925280548252600181018054859484019190610b8a90612e71565b80601f0160208091040260200160405190810160405280929190818152602001828054610bb690612e71565b8015610c035780601f10610bd857610100808354040283529160200191610c03565b820191906000526020600020905b815481529060010190602001808311610be657829003601f168201915b505050918352505060028201546020820152600382015460408083019190915260049092015460ff8082161515606084015261010082048116151560808401526201000090910416151560a090910152810151909150600090610c6e90670de0b6b3a7640000612ea5565b905060008260600151670de0b6b3a7640000610c8a9190612ea5565b90506000610c988284612e45565b9695505050505050565b6060600060015467ffffffffffffffff811115610cc157610cc1612b74565b604051908082528060200260200182016040528015610cea578160200160208202803683370190505b50905060005b60015481101561098d576000818152600960205260409020548251839083908110610d1d57610d1d612ebc565b602090810291909101015280610d3281612e58565b915050610cf0565b610d426124f1565b4780610d875760405162461bcd60e51b81526020600482015260146024820152734e6f2066756e647320746f20776974686472617760601b60448201526064016109d6565b6000670de0b6b3a7640000600554610d9f9190612ea5565b90506000610dad8284612ea5565b90506000610dc4670de0b6b3a76400006064612ea5565b90506000610dd28284612ed2565b600080546040519293506001600160a01b03169183156108fc0291849190818181858888f19350505050158015610e0d573d6000803e3d6000fd5b506040518181527f4e70a604b23a8edee2b1d0a656e9b9c00b73ad8bb1afc2c59381ee9f69197de79060200160405180910390a15050505050565b600080805b60015481101561098d576000818152600b602052604090205460ff1615610e7c5781610e7881612e58565b9250505b80610e8681612e58565b915050610e4d565b600e8181548110610e9e57600080fd5b60009182526020909120600590910201805460018201805491935090610ec390612e71565b80601f0160208091040260200160405190810160405280929190818152602001828054610eef90612e71565b8015610f3c5780601f10610f1157610100808354040283529160200191610f3c565b820191906000526020600020905b815481529060010190602001808311610f1f57829003601f168201915b505050600284015460038501546004909501549394909390925060ff808216925061010082048116916201000090041687565b610f7761254c565b610f80826125f1565b610f8a828261265f565b5050565b6000610f98612721565b506000805160206131e883398151915290565b600080610fb783610b57565b90506000670de0b6b3a7640000600654610fd19190612ea5565b90506000610fdf8284612ea5565b90506000610ff6670de0b6b3a76400006064612ea5565b905060006110048284612ed2565b979650505050505050565b600d546040516370a0823160e01b81523060048201526000916001600160a01b0316906370a0823190602401602060405180830381865afa158015611058573d6000803e3d6000fd5b505050506040513d601f19601f8201168201806040525081019061107c9190612ef4565b905090565b6060600060015467ffffffffffffffff8111156110a0576110a0612b74565b6040519080825280602002602001820160405280156110c9578160200160208202803683370190505b50905060005b60015481101561098d576000818152600a6020526040902054825160ff9091169083908390811061110257611102612ebc565b911515602092830291909101909101528061111c81612e58565b9150506110cf565b600080805b60015481101561098d5761113c81610fab565b6111469083612e45565b91508061115281612e58565b915050611129565b6111626124f1565b61116c600061276a565b565b60008181526008602052604090205460ff1661119c5760405162461bcd60e51b81526004016109d690612f0d565b600081815260096020526040902060040154610100900460ff166111d25760405162461bcd60e51b81526004016109d690612f42565b60008181526009602052604090206004015462010000900460ff161561120a5760405162461bcd60e51b81526004016109d690612f83565b60008181526009602052604081209061122283610b57565b90508034101561126c5760405162461bcd60e51b815260206004820152601560248201527424b739bab33334b1b4b2b73a103830bcb6b2b73a1760591b60448201526064016109d6565b60008260030154600161127f9190612ea5565b60028085015461128e91612ea5565b6112989190612e45565b600085815260096020526040908190206004908101805462ff0000191662010000179055600d5491516340c10f1960e01b81523391810191909152602481018390529192506001600160a01b0316906340c10f1990604401600060405180830381600087803b15801561130a57600080fd5b505af115801561131e573d6000803e3d6000fd5b5050505060005b600e548110156113ae5784600e828154811061134357611343612ebc565b9060005260206000209060050201600001540361139c576001600e828154811061136f5761136f612ebc565b906000526020600020906005020160040160026101000a81548160ff0219169083151502179055506113ae565b806113a681612e58565b915050611325565b5050505050565b600080805b60015481101561098d576000818152600960205260409020600301546113e09083612e45565b9150806113ec81612e58565b9150506113ba565b6113fc6124f1565b600391909155600455565b61140f6124f1565b60648111156114605760405162461bcd60e51b815260206004820152601c60248201527f50657263656e746167652063616e6e6f7420657863656564203130300000000060448201526064016109d6565b600555565b60008181526008602052604090205460ff166114935760405162461bcd60e51b81526004016109d690612f0d565b60008181526009602052604090206004015462010000900460ff166114ca5760405162461bcd60e51b81526004016109d690612f83565b600081815260096020526040902060040154610100900460ff166115305760405162461bcd60e51b815260206004820152601d60248201527f546869732070726f6a656374206973206e6f742076616c69646174656400000060448201526064016109d6565b6000818152600a602052604090205460ff161561159e5760405162461bcd60e51b815260206004820152602660248201527f746869732069732070726f6a65637420697320416c72656164792020696e73756044820152651c985b98d95960d21b60648201526084016109d6565b60006115a982610fab565b9050803410156116065760405162461bcd60e51b815260206004820152602260248201527f496e73756666696369656e74207061796d656e7420466f7220496e737572616e604482015261636560f01b60648201526084016109d6565b8034111561164657336108fc61161c8334612fba565b6040518115909202916000818181858888f19350505050158015611644573d6000803e3d6000fd5b505b6000828152600a602052604090819020805460ff1916600117905551339083907fa461e513d2aed580ba148ba370e44d9667f51611a9099cfab56c5369dc5421ae906116959085815260200190565b60405180910390a35050565b600080805b60015481101561098d5760008181526009602052604090206004015462010000900460ff16156116de57816116da81612e58565b9250505b806116e881612e58565b9150506116a6565b6060600e805480602002602001604051908101604052809291908181526020016000905b8282101561182a57838290600052602060002090600502016040518060e00160405290816000820154815260200160018201805461175190612e71565b80601f016020809104026020016040519081016040528092919081815260200182805461177d90612e71565b80156117ca5780601f1061179f576101008083540402835291602001916117ca565b820191906000526020600020905b8154815290600101906020018083116117ad57829003601f168201915b505050918352505060028201546020808301919091526003830154604083015260049092015460ff8082161515606084015261010082048116151560808401526201000090910416151560a0909101529082526001929092019101611714565b50505050905090565b6000600181670de0b6b3a76400008061184c8487612ea5565b6118569190612ea5565b6118609190612ed2565b949350505050565b6118706124f1565b60008181526008602052604090205460ff1661189e5760405162461bcd60e51b81526004016109d690612f0d565b60008181526009602052604090206004015462010000900460ff16156118d65760405162461bcd60e51b81526004016109d690612f83565b60008181526009602052604090206004810154610100900460ff161561190e5760405162461bcd60e51b81526004016109d690612f42565b60048101805461ff00191661010017905560005b600e548110156119ab5782600e828154811061194057611940612ebc565b90600052602060002090600502016000015403611999576001600e828154811061196c5761196c612ebc565b906000526020600020906005020160040160016101000a81548160ff0219169083151502179055506119ab565b806119a381612e58565b915050611922565b506002810154600382015460048301546040517fc9fc3aa04405be53fb86d02994d4187da48cd546f7dfb4dc3d63a18444ee379693611a009360018701939192909160ff808216926101009092041690612fcd565b60405180910390a15050565b7ff0c57e16840df040f15088dc2f81fe391c3923bec73e23a9662efc9c229c6a008054600160401b810460ff16159067ffffffffffffffff16600081158015611a525750825b905060008267ffffffffffffffff166001148015611a6f5750303b155b905081158015611a7d575080155b15611a9b5760405163f92ee8a960e01b815260040160405180910390fd5b845467ffffffffffffffff191660011785558315611ac557845460ff60401b1916600160401b1785555b611ace336127db565b611ad66127ec565b600d80546001600160a01b0319166001600160a01b038816179055612710600355620186a06004556002600555600a6006558315610b4f57845460ff60401b19168555604051600181527fc7f505b2f371ae2175ee4913f4499e1f2633a7b5936321eed1cdaeb6115181d2906020015b60405180910390a1505050505050565b611b9c6040518060e00160405280600081526020016060815260200160008152602001600081526020016000151581526020016000151581526020016000151581525090565b60008281526008602052604090205460ff16611bf35760405162461bcd60e51b8152602060048201526016602482015275141c9bda9958dd081b9bdd081c9959da5cdd195c995960521b60448201526064016109d6565b600960008381526020019081526020016000206040518060e001604052908160008201548152602001600182018054611c2b90612e71565b80601f0160208091040260200160405190810160405280929190818152602001828054611c5790612e71565b8015611ca45780601f10611c7957610100808354040283529160200191611ca4565b820191906000526020600020905b815481529060010190602001808311611c8757829003601f168201915b5050509183525050600282015460208201526003820154604082015260049091015460ff8082161515606084015261010082048116151560808401526201000090910416151560a09091015292915050565b83611d435760405162461bcd60e51b815260206004820152601860248201527f4e616d652073686f756c64206e6f7420626520656d707479000000000000000060448201526064016109d6565b6127108310611dac5760405162461bcd60e51b815260206004820152602f60248201527f416e6e75616c20656d697373696f6e73206d757374206265206c65737320746860448201526e30b710189816181818103a37b7399760891b60648201526084016109d6565b620186a08210611e195760405162461bcd60e51b815260206004820152603260248201527f416e6e75616c207761746572207573616765206d757374206e6f74206578636560448201527132b21018981816181818103634ba32b9399760711b60648201526084016109d6565b80611e785760405162461bcd60e51b815260206004820152602960248201527f50726f6a656374206d75737420696e636c75646520656d697373696f6e73207260448201526832b23ab1ba34b7b71760b91b60648201526084016109d6565b600860006002546001611e8b9190612e45565b815260208101919091526040016000205460ff1615611f125760405162461bcd60e51b815260206004820152603860248201527f726567697374657250726f6a6563743a2d20546869732070726f6a656374204960448201527f4420697320616c726561647920726567697374657265642e000000000000000060648201526084016109d6565b60018054906000611f2283612e58565b919050555060015460028190555060006040518060e00160405280600254815260200187878080601f016020809104026020016040519081016040528093929190818152602001838380828437600092018290525093855250505060208083018890526040830187905285151560608401526080830182905260a0909201819052600e80546001810182559152825160059091027fbb7b4a454dc3493923482f07822329ed19e8244eff582cc204f8554c3620c3fd810191825591830151929350839290917fbb7b4a454dc3493923482f07822329ed19e8244eff582cc204f8554c3620c3fe019061201490826130bc565b506040828101516002808401919091556060840151600384015560808401516004909301805460a086015160c0909601511515620100000262ff0000199615156101000261ff00199615159690961661ffff19909216919091179490941794909416929092179092558054600090815260086020908152838220805460ff19166001908117909155925482526009815292902083518155918301518392918201906120bf90826130bc565b5060408281015160028301556060830151600383015560808301516004909201805460a085015160c0909501511515620100000262ff0000199515156101000261ff00199515159590951661ffff1990921691909117939093179390931691909117909155517fc9fc3aa04405be53fb86d02994d4187da48cd546f7dfb4dc3d63a18444ee379690611b46908890889088908890889060009061317c565b6121656124f1565b6001600160a01b03811661218f57604051631e4fbdf760e01b8152600060048201526024016109d6565b6121988161276a565b50565b60008181526008602052604090205460ff166121c95760405162461bcd60e51b81526004016109d690612f0d565b60008181526009602052604090206004015462010000900460ff166122005760405162461bcd60e51b81526004016109d690612f83565b600081815260096020526040902060040154610100900460ff166122665760405162461bcd60e51b815260206004820152601d60248201527f546869732070726f6a656374206973206e6f742076616c69646174656400000060448201526064016109d6565b6000818152600a602052604090205460ff166122c45760405162461bcd60e51b815260206004820181905260248201527f746869732069732070726f6a656374206973206e6f7420696e737572616e636560448201526064016109d6565b6000818152600b602052604090205460ff16156123325760405162461bcd60e51b815260206004820152602660248201527f746869732069732070726f6a65637420636c61696d6564207468652020696e736044820152657572616e636560d01b60648201526084016109d6565b600061233d82610fab565b604051909150339082156108fc029083906000818181858888f1935050505015801561236d573d6000803e3d6000fd5b50506000908152600b60205260409020805460ff19166001179055565b6000806000600960008581526020019081526020016000206040518060e0016040529081600082015481526020016001820180546123c790612e71565b80601f01602080910402602001604051908101604052809291908181526020018280546123f390612e71565b80156124405780601f1061241557610100808354040283529160200191612440565b820191906000526020600020905b81548152906001019060200180831161242357829003601f168201915b505050918352505060028201546020820152600382015460408083019190915260049092015460ff808216151560608085019190915261010083048216151560808501526201000090920416151560a09092019190915290820151910151909590945092505050565b6040516001600160a01b03821660248201526121989060440160408051601f198184030181529190526020810180516001600160e01b031663161765e160e11b1790526127f4565b336125237f9016d09d72d40fdae2fd8ceac6b6234c7706214fd39c1cd1e609a0528c199300546001600160a01b031690565b6001600160a01b03161461116c5760405163118cdaa760e01b81523360048201526024016109d6565b306001600160a01b037f00000000000000000000000000000000000000000000000000000000000000001614806125d357507f00000000000000000000000000000000000000000000000000000000000000006001600160a01b03166125c76000805160206131e8833981519152546001600160a01b031690565b6001600160a01b031614155b1561116c5760405163703e46dd60e11b815260040160405180910390fd5b6125f96124f1565b6001600160a01b0381166121985760405162461bcd60e51b815260206004820152602760248201527f4e657720696d706c656d656e746174696f6e2063616e6e6f74206265206164646044820152667265737328302960c81b60648201526084016109d6565b816001600160a01b03166352d1902d6040518163ffffffff1660e01b8152600401602060405180830381865afa9250505080156126b9575060408051601f3d908101601f191682019092526126b691810190612ef4565b60015b6126e157604051634c9c8ce360e01b81526001600160a01b03831660048201526024016109d6565b6000805160206131e8833981519152811461271257604051632a87526960e21b8152600481018290526024016109d6565b61271c83836127fd565b505050565b306001600160a01b037f0000000000000000000000000000000000000000000000000000000000000000161461116c5760405163703e46dd60e11b815260040160405180910390fd5b7f9016d09d72d40fdae2fd8ceac6b6234c7706214fd39c1cd1e609a0528c19930080546001600160a01b031981166001600160a01b03848116918217845560405192169182907f8be0079c531659141344cd1fd0a4f28419497f9722a3daafe3b4186f6b6457e090600090a3505050565b6127e3612853565b6121988161289c565b61116c612853565b612198816128a4565b612806826128c5565b6040516001600160a01b038316907fbc7cd75a20ee27fd9adebab32041f755214dbc6bffa90cc0225b39da2e5c2d3b90600090a280511561284b5761271c828261292a565b610f8a6129a2565b7ff0c57e16840df040f15088dc2f81fe391c3923bec73e23a9662efc9c229c6a0054600160401b900460ff1661116c57604051631afcd79f60e31b815260040160405180910390fd5b612165612853565b60006a636f6e736f6c652e6c6f679050600080835160208501845afa505050565b806001600160a01b03163b6000036128fb57604051634c9c8ce360e01b81526001600160a01b03821660048201526024016109d6565b6000805160206131e883398151915280546001600160a01b0319166001600160a01b0392909216919091179055565b6060600080846001600160a01b03168460405161294791906131cb565b600060405180830381855af49150503d8060008114612982576040519150601f19603f3d011682016040523d82523d6000602084013e612987565b606091505b50915091506129978583836129c1565b925050505b92915050565b341561116c5760405163b398979f60e01b815260040160405180910390fd5b6060826129d6576129d182612a20565b612a19565b81511580156129ed57506001600160a01b0384163b155b15612a1657604051639996b31560e01b81526001600160a01b03851660048201526024016109d6565b50805b9392505050565b805115612a305780518082602001fd5b604051630a12f52160e11b815260040160405180910390fd5b600060208284031215612a5b57600080fd5b5035919050565b6020808252825182820181905260009190848201906040850190845b81811015612a9a57835183529284019291840191600101612a7e565b50909695505050505050565b80356001600160a01b0381168114612abd57600080fd5b919050565b600060208284031215612ad457600080fd5b612a1982612aa6565b60005b83811015612af8578181015183820152602001612ae0565b50506000910152565b60008151808452612b19816020860160208601612add565b601f01601f19169290920160200192915050565b87815260e060208201526000612b4660e0830189612b01565b60408301979097525060608101949094529115156080840152151560a0830152151560c09091015292915050565b634e487b7160e01b600052604160045260246000fd5b60008060408385031215612b9d57600080fd5b612ba683612aa6565b9150602083013567ffffffffffffffff80821115612bc357600080fd5b818501915085601f830112612bd757600080fd5b813581811115612be957612be9612b74565b604051601f8201601f19908116603f01168101908382118183101715612c1157612c11612b74565b81604052828152886020848701011115612c2a57600080fd5b8260208601602083013760006020848301015280955050505050509250929050565b6020808252825182820181905260009190848201906040850190845b81811015612a9a578351151583529284019291840191600101612c68565b60008060408385031215612c9957600080fd5b50508035926020909101359150565b602081526000612a196020830184612b01565b805182526000602082015160e06020850152612cda60e0850182612b01565b9050604083015160408501526060830151606085015260808301511515608085015260a0830151151560a085015260c0830151151560c08501528091505092915050565b6000602080830181845280855180835260408601915060408160051b870101925083870160005b82811015612d7357603f19888603018452612d61858351612cbb565b94509285019290850190600101612d45565b5092979650505050505050565b602081526000612a196020830184612cbb565b600080600080600060808688031215612dab57600080fd5b853567ffffffffffffffff80821115612dc357600080fd5b818801915088601f830112612dd757600080fd5b813581811115612de657600080fd5b896020828501011115612df857600080fd5b6020928301975095505086013592506040860135915060608601358015158114612e2157600080fd5b809150509295509295909350565b634e487b7160e01b600052601160045260246000fd5b8082018082111561299c5761299c612e2f565b600060018201612e6a57612e6a612e2f565b5060010190565b600181811c90821680612e8557607f821691505b60208210810361098d57634e487b7160e01b600052602260045260246000fd5b808202811582820484141761299c5761299c612e2f565b634e487b7160e01b600052603260045260246000fd5b600082612eef57634e487b7160e01b600052601260045260246000fd5b500490565b600060208284031215612f0657600080fd5b5051919050565b6020808252818101527f6869732070726f6a656374204944206973206e6f742072656769737465726564604082015260600190565b60208082526021908201527f546869732070726f6a65637420697320616c72656164792076616c69646174656040820152601960fa1b606082015260800190565b6020808252601c908201527f546869732070726f6a65637420697320616c7265616479205061696400000000604082015260600190565b8181038181111561299c5761299c612e2f565b60a081526000808754612fdf81612e71565b8060a086015260c0600180841660008114613001576001811461301b5761304c565b60ff1985168884015283151560051b88018301955061304c565b8c60005260208060002060005b868110156130435781548b8201870152908401908201613028565b8a018501975050505b50505050506020830187905260408301869052841515606084015290508215156080830152610c98565b601f82111561271c57600081815260208120601f850160051c8101602086101561309d5750805b601f850160051c820191505b81811015610b4f578281556001016130a9565b815167ffffffffffffffff8111156130d6576130d6612b74565b6130ea816130e48454612e71565b84613076565b602080601f83116001811461311f57600084156131075750858301515b600019600386901b1c1916600185901b178555610b4f565b600085815260208120601f198616915b8281101561314e5788860151825594840194600190910190840161312f565b508582101561316c5787850151600019600388901b60f8161c191681555b5050505050600190811b01905550565b60a081528560a0820152858760c0830137600060c087830181019190915260208201959095526040810193909352901515606083015215156080820152601f909201601f191690910101919050565b600082516131dd818460208701612add565b919091019291505056fe360894a13ba1a3210667c828492db98dca3e2076cc3735a920a3ca505d382bbca26469706673582212208c59946182075ff35192c69b0b90d67257fa421b5639497b9882c570b911be7c64736f6c63430008150033",
  "linkReferences": {},
  "deployedLinkReferences": {}
}