{
  "_format": "hh-sol-artifact-1",
  "contractName": "EcoLedger",
  "sourceName": "contracts/Ecoledger.sol",
  "abi": [
    {
      "inputs": [
        {
          "internalType": "address",
          "name": "target",
          "type": "address"
        }
      ],
      "name": "AddressEmptyCode",
      "type": "error"
    },
    {
      "inputs": [
        {
          "internalType": "address",
          "name": "implementation",
          "type": "address"
        }
      ],
      "name": "ERC1967InvalidImplementation",
      "type": "error"
    },
    {
      "inputs": [],
      "name": "ERC1967NonPayable",
      "type": "error"
    },
    {
      "inputs": [],
      "name": "FailedInnerCall",
      "type": "error"
    },
    {
      "inputs": [],
      "name": "InvalidInitialization",
      "type": "error"
    },
    {
      "inputs": [],
      "name": "NotInitializing",
      "type": "error"
    },
    {
      "inputs": [
        {
          "internalType": "address",
          "name": "owner",
          "type": "address"
        }
      ],
      "name": "OwnableInvalidOwner",
      "type": "error"
    },
    {
      "inputs": [
        {
          "internalType": "address",
          "name": "account",
          "type": "address"
        }
      ],
      "name": "OwnableUnauthorizedAccount",
      "type": "error"
    },
    {
      "inputs": [],
      "name": "UUPSUnauthorizedCallContext",
      "type": "error"
    },
    {
      "inputs": [
        {
          "internalType": "bytes32",
          "name": "slot",
          "type": "bytes32"
        }
      ],
      "name": "UUPSUnsupportedProxiableUUID",
      "type": "error"
    },
    {
      "anonymous": false,
      "inputs": [
        {
          "indexed": false,
          "internalType": "string",
          "name": "name",
          "type": "string"
        },
        {
          "indexed": false,
          "internalType": "uint256",
          "name": "Annualemissions",
          "type": "uint256"
        },
        {
          "indexed": false,
          "internalType": "uint256",
          "name": "AnnualWaterusage",
          "type": "uint256"
        },
        {
          "indexed": false,
          "internalType": "bool",
          "name": "EmissionsReductionProject",
          "type": "bool"
        },
        {
          "indexed": false,
          "internalType": "bool",
          "name": "Validated",
          "type": "bool"
        }
      ],
      "name": "CarbonProjectEvent",
      "type": "event"
    },
    {
      "anonymous": false,
      "inputs": [
        {
          "indexed": true,
          "internalType": "address",
          "name": "contributor",
          "type": "address"
        },
        {
          "indexed": false,
          "internalType": "uint256",
          "name": "amount",
          "type": "uint256"
        }
      ],
      "name": "Contribution",
      "type": "event"
    },
    {
      "anonymous": false,
      "inputs": [
        {
          "indexed": false,
          "internalType": "uint64",
          "name": "version",
          "type": "uint64"
        }
      ],
      "name": "Initialized",
      "type": "event"
    },
    {
      "anonymous": false,
      "inputs": [
        {
          "indexed": true,
          "internalType": "uint256",
          "name": "projectId",
          "type": "uint256"
        },
        {
          "indexed": false,
          "internalType": "uint256",
          "name": "amount",
          "type": "uint256"
        },
        {
          "indexed": true,
          "internalType": "address",
          "name": "buyer",
          "type": "address"
        }
      ],
      "name": "InsurancePurchased",
      "type": "event"
    },
    {
      "anonymous": false,
      "inputs": [
        {
          "indexed": true,
          "internalType": "address",
          "name": "previousOwner",
          "type": "address"
        },
        {
          "indexed": true,
          "internalType": "address",
          "name": "newOwner",
          "type": "address"
        }
      ],
      "name": "OwnershipTransferred",
      "type": "event"
    },
    {
      "anonymous": false,
      "inputs": [
        {
          "indexed": true,
          "internalType": "address",
          "name": "implementation",
          "type": "address"
        }
      ],
      "name": "Upgraded",
      "type": "event"
    },
    {
      "anonymous": false,
      "inputs": [
        {
          "indexed": false,
          "internalType": "uint256",
          "name": "amount",
          "type": "uint256"
        }
      ],
      "name": "Withdrawal",
      "type": "event"
    },
    {
      "inputs": [],
      "name": "UPGRADE_INTERFACE_VERSION",
      "outputs": [
        {
          "internalType": "string",
          "name": "",
          "type": "string"
        }
      ],
      "stateMutability": "view",
      "type": "function"
    },
    {
      "inputs": [
        {
          "internalType": "uint256",
          "name": "id",
          "type": "uint256"
        }
      ],
      "name": "_calculateInsurancePayment",
      "outputs": [
        {
          "internalType": "uint256",
          "name": "",
          "type": "uint256"
        }
      ],
      "stateMutability": "view",
      "type": "function"
    },
    {
      "inputs": [
        {
          "internalType": "uint256",
          "name": "id",
          "type": "uint256"
        }
      ],
      "name": "_calculateTotalPayment",
      "outputs": [
        {
          "internalType": "uint256",
          "name": "",
          "type": "uint256"
        }
      ],
      "stateMutability": "view",
      "type": "function"
    },
    {
      "inputs": [
        {
          "internalType": "uint256",
          "name": "amount",
          "type": "uint256"
        }
      ],
      "name": "buySustainabilityCoin",
      "outputs": [],
      "stateMutability": "payable",
      "type": "function"
    },
    {
      "inputs": [
        {
          "internalType": "uint256",
          "name": "",
          "type": "uint256"
        }
      ],
      "name": "carbonProjects",
      "outputs": [
        {
          "internalType": "uint256",
          "name": "id",
          "type": "uint256"
        },
        {
          "internalType": "string",
          "name": "name",
          "type": "string"
        },
        {
          "internalType": "uint256",
          "name": "Annualemissions",
          "type": "uint256"
        },
        {
          "internalType": "uint256",
          "name": "AnnualWaterusage",
          "type": "uint256"
        },
        {
          "internalType": "bool",
          "name": "EmissionsReductionProject",
          "type": "bool"
        },
        {
          "internalType": "bool",
          "name": "Validated",
          "type": "bool"
        },
        {
          "internalType": "bool",
          "name": "Paid",
          "type": "bool"
        }
      ],
      "stateMutability": "view",
      "type": "function"
    },
    {
      "inputs": [
        {
          "internalType": "uint256",
          "name": "id",
          "type": "uint256"
        }
      ],
      "name": "claimInsurance",
      "outputs": [],
      "stateMutability": "nonpayable",
      "type": "function"
    },
    {
      "inputs": [],
      "name": "contractBalance",
      "outputs": [
        {
          "internalType": "uint256",
          "name": "",
          "type": "uint256"
        }
      ],
      "stateMutability": "view",
      "type": "function"
    },
    {
      "inputs": [
        {
          "internalType": "uint256",
          "name": "amount",
          "type": "uint256"
        }
      ],
      "name": "contributeTosayNoCarbon",
      "outputs": [],
      "stateMutability": "payable",
      "type": "function"
    },
    {
      "inputs": [
        {
          "internalType": "address",
          "name": "",
          "type": "address"
        }
      ],
      "name": "contributions",
      "outputs": [
        {
          "internalType": "uint256",
          "name": "",
          "type": "uint256"
        }
      ],
      "stateMutability": "view",
      "type": "function"
    },
    {
      "inputs": [],
      "name": "getAllProjectInsuranceStatus",
      "outputs": [
        {
          "internalType": "bool[]",
          "name": "",
          "type": "bool[]"
        }
      ],
      "stateMutability": "view",
      "type": "function"
    },
    {
      "inputs": [],
      "name": "getAllRegisteredProjectIds",
      "outputs": [
        {
          "internalType": "uint256[]",
          "name": "",
          "type": "uint256[]"
        }
      ],
      "stateMutability": "view",
      "type": "function"
    },
    {
      "inputs": [],
      "name": "getAllRegisteredProjects",
      "outputs": [
        {
          "components": [
            {
              "internalType": "uint256",
              "name": "id",
              "type": "uint256"
            },
            {
              "internalType": "string",
              "name": "name",
              "type": "string"
            },
            {
              "internalType": "uint256",
              "name": "Annualemissions",
              "type": "uint256"
            },
            {
              "internalType": "uint256",
              "name": "AnnualWaterusage",
              "type": "uint256"
            },
            {
              "internalType": "bool",
              "name": "EmissionsReductionProject",
              "type": "bool"
            },
            {
              "internalType": "bool",
              "name": "Validated",
              "type": "bool"
            },
            {
              "internalType": "bool",
              "name": "Paid",
              "type": "bool"
            }
          ],
          "internalType": "struct EcoLedger.CarbonProject[]",
          "name": "",
          "type": "tuple[]"
        }
      ],
      "stateMutability": "view",
      "type": "function"
    },
    {
      "inputs": [
        {
          "internalType": "uint256",
          "name": "id",
          "type": "uint256"
        }
      ],
      "name": "getFullCarbonProject",
      "outputs": [
        {
          "components": [
            {
              "internalType": "uint256",
              "name": "id",
              "type": "uint256"
            },
            {
              "internalType": "string",
              "name": "name",
              "type": "string"
            },
            {
              "internalType": "uint256",
              "name": "Annualemissions",
              "type": "uint256"
            },
            {
              "internalType": "uint256",
              "name": "AnnualWaterusage",
              "type": "uint256"
            },
            {
              "internalType": "bool",
              "name": "EmissionsReductionProject",
              "type": "bool"
            },
            {
              "internalType": "bool",
              "name": "Validated",
              "type": "bool"
            },
            {
              "internalType": "bool",
              "name": "Paid",
              "type": "bool"
            }
          ],
          "internalType": "struct EcoLedger.CarbonProject",
          "name": "",
          "type": "tuple"
        }
      ],
      "stateMutability": "view",
      "type": "function"
    },
    {
      "inputs": [],
      "name": "getPaidProjectsCount",
      "outputs": [
        {
          "internalType": "uint256",
          "name": "",
          "type": "uint256"
        }
      ],
      "stateMutability": "view",
      "type": "function"
    },
    {
      "inputs": [
        {
          "internalType": "uint256",
          "name": "id",
          "type": "uint256"
        }
      ],
      "name": "getProjectEmissionsAndWaterUsage",
      "outputs": [
        {
          "internalType": "uint256",
          "name": "emissions",
          "type": "uint256"
        },
        {
          "internalType": "uint256",
          "name": "waterUsage",
          "type": "uint256"
        }
      ],
      "stateMutability": "view",
      "type": "function"
    },
    {
      "inputs": [],
      "name": "getSustainabilityTokenBalance",
      "outputs": [
        {
          "internalType": "uint256",
          "name": "",
          "type": "uint256"
        }
      ],
      "stateMutability": "view",
      "type": "function"
    },
    {
      "inputs": [],
      "name": "getTotalContributions",
      "outputs": [
        {
          "internalType": "uint256",
          "name": "",
          "type": "uint256"
        }
      ],
      "stateMutability": "view",
      "type": "function"
    },
    {
      "inputs": [],
      "name": "getTotalEmissions",
      "outputs": [
        {
          "internalType": "uint256",
          "name": "",
          "type": "uint256"
        }
      ],
      "stateMutability": "view",
      "type": "function"
    },
    {
      "inputs": [],
      "name": "getTotalInsuranceClaims",
      "outputs": [
        {
          "internalType": "uint256",
          "name": "",
          "type": "uint256"
        }
      ],
      "stateMutability": "view",
      "type": "function"
    },
    {
      "inputs": [],
      "name": "getTotalInsurancePayments",
      "outputs": [
        {
          "internalType": "uint256",
          "name": "",
          "type": "uint256"
        }
      ],
      "stateMutability": "view",
      "type": "function"
    },
    {
      "inputs": [],
      "name": "getTotalWaterUsage",
      "outputs": [
        {
          "internalType": "uint256",
          "name": "",
          "type": "uint256"
        }
      ],
      "stateMutability": "view",
      "type": "function"
    },
    {
      "inputs": [],
      "name": "getWithdrawalPercentage",
      "outputs": [
        {
          "internalType": "uint256",
          "name": "",
          "type": "uint256"
        }
      ],
      "stateMutability": "view",
      "type": "function"
    },
    {
      "inputs": [],
      "name": "getcarbonProjectsLength",
      "outputs": [
        {
          "internalType": "uint256",
          "name": "",
          "type": "uint256"
        }
      ],
      "stateMutability": "view",
      "type": "function"
    },
    {
      "inputs": [],
      "name": "i_owner",
      "outputs": [
        {
          "internalType": "address payable",
          "name": "",
          "type": "address"
        }
      ],
      "stateMutability": "view",
      "type": "function"
    },
    {
      "inputs": [
        {
          "internalType": "address",
          "name": "tokenAddress",
          "type": "address"
        }
      ],
      "name": "initialize",
      "outputs": [],
      "stateMutability": "nonpayable",
      "type": "function"
    },
    {
      "inputs": [
        {
          "internalType": "uint256",
          "name": "id",
          "type": "uint256"
        }
      ],
      "name": "insurance",
      "outputs": [],
      "stateMutability": "payable",
      "type": "function"
    },
    {
      "inputs": [
        {
          "internalType": "uint256",
          "name": "",
          "type": "uint256"
        }
      ],
      "name": "insuranceClaimedOrNot",
      "outputs": [
        {
          "internalType": "bool",
          "name": "",
          "type": "bool"
        }
      ],
      "stateMutability": "view",
      "type": "function"
    },
    {
      "inputs": [
        {
          "internalType": "uint256",
          "name": "",
          "type": "uint256"
        }
      ],
      "name": "insuranceOrNot",
      "outputs": [
        {
          "internalType": "bool",
          "name": "",
          "type": "bool"
        }
      ],
      "stateMutability": "view",
      "type": "function"
    },
    {
      "inputs": [],
      "name": "insurancePercentage",
      "outputs": [
        {
          "internalType": "uint256",
          "name": "",
          "type": "uint256"
        }
      ],
      "stateMutability": "view",
      "type": "function"
    },
    {
      "inputs": [
        {
          "internalType": "uint256",
          "name": "id",
          "type": "uint256"
        }
      ],
      "name": "isProjectPaid",
      "outputs": [
        {
          "internalType": "bool",
          "name": "",
          "type": "bool"
        }
      ],
      "stateMutability": "view",
      "type": "function"
    },
    {
      "inputs": [
        {
          "internalType": "uint256",
          "name": "id",
          "type": "uint256"
        }
      ],
      "name": "isProjectValidated",
      "outputs": [
        {
          "internalType": "bool",
          "name": "",
          "type": "bool"
        }
      ],
      "stateMutability": "view",
      "type": "function"
    },
    {
      "inputs": [
        {
          "internalType": "uint256",
          "name": "",
          "type": "uint256"
        }
      ],
      "name": "isRegistered",
      "outputs": [
        {
          "internalType": "bool",
          "name": "",
          "type": "bool"
        }
      ],
      "stateMutability": "view",
      "type": "function"
    },
    {
      "inputs": [],
      "name": "maxAnnualEmissions",
      "outputs": [
        {
          "internalType": "uint256",
          "name": "",
          "type": "uint256"
        }
      ],
      "stateMutability": "view",
      "type": "function"
    },
    {
      "inputs": [],
      "name": "maxAnnualWaterUsage",
      "outputs": [
        {
          "internalType": "uint256",
          "name": "",
          "type": "uint256"
        }
      ],
      "stateMutability": "view",
      "type": "function"
    },
    {
      "inputs": [],
      "name": "owner",
      "outputs": [
        {
          "internalType": "address",
          "name": "",
          "type": "address"
        }
      ],
      "stateMutability": "view",
      "type": "function"
    },
    {
      "inputs": [
        {
          "internalType": "uint256",
          "name": "id",
          "type": "uint256"
        }
      ],
      "name": "payForCarbon",
      "outputs": [],
      "stateMutability": "payable",
      "type": "function"
    },
    {
      "inputs": [
        {
          "internalType": "uint256",
          "name": "amount",
          "type": "uint256"
        }
      ],
      "name": "priceOfSustainabilityCoin",
      "outputs": [
        {
          "internalType": "uint256",
          "name": "",
          "type": "uint256"
        }
      ],
      "stateMutability": "pure",
      "type": "function"
    },
    {
      "inputs": [],
      "name": "projectId",
      "outputs": [
        {
          "internalType": "uint256",
          "name": "",
          "type": "uint256"
        }
      ],
      "stateMutability": "view",
      "type": "function"
    },
    {
      "inputs": [],
      "name": "proxiableUUID",
      "outputs": [
        {
          "internalType": "bytes32",
          "name": "",
          "type": "bytes32"
        }
      ],
      "stateMutability": "view",
      "type": "function"
    },
    {
      "inputs": [
        {
          "internalType": "string",
          "name": "name",
          "type": "string"
        },
        {
          "internalType": "uint256",
          "name": "annualemissions",
          "type": "uint256"
        },
        {
          "internalType": "uint256",
          "name": "annualWaterusage",
          "type": "uint256"
        },
        {
          "internalType": "bool",
          "name": "emissionsReductionProject",
          "type": "bool"
        }
      ],
      "name": "registerProject",
      "outputs": [],
      "stateMutability": "nonpayable",
      "type": "function"
    },
    {
      "inputs": [],
      "name": "renounceOwnership",
      "outputs": [],
      "stateMutability": "nonpayable",
      "type": "function"
    },
    {
      "inputs": [
        {
          "internalType": "uint256",
          "name": "newMaxEmissions",
          "type": "uint256"
        },
        {
          "internalType": "uint256",
          "name": "newMaxWaterUsage",
          "type": "uint256"
        }
      ],
      "name": "setConstraints",
      "outputs": [],
      "stateMutability": "nonpayable",
      "type": "function"
    },
    {
      "inputs": [
        {
          "internalType": "uint256",
          "name": "newPercentage",
          "type": "uint256"
        }
      ],
      "name": "setWithdrawalPercentage",
      "outputs": [],
      "stateMutability": "nonpayable",
      "type": "function"
    },
    {
      "inputs": [],
      "name": "sustainabilityToken",
      "outputs": [
        {
          "internalType": "contract ISustainabilityCoin",
          "name": "",
          "type": "address"
        }
      ],
      "stateMutability": "view",
      "type": "function"
    },
    {
      "inputs": [],
      "name": "totalContributions",
      "outputs": [
        {
          "internalType": "uint256",
          "name": "",
          "type": "uint256"
        }
      ],
      "stateMutability": "view",
      "type": "function"
    },
    {
      "inputs": [],
      "name": "totalProjects",
      "outputs": [
        {
          "internalType": "uint256",
          "name": "",
          "type": "uint256"
        }
      ],
      "stateMutability": "view",
      "type": "function"
    },
    {
      "inputs": [
        {
          "internalType": "address",
          "name": "newOwner",
          "type": "address"
        }
      ],
      "name": "transferOwnership",
      "outputs": [],
      "stateMutability": "nonpayable",
      "type": "function"
    },
    {
      "inputs": [
        {
          "internalType": "address",
          "name": "newImplementation",
          "type": "address"
        },
        {
          "internalType": "bytes",
          "name": "data",
          "type": "bytes"
        }
      ],
      "name": "upgradeToAndCall",
      "outputs": [],
      "stateMutability": "payable",
      "type": "function"
    },
    {
      "inputs": [
        {
          "internalType": "uint256",
          "name": "id",
          "type": "uint256"
        }
      ],
      "name": "validateRegisteredProject",
      "outputs": [],
      "stateMutability": "nonpayable",
      "type": "function"
    },
    {
      "inputs": [],
      "name": "withdraw",
      "outputs": [],
      "stateMutability": "nonpayable",
      "type": "function"
    },
    {
      "inputs": [],
      "name": "withdrawalPercentage",
      "outputs": [
        {
          "internalType": "uint256",
          "name": "",
          "type": "uint256"
        }
      ],
      "stateMutability": "view",
      "type": "function"
    }
  ],
  "bytecode": "0x60a06040523060805234801561001457600080fd5b506080516131c161003e600039600081816125050152818161252e01526126da01526131c16000f3fe6080604052600436106102e45760003560e01c8063724acb1c11610190578063b1b6b763116100dc578063dba6335f11610095578063f2fde38b1161006f578063f2fde38b146108b9578063f44ccbcc146108d9578063f85920d8146108f9578063f941f65e1461091957600080fd5b8063dba6335f1461086e578063ddf556d01461088e578063e7d17884146108a357600080fd5b8063b1b6b76314610791578063b2ce6bce146107b1578063c4d66de8146107d1578063cc6ffeff146107f1578063d57ca84a1461081e578063d7f1ff651461083e57600080fd5b80639700e19e11610149578063a46e873111610123578063a46e8731146106e2578063ac09ca111461071b578063ad3cb1cc14610731578063af6f997e1461076f57600080fd5b80639700e19e146106a45780639b44c143146106b75780639c361e4e146106cc57600080fd5b8063724acb1c146105d85780637a0edf18146105eb57806384f0f810146106005780638b7afe2e146106205780638da5cb5b146106335780638ec876e71461068457600080fd5b806342e94c901161024f57806352d1902d1161020857806368d4aceb116101e257806368d4aceb146105775780636a7ab08e1461058c5780636c27b07a146105ae578063715018a6146105c357600080fd5b806352d1902d1461051257806356cb7ec614610527578063579a69881461054757600080fd5b806342e94c901461046057806347c6eb781461048d5780634a979d1d146104a25780634c1b8b18146104b75780634f1ef286146104ea57806351fef2f2146104fd57600080fd5b80632f8b274e116102a15780632f8b274e1461039157806337c08923146103d15780633ccfd60b146103e75780633fafa127146103fc5780634098a2a614610412578063417b06e31461042857600080fd5b806309fd1032146102e95780630ff37681146103115780631c11342c146103265780632057c6171461033957806325b16419146103595780632c3319571461037b575b600080fd5b3480156102f557600080fd5b506102fe61094e565b6040519081526020015b60405180910390f35b61032461031f3660046129cd565b610993565b005b6103246103343660046129cd565b610a54565b34801561034557600080fd5b506102fe6103543660046129cd565b610b4d565b34801561036557600080fd5b5061036e610c98565b60405161030891906129e6565b34801561038757600080fd5b506102fe60055481565b34801561039d57600080fd5b506103c16103ac3660046129cd565b600a6020526000908152604090205460ff1681565b6040519015158152602001610308565b3480156103dd57600080fd5b506102fe60075481565b3480156103f357600080fd5b50610324610d30565b34801561040857600080fd5b506102fe60025481565b34801561041e57600080fd5b506102fe60065481565b34801561043457600080fd5b506103c16104433660046129cd565b600090815260096020526040902060040154610100900460ff1690565b34801561046c57600080fd5b506102fe61047b366004612a46565b600c6020526000908152604090205481565b34801561049957600080fd5b506102fe610e3e565b3480156104ae57600080fd5b50600e546102fe565b3480156104c357600080fd5b506104d76104d23660046129cd565b610e84565b6040516103089796959493929190612ab1565b6103246104f8366004612b0e565b610f65565b34801561050957600080fd5b506005546102fe565b34801561051e57600080fd5b506102fe610f84565b34801561053357600080fd5b506102fe6105423660046129cd565b610fa1565b34801561055357600080fd5b506103c16105623660046129cd565b60086020526000908152604090205460ff1681565b34801561058357600080fd5b506102fe611005565b34801561059857600080fd5b506105a1611077565b6040516103089190612bd0565b3480156105ba57600080fd5b506102fe61111a565b3480156105cf57600080fd5b50610324611150565b6103246105e63660046129cd565b611164565b3480156105f757600080fd5b506102fe6113ab565b34801561060c57600080fd5b5061032461061b366004612c0a565b6113ea565b34801561062c57600080fd5b50476102fe565b34801561063f57600080fd5b507f9016d09d72d40fdae2fd8ceac6b6234c7706214fd39c1cd1e609a0528c199300546001600160a01b03165b6040516001600160a01b039091168152602001610308565b34801561069057600080fd5b5061032461069f3660046129cd565b6113fd565b6103246106b23660046129cd565b61145b565b3480156106c357600080fd5b506102fe611697565b3480156106d857600080fd5b506102fe60015481565b3480156106ee57600080fd5b506103c16106fd3660046129cd565b60009081526009602052604090206004015462010000900460ff1690565b34801561072757600080fd5b506102fe60035481565b34801561073d57600080fd5b50610762604051806040016040528060058152602001640352e302e360dc1b81525081565b6040516103089190612c2c565b34801561077b57600080fd5b506107846116e6565b6040516103089190612ca2565b34801561079d57600080fd5b506102fe6107ac3660046129cd565b611829565b3480156107bd57600080fd5b506103246107cc3660046129cd565b61185e565b3480156107dd57600080fd5b506103246107ec366004612a46565b611a02565b3480156107fd57600080fd5b5061081161080c3660046129cd565b611b4c565b6040516103089190612d04565b34801561082a57600080fd5b50610324610839366004612d17565b611cec565b34801561084a57600080fd5b506103c16108593660046129cd565b600b6020526000908152604090205460ff1681565b34801561087a57600080fd5b5060005461066c906001600160a01b031681565b34801561089a57600080fd5b506007546102fe565b3480156108af57600080fd5b506102fe60045481565b3480156108c557600080fd5b506103246108d4366004612a46565b612153565b3480156108e557600080fd5b50600d5461066c906001600160a01b031681565b34801561090557600080fd5b506103246109143660046129cd565b612191565b34801561092557600080fd5b506109396109343660046129cd565b612380565b60408051928352602083019190915201610308565b600080805b60015481101561098d576000818152600960205260409020600201546109799083612dc9565b91508061098581612ddc565b915050610953565b50919050565b803410156109df5760405162461bcd60e51b8152602060048201526014602482015273125b9cdd59999a58da595b9d081c185e5b595b9d60621b60448201526064015b60405180910390fd5b336000908152600c6020526040812080548392906109fe908490612dc9565b925050819055508060076000828254610a179190612dc9565b909155505060405181815233907f4d154d4aae216bed6d0926db77c00df2b57c6b5ba4eee05775de20facede3a7b9060200160405180910390a250565b6000610a5f82611829565b905080341015610aa85760405162461bcd60e51b8152602060048201526014602482015273125b9cdd59999a58da595b9d081c185e5b595b9d60621b60448201526064016109d6565b336000908152600c602052604081208054839290610ac7908490612dc9565b925050819055508060076000828254610ae09190612dc9565b9091555050600d546040516340c10f1960e01b8152336004820152602481018490526001600160a01b03909116906340c10f1990604401600060405180830381600087803b158015610b3157600080fd5b505af1158015610b45573d6000803e3d6000fd5b505050505050565b6000818152600960209081526040808320815160e0810190925280548252600181018054859484019190610b8090612df5565b80601f0160208091040260200160405190810160405280929190818152602001828054610bac90612df5565b8015610bf95780601f10610bce57610100808354040283529160200191610bf9565b820191906000526020600020905b815481529060010190602001808311610bdc57829003601f168201915b505050918352505060028201546020820152600382015460408083019190915260049092015460ff8082161515606084015261010082048116151560808401526201000090910416151560a090910152810151909150600090610c6490670de0b6b3a7640000612e29565b905060008260600151670de0b6b3a7640000610c809190612e29565b90506000610c8e8284612dc9565b9695505050505050565b6060600060015467ffffffffffffffff811115610cb757610cb7612af8565b604051908082528060200260200182016040528015610ce0578160200160208202803683370190505b50905060005b60015481101561098d576000818152600960205260409020548251839083908110610d1357610d13612e40565b602090810291909101015280610d2881612ddc565b915050610ce6565b610d3861249f565b4780610d7d5760405162461bcd60e51b81526020600482015260146024820152734e6f2066756e647320746f20776974686472617760601b60448201526064016109d6565b6000670de0b6b3a7640000600554610d959190612e29565b90506000610da38284612e29565b90506000610dba670de0b6b3a76400006064612e29565b90506000610dc88284612e56565b600080546040519293506001600160a01b03169183156108fc0291849190818181858888f19350505050158015610e03573d6000803e3d6000fd5b506040518181527f4e70a604b23a8edee2b1d0a656e9b9c00b73ad8bb1afc2c59381ee9f69197de79060200160405180910390a15050505050565b600080805b60015481101561098d576000818152600b602052604090205460ff1615610e725781610e6e81612ddc565b9250505b80610e7c81612ddc565b915050610e43565b600e8181548110610e9457600080fd5b60009182526020909120600590910201805460018201805491935090610eb990612df5565b80601f0160208091040260200160405190810160405280929190818152602001828054610ee590612df5565b8015610f325780601f10610f0757610100808354040283529160200191610f32565b820191906000526020600020905b815481529060010190602001808311610f1557829003601f168201915b505050600284015460038501546004909501549394909390925060ff808216925061010082048116916201000090041687565b610f6d6124fa565b610f768261259f565b610f80828261260d565b5050565b6000610f8e6126cf565b5060008051602061316c83398151915290565b600080610fad83610b4d565b90506000670de0b6b3a7640000600654610fc79190612e29565b90506000610fd58284612e29565b90506000610fec670de0b6b3a76400006064612e29565b90506000610ffa8284612e56565b979650505050505050565b600d546040516370a0823160e01b81523060048201526000916001600160a01b0316906370a0823190602401602060405180830381865afa15801561104e573d6000803e3d6000fd5b505050506040513d601f19601f820116820180604052508101906110729190612e78565b905090565b6060600060015467ffffffffffffffff81111561109657611096612af8565b6040519080825280602002602001820160405280156110bf578160200160208202803683370190505b50905060005b60015481101561098d576000818152600a6020526040902054825160ff909116908390839081106110f8576110f8612e40565b911515602092830291909101909101528061111281612ddc565b9150506110c5565b600080805b60015481101561098d5761113281610fa1565b61113c9083612dc9565b91508061114881612ddc565b91505061111f565b61115861249f565b6111626000612718565b565b60008181526008602052604090205460ff166111925760405162461bcd60e51b81526004016109d690612e91565b600081815260096020526040902060040154610100900460ff166111c85760405162461bcd60e51b81526004016109d690612ec6565b60008181526009602052604090206004015462010000900460ff16156112005760405162461bcd60e51b81526004016109d690612f07565b60008181526009602052604081209061121883610b4d565b9050803410156112625760405162461bcd60e51b815260206004820152601560248201527424b739bab33334b1b4b2b73a103830bcb6b2b73a1760591b60448201526064016109d6565b6000826003015460016112759190612e29565b60028085015461128491612e29565b61128e9190612dc9565b600085815260096020526040908190206004908101805462ff0000191662010000179055600d5491516340c10f1960e01b81523391810191909152602481018390529192506001600160a01b0316906340c10f1990604401600060405180830381600087803b15801561130057600080fd5b505af1158015611314573d6000803e3d6000fd5b5050505060005b600e548110156113a45784600e828154811061133957611339612e40565b90600052602060002090600502016000015403611392576001600e828154811061136557611365612e40565b906000526020600020906005020160040160026101000a81548160ff0219169083151502179055506113a4565b8061139c81612ddc565b91505061131b565b5050505050565b600080805b60015481101561098d576000818152600960205260409020600301546113d69083612dc9565b9150806113e281612ddc565b9150506113b0565b6113f261249f565b600391909155600455565b61140561249f565b60648111156114565760405162461bcd60e51b815260206004820152601c60248201527f50657263656e746167652063616e6e6f7420657863656564203130300000000060448201526064016109d6565b600555565b60008181526008602052604090205460ff166114895760405162461bcd60e51b81526004016109d690612e91565b60008181526009602052604090206004015462010000900460ff166114c05760405162461bcd60e51b81526004016109d690612f07565b600081815260096020526040902060040154610100900460ff166115265760405162461bcd60e51b815260206004820152601d60248201527f546869732070726f6a656374206973206e6f742076616c69646174656400000060448201526064016109d6565b6000818152600a602052604090205460ff16156115945760405162461bcd60e51b815260206004820152602660248201527f746869732069732070726f6a65637420697320416c72656164792020696e73756044820152651c985b98d95960d21b60648201526084016109d6565b600061159f82610fa1565b9050803410156115fc5760405162461bcd60e51b815260206004820152602260248201527f496e73756666696369656e74207061796d656e7420466f7220496e737572616e604482015261636560f01b60648201526084016109d6565b8034111561163c57336108fc6116128334612f3e565b6040518115909202916000818181858888f1935050505015801561163a573d6000803e3d6000fd5b505b6000828152600a602052604090819020805460ff1916600117905551339083907fa461e513d2aed580ba148ba370e44d9667f51611a9099cfab56c5369dc5421ae9061168b9085815260200190565b60405180910390a35050565b600080805b60015481101561098d5760008181526009602052604090206004015462010000900460ff16156116d457816116d081612ddc565b9250505b806116de81612ddc565b91505061169c565b6060600e805480602002602001604051908101604052809291908181526020016000905b8282101561182057838290600052602060002090600502016040518060e00160405290816000820154815260200160018201805461174790612df5565b80601f016020809104026020016040519081016040528092919081815260200182805461177390612df5565b80156117c05780601f10611795576101008083540402835291602001916117c0565b820191906000526020600020905b8154815290600101906020018083116117a357829003601f168201915b505050918352505060028201546020808301919091526003830154604083015260049092015460ff8082161515606084015261010082048116151560808401526201000090910416151560a090910152908252600192909201910161170a565b50505050905090565b6000600181670de0b6b3a7640000806118428487612e29565b61184c9190612e29565b6118569190612e56565b949350505050565b61186661249f565b60008181526008602052604090205460ff166118945760405162461bcd60e51b81526004016109d690612e91565b60008181526009602052604090206004015462010000900460ff16156118cc5760405162461bcd60e51b81526004016109d690612f07565b60008181526009602052604090206004810154610100900460ff16156119045760405162461bcd60e51b81526004016109d690612ec6565b60048101805461ff00191661010017905560005b600e548110156119a15782600e828154811061193657611936612e40565b9060005260206000209060050201600001540361198f576001600e828154811061196257611962612e40565b906000526020600020906005020160040160016101000a81548160ff0219169083151502179055506119a1565b8061199981612ddc565b915050611918565b506002810154600382015460048301546040517fc9fc3aa04405be53fb86d02994d4187da48cd546f7dfb4dc3d63a18444ee3796936119f69360018701939192909160ff808216926101009092041690612f51565b60405180910390a15050565b7ff0c57e16840df040f15088dc2f81fe391c3923bec73e23a9662efc9c229c6a008054600160401b810460ff16159067ffffffffffffffff16600081158015611a485750825b905060008267ffffffffffffffff166001148015611a655750303b155b905081158015611a73575080155b15611a915760405163f92ee8a960e01b815260040160405180910390fd5b845467ffffffffffffffff191660011785558315611abb57845460ff60401b1916600160401b1785555b611ac433612789565b611acc61279a565b600d80546001600160a01b0319166001600160a01b038816179055612710600355620186a06004556002600555600a6006558315610b4557845460ff60401b19168555604051600181527fc7f505b2f371ae2175ee4913f4499e1f2633a7b5936321eed1cdaeb6115181d2906020015b60405180910390a1505050505050565b611b926040518060e00160405280600081526020016060815260200160008152602001600081526020016000151581526020016000151581526020016000151581525090565b60008281526008602052604090205460ff16611be95760405162461bcd60e51b8152602060048201526016602482015275141c9bda9958dd081b9bdd081c9959da5cdd195c995960521b60448201526064016109d6565b600960008381526020019081526020016000206040518060e001604052908160008201548152602001600182018054611c2190612df5565b80601f0160208091040260200160405190810160405280929190818152602001828054611c4d90612df5565b8015611c9a5780601f10611c6f57610100808354040283529160200191611c9a565b820191906000526020600020905b815481529060010190602001808311611c7d57829003601f168201915b5050509183525050600282015460208201526003820154604082015260049091015460ff8082161515606084015261010082048116151560808401526201000090910416151560a09091015292915050565b83611d395760405162461bcd60e51b815260206004820152601860248201527f4e616d652073686f756c64206e6f7420626520656d707479000000000000000060448201526064016109d6565b6127108310611da25760405162461bcd60e51b815260206004820152602f60248201527f416e6e75616c20656d697373696f6e73206d757374206265206c65737320746860448201526e30b710189816181818103a37b7399760891b60648201526084016109d6565b620186a08210611e0f5760405162461bcd60e51b815260206004820152603260248201527f416e6e75616c207761746572207573616765206d757374206e6f74206578636560448201527132b21018981816181818103634ba32b9399760711b60648201526084016109d6565b80611e6e5760405162461bcd60e51b815260206004820152602960248201527f50726f6a656374206d75737420696e636c75646520656d697373696f6e73207260448201526832b23ab1ba34b7b71760b91b60648201526084016109d6565b600860006002546001611e819190612dc9565b815260208101919091526040016000205460ff1615611f085760405162461bcd60e51b815260206004820152603860248201527f726567697374657250726f6a6563743a2d20546869732070726f6a656374204960448201527f4420697320616c726561647920726567697374657265642e000000000000000060648201526084016109d6565b60018054906000611f1883612ddc565b919050555060015460028190555060006040518060e00160405280600254815260200187878080601f016020809104026020016040519081016040528093929190818152602001838380828437600092018290525093855250505060208083018890526040830187905285151560608401526080830182905260a0909201819052600e80546001810182559152825160059091027fbb7b4a454dc3493923482f07822329ed19e8244eff582cc204f8554c3620c3fd810191825591830151929350839290917fbb7b4a454dc3493923482f07822329ed19e8244eff582cc204f8554c3620c3fe019061200a9082613040565b506040828101516002808401919091556060840151600384015560808401516004909301805460a086015160c0909601511515620100000262ff0000199615156101000261ff00199615159690961661ffff19909216919091179490941794909416929092179092558054600090815260086020908152838220805460ff19166001908117909155925482526009815292902083518155918301518392918201906120b59082613040565b5060408281015160028301556060830151600383015560808301516004909201805460a085015160c0909501511515620100000262ff0000199515156101000261ff00199515159590951661ffff1990921691909117939093179390931691909117909155517fc9fc3aa04405be53fb86d02994d4187da48cd546f7dfb4dc3d63a18444ee379690611b3c9088908890889088908890600090613100565b61215b61249f565b6001600160a01b03811661218557604051631e4fbdf760e01b8152600060048201526024016109d6565b61218e81612718565b50565b60008181526008602052604090205460ff166121bf5760405162461bcd60e51b81526004016109d690612e91565b60008181526009602052604090206004015462010000900460ff166121f65760405162461bcd60e51b81526004016109d690612f07565b600081815260096020526040902060040154610100900460ff1661225c5760405162461bcd60e51b815260206004820152601d60248201527f546869732070726f6a656374206973206e6f742076616c69646174656400000060448201526064016109d6565b6000818152600a602052604090205460ff166122ba5760405162461bcd60e51b815260206004820181905260248201527f746869732069732070726f6a656374206973206e6f7420696e737572616e636560448201526064016109d6565b6000818152600b602052604090205460ff16156123285760405162461bcd60e51b815260206004820152602660248201527f746869732069732070726f6a65637420636c61696d6564207468652020696e736044820152657572616e636560d01b60648201526084016109d6565b600061233382610fa1565b604051909150339082156108fc029083906000818181858888f19350505050158015612363573d6000803e3d6000fd5b50506000908152600b60205260409020805460ff19166001179055565b6000806000600960008581526020019081526020016000206040518060e0016040529081600082015481526020016001820180546123bd90612df5565b80601f01602080910402602001604051908101604052809291908181526020018280546123e990612df5565b80156124365780601f1061240b57610100808354040283529160200191612436565b820191906000526020600020905b81548152906001019060200180831161241957829003601f168201915b505050918352505060028201546020820152600382015460408083019190915260049092015460ff808216151560608085019190915261010083048216151560808501526201000090920416151560a09092019190915290820151910151909590945092505050565b336124d17f9016d09d72d40fdae2fd8ceac6b6234c7706214fd39c1cd1e609a0528c199300546001600160a01b031690565b6001600160a01b0316146111625760405163118cdaa760e01b81523360048201526024016109d6565b306001600160a01b037f000000000000000000000000000000000000000000000000000000000000000016148061258157507f00000000000000000000000000000000000000000000000000000000000000006001600160a01b031661257560008051602061316c833981519152546001600160a01b031690565b6001600160a01b031614155b156111625760405163703e46dd60e11b815260040160405180910390fd5b6125a761249f565b6001600160a01b03811661218e5760405162461bcd60e51b815260206004820152602760248201527f4e657720696d706c656d656e746174696f6e2063616e6e6f74206265206164646044820152667265737328302960c81b60648201526084016109d6565b816001600160a01b03166352d1902d6040518163ffffffff1660e01b8152600401602060405180830381865afa925050508015612667575060408051601f3d908101601f1916820190925261266491810190612e78565b60015b61268f57604051634c9c8ce360e01b81526001600160a01b03831660048201526024016109d6565b60008051602061316c83398151915281146126c057604051632a87526960e21b8152600481018290526024016109d6565b6126ca83836127a2565b505050565b306001600160a01b037f000000000000000000000000000000000000000000000000000000000000000016146111625760405163703e46dd60e11b815260040160405180910390fd5b7f9016d09d72d40fdae2fd8ceac6b6234c7706214fd39c1cd1e609a0528c19930080546001600160a01b031981166001600160a01b03848116918217845560405192169182907f8be0079c531659141344cd1fd0a4f28419497f9722a3daafe3b4186f6b6457e090600090a3505050565b6127916127f8565b61218e81612841565b6111626127f8565b6127ab82612849565b6040516001600160a01b038316907fbc7cd75a20ee27fd9adebab32041f755214dbc6bffa90cc0225b39da2e5c2d3b90600090a28051156127f0576126ca82826128ae565b610f80612926565b7ff0c57e16840df040f15088dc2f81fe391c3923bec73e23a9662efc9c229c6a0054600160401b900460ff1661116257604051631afcd79f60e31b815260040160405180910390fd5b61215b6127f8565b806001600160a01b03163b60000361287f57604051634c9c8ce360e01b81526001600160a01b03821660048201526024016109d6565b60008051602061316c83398151915280546001600160a01b0319166001600160a01b0392909216919091179055565b6060600080846001600160a01b0316846040516128cb919061314f565b600060405180830381855af49150503d8060008114612906576040519150601f19603f3d011682016040523d82523d6000602084013e61290b565b606091505b509150915061291b858383612945565b925050505b92915050565b34156111625760405163b398979f60e01b815260040160405180910390fd5b60608261295a57612955826129a4565b61299d565b815115801561297157506001600160a01b0384163b155b1561299a57604051639996b31560e01b81526001600160a01b03851660048201526024016109d6565b50805b9392505050565b8051156129b45780518082602001fd5b604051630a12f52160e11b815260040160405180910390fd5b6000602082840312156129df57600080fd5b5035919050565b6020808252825182820181905260009190848201906040850190845b81811015612a1e57835183529284019291840191600101612a02565b50909695505050505050565b80356001600160a01b0381168114612a4157600080fd5b919050565b600060208284031215612a5857600080fd5b61299d82612a2a565b60005b83811015612a7c578181015183820152602001612a64565b50506000910152565b60008151808452612a9d816020860160208601612a61565b601f01601f19169290920160200192915050565b87815260e060208201526000612aca60e0830189612a85565b60408301979097525060608101949094529115156080840152151560a0830152151560c09091015292915050565b634e487b7160e01b600052604160045260246000fd5b60008060408385031215612b2157600080fd5b612b2a83612a2a565b9150602083013567ffffffffffffffff80821115612b4757600080fd5b818501915085601f830112612b5b57600080fd5b813581811115612b6d57612b6d612af8565b604051601f8201601f19908116603f01168101908382118183101715612b9557612b95612af8565b81604052828152886020848701011115612bae57600080fd5b8260208601602083013760006020848301015280955050505050509250929050565b6020808252825182820181905260009190848201906040850190845b81811015612a1e578351151583529284019291840191600101612bec565b60008060408385031215612c1d57600080fd5b50508035926020909101359150565b60208152600061299d6020830184612a85565b805182526000602082015160e06020850152612c5e60e0850182612a85565b9050604083015160408501526060830151606085015260808301511515608085015260a0830151151560a085015260c0830151151560c08501528091505092915050565b6000602080830181845280855180835260408601915060408160051b870101925083870160005b82811015612cf757603f19888603018452612ce5858351612c3f565b94509285019290850190600101612cc9565b5092979650505050505050565b60208152600061299d6020830184612c3f565b600080600080600060808688031215612d2f57600080fd5b853567ffffffffffffffff80821115612d4757600080fd5b818801915088601f830112612d5b57600080fd5b813581811115612d6a57600080fd5b896020828501011115612d7c57600080fd5b6020928301975095505086013592506040860135915060608601358015158114612da557600080fd5b809150509295509295909350565b634e487b7160e01b600052601160045260246000fd5b8082018082111561292057612920612db3565b600060018201612dee57612dee612db3565b5060010190565b600181811c90821680612e0957607f821691505b60208210810361098d57634e487b7160e01b600052602260045260246000fd5b808202811582820484141761292057612920612db3565b634e487b7160e01b600052603260045260246000fd5b600082612e7357634e487b7160e01b600052601260045260246000fd5b500490565b600060208284031215612e8a57600080fd5b5051919050565b6020808252818101527f6869732070726f6a656374204944206973206e6f742072656769737465726564604082015260600190565b60208082526021908201527f546869732070726f6a65637420697320616c72656164792076616c69646174656040820152601960fa1b606082015260800190565b6020808252601c908201527f546869732070726f6a65637420697320616c7265616479205061696400000000604082015260600190565b8181038181111561292057612920612db3565b60a081526000808754612f6381612df5565b8060a086015260c0600180841660008114612f855760018114612f9f57612fd0565b60ff1985168884015283151560051b880183019550612fd0565b8c60005260208060002060005b86811015612fc75781548b8201870152908401908201612fac565b8a018501975050505b50505050506020830187905260408301869052841515606084015290508215156080830152610c8e565b601f8211156126ca57600081815260208120601f850160051c810160208610156130215750805b601f850160051c820191505b81811015610b455782815560010161302d565b815167ffffffffffffffff81111561305a5761305a612af8565b61306e816130688454612df5565b84612ffa565b602080601f8311600181146130a3576000841561308b5750858301515b600019600386901b1c1916600185901b178555610b45565b600085815260208120601f198616915b828110156130d2578886015182559484019460019091019084016130b3565b50858210156130f05787850151600019600388901b60f8161c191681555b5050505050600190811b01905550565b60a081528560a0820152858760c0830137600060c087830181019190915260208201959095526040810193909352901515606083015215156080820152601f909201601f191690910101919050565b60008251613161818460208701612a61565b919091019291505056fe360894a13ba1a3210667c828492db98dca3e2076cc3735a920a3ca505d382bbca26469706673582212200fc55439936730b69eff6853b9461e9f750360fe06264342626cb6ce4a0fa38864736f6c63430008150033",
  "linkReferences": {},
  "deployedLinkReferences": {}
}