{
  "_format": "hh-sol-artifact-1",
  "contractName": "EcoLedger",
  "sourceName": "contracts/Ecoledger.sol",
  "abi": [
    {
      "inputs": [
        {
          "internalType": "address",
          "name": "target",
          "type": "address"
        }
      ],
      "name": "AddressEmptyCode",
      "type": "error"
    },
    {
      "inputs": [
        {
          "internalType": "address",
          "name": "implementation",
          "type": "address"
        }
      ],
      "name": "ERC1967InvalidImplementation",
      "type": "error"
    },
    {
      "inputs": [],
      "name": "ERC1967NonPayable",
      "type": "error"
    },
    {
      "inputs": [],
      "name": "FailedInnerCall",
      "type": "error"
    },
    {
      "inputs": [],
      "name": "InvalidInitialization",
      "type": "error"
    },
    {
      "inputs": [],
      "name": "NotInitializing",
      "type": "error"
    },
    {
      "inputs": [
        {
          "internalType": "address",
          "name": "owner",
          "type": "address"
        }
      ],
      "name": "OwnableInvalidOwner",
      "type": "error"
    },
    {
      "inputs": [
        {
          "internalType": "address",
          "name": "account",
          "type": "address"
        }
      ],
      "name": "OwnableUnauthorizedAccount",
      "type": "error"
    },
    {
      "inputs": [],
      "name": "UUPSUnauthorizedCallContext",
      "type": "error"
    },
    {
      "inputs": [
        {
          "internalType": "bytes32",
          "name": "slot",
          "type": "bytes32"
        }
      ],
      "name": "UUPSUnsupportedProxiableUUID",
      "type": "error"
    },
    {
      "anonymous": false,
      "inputs": [
        {
          "indexed": false,
          "internalType": "string",
          "name": "name",
          "type": "string"
        },
        {
          "indexed": false,
          "internalType": "uint256",
          "name": "Annualemissions",
          "type": "uint256"
        },
        {
          "indexed": false,
          "internalType": "uint256",
          "name": "AnnualWaterusage",
          "type": "uint256"
        },
        {
          "indexed": false,
          "internalType": "bool",
          "name": "EmissionsReductionProject",
          "type": "bool"
        },
        {
          "indexed": false,
          "internalType": "bool",
          "name": "Validated",
          "type": "bool"
        }
      ],
      "name": "CarbonProjectEvent",
      "type": "event"
    },
    {
      "anonymous": false,
      "inputs": [
        {
          "indexed": true,
          "internalType": "address",
          "name": "contributor",
          "type": "address"
        },
        {
          "indexed": false,
          "internalType": "uint256",
          "name": "amount",
          "type": "uint256"
        }
      ],
      "name": "Contribution",
      "type": "event"
    },
    {
      "anonymous": false,
      "inputs": [
        {
          "indexed": false,
          "internalType": "uint64",
          "name": "version",
          "type": "uint64"
        }
      ],
      "name": "Initialized",
      "type": "event"
    },
    {
      "anonymous": false,
      "inputs": [
        {
          "indexed": true,
          "internalType": "uint256",
          "name": "projectId",
          "type": "uint256"
        },
        {
          "indexed": false,
          "internalType": "uint256",
          "name": "amount",
          "type": "uint256"
        },
        {
          "indexed": true,
          "internalType": "address",
          "name": "buyer",
          "type": "address"
        }
      ],
      "name": "InsurancePurchased",
      "type": "event"
    },
    {
      "anonymous": false,
      "inputs": [
        {
          "indexed": true,
          "internalType": "address",
          "name": "previousOwner",
          "type": "address"
        },
        {
          "indexed": true,
          "internalType": "address",
          "name": "newOwner",
          "type": "address"
        }
      ],
      "name": "OwnershipTransferred",
      "type": "event"
    },
    {
      "anonymous": false,
      "inputs": [
        {
          "indexed": true,
          "internalType": "address",
          "name": "implementation",
          "type": "address"
        }
      ],
      "name": "Upgraded",
      "type": "event"
    },
    {
      "anonymous": false,
      "inputs": [
        {
          "indexed": false,
          "internalType": "uint256",
          "name": "amount",
          "type": "uint256"
        }
      ],
      "name": "Withdrawal",
      "type": "event"
    },
    {
      "inputs": [],
      "name": "UPGRADE_INTERFACE_VERSION",
      "outputs": [
        {
          "internalType": "string",
          "name": "",
          "type": "string"
        }
      ],
      "stateMutability": "view",
      "type": "function"
    },
    {
      "inputs": [
        {
          "internalType": "uint256",
          "name": "amount",
          "type": "uint256"
        }
      ],
      "name": "buySustainabilityCoin",
      "outputs": [],
      "stateMutability": "payable",
      "type": "function"
    },
    {
      "inputs": [
        {
          "internalType": "uint256",
          "name": "",
          "type": "uint256"
        }
      ],
      "name": "carbonProjects",
      "outputs": [
        {
          "internalType": "uint256",
          "name": "id",
          "type": "uint256"
        },
        {
          "internalType": "string",
          "name": "name",
          "type": "string"
        },
        {
          "internalType": "uint256",
          "name": "Annualemissions",
          "type": "uint256"
        },
        {
          "internalType": "uint256",
          "name": "AnnualWaterusage",
          "type": "uint256"
        },
        {
          "internalType": "bool",
          "name": "EmissionsReductionProject",
          "type": "bool"
        },
        {
          "internalType": "bool",
          "name": "Validated",
          "type": "bool"
        },
        {
          "internalType": "bool",
          "name": "Paid",
          "type": "bool"
        }
      ],
      "stateMutability": "view",
      "type": "function"
    },
    {
      "inputs": [
        {
          "internalType": "uint256",
          "name": "id",
          "type": "uint256"
        }
      ],
      "name": "claimInsurance",
      "outputs": [],
      "stateMutability": "nonpayable",
      "type": "function"
    },
    {
      "inputs": [
        {
          "internalType": "uint256",
          "name": "amount",
          "type": "uint256"
        }
      ],
      "name": "contributeTosayNoCarbon",
      "outputs": [],
      "stateMutability": "payable",
      "type": "function"
    },
    {
      "inputs": [
        {
          "internalType": "address",
          "name": "",
          "type": "address"
        }
      ],
      "name": "contributions",
      "outputs": [
        {
          "internalType": "uint256",
          "name": "",
          "type": "uint256"
        }
      ],
      "stateMutability": "view",
      "type": "function"
    },
    {
      "inputs": [],
      "name": "getAllProjectInsuranceStatus",
      "outputs": [
        {
          "internalType": "bool[]",
          "name": "",
          "type": "bool[]"
        }
      ],
      "stateMutability": "view",
      "type": "function"
    },
    {
      "inputs": [],
      "name": "getAllRegisteredProjectIds",
      "outputs": [
        {
          "internalType": "uint256[]",
          "name": "",
          "type": "uint256[]"
        }
      ],
      "stateMutability": "view",
      "type": "function"
    },
    {
      "inputs": [],
      "name": "getAllRegisteredProjects",
      "outputs": [
        {
          "internalType": "uint256[]",
          "name": "ids",
          "type": "uint256[]"
        },
        {
          "internalType": "string[]",
          "name": "names",
          "type": "string[]"
        },
        {
          "internalType": "uint256[]",
          "name": "annualEmissions",
          "type": "uint256[]"
        },
        {
          "internalType": "uint256[]",
          "name": "annualWaterUsages",
          "type": "uint256[]"
        },
        {
          "internalType": "bool[]",
          "name": "emissionsReductionProjects",
          "type": "bool[]"
        },
        {
          "internalType": "bool[]",
          "name": "validatedStatuses",
          "type": "bool[]"
        },
        {
          "internalType": "bool[]",
          "name": "paidStatuses",
          "type": "bool[]"
        }
      ],
      "stateMutability": "view",
      "type": "function"
    },
    {
      "inputs": [
        {
          "internalType": "uint256",
          "name": "id",
          "type": "uint256"
        }
      ],
      "name": "getFullCarbonProject",
      "outputs": [
        {
          "components": [
            {
              "internalType": "uint256",
              "name": "id",
              "type": "uint256"
            },
            {
              "internalType": "string",
              "name": "name",
              "type": "string"
            },
            {
              "internalType": "uint256",
              "name": "Annualemissions",
              "type": "uint256"
            },
            {
              "internalType": "uint256",
              "name": "AnnualWaterusage",
              "type": "uint256"
            },
            {
              "internalType": "bool",
              "name": "EmissionsReductionProject",
              "type": "bool"
            },
            {
              "internalType": "bool",
              "name": "Validated",
              "type": "bool"
            },
            {
              "internalType": "bool",
              "name": "Paid",
              "type": "bool"
            }
          ],
          "internalType": "struct EcoLedger.CarbonProject",
          "name": "",
          "type": "tuple"
        }
      ],
      "stateMutability": "view",
      "type": "function"
    },
    {
      "inputs": [],
      "name": "getPaidProjectsCount",
      "outputs": [
        {
          "internalType": "uint256",
          "name": "",
          "type": "uint256"
        }
      ],
      "stateMutability": "view",
      "type": "function"
    },
    {
      "inputs": [
        {
          "internalType": "uint256",
          "name": "id",
          "type": "uint256"
        }
      ],
      "name": "getProjectEmissionsAndWaterUsage",
      "outputs": [
        {
          "internalType": "uint256",
          "name": "emissions",
          "type": "uint256"
        },
        {
          "internalType": "uint256",
          "name": "waterUsage",
          "type": "uint256"
        }
      ],
      "stateMutability": "view",
      "type": "function"
    },
    {
      "inputs": [],
      "name": "getSustainabilityTokenBalance",
      "outputs": [
        {
          "internalType": "uint256",
          "name": "",
          "type": "uint256"
        }
      ],
      "stateMutability": "view",
      "type": "function"
    },
    {
      "inputs": [],
      "name": "getTotalContributions",
      "outputs": [
        {
          "internalType": "uint256",
          "name": "",
          "type": "uint256"
        }
      ],
      "stateMutability": "view",
      "type": "function"
    },
    {
      "inputs": [],
      "name": "getTotalEmissions",
      "outputs": [
        {
          "internalType": "uint256",
          "name": "",
          "type": "uint256"
        }
      ],
      "stateMutability": "view",
      "type": "function"
    },
    {
      "inputs": [],
      "name": "getTotalInsuranceClaims",
      "outputs": [
        {
          "internalType": "uint256",
          "name": "",
          "type": "uint256"
        }
      ],
      "stateMutability": "view",
      "type": "function"
    },
    {
      "inputs": [],
      "name": "getTotalInsurancePayments",
      "outputs": [
        {
          "internalType": "uint256",
          "name": "",
          "type": "uint256"
        }
      ],
      "stateMutability": "view",
      "type": "function"
    },
    {
      "inputs": [],
      "name": "getTotalWaterUsage",
      "outputs": [
        {
          "internalType": "uint256",
          "name": "",
          "type": "uint256"
        }
      ],
      "stateMutability": "view",
      "type": "function"
    },
    {
      "inputs": [],
      "name": "getWithdrawalPercentage",
      "outputs": [
        {
          "internalType": "uint256",
          "name": "",
          "type": "uint256"
        }
      ],
      "stateMutability": "view",
      "type": "function"
    },
    {
      "inputs": [],
      "name": "i_owner",
      "outputs": [
        {
          "internalType": "address payable",
          "name": "",
          "type": "address"
        }
      ],
      "stateMutability": "view",
      "type": "function"
    },
    {
      "inputs": [
        {
          "internalType": "address",
          "name": "tokenAddress",
          "type": "address"
        }
      ],
      "name": "initialize",
      "outputs": [],
      "stateMutability": "nonpayable",
      "type": "function"
    },
    {
      "inputs": [
        {
          "internalType": "uint256",
          "name": "id",
          "type": "uint256"
        }
      ],
      "name": "insurance",
      "outputs": [],
      "stateMutability": "payable",
      "type": "function"
    },
    {
      "inputs": [],
      "name": "insurancePercentage",
      "outputs": [
        {
          "internalType": "uint256",
          "name": "",
          "type": "uint256"
        }
      ],
      "stateMutability": "view",
      "type": "function"
    },
    {
      "inputs": [
        {
          "internalType": "uint256",
          "name": "id",
          "type": "uint256"
        }
      ],
      "name": "isProjectPaid",
      "outputs": [
        {
          "internalType": "bool",
          "name": "",
          "type": "bool"
        }
      ],
      "stateMutability": "view",
      "type": "function"
    },
    {
      "inputs": [
        {
          "internalType": "uint256",
          "name": "id",
          "type": "uint256"
        }
      ],
      "name": "isProjectValidated",
      "outputs": [
        {
          "internalType": "bool",
          "name": "",
          "type": "bool"
        }
      ],
      "stateMutability": "view",
      "type": "function"
    },
    {
      "inputs": [
        {
          "internalType": "uint256",
          "name": "",
          "type": "uint256"
        }
      ],
      "name": "isRegistered",
      "outputs": [
        {
          "internalType": "bool",
          "name": "",
          "type": "bool"
        }
      ],
      "stateMutability": "view",
      "type": "function"
    },
    {
      "inputs": [],
      "name": "maxAnnualEmissions",
      "outputs": [
        {
          "internalType": "uint256",
          "name": "",
          "type": "uint256"
        }
      ],
      "stateMutability": "view",
      "type": "function"
    },
    {
      "inputs": [],
      "name": "maxAnnualWaterUsage",
      "outputs": [
        {
          "internalType": "uint256",
          "name": "",
          "type": "uint256"
        }
      ],
      "stateMutability": "view",
      "type": "function"
    },
    {
      "inputs": [],
      "name": "owner",
      "outputs": [
        {
          "internalType": "address",
          "name": "",
          "type": "address"
        }
      ],
      "stateMutability": "view",
      "type": "function"
    },
    {
      "inputs": [
        {
          "internalType": "uint256",
          "name": "id",
          "type": "uint256"
        }
      ],
      "name": "payForCarbon",
      "outputs": [],
      "stateMutability": "payable",
      "type": "function"
    },
    {
      "inputs": [
        {
          "internalType": "uint256",
          "name": "amount",
          "type": "uint256"
        }
      ],
      "name": "priceOfSustainabilityCoin",
      "outputs": [
        {
          "internalType": "uint256",
          "name": "",
          "type": "uint256"
        }
      ],
      "stateMutability": "pure",
      "type": "function"
    },
    {
      "inputs": [],
      "name": "projectId",
      "outputs": [
        {
          "internalType": "uint256",
          "name": "",
          "type": "uint256"
        }
      ],
      "stateMutability": "view",
      "type": "function"
    },
    {
      "inputs": [],
      "name": "proxiableUUID",
      "outputs": [
        {
          "internalType": "bytes32",
          "name": "",
          "type": "bytes32"
        }
      ],
      "stateMutability": "view",
      "type": "function"
    },
    {
      "inputs": [
        {
          "internalType": "string",
          "name": "name",
          "type": "string"
        },
        {
          "internalType": "uint256",
          "name": "annualemissions",
          "type": "uint256"
        },
        {
          "internalType": "uint256",
          "name": "annualWaterusage",
          "type": "uint256"
        },
        {
          "internalType": "bool",
          "name": "emissionsReductionProject",
          "type": "bool"
        }
      ],
      "name": "registerProject",
      "outputs": [],
      "stateMutability": "nonpayable",
      "type": "function"
    },
    {
      "inputs": [],
      "name": "renounceOwnership",
      "outputs": [],
      "stateMutability": "nonpayable",
      "type": "function"
    },
    {
      "inputs": [
        {
          "internalType": "uint256",
          "name": "newMaxEmissions",
          "type": "uint256"
        },
        {
          "internalType": "uint256",
          "name": "newMaxWaterUsage",
          "type": "uint256"
        }
      ],
      "name": "setConstraints",
      "outputs": [],
      "stateMutability": "nonpayable",
      "type": "function"
    },
    {
      "inputs": [
        {
          "internalType": "uint256",
          "name": "newPercentage",
          "type": "uint256"
        }
      ],
      "name": "setWithdrawalPercentage",
      "outputs": [],
      "stateMutability": "nonpayable",
      "type": "function"
    },
    {
      "inputs": [],
      "name": "sustainabilityToken",
      "outputs": [
        {
          "internalType": "contract ISustainabilityCoin",
          "name": "",
          "type": "address"
        }
      ],
      "stateMutability": "view",
      "type": "function"
    },
    {
      "inputs": [],
      "name": "totalContributions",
      "outputs": [
        {
          "internalType": "uint256",
          "name": "",
          "type": "uint256"
        }
      ],
      "stateMutability": "view",
      "type": "function"
    },
    {
      "inputs": [],
      "name": "totalProjects",
      "outputs": [
        {
          "internalType": "uint256",
          "name": "",
          "type": "uint256"
        }
      ],
      "stateMutability": "view",
      "type": "function"
    },
    {
      "inputs": [
        {
          "internalType": "address",
          "name": "newOwner",
          "type": "address"
        }
      ],
      "name": "transferOwnership",
      "outputs": [],
      "stateMutability": "nonpayable",
      "type": "function"
    },
    {
      "inputs": [
        {
          "internalType": "address",
          "name": "newImplementation",
          "type": "address"
        },
        {
          "internalType": "bytes",
          "name": "data",
          "type": "bytes"
        }
      ],
      "name": "upgradeToAndCall",
      "outputs": [],
      "stateMutability": "payable",
      "type": "function"
    },
    {
      "inputs": [
        {
          "internalType": "uint256",
          "name": "id",
          "type": "uint256"
        }
      ],
      "name": "validateRegisteredProject",
      "outputs": [],
      "stateMutability": "nonpayable",
      "type": "function"
    },
    {
      "inputs": [],
      "name": "withdraw",
      "outputs": [],
      "stateMutability": "nonpayable",
      "type": "function"
    },
    {
      "inputs": [],
      "name": "withdrawalPercentage",
      "outputs": [
        {
          "internalType": "uint256",
          "name": "",
          "type": "uint256"
        }
      ],
      "stateMutability": "view",
      "type": "function"
    }
  ],
  "bytecode": "0x60a06040523060805234801561001457600080fd5b5060805161326361003e6000396000818161237a015281816123a3015261254f01526132636000f3fe6080604052600436106102725760003560e01c80637a0edf181161014f578063b1b6b763116100c1578063ddf556d01161007a578063ddf556d01461075a578063e7d178841461076f578063f2fde38b14610785578063f44ccbcc146107a5578063f85920d8146107c5578063f941f65e146107e557600080fd5b8063b1b6b7631461068d578063b2ce6bce146106ad578063c4d66de8146106cd578063cc6ffeff146106ed578063d57ca84a1461071a578063dba6335f1461073a57600080fd5b80639b44c143116101135780639b44c143146105ad5780639c361e4e146105c2578063a46e8731146105d8578063ac09ca1114610611578063ad3cb1cc14610627578063af6f997e1461066557600080fd5b80637a0edf18146104f457806384f0f810146105095780638da5cb5b146105295780638ec876e71461057a5780639700e19e1461059a57600080fd5b806347c6eb78116101e8578063579a6988116101ac578063579a69881461045057806368d4aceb146104805780636a7ab08e146104955780636c27b07a146104b7578063715018a6146104cc578063724acb1c146104e157600080fd5b806347c6eb78146103cb5780634c1b8b18146103e05780634f1ef2861461041357806351fef2f21461042657806352d1902d1461043b57600080fd5b806337c089231161023a57806337c08923146102ff5780633ccfd60b146103155780633fafa1271461032a5780634098a2a614610340578063417b06e31461035657806342e94c901461039e57600080fd5b806309fd1032146102775780630ff376811461029f5780631c11342c146102b457806325b16419146102c75780632c331957146102e9575b600080fd5b34801561028357600080fd5b5061028c61081a565b6040519081526020015b60405180910390f35b6102b26102ad3660046129f1565b61085f565b005b6102b26102c23660046129f1565b610920565b3480156102d357600080fd5b506102dc6109dc565b6040516102969190612a45565b3480156102f557600080fd5b5061028c60055481565b34801561030b57600080fd5b5061028c60075481565b34801561032157600080fd5b506102b2610a73565b34801561033657600080fd5b5061028c60025481565b34801561034c57600080fd5b5061028c60065481565b34801561036257600080fd5b5061038e6103713660046129f1565b600090815260096020526040902060040154610100900460ff1690565b6040519015158152602001610296565b3480156103aa57600080fd5b5061028c6103b9366004612a74565b600c6020526000908152604090205481565b3480156103d757600080fd5b5061028c610b81565b3480156103ec57600080fd5b506104006103fb3660046129f1565b610bc7565b6040516102969796959493929190612adf565b6102b2610421366004612b3c565b610ca8565b34801561043257600080fd5b5060055461028c565b34801561044757600080fd5b5061028c610cc7565b34801561045c57600080fd5b5061038e61046b3660046129f1565b60086020526000908152604090205460ff1681565b34801561048c57600080fd5b5061028c610ce4565b3480156104a157600080fd5b506104aa610d56565b6040516102969190612c2f565b3480156104c357600080fd5b5061028c610df8565b3480156104d857600080fd5b506102b2610e2e565b6102b26104ef3660046129f1565b610e42565b34801561050057600080fd5b5061028c611036565b34801561051557600080fd5b506102b2610524366004612c42565b611075565b34801561053557600080fd5b507f9016d09d72d40fdae2fd8ceac6b6234c7706214fd39c1cd1e609a0528c199300546001600160a01b03165b6040516001600160a01b039091168152602001610296565b34801561058657600080fd5b506102b26105953660046129f1565b611088565b6102b26105a83660046129f1565b6110e6565b3480156105b957600080fd5b5061028c611300565b3480156105ce57600080fd5b5061028c60015481565b3480156105e457600080fd5b5061038e6105f33660046129f1565b60009081526009602052604090206004015462010000900460ff1690565b34801561061d57600080fd5b5061028c60035481565b34801561063357600080fd5b50610658604051806040016040528060058152602001640352e302e360dc1b81525081565b6040516102969190612c64565b34801561067157600080fd5b5061067a61134f565b6040516102969796959493929190612c77565b34801561069957600080fd5b5061028c6106a83660046129f1565b611745565b3480156106b957600080fd5b506102b26106c83660046129f1565b61177a565b3480156106d957600080fd5b506102b26106e8366004612a74565b611888565b3480156106f957600080fd5b5061070d6107083660046129f1565b6119d0565b6040516102969190612d50565b34801561072657600080fd5b506102b2610735366004612dbb565b611b70565b34801561074657600080fd5b50600054610562906001600160a01b031681565b34801561076657600080fd5b5060075461028c565b34801561077b57600080fd5b5061028c60045481565b34801561079157600080fd5b506102b26107a0366004612a74565b611fc8565b3480156107b157600080fd5b50600d54610562906001600160a01b031681565b3480156107d157600080fd5b506102b26107e03660046129f1565b612006565b3480156107f157600080fd5b506108056108003660046129f1565b6121f5565b60408051928352602083019190915201610296565b600080805b600154811015610859576000818152600960205260409020600201546108459083612e6c565b91508061085181612e7f565b91505061081f565b50919050565b803410156108ab5760405162461bcd60e51b8152602060048201526014602482015273125b9cdd59999a58da595b9d081c185e5b595b9d60621b60448201526064015b60405180910390fd5b336000908152600c6020526040812080548392906108ca908490612e6c565b9250508190555080600760008282546108e39190612e6c565b909155505060405181815233907f4d154d4aae216bed6d0926db77c00df2b57c6b5ba4eee05775de20facede3a7b9060200160405180910390a250565b600061092b82611745565b9050803410156109745760405162461bcd60e51b8152602060048201526014602482015273125b9cdd59999a58da595b9d081c185e5b595b9d60621b60448201526064016108a2565b600d546040516340c10f1960e01b8152336004820152602481018490526001600160a01b03909116906340c10f1990604401600060405180830381600087803b1580156109c057600080fd5b505af11580156109d4573d6000803e3d6000fd5b505050505050565b606060006001546001600160401b038111156109fa576109fa612b26565b604051908082528060200260200182016040528015610a23578160200160208202803683370190505b50905060005b600154811015610859576000818152600960205260409020548251839083908110610a5657610a56612e98565b602090810291909101015280610a6b81612e7f565b915050610a29565b610a7b612314565b4780610ac05760405162461bcd60e51b81526020600482015260146024820152734e6f2066756e647320746f20776974686472617760601b60448201526064016108a2565b6000670de0b6b3a7640000600554610ad89190612eae565b90506000610ae68284612eae565b90506000610afd670de0b6b3a76400006064612eae565b90506000610b0b8284612ec5565b600080546040519293506001600160a01b03169183156108fc0291849190818181858888f19350505050158015610b46573d6000803e3d6000fd5b506040518181527f4e70a604b23a8edee2b1d0a656e9b9c00b73ad8bb1afc2c59381ee9f69197de79060200160405180910390a15050505050565b600080805b600154811015610859576000818152600b602052604090205460ff1615610bb55781610bb181612e7f565b9250505b80610bbf81612e7f565b915050610b86565b600e8181548110610bd757600080fd5b60009182526020909120600590910201805460018201805491935090610bfc90612ee7565b80601f0160208091040260200160405190810160405280929190818152602001828054610c2890612ee7565b8015610c755780601f10610c4a57610100808354040283529160200191610c75565b820191906000526020600020905b815481529060010190602001808311610c5857829003601f168201915b505050600284015460038501546004909501549394909390925060ff808216925061010082048116916201000090041687565b610cb061236f565b610cb982612414565b610cc38282612482565b5050565b6000610cd1612544565b5060008051602061320e83398151915290565b600d546040516370a0823160e01b81523060048201526000916001600160a01b0316906370a0823190602401602060405180830381865afa158015610d2d573d6000803e3d6000fd5b505050506040513d601f19601f82011682018060405250810190610d519190612f1b565b905090565b606060006001546001600160401b03811115610d7457610d74612b26565b604051908082528060200260200182016040528015610d9d578160200160208202803683370190505b50905060005b600154811015610859576000818152600a6020526040902054825160ff90911690839083908110610dd657610dd6612e98565b9115156020928302919091019091015280610df081612e7f565b915050610da3565b600080805b60015481101561085957610e108161258d565b610e1a9083612e6c565b915080610e2681612e7f565b915050610dfd565b610e36612314565b610e4060006125f1565b565b60008181526008602052604090205460ff16610e705760405162461bcd60e51b81526004016108a290612f34565b600081815260096020526040902060040154610100900460ff16610ea65760405162461bcd60e51b81526004016108a290612f69565b60008181526009602052604090206004015462010000900460ff1615610ede5760405162461bcd60e51b81526004016108a290612faa565b600081815260096020526040812090610ef683612662565b905080341015610f405760405162461bcd60e51b815260206004820152601560248201527424b739bab33334b1b4b2b73a103830bcb6b2b73a1760591b60448201526064016108a2565b80341115610f8057336108fc610f568334612fe1565b6040518115909202916000818181858888f19350505050158015610f7e573d6000803e3d6000fd5b505b600082600301546001610f939190612eae565b600280850154610fa291612eae565b610fac9190612e6c565b600d546040516340c10f1960e01b8152336004820152602481018390529192506001600160a01b0316906340c10f1990604401600060405180830381600087803b158015610ff957600080fd5b505af115801561100d573d6000803e3d6000fd5b505050600094855250506009602052505060409020600401805462ff0000191662010000179055565b600080805b600154811015610859576000818152600960205260409020600301546110619083612e6c565b91508061106d81612e7f565b91505061103b565b61107d612314565b600391909155600455565b611090612314565b60648111156110e15760405162461bcd60e51b815260206004820152601c60248201527f50657263656e746167652063616e6e6f7420657863656564203130300000000060448201526064016108a2565b600555565b60008181526008602052604090205460ff166111145760405162461bcd60e51b81526004016108a290612f34565b60008181526009602052604090206004015462010000900460ff1661114b5760405162461bcd60e51b81526004016108a290612faa565b600081815260096020526040902060040154610100900460ff166111b15760405162461bcd60e51b815260206004820152601d60248201527f546869732070726f6a656374206973206e6f742076616c69646174656400000060448201526064016108a2565b6000818152600a602052604090205460ff16156112105760405162461bcd60e51b815260206004820181905260248201527f746869732069732070726f6a656374206973206e6f7420696e737572616e636560448201526064016108a2565b600061121b8261258d565b9050803410156112655760405162461bcd60e51b815260206004820152601560248201527424b739bab33334b1b4b2b73a103830bcb6b2b73a1760591b60448201526064016108a2565b803411156112a557336108fc61127b8334612fe1565b6040518115909202916000818181858888f193505050501580156112a3573d6000803e3d6000fd5b505b6000828152600a602052604090819020805460ff1916600117905551339083907fa461e513d2aed580ba148ba370e44d9667f51611a9099cfab56c5369dc5421ae906112f49085815260200190565b60405180910390a35050565b600080805b6001548110156108595760008181526009602052604090206004015462010000900460ff161561133d578161133981612e7f565b9250505b8061134781612e7f565b915050611305565b60608060608060608060606000600e805490509050806001600160401b0381111561137c5761137c612b26565b6040519080825280602002602001820160405280156113a5578160200160208202803683370190505b509750806001600160401b038111156113c0576113c0612b26565b6040519080825280602002602001820160405280156113f357816020015b60608152602001906001900390816113de5790505b509650806001600160401b0381111561140e5761140e612b26565b604051908082528060200260200182016040528015611437578160200160208202803683370190505b509550806001600160401b0381111561145257611452612b26565b60405190808252806020026020018201604052801561147b578160200160208202803683370190505b509450806001600160401b0381111561149657611496612b26565b6040519080825280602002602001820160405280156114bf578160200160208202803683370190505b509350806001600160401b038111156114da576114da612b26565b604051908082528060200260200182016040528015611503578160200160208202803683370190505b509250806001600160401b0381111561151e5761151e612b26565b604051908082528060200260200182016040528015611547578160200160208202803683370190505b50915060005b8181101561173a576000600e828154811061156a5761156a612e98565b9060005260206000209060050201905080600001548a838151811061159157611591612e98565b6020026020010181815250508060010180546115ac90612ee7565b80601f01602080910402602001604051908101604052809291908181526020018280546115d890612ee7565b80156116255780601f106115fa57610100808354040283529160200191611625565b820191906000526020600020905b81548152906001019060200180831161160857829003601f168201915b505050505089838151811061163c5761163c612e98565b6020026020010181905250806002015488838151811061165e5761165e612e98565b602002602001018181525050806003015487838151811061168157611681612e98565b60209081029190910101526004810154865160ff909116908790849081106116ab576116ab612e98565b6020026020010190151590811515815250508060040160019054906101000a900460ff168583815181106116e1576116e1612e98565b6020026020010190151590811515815250508060040160029054906101000a900460ff1684838151811061171757611717612e98565b91151560209283029190910190910152508061173281612e7f565b91505061154d565b505090919293949596565b6000600181670de0b6b3a76400008061175e8487612eae565b6117689190612eae565b6117729190612ec5565b949350505050565b611782612314565b60008181526008602052604090205460ff166117b05760405162461bcd60e51b81526004016108a290612f34565b60008181526009602052604090206004015462010000900460ff16156117e85760405162461bcd60e51b81526004016108a290612faa565b60008181526009602052604090206004810154610100900460ff16156118205760405162461bcd60e51b81526004016108a290612f69565b60048101805461010061ff00198216811792839055600284015460038501546040517fc9fc3aa04405be53fb86d02994d4187da48cd546f7dfb4dc3d63a18444ee37969561187c95600189019560ff9182169392041690612ff4565b60405180910390a15050565b7ff0c57e16840df040f15088dc2f81fe391c3923bec73e23a9662efc9c229c6a008054600160401b810460ff1615906001600160401b03166000811580156118cd5750825b90506000826001600160401b031660011480156118e95750303b155b9050811580156118f7575080155b156119155760405163f92ee8a960e01b815260040160405180910390fd5b845467ffffffffffffffff19166001178555831561193f57845460ff60401b1916600160401b1785555b611948336127ad565b6119506127be565b600d80546001600160a01b0319166001600160a01b038816179055612710600355620186a06004556002600555600a60065583156109d457845460ff60401b19168555604051600181527fc7f505b2f371ae2175ee4913f4499e1f2633a7b5936321eed1cdaeb6115181d2906020015b60405180910390a1505050505050565b611a166040518060e00160405280600081526020016060815260200160008152602001600081526020016000151581526020016000151581526020016000151581525090565b60008281526008602052604090205460ff16611a6d5760405162461bcd60e51b8152602060048201526016602482015275141c9bda9958dd081b9bdd081c9959da5cdd195c995960521b60448201526064016108a2565b600960008381526020019081526020016000206040518060e001604052908160008201548152602001600182018054611aa590612ee7565b80601f0160208091040260200160405190810160405280929190818152602001828054611ad190612ee7565b8015611b1e5780601f10611af357610100808354040283529160200191611b1e565b820191906000526020600020905b815481529060010190602001808311611b0157829003601f168201915b5050509183525050600282015460208201526003820154604082015260049091015460ff8082161515606084015261010082048116151560808401526201000090910416151560a09091015292915050565b83611bbd5760405162461bcd60e51b815260206004820152601860248201527f4e616d652073686f756c64206e6f7420626520656d707479000000000000000060448201526064016108a2565b6127108310611c265760405162461bcd60e51b815260206004820152602f60248201527f416e6e75616c20656d697373696f6e73206d757374206265206c65737320746860448201526e30b710189816181818103a37b7399760891b60648201526084016108a2565b620186a08210611c935760405162461bcd60e51b815260206004820152603260248201527f416e6e75616c207761746572207573616765206d757374206e6f74206578636560448201527132b21018981816181818103634ba32b9399760711b60648201526084016108a2565b80611cf25760405162461bcd60e51b815260206004820152602960248201527f50726f6a656374206d75737420696e636c75646520656d697373696f6e73207260448201526832b23ab1ba34b7b71760b91b60648201526084016108a2565b600860006002546001611d059190612e6c565b815260208101919091526040016000205460ff1615611d755760405162461bcd60e51b815260206004820152602660248201527f546869732070726f6a65637420494420697320616c72656164792072656769736044820152653a32b932b21760d11b60648201526084016108a2565b60028054906000611d8583612e7f565b919050555060006040518060e00160405280600254815260200187878080601f016020809104026020016040519081016040528093929190818152602001838380828437600092018290525093855250505060208083018890526040830187905285151560608401526080830182905260a0909201819052600e80546001810182559152825160059091027fbb7b4a454dc3493923482f07822329ed19e8244eff582cc204f8554c3620c3fd810191825591830151929350839290917fbb7b4a454dc3493923482f07822329ed19e8244eff582cc204f8554c3620c3fe0190611e6e90826130e3565b506040828101516002808401919091556060840151600384015560808401516004909301805460a086015160c0909601511515620100000262ff0000199615156101000261ff00199615159690961661ffff19909216919091179490941794909416929092179092558054600090815260086020908152838220805460ff1916600190811790915592548252600981529290208351815591830151839291820190611f1990826130e3565b50604082015160028201556060820151600382015560808201516004909101805460a084015160c0909401511515620100000262ff0000199415156101000261ff00199415159490941661ffff1990921691909117929092179290921617905560018054906000611f8983612e7f565b91905055507fc9fc3aa04405be53fb86d02994d4187da48cd546f7dfb4dc3d63a18444ee3796868686868660006040516119c0969594939291906131a2565b611fd0612314565b6001600160a01b038116611ffa57604051631e4fbdf760e01b8152600060048201526024016108a2565b612003816125f1565b50565b60008181526008602052604090205460ff166120345760405162461bcd60e51b81526004016108a290612f34565b60008181526009602052604090206004015462010000900460ff1661206b5760405162461bcd60e51b81526004016108a290612faa565b600081815260096020526040902060040154610100900460ff166120d15760405162461bcd60e51b815260206004820152601d60248201527f546869732070726f6a656374206973206e6f742076616c69646174656400000060448201526064016108a2565b6000818152600a602052604090205460ff1661212f5760405162461bcd60e51b815260206004820181905260248201527f746869732069732070726f6a656374206973206e6f7420696e737572616e636560448201526064016108a2565b6000818152600b602052604090205460ff161561219d5760405162461bcd60e51b815260206004820152602660248201527f746869732069732070726f6a65637420636c61696d6564207468652020696e736044820152657572616e636560d01b60648201526084016108a2565b60006121a88261258d565b604051909150339082156108fc029083906000818181858888f193505050501580156121d8573d6000803e3d6000fd5b50506000908152600b60205260409020805460ff19166001179055565b6000806000600960008581526020019081526020016000206040518060e00160405290816000820154815260200160018201805461223290612ee7565b80601f016020809104026020016040519081016040528092919081815260200182805461225e90612ee7565b80156122ab5780601f10612280576101008083540402835291602001916122ab565b820191906000526020600020905b81548152906001019060200180831161228e57829003601f168201915b505050918352505060028201546020820152600382015460408083019190915260049092015460ff808216151560608085019190915261010083048216151560808501526201000090920416151560a09092019190915290820151910151909590945092505050565b336123467f9016d09d72d40fdae2fd8ceac6b6234c7706214fd39c1cd1e609a0528c199300546001600160a01b031690565b6001600160a01b031614610e405760405163118cdaa760e01b81523360048201526024016108a2565b306001600160a01b037f00000000000000000000000000000000000000000000000000000000000000001614806123f657507f00000000000000000000000000000000000000000000000000000000000000006001600160a01b03166123ea60008051602061320e833981519152546001600160a01b031690565b6001600160a01b031614155b15610e405760405163703e46dd60e11b815260040160405180910390fd5b61241c612314565b6001600160a01b0381166120035760405162461bcd60e51b815260206004820152602760248201527f4e657720696d706c656d656e746174696f6e2063616e6e6f74206265206164646044820152667265737328302960c81b60648201526084016108a2565b816001600160a01b03166352d1902d6040518163ffffffff1660e01b8152600401602060405180830381865afa9250505080156124dc575060408051601f3d908101601f191682019092526124d991810190612f1b565b60015b61250457604051634c9c8ce360e01b81526001600160a01b03831660048201526024016108a2565b60008051602061320e833981519152811461253557604051632a87526960e21b8152600481018290526024016108a2565b61253f83836127c6565b505050565b306001600160a01b037f00000000000000000000000000000000000000000000000000000000000000001614610e405760405163703e46dd60e11b815260040160405180910390fd5b60008061259983612662565b90506000670de0b6b3a76400006006546125b39190612eae565b905060006125c18284612eae565b905060006125d8670de0b6b3a76400006064612eae565b905060006125e68284612ec5565b979650505050505050565b7f9016d09d72d40fdae2fd8ceac6b6234c7706214fd39c1cd1e609a0528c19930080546001600160a01b031981166001600160a01b03848116918217845560405192169182907f8be0079c531659141344cd1fd0a4f28419497f9722a3daafe3b4186f6b6457e090600090a3505050565b6000818152600960209081526040808320815160e081019092528054825260018101805485948401919061269590612ee7565b80601f01602080910402602001604051908101604052809291908181526020018280546126c190612ee7565b801561270e5780601f106126e35761010080835404028352916020019161270e565b820191906000526020600020905b8154815290600101906020018083116126f157829003601f168201915b505050918352505060028201546020820152600382015460408083019190915260049092015460ff8082161515606084015261010082048116151560808401526201000090910416151560a09091015281015190915060009061277990670de0b6b3a7640000612eae565b905060008260600151670de0b6b3a76400006127959190612eae565b905060006127a38284612e6c565b9695505050505050565b6127b561281c565b61200381612865565b610e4061281c565b6127cf8261286d565b6040516001600160a01b038316907fbc7cd75a20ee27fd9adebab32041f755214dbc6bffa90cc0225b39da2e5c2d3b90600090a28051156128145761253f82826128d2565b610cc361294a565b7ff0c57e16840df040f15088dc2f81fe391c3923bec73e23a9662efc9c229c6a0054600160401b900460ff16610e4057604051631afcd79f60e31b815260040160405180910390fd5b611fd061281c565b806001600160a01b03163b6000036128a357604051634c9c8ce360e01b81526001600160a01b03821660048201526024016108a2565b60008051602061320e83398151915280546001600160a01b0319166001600160a01b0392909216919091179055565b6060600080846001600160a01b0316846040516128ef91906131f1565b600060405180830381855af49150503d806000811461292a576040519150601f19603f3d011682016040523d82523d6000602084013e61292f565b606091505b509150915061293f858383612969565b925050505b92915050565b3415610e405760405163b398979f60e01b815260040160405180910390fd5b60608261297e57612979826129c8565b6129c1565b815115801561299557506001600160a01b0384163b155b156129be57604051639996b31560e01b81526001600160a01b03851660048201526024016108a2565b50805b9392505050565b8051156129d85780518082602001fd5b604051630a12f52160e11b815260040160405180910390fd5b600060208284031215612a0357600080fd5b5035919050565b600081518084526020808501945080840160005b83811015612a3a57815187529582019590820190600101612a1e565b509495945050505050565b6020815260006129c16020830184612a0a565b80356001600160a01b0381168114612a6f57600080fd5b919050565b600060208284031215612a8657600080fd5b6129c182612a58565b60005b83811015612aaa578181015183820152602001612a92565b50506000910152565b60008151808452612acb816020860160208601612a8f565b601f01601f19169290920160200192915050565b87815260e060208201526000612af860e0830189612ab3565b60408301979097525060608101949094529115156080840152151560a0830152151560c09091015292915050565b634e487b7160e01b600052604160045260246000fd5b60008060408385031215612b4f57600080fd5b612b5883612a58565b915060208301356001600160401b0380821115612b7457600080fd5b818501915085601f830112612b8857600080fd5b813581811115612b9a57612b9a612b26565b604051601f8201601f19908116603f01168101908382118183101715612bc257612bc2612b26565b81604052828152886020848701011115612bdb57600080fd5b8260208601602083013760006020848301015280955050505050509250929050565b600081518084526020808501945080840160005b83811015612a3a578151151587529582019590820190600101612c11565b6020815260006129c16020830184612bfd565b60008060408385031215612c5557600080fd5b50508035926020909101359150565b6020815260006129c16020830184612ab3565b60e081526000612c8a60e083018a612a0a565b602083820381850152818a518084528284019150828160051b850101838d0160005b83811015612cda57601f19878403018552612cc8838351612ab3565b94860194925090850190600101612cac565b50508681036040880152612cee818d612a0a565b9450505050508281036060840152612d068188612a0a565b90508281036080840152612d1a8187612bfd565b905082810360a0840152612d2e8186612bfd565b905082810360c0840152612d428185612bfd565b9a9950505050505050505050565b60208152815160208201526000602083015160e06040840152612d77610100840182612ab3565b905060408401516060840152606084015160808401526080840151151560a084015260a0840151151560c084015260c0840151151560e08401528091505092915050565b600080600080600060808688031215612dd357600080fd5b85356001600160401b0380821115612dea57600080fd5b818801915088601f830112612dfe57600080fd5b813581811115612e0d57600080fd5b896020828501011115612e1f57600080fd5b6020928301975095505086013592506040860135915060608601358015158114612e4857600080fd5b809150509295509295909350565b634e487b7160e01b600052601160045260246000fd5b8082018082111561294457612944612e56565b600060018201612e9157612e91612e56565b5060010190565b634e487b7160e01b600052603260045260246000fd5b808202811582820484141761294457612944612e56565b600082612ee257634e487b7160e01b600052601260045260246000fd5b500490565b600181811c90821680612efb57607f821691505b60208210810361085957634e487b7160e01b600052602260045260246000fd5b600060208284031215612f2d57600080fd5b5051919050565b6020808252818101527f6869732070726f6a656374204944206973206e6f742072656769737465726564604082015260600190565b60208082526021908201527f546869732070726f6a65637420697320616c72656164792076616c69646174656040820152601960fa1b606082015260800190565b6020808252601c908201527f546869732070726f6a65637420697320616c7265616479205061696400000000604082015260600190565b8181038181111561294457612944612e56565b60a08152600080875461300681612ee7565b8060a086015260c0600180841660008114613028576001811461304257613073565b60ff1985168884015283151560051b880183019550613073565b8c60005260208060002060005b8681101561306a5781548b820187015290840190820161304f565b8a018501975050505b505050505060208301879052604083018690528415156060840152905082151560808301526127a3565b601f82111561253f57600081815260208120601f850160051c810160208610156130c45750805b601f850160051c820191505b818110156109d4578281556001016130d0565b81516001600160401b038111156130fc576130fc612b26565b6131108161310a8454612ee7565b8461309d565b602080601f831160018114613145576000841561312d5750858301515b600019600386901b1c1916600185901b1785556109d4565b600085815260208120601f198616915b8281101561317457888601518255948401946001909101908401613155565b50858210156131925787850151600019600388901b60f8161c191681555b5050505050600190811b01905550565b60a081528560a0820152858760c0830137600060c087830181019190915260208201959095526040810193909352901515606083015215156080820152601f909201601f191690910101919050565b60008251613203818460208701612a8f565b919091019291505056fe360894a13ba1a3210667c828492db98dca3e2076cc3735a920a3ca505d382bbca2646970667358221220754e3e499cf0cb548070eb15ab8a642c64b3914e9801d38aab2e4f2d2e17b70b64736f6c63430008150033",
  "linkReferences": {},
  "deployedLinkReferences": {}
}